{
  "contracts/MyToken.sol": {
    "MyToken": {
      "abi": [
        {
          "inputs": [
            {
              "internalType": "uint256",
              "name": "initialSupply",
              "type": "uint256"
            }
          ],
          "stateMutability": "nonpayable",
          "type": "constructor"
        },
        {
          "inputs": [],
          "name": "AccessControlBadConfirmation",
          "type": "error"
        },
        {
          "inputs": [
            {
              "internalType": "address",
              "name": "account",
              "type": "address"
            },
            {
              "internalType": "bytes32",
              "name": "neededRole",
              "type": "bytes32"
            }
          ],
          "name": "AccessControlUnauthorizedAccount",
          "type": "error"
        },
        {
          "inputs": [
            {
              "internalType": "address",
              "name": "spender",
              "type": "address"
            },
            {
              "internalType": "uint256",
              "name": "allowance",
              "type": "uint256"
            },
            {
              "internalType": "uint256",
              "name": "needed",
              "type": "uint256"
            }
          ],
          "name": "ERC20InsufficientAllowance",
          "type": "error"
        },
        {
          "inputs": [
            {
              "internalType": "address",
              "name": "sender",
              "type": "address"
            },
            {
              "internalType": "uint256",
              "name": "balance",
              "type": "uint256"
            },
            {
              "internalType": "uint256",
              "name": "needed",
              "type": "uint256"
            }
          ],
          "name": "ERC20InsufficientBalance",
          "type": "error"
        },
        {
          "inputs": [
            {
              "internalType": "address",
              "name": "approver",
              "type": "address"
            }
          ],
          "name": "ERC20InvalidApprover",
          "type": "error"
        },
        {
          "inputs": [
            {
              "internalType": "address",
              "name": "receiver",
              "type": "address"
            }
          ],
          "name": "ERC20InvalidReceiver",
          "type": "error"
        },
        {
          "inputs": [
            {
              "internalType": "address",
              "name": "sender",
              "type": "address"
            }
          ],
          "name": "ERC20InvalidSender",
          "type": "error"
        },
        {
          "inputs": [
            {
              "internalType": "address",
              "name": "spender",
              "type": "address"
            }
          ],
          "name": "ERC20InvalidSpender",
          "type": "error"
        },
        {
          "inputs": [],
          "name": "EnforcedPause",
          "type": "error"
        },
        {
          "inputs": [],
          "name": "ExpectedPause",
          "type": "error"
        },
        {
          "anonymous": false,
          "inputs": [
            {
              "indexed": true,
              "internalType": "address",
              "name": "owner",
              "type": "address"
            },
            {
              "indexed": true,
              "internalType": "address",
              "name": "spender",
              "type": "address"
            },
            {
              "indexed": false,
              "internalType": "uint256",
              "name": "value",
              "type": "uint256"
            }
          ],
          "name": "Approval",
          "type": "event"
        },
        {
          "anonymous": false,
          "inputs": [
            {
              "indexed": false,
              "internalType": "address",
              "name": "account",
              "type": "address"
            }
          ],
          "name": "Paused",
          "type": "event"
        },
        {
          "anonymous": false,
          "inputs": [
            {
              "indexed": true,
              "internalType": "bytes32",
              "name": "role",
              "type": "bytes32"
            },
            {
              "indexed": true,
              "internalType": "bytes32",
              "name": "previousAdminRole",
              "type": "bytes32"
            },
            {
              "indexed": true,
              "internalType": "bytes32",
              "name": "newAdminRole",
              "type": "bytes32"
            }
          ],
          "name": "RoleAdminChanged",
          "type": "event"
        },
        {
          "anonymous": false,
          "inputs": [
            {
              "indexed": true,
              "internalType": "bytes32",
              "name": "role",
              "type": "bytes32"
            },
            {
              "indexed": true,
              "internalType": "address",
              "name": "account",
              "type": "address"
            },
            {
              "indexed": true,
              "internalType": "address",
              "name": "sender",
              "type": "address"
            }
          ],
          "name": "RoleGranted",
          "type": "event"
        },
        {
          "anonymous": false,
          "inputs": [
            {
              "indexed": true,
              "internalType": "bytes32",
              "name": "role",
              "type": "bytes32"
            },
            {
              "indexed": true,
              "internalType": "address",
              "name": "account",
              "type": "address"
            },
            {
              "indexed": true,
              "internalType": "address",
              "name": "sender",
              "type": "address"
            }
          ],
          "name": "RoleRevoked",
          "type": "event"
        },
        {
          "anonymous": false,
          "inputs": [
            {
              "indexed": true,
              "internalType": "address",
              "name": "from",
              "type": "address"
            },
            {
              "indexed": true,
              "internalType": "address",
              "name": "to",
              "type": "address"
            },
            {
              "indexed": false,
              "internalType": "uint256",
              "name": "value",
              "type": "uint256"
            }
          ],
          "name": "Transfer",
          "type": "event"
        },
        {
          "anonymous": false,
          "inputs": [
            {
              "indexed": false,
              "internalType": "address",
              "name": "account",
              "type": "address"
            }
          ],
          "name": "Unpaused",
          "type": "event"
        },
        {
          "inputs": [],
          "name": "DEFAULT_ADMIN_ROLE",
          "outputs": [
            {
              "internalType": "bytes32",
              "name": "",
              "type": "bytes32"
            }
          ],
          "stateMutability": "view",
          "type": "function"
        },
        {
          "inputs": [],
          "name": "MINTER_ROLE",
          "outputs": [
            {
              "internalType": "bytes32",
              "name": "",
              "type": "bytes32"
            }
          ],
          "stateMutability": "view",
          "type": "function"
        },
        {
          "inputs": [],
          "name": "PAUSER_ROLE",
          "outputs": [
            {
              "internalType": "bytes32",
              "name": "",
              "type": "bytes32"
            }
          ],
          "stateMutability": "view",
          "type": "function"
        },
        {
          "inputs": [
            {
              "internalType": "address",
              "name": "owner",
              "type": "address"
            },
            {
              "internalType": "address",
              "name": "spender",
              "type": "address"
            }
          ],
          "name": "allowance",
          "outputs": [
            {
              "internalType": "uint256",
              "name": "",
              "type": "uint256"
            }
          ],
          "stateMutability": "view",
          "type": "function"
        },
        {
          "inputs": [
            {
              "internalType": "address",
              "name": "spender",
              "type": "address"
            },
            {
              "internalType": "uint256",
              "name": "value",
              "type": "uint256"
            }
          ],
          "name": "approve",
          "outputs": [
            {
              "internalType": "bool",
              "name": "",
              "type": "bool"
            }
          ],
          "stateMutability": "nonpayable",
          "type": "function"
        },
        {
          "inputs": [
            {
              "internalType": "address",
              "name": "account",
              "type": "address"
            }
          ],
          "name": "balanceOf",
          "outputs": [
            {
              "internalType": "uint256",
              "name": "",
              "type": "uint256"
            }
          ],
          "stateMutability": "view",
          "type": "function"
        },
        {
          "inputs": [
            {
              "internalType": "uint256",
              "name": "value",
              "type": "uint256"
            }
          ],
          "name": "burn",
          "outputs": [],
          "stateMutability": "nonpayable",
          "type": "function"
        },
        {
          "inputs": [
            {
              "internalType": "address",
              "name": "account",
              "type": "address"
            },
            {
              "internalType": "uint256",
              "name": "value",
              "type": "uint256"
            }
          ],
          "name": "burnFrom",
          "outputs": [],
          "stateMutability": "nonpayable",
          "type": "function"
        },
        {
          "inputs": [],
          "name": "decimals",
          "outputs": [
            {
              "internalType": "uint8",
              "name": "",
              "type": "uint8"
            }
          ],
          "stateMutability": "view",
          "type": "function"
        },
        {
          "inputs": [
            {
              "internalType": "bytes32",
              "name": "role",
              "type": "bytes32"
            }
          ],
          "name": "getRoleAdmin",
          "outputs": [
            {
              "internalType": "bytes32",
              "name": "",
              "type": "bytes32"
            }
          ],
          "stateMutability": "view",
          "type": "function"
        },
        {
          "inputs": [
            {
              "internalType": "bytes32",
              "name": "role",
              "type": "bytes32"
            },
            {
              "internalType": "address",
              "name": "account",
              "type": "address"
            }
          ],
          "name": "grantRole",
          "outputs": [],
          "stateMutability": "nonpayable",
          "type": "function"
        },
        {
          "inputs": [
            {
              "internalType": "bytes32",
              "name": "role",
              "type": "bytes32"
            },
            {
              "internalType": "address",
              "name": "account",
              "type": "address"
            }
          ],
          "name": "hasRole",
          "outputs": [
            {
              "internalType": "bool",
              "name": "",
              "type": "bool"
            }
          ],
          "stateMutability": "view",
          "type": "function"
        },
        {
          "inputs": [
            {
              "internalType": "address",
              "name": "to",
              "type": "address"
            },
            {
              "internalType": "uint256",
              "name": "amount",
              "type": "uint256"
            }
          ],
          "name": "mint",
          "outputs": [],
          "stateMutability": "nonpayable",
          "type": "function"
        },
        {
          "inputs": [],
          "name": "mintTest",
          "outputs": [],
          "stateMutability": "payable",
          "type": "function"
        },
        {
          "inputs": [],
          "name": "name",
          "outputs": [
            {
              "internalType": "string",
              "name": "",
              "type": "string"
            }
          ],
          "stateMutability": "view",
          "type": "function"
        },
        {
          "inputs": [],
          "name": "pause",
          "outputs": [],
          "stateMutability": "nonpayable",
          "type": "function"
        },
        {
          "inputs": [],
          "name": "paused",
          "outputs": [
            {
              "internalType": "bool",
              "name": "",
              "type": "bool"
            }
          ],
          "stateMutability": "view",
          "type": "function"
        },
        {
          "inputs": [
            {
              "internalType": "bytes32",
              "name": "role",
              "type": "bytes32"
            },
            {
              "internalType": "address",
              "name": "callerConfirmation",
              "type": "address"
            }
          ],
          "name": "renounceRole",
          "outputs": [],
          "stateMutability": "nonpayable",
          "type": "function"
        },
        {
          "inputs": [
            {
              "internalType": "bytes32",
              "name": "role",
              "type": "bytes32"
            },
            {
              "internalType": "address",
              "name": "account",
              "type": "address"
            }
          ],
          "name": "revokeRole",
          "outputs": [],
          "stateMutability": "nonpayable",
          "type": "function"
        },
        {
          "inputs": [
            {
              "internalType": "bytes4",
              "name": "interfaceId",
              "type": "bytes4"
            }
          ],
          "name": "supportsInterface",
          "outputs": [
            {
              "internalType": "bool",
              "name": "",
              "type": "bool"
            }
          ],
          "stateMutability": "view",
          "type": "function"
        },
        {
          "inputs": [],
          "name": "symbol",
          "outputs": [
            {
              "internalType": "string",
              "name": "",
              "type": "string"
            }
          ],
          "stateMutability": "view",
          "type": "function"
        },
        {
          "inputs": [],
          "name": "totalSupply",
          "outputs": [
            {
              "internalType": "uint256",
              "name": "",
              "type": "uint256"
            }
          ],
          "stateMutability": "view",
          "type": "function"
        },
        {
          "inputs": [
            {
              "internalType": "address",
              "name": "to",
              "type": "address"
            },
            {
              "internalType": "uint256",
              "name": "value",
              "type": "uint256"
            }
          ],
          "name": "transfer",
          "outputs": [
            {
              "internalType": "bool",
              "name": "",
              "type": "bool"
            }
          ],
          "stateMutability": "nonpayable",
          "type": "function"
        },
        {
          "inputs": [
            {
              "internalType": "address",
              "name": "from",
              "type": "address"
            },
            {
              "internalType": "address",
              "name": "to",
              "type": "address"
            },
            {
              "internalType": "uint256",
              "name": "value",
              "type": "uint256"
            }
          ],
          "name": "transferFrom",
          "outputs": [
            {
              "internalType": "bool",
              "name": "",
              "type": "bool"
            }
          ],
          "stateMutability": "nonpayable",
          "type": "function"
        },
        {
          "inputs": [],
          "name": "unpause",
          "outputs": [],
          "stateMutability": "nonpayable",
          "type": "function"
        }
      ],
      "storageLayout": {
        "storage": [
          {
            "astId": 538,
            "contract": "contracts/MyToken.sol:MyToken",
            "label": "_balances",
            "offset": 0,
            "slot": "0",
            "type": "t_mapping(t_address,t_uint256)"
          },
          {
            "astId": 544,
            "contract": "contracts/MyToken.sol:MyToken",
            "label": "_allowances",
            "offset": 0,
            "slot": "1",
            "type": "t_mapping(t_address,t_mapping(t_address,t_uint256))"
          },
          {
            "astId": 546,
            "contract": "contracts/MyToken.sol:MyToken",
            "label": "_totalSupply",
            "offset": 0,
            "slot": "2",
            "type": "t_uint256"
          },
          {
            "astId": 548,
            "contract": "contracts/MyToken.sol:MyToken",
            "label": "_name",
            "offset": 0,
            "slot": "3",
            "type": "t_string_storage"
          },
          {
            "astId": 550,
            "contract": "contracts/MyToken.sol:MyToken",
            "label": "_symbol",
            "offset": 0,
            "slot": "4",
            "type": "t_string_storage"
          },
          {
            "astId": 1219,
            "contract": "contracts/MyToken.sol:MyToken",
            "label": "_paused",
            "offset": 0,
            "slot": "5",
            "type": "t_bool"
          },
          {
            "astId": 26,
            "contract": "contracts/MyToken.sol:MyToken",
            "label": "_roles",
            "offset": 0,
            "slot": "6",
            "type": "t_mapping(t_bytes32,t_struct(RoleData)21_storage)"
          }
        ],
        "types": {
          "t_address": {
            "encoding": "inplace",
            "label": "address",
            "numberOfBytes": "20"
          },
          "t_bool": {
            "encoding": "inplace",
            "label": "bool",
            "numberOfBytes": "1"
          },
          "t_bytes32": {
            "encoding": "inplace",
            "label": "bytes32",
            "numberOfBytes": "32"
          },
          "t_mapping(t_address,t_bool)": {
            "encoding": "mapping",
            "key": "t_address",
            "label": "mapping(address => bool)",
            "numberOfBytes": "32",
            "value": "t_bool"
          },
          "t_mapping(t_address,t_mapping(t_address,t_uint256))": {
            "encoding": "mapping",
            "key": "t_address",
            "label": "mapping(address => mapping(address => uint256))",
            "numberOfBytes": "32",
            "value": "t_mapping(t_address,t_uint256)"
          },
          "t_mapping(t_address,t_uint256)": {
            "encoding": "mapping",
            "key": "t_address",
            "label": "mapping(address => uint256)",
            "numberOfBytes": "32",
            "value": "t_uint256"
          },
          "t_mapping(t_bytes32,t_struct(RoleData)21_storage)": {
            "encoding": "mapping",
            "key": "t_bytes32",
            "label": "mapping(bytes32 => struct AccessControl.RoleData)",
            "numberOfBytes": "32",
            "value": "t_struct(RoleData)21_storage"
          },
          "t_string_storage": {
            "encoding": "bytes",
            "label": "string",
            "numberOfBytes": "32"
          },
          "t_struct(RoleData)21_storage": {
            "encoding": "inplace",
            "label": "struct AccessControl.RoleData",
            "members": [
              {
                "astId": 18,
                "contract": "contracts/MyToken.sol:MyToken",
                "label": "hasRole",
                "offset": 0,
                "slot": "0",
                "type": "t_mapping(t_address,t_bool)"
              },
              {
                "astId": 20,
                "contract": "contracts/MyToken.sol:MyToken",
                "label": "adminRole",
                "offset": 0,
                "slot": "1",
                "type": "t_bytes32"
              }
            ],
            "numberOfBytes": "64"
          },
          "t_uint256": {
            "encoding": "inplace",
            "label": "uint256",
            "numberOfBytes": "32"
          }
        }
      },
      "evm": {
        "assembly": "// RO data = 0/0 bytes\n// RW data = 616/66208 bytes\n// Stack size = 32768 bytes\n\n// Instructions = 9416\n// Code size = 32801 bytes\n\n      : @0 (gas: 1)\n     0: jump @14 if a0 == a1\n      : @1 (gas: 9)\n     3: a3 = a1 << 0x20\n     6: a3 = a3 >> 0x20\n     9: a4 = a0 << 0x20\n    12: a4 = a4 >> 0x20\n    15: a4 = a4 + a2\n    18: a3 = a3 - a4\n    21: a4 = a2 << 0x1\n    24: a4 = -a4\n    26: jump @7 if a4 >=u a3\n      : @2 (gas: 1)\n    29: jump @11 if a0 >=u a1\n      : @3 (gas: 1)\n    32: jump @14 if a2 == 0\n      : @4 (gas: 3)\n    35: a2 = a2 + a0\n    38: a3 = a0\n    40: fallthrough\n      : @5 (gas: 6)\n    41: a4 = u8 [a1]\n    43: a1 = a1 + 0x1\n    46: a5 = a3 + 0x1\n    49: u8 [a3] = a4\n    51: a3 = a5\n    53: jump @5 if a5 != a2\n      : @6 (gas: 1)\n    56: jump @14\n      : @7 (gas: 1)\n    58: jump @14 if a2 == 0\n      : @8 (gas: 3)\n    61: a2 = a2 + a0\n    64: a3 = a0\n    66: fallthrough\n      : @9 (gas: 6)\n    67: a4 = u8 [a1]\n    69: a1 = a1 + 0x1\n    72: a5 = a3 + 0x1\n    75: u8 [a3] = a4\n    77: a3 = a5\n    79: jump @9 if a5 != a2\n      : @10 (gas: 1)\n    82: jump @14\n      : @11 (gas: 1)\n    84: jump @14 if a2 == 0\n      : @12 (gas: 2)\n    87: i32 a3 = a2 + 0xffffffffffffffff\n    90: fallthrough\n      : @13 (gas: 7)\n    91: a4 = a1 + a3\n    94: a4 = u8 [a4]\n    96: a2 = a2 + 0xffffffffffffffff\n    99: a5 = a0 + a3\n   102: u8 [a5] = a4\n   104: i32 a3 = a3 + 0xffffffffffffffff\n   107: jump @13 if a2 != 0\n      : @14 (gas: 1)\n   110: ret\n      : @15 (gas: 6)\n   112: sp = sp + 0xfffffffffffffff0\n   115: u64 [sp + 0x8] = ra\n   118: u64 [sp] = s0\n   120: s0 = a0 & 0x1\n   123: ecalli 2 // 'call_data_size'\n   125: fallthrough\n      : @16 (gas: 2)\n   126: u32 [0x20268] = a0\n   131: jump @18 if s0 == 0\n      : @17 (gas: 1)\n   134: ra = 2, jump @19\n      : @18 [@dyn 1] (gas: 20)\n   138: ra = 0x4\n   141: sp = sp + 0xfffffffffffff808\n   145: a0 = sp + 0x700\n   149: u64 [a0 + 0xf0] = ra\n   153: u64 [a0 + 0xe8] = s0\n   157: u64 [a0 + 0xe0] = s1\n   161: s0 = sp + 0x7f8\n   165: sp = sp + 0xfffffffffffff800\n   169: sp = sp + 0xfffffffffffffab8\n   173: sp = sp & 0xffffffffffffffe0\n   176: s1 = sp\n   178: a2 = s1 + 0x1038\n   182: u64 [a2 + 1248] = 0\n   186: u64 [a2 + 1240] = 0\n   190: u64 [a2 + 1224] = 0x80\n   196: a0 = 0x40\n   199: a1 = s1 + 0x1500\n   203: u64 [a2 + 1232] = 0\n   207: ra = 0x10e\n   211: jump @1429\n      : @19 [@dyn 2] (gas: 20)\n   214: sp = sp + 0xfffffffffffffe10\n   218: u64 [sp + 0x1e8] = ra\n   222: u64 [sp + 0x1e0] = s0\n   226: u64 [sp + 0x1d8] = s1\n   230: s0 = sp + 0x1f0\n   234: sp = sp + 0xfffffffffffff990\n   238: sp = sp & 0xffffffffffffffe0\n   241: s1 = sp\n   243: a0 = s1 + 0x1000\n   247: u64 [a0 + 4294965272] = 0\n   251: a0 = s1 + 0x1000\n   255: u64 [a0 + 4294965264] = 0\n   259: a1 = s1 + 0x1000\n   263: u64 [a1 + 4294965248] = 0x80\n   269: a0 = 0x40\n   272: a1 = s1 + 0x7ff\n   276: a1 = a1 + 0x1\n   279: a2 = s1 + 0x1000\n   283: u64 [a2 + 4294965256] = 0\n   287: ra = 6, jump @1429\n      : @20 [@dyn 3] (gas: 12)\n   292: a0 = s1 + 0x1000\n   296: u64 [a0 + 4294965304] = 0\n   300: a0 = s1 + 0x1000\n   304: u64 [a0 + 4294965296] = 0\n   308: a0 = s1 + 0x1000\n   312: u64 [a0 + 4294965288] = 0\n   316: a0 = s1 + 0x1000\n   320: u64 [a0 + 4294965280] = 0\n   324: a0 = s1 + 0x1000\n   328: i32 a0 = a0 + 0xfffffffffffff820\n   332: ecalli 10 // 'value_transferred'\n   334: fallthrough\n      : @21 (gas: 12)\n   335: a0 = s1 + 0x1000\n   339: a0 = u64 [a0 + 0xfffffffffffff830]\n   343: a1 = s1 + 0x1000\n   347: a1 = u64 [a1 + 0xfffffffffffff838]\n   351: a2 = s1 + 0x1000\n   355: a2 = u64 [a2 + 0xfffffffffffff828]\n   359: a3 = s1 + 0x1000\n   363: a3 = u64 [a3 + 0xfffffffffffff820]\n   367: a1 = a1 | a2\n   370: a0 = a0 | a3\n   373: a0 = a0 | a1\n   376: jump @23 if a0 == 0\n      : @22 (gas: 1)\n   379: jump @198\n      : @23 (gas: 9)\n   382: a2 = u32 [0x20268]\n   387: u64 [s1 + 2008] = 0\n   391: u64 [s1 + 2000] = 0\n   395: u64 [s1 + 1992] = 0\n   399: a0 = s1 + 0x7e0\n   403: a1 = s1 + 0x7c0\n   407: u64 [s1 + 0x118] = a2\n   411: u64 [s1 + 0x7c0] = a2\n   415: ra = 8, jump @879\n      : @24 [@dyn 4] (gas: 6)\n   420: a4 = s1 + 0x700\n   424: a3 = u64 [a4 + 0xf8]\n   428: a1 = u64 [a4 + 0xf0]\n   432: a2 = u64 [a4 + 0xe8]\n   436: a0 = u64 [a4 + 0xe0]\n   440: t0 = 10, jump @1368\n      : @25 [@dyn 5] (gas: 1)\n   445: jump @27 if a1 == 0\n      : @26 (gas: 1)\n   448: jump @197\n      : @27 (gas: 3)\n   451: u64 [s1 + 0x110] = a0\n   455: a1 = u64 [s1 + 0x118]\n   459: ra = 12, jump @1439\n      : @28 [@dyn 6] (gas: 5)\n   464: i32 a0 = a0 + 0\n   466: a1 = i32 [s1 + 0x118]\n   470: a2 = 0\n   472: ecalli 0 // 'call_data_copy'\n   473: fallthrough\n      : @29 (gas: 2)\n   474: a1 = u64 [s1 + 0x118]\n   478: jump @31 if a1 >u 31\n      : @30 (gas: 1)\n   482: jump @199\n      : @31 (gas: 3)\n   485: a0 = s1 + 0x7a0\n   489: a1 = u64 [s1 + 0x110]\n   493: ra = 14, jump @1427\n      : @32 [@dyn 7] (gas: 15)\n   498: a0 = u64 [s1 + 0x7b8]\n   502: u64 [s1 + 0x80] = a0\n   506: a0 = u64 [s1 + 0x7b0]\n   510: u64 [s1 + 0x78] = a0\n   513: a0 = u64 [s1 + 0x7a8]\n   517: u64 [s1 + 0x70] = a0\n   520: a0 = u64 [s1 + 0x7a0]\n   524: u64 [s1 + 0x68] = a0\n   527: u64 [s1 + 1912] = 0\n   531: u64 [s1 + 1904] = 0\n   535: u64 [s1 + 1888] = 0x40\n   540: a0 = s1 + 0x780\n   544: a1 = s1 + 0x760\n   548: u64 [s1 + 1896] = 0\n   552: ra = 16, jump @879\n      : @33 [@dyn 8] (gas: 13)\n   557: a1 = s1 + 0x700\n   561: a2 = u64 [a1 + 0x98]\n   565: a3 = u64 [a1 + 0x90]\n   569: a4 = u64 [a1 + 0x88]\n   573: a0 = u64 [a1 + 0x80]\n   577: a5 = a4 | a2\n   580: a1 = a0 | a3\n   583: a1 = a1 | a5\n   586: a1 = a1 >> 0x20\n   589: a5 = a5 | a3\n   592: a5 = a5 << 0x20\n   595: a1 = a1 | a5\n   598: jump @35 if a1 == 0\n      : @34 (gas: 1)\n   601: jump @197\n      : @35 (gas: 11)\n   604: u64 [s1 + 1880] = 0\n   608: u64 [s1 + 1872] = 0\n   612: u64 [s1 + 1864] = 0\n   616: a5 = 0x7\n   619: a1 = s1 + 0x740\n   623: u64 [s1 + 0x740] = a5\n   627: u64 [s1 + 0xc8] = a2\n   631: u64 [s1 + 0xc0] = a3\n   635: u64 [s1 + 0xb8] = a4\n   639: u64 [s1 + 0xd0] = a0\n   643: ra = 18, jump @1429\n      : @36 [@dyn 9] (gas: 10)\n   648: a3 = u64 [s1 + 0xd0]\n   652: a0 = u64 [s1 + 0xc8]\n   656: a1 = u64 [s1 + 0xc0]\n   660: a0 = a0 | a1\n   663: a1 = 0xffffffe0\n   673: a1 = a3 <u a1\n   676: a2 = u64 [s1 + 0xb8]\n   680: a1 = 0 if a2 != 0\n   682: a1 = 0 if a0 != 0\n   684: jump @38 if a1 != 0\n      : @37 (gas: 1)\n   687: jump @197\n      : @38 (gas: 9)\n   690: i32 a0 = a3 + 0x20\n   693: u64 [s1 + 1840] = 0\n   697: a2 = u64 [0x20000]\n   702: u64 [s1 + 1832] = 0\n   706: u64 [s1 + 1824] = 0\n   710: a1 = s1 + 0x720\n   714: u64 [s1 + 0x738] = a2\n   718: u64 [s1 + 0xf0] = a0\n   722: ra = 20, jump @1429\n      : @39 [@dyn 10] (gas: 7)\n   727: u64 [s1 + 1784] = 0\n   731: u64 [s1 + 1776] = 0\n   735: u64 [s1 + 1760] = 0x40\n   740: a0 = s1 + 0x700\n   744: a1 = s1 + 0x6e0\n   748: u64 [s1 + 1768] = 0\n   752: ra = 22, jump @879\n      : @40 [@dyn 11] (gas: 13)\n   757: a1 = s1 + 0x700\n   761: a5 = u64 [a1 + 0x18]\n   764: a2 = u64 [a1 + 0x10]\n   767: a3 = u64 [a1 + 0x8]\n   770: a0 = u64 [a1]\n   772: a4 = a3 | a5\n   775: a1 = a0 | a2\n   778: a1 = a1 | a4\n   781: a1 = a1 >> 0x20\n   784: a4 = a4 | a2\n   787: a4 = a4 << 0x20\n   790: a1 = a1 | a4\n   793: jump @42 if a1 == 0\n      : @41 (gas: 1)\n   796: jump @197\n      : @42 (gas: 11)\n   799: u64 [s1 + 1752] = 0\n   803: u64 [s1 + 1744] = 0\n   807: u64 [s1 + 1736] = 0\n   811: a4 = 0x3\n   814: a1 = s1 + 0x6c0\n   818: u64 [s1 + 0x6c0] = a4\n   822: u64 [s1 + 0x98] = a2\n   826: u64 [s1 + 0x90] = a3\n   830: u64 [s1 + 0xa0] = a0\n   834: u64 [s1 + 0x88] = a5\n   838: ra = 24, jump @1429\n      : @43 [@dyn 12] (gas: 10)\n   843: a3 = u64 [s1 + 0xa0]\n   847: a0 = u64 [s1 + 0x98]\n   851: a1 = u64 [s1 + 0x88]\n   855: a0 = a0 | a1\n   858: a1 = 0xffffffe0\n   868: a1 = a3 <u a1\n   871: a2 = u64 [s1 + 0x90]\n   875: a1 = 0 if a2 != 0\n   877: a1 = 0 if a0 != 0\n   879: jump @45 if a1 != 0\n      : @44 (gas: 1)\n   882: jump @197\n      : @45 (gas: 9)\n   885: i32 a0 = a3 + 0x20\n   888: u64 [s1 + 1712] = 0\n   892: u64 [s1 + 1704] = 0\n   896: u64 [s1 + 1696] = 0\n   900: a2 = 0x4d544b0000000000\n   910: a1 = s1 + 0x6a0\n   914: u64 [s1 + 0x6b8] = a2\n   918: u64 [s1 + 0x18] = a0\n   921: ra = 26, jump @1429\n      : @46 [@dyn 13] (gas: 3)\n   926: a0 = s1 + 0x680\n   930: a1 = u64 [s1 + 0xd0]\n   934: ra = 28, jump @1427\n      : @47 [@dyn 14] (gas: 17)\n   939: a0 = s1 + 0x600\n   943: a2 = u64 [a0 + 0x98]\n   947: a1 = u64 [a0 + 0x90]\n   951: a3 = u64 [a0 + 0x88]\n   955: a0 = a2 >u 0\n   957: a4 = a1 >u 0\n   959: a4 = a0 if a2 != 0\n   962: u64 [s1 + 0xe0] = a3\n   966: a0 = a3 >u 0\n   968: u64 [s1 + 0x58] = a1\n   971: u64 [s1 + 0xe8] = a2\n   975: a1 = a1 | a2\n   978: u64 [s1 + 0x50] = a0\n   981: u64 [s1 + 0xa8] = a4\n   985: u64 [s1 + 0xd8] = a1\n   989: a0 = a4 if a1 != 0\n   992: jump @49 if a0 == 0\n      : @48 (gas: 1)\n   995: jump @201\n      : @49 (gas: 3)\n   998: a0 = u64 [s1 + 0x680]\n  1002: u64 [s1 + 0x60] = a0\n  1005: t0 = 30, jump @1415\n      : @50 [@dyn 15] (gas: 2)\n  1010: a0 = s1 + 0x660\n  1014: ra = 32, jump @1431\n      : @51 [@dyn 16] (gas: 6)\n  1019: a4 = s1 + 0x600\n  1023: a0 = u64 [a4 + 0x70]\n  1026: a1 = u64 [a4 + 0x68]\n  1029: a2 = u64 [a4 + 0x60]\n  1032: a3 = u64 [a4 + 0x78]\n  1035: t0 = 34, jump @1381\n      : @52 [@dyn 17] (gas: 12)\n  1040: t0 = a2 <u 0x1\n  1043: ra = a1 & 0x7f\n  1046: t2 = a5 & a0\n  1049: a4 = a5 & t1\n  1052: ra = a1 if a2 != 0\n  1055: a1 = ra <u 0x20\n  1058: a5 = a5 & a3\n  1061: a2 = a1\n  1063: a2 = 0 if a4 != 0\n  1065: a0 = t2 | a5\n  1068: a2 = 0 if a0 != 0\n  1070: jump @54 if t0 == a2\n      : @53 (gas: 1)\n  1073: jump @208\n      : @54 (gas: 1)\n  1076: t0 = 36, jump @1392\n      : @55 [@dyn 18] (gas: 4)\n  1081: a0 = u64 [s1 + 0x60]\n  1084: a0 = a0 <u 0x20\n  1087: u64 [s1 + 0xb0] = a0\n  1091: jump @65 if a3 == 0\n      : @56 (gas: 11)\n  1095: u64 [s1 + 0x110] = a4\n  1099: u64 [s1 + 0x118] = ra\n  1103: u64 [s1 + 0xf8] = a5\n  1107: u64 [s1 + 0x108] = t2\n  1111: u64 [s1 + 1624] = 0\n  1115: u64 [s1 + 1616] = 0\n  1119: u64 [s1 + 1608] = 0\n  1123: a1 = s1 + 0x640\n  1127: u64 [s1 + 1600] = 0x3\n  1132: a0 = 0\n  1134: ra = 38, jump @1429\n      : @57 [@dyn 19] (gas: 2)\n  1139: a1 = i32 [0x2026c]\n  1144: jump @59 if a1 >u 31\n      : @58 (gas: 4)\n  1148: a1 = 0x20\n  1151: u32 [0x2026c] = a1\n  1156: t0 = 0x28\n  1159: jump @1422\n      : @59 (gas: 1)\n  1162: t0 = 40, jump @1422\n      : @60 [@dyn 20] (gas: 114)\n  1167: a0 = 0x20280\n  1172: i32 a0 = a0 + 0\n  1174: i32 a2 = a2 + 0\n  1176: a1 = 0x20\n  1179: ecalli 6 // 'hash_keccak_256'\n  1181: a1 = u64 [s1 + 0x60]\n  1184: a0 = a1 + 0x1f\n  1187: a1 = a0 <u a1\n  1190: a4 = u64 [s1 + 0xe0]\n  1194: a2 = a4 + a1\n  1197: t0 = a2 <u a4\n  1200: t0 = a1 if a1 == 0\n  1203: a1 = u64 [s1 + 0x58]\n  1206: a1 = a1 + t0\n  1209: u64 [s1 + 0x48] = a1\n  1212: a1 = a1 << 0x3b\n  1215: a3 = a2 >> 0x5\n  1218: a5 = a3 | a1\n  1221: a1 = u64 [s1 + 0x100]\n  1225: t0 = u64 [a1 + 0x18]\n  1228: a2 = a2 << 0x3b\n  1231: a1 = u64 [a1 + 0x10]\n  1234: a0 = a0 >> 0x5\n  1237: a0 = a0 | a2\n  1240: ra = reverse t0\n  1242: t2 = reverse a1\n  1244: a3 = u64 [s1 + 0xb0]\n  1248: a3 = 0 if a4 != 0\n  1250: a1 = u64 [s1 + 0xd8]\n  1254: a3 = 0 if a1 != 0\n  1256: a5 = 0 if a3 != 0\n  1258: a0 = 0 if a3 != 0\n  1260: t0 = ra + a0\n  1263: a2 = t0 <u ra\n  1266: a1 = t2 + a2\n  1269: a1 = a1 + a5\n  1272: a5 = a1 ^ t2\n  1275: a0 = a1 <u t2\n  1278: a0 = a2 if a5 == 0\n  1281: u64 [s1 + 0x40] = a0\n  1284: a2 = u64 [s1 + 0x118]\n  1288: a0 = a2 + 0x1f\n  1291: a5 = a0 <u a2\n  1294: a2 = u64 [s1 + 0x110]\n  1298: a4 = a2 + a5\n  1301: t1 = a4 <u a2\n  1304: t1 = a5 if a5 == 0\n  1307: a2 = u64 [s1 + 0x108]\n  1311: a2 = a2 + t1\n  1314: u64 [s1 + 0x30] = a2\n  1317: a5 = a2 << 0x3b\n  1320: a2 = a4 >> 0x5\n  1323: a2 = a2 | a5\n  1326: a4 = a4 << 0x3b\n  1329: a5 = a0 >> 0x5\n  1332: a4 = a4 | a5\n  1335: a4 = a4 + ra\n  1338: u64 [s1 + 0x118] = a4\n  1342: a5 = a4 <u ra\n  1345: a4 = t2 + a5\n  1348: a4 = a4 + a2\n  1351: a2 = a4 ^ t2\n  1354: u64 [s1 + 0x110] = a4\n  1358: a0 = a4 <u t2\n  1361: a0 = a5 if a2 == 0\n  1364: u64 [s1 + 0x38] = a0\n  1367: a5 = u64 [s1 + 0x48]\n  1370: a0 = u64 [s1 + 0x58]\n  1373: a2 = a5 <u a0\n  1376: a4 = u64 [s1 + 0xe8]\n  1380: a4 = a4 + a2\n  1383: a5 = a5 >> 0x5\n  1386: a2 = a4 << 0x3b\n  1389: a2 = a2 | a5\n  1392: a0 = u64 [s1 + 0x100]\n  1396: t2 = u64 [a0]\n  1398: a5 = u64 [a0 + 0x8]\n  1401: a4 = a4 >> 0x5\n  1404: a2 = 0 if a3 != 0\n  1406: a4 = 0 if a3 != 0\n  1408: a5 = reverse a5\n  1410: a0 = reverse t2\n  1412: a4 = a4 + a0\n  1415: a3 = a5 + a2\n  1418: a2 = a3 <u a5\n  1421: a4 = a4 + a2\n  1424: t1 = u64 [s1 + 0x40]\n  1427: t1 = t1 + a3\n  1430: a3 = t1 <u a3\n  1433: t2 = a4 + a3\n  1436: a2 = u64 [s1 + 0x30]\n  1439: a3 = u64 [s1 + 0x108]\n  1443: a4 = a2 <u a3\n  1446: ra = u64 [s1 + 0xf8]\n  1450: ra = ra + a4\n  1453: a2 = a2 >> 0x5\n  1456: a4 = ra << 0x3b\n  1459: a2 = a2 | a4\n  1462: a4 = ra >> 0x5\n  1465: a4 = a4 + a0\n  1468: a2 = a2 + a5\n  1471: a5 = a2 <u a5\n  1474: a4 = a4 + a5\n  1477: a0 = u64 [s1 + 0x38]\n  1480: a0 = a0 + a2\n  1483: u64 [s1 + 0x108] = a0\n  1487: a5 = a0 <u a2\n  1490: a4 = a4 + a5\n  1493: u64 [s1 + 0x100] = a4\n  1497: a4 = sp + 0xffffffffffffffe0\n  1500: a0 = a4 & 0xffffffffffffffe0\n  1503: sp = a0\n  1505: u64 [s1 + 0xf8] = a0\n  1509: fallthrough\n      : @61 (gas: 5)\n  1510: u64 [a0] = t0\n  1512: u64 [a0 + 0x8] = a1\n  1515: a4 = u64 [s1 + 0x118]\n  1519: a3 = t0 <u a4\n  1522: t0 = 42, jump @1366\n      : @62 [@dyn 21] (gas: 1)\n  1527: jump @65 if a5 == 0\n      : @63 (gas: 8)\n  1530: a1 = sp + 0xffffffffffffffe0\n  1533: a1 = a1 & 0xffffffffffffffe0\n  1536: sp = a1\n  1538: u64 [a1 + 24] = 0\n  1541: u64 [a1 + 16] = 0\n  1544: u64 [a1 + 8] = 0\n  1547: u64 [a1 + 0] = 0\n  1549: ra = 44, jump @1432\n      : @64 [@dyn 22] (gas: 14)\n  1554: a0 = u64 [s1 + 0xf8]\n  1558: t0 = u64 [a0]\n  1560: a3 = u64 [a0 + 0x18]\n  1563: a1 = u64 [a0 + 0x8]\n  1566: a4 = u64 [a0 + 0x10]\n  1569: t0 = t0 + 0x1\n  1572: a2 = t0 <u 0x1\n  1575: a1 = a1 + a2\n  1578: a2 = t0 | a1\n  1581: a2 = a2 <u 0x1\n  1584: t1 = a4 + a2\n  1587: a4 = t1 <u a4\n  1590: t2 = a3 + a4\n  1593: jump @61\n      : @65 (gas: 26)\n  1595: a0 = u64 [s1 + 0xb0]\n  1599: a0 = a0 ^ 0x1\n  1602: a1 = u64 [s1 + 0xe0]\n  1606: a2 = u64 [s1 + 0x50]\n  1609: a0 = a2 if a1 != 0\n  1612: a2 = u64 [s1 + 0xa8]\n  1616: a3 = u64 [s1 + 0xd8]\n  1620: a0 = a2 if a3 != 0\n  1623: a5 = u64 [s1 + 0xe8]\n  1627: t0 = a1 | a5\n  1630: a3 = u64 [s1 + 0x60]\n  1633: a2 = a3 >> 0x3f\n  1636: u64 [s1 + 0x50] = a2\n  1639: t2 = a1 << 0x1\n  1642: ra = a1 >> 0x3f\n  1645: a1 = u64 [s1 + 0x58]\n  1648: a4 = a1 << 0x1\n  1651: t1 = a1 >> 0x3f\n  1654: a5 = a5 << 0x1\n  1657: a2 = a3 << 0x1\n  1660: u64 [s1 + 0x40] = a2\n  1663: u64 [s1 + 0x38] = t2\n  1666: u64 [s1 + 0x30] = ra\n  1669: u64 [s1 + 0x28] = a4\n  1672: u64 [s1 + 0x48] = t1\n  1675: jump @78 if a0 == 0\n      : @66 (gas: 11)\n  1679: u64 [s1 + 0xa8] = t0\n  1683: u64 [s1 + 0x20] = a5\n  1686: a3 = a3 & 0xffffffffffffffe0\n  1689: u64 [s1 + 0xb0] = a3\n  1693: u64 [s1 + 1560] = 0\n  1697: u64 [s1 + 1552] = 0\n  1701: u64 [s1 + 1544] = 0\n  1705: a1 = s1 + 0x600\n  1709: u64 [s1 + 1536] = 0x3\n  1714: a0 = 0\n  1716: ra = 46, jump @1429\n      : @67 [@dyn 23] (gas: 7)\n  1721: a0 = sp + 0xffffffffffffffe0\n  1724: a0 = a0 & 0xffffffffffffffe0\n  1727: u64 [s1 + 0x108] = a0\n  1731: sp = a0\n  1733: a1 = 0x20\n  1736: a0 = 0\n  1738: ra = 48, jump @1439\n      : @68 [@dyn 24] (gas: 32)\n  1743: a1 = sp + 0xffffffffffffffe0\n  1746: a1 = a1 & 0xffffffffffffffe0\n  1749: u64 [s1 + 0x100] = a1\n  1753: sp = a1\n  1755: i32 a0 = a0 + 0\n  1757: i32 a2 = a1 + 0\n  1759: a1 = 0x20\n  1762: ecalli 6 // 'hash_keccak_256'\n  1764: u64 [s1 + 280] = 0x20\n  1769: a4 = u64 [s1 + 0x100]\n  1773: a0 = u64 [a4]\n  1775: t0 = 0\n  1777: t1 = 0\n  1779: t2 = 0\n  1781: a3 = 0\n  1783: u64 [s1 + 272] = 0\n  1787: ra = 0\n  1789: a5 = 0\n  1791: a1 = u64 [a4 + 0x8]\n  1794: a0 = reverse a0\n  1796: a2 = u64 [s1 + 0x108]\n  1800: u64 [a2 + 0x18] = a0\n  1803: a0 = u64 [a4 + 0x10]\n  1806: a4 = u64 [a4 + 0x18]\n  1809: a1 = reverse a1\n  1811: u64 [a2 + 0x10] = a1\n  1814: a1 = u64 [s1 + 0x110]\n  1818: a0 = reverse a0\n  1820: u64 [a2 + 0x8] = a0\n  1823: a0 = reverse a4\n  1825: u64 [a2] = a0\n  1827: fallthrough\n      : @69 (gas: 22)\n  1828: a0 = u64 [s1 + 0xb0]\n  1832: u64 [s1 + 0xe8] = a3\n  1836: a0 = a3 <u a0\n  1839: a4 = a0 ^ 0x1\n  1842: u64 [s1 + 0x110] = a1\n  1846: a4 = 0x1 if a1 != 0\n  1849: a0 = ra | a5\n  1852: a4 = 0x1 if a0 != 0\n  1855: a1 = u64 [s1 + 0xd0]\n  1859: a0 = u64 [s1 + 0x118]\n  1863: a1 = a1 + a0\n  1866: a3 = u64 [s1 + 0xb8]\n  1870: a3 = a3 + t0\n  1873: a2 = u64 [s1 + 0xc0]\n  1877: a2 = a2 + t1\n  1880: a0 = u64 [s1 + 0xc8]\n  1884: u64 [s1 + 0xf0] = t2\n  1888: t2 = t2 + a0\n  1891: a0 = u64 [s1 + 0xa8]\n  1895: u64 [s1 + 0x100] = t1\n  1899: u64 [s1 + 0xf8] = t0\n  1903: jump @80 if a4 != 0\n      : @70 (gas: 12)\n  1907: u64 [s1 + 0xe0] = a5\n  1911: a0 = u64 [s1 + 0x118]\n  1915: a4 = a1 <u a0\n  1918: a3 = a3 + a4\n  1921: a0 = t0\n  1923: t0 = a3 ^ t0\n  1926: a5 = a3 <u a0\n  1929: a5 = a4 if t0 == 0\n  1932: a5 = a5 + a2\n  1935: a4 = a5 <u a2\n  1938: a2 = a2 <u t1\n  1941: t0 = 50, jump @1411\n      : @71 [@dyn 25] (gas: 1)\n  1946: jump @73 if a0 == 0\n      : @72 (gas: 1)\n  1949: jump @197\n      : @73 (gas: 3)\n  1952: a0 = s1 + 0x1a0\n  1956: u64 [s1 + 0xd8] = ra\n  1960: ra = 52, jump @1427\n      : @74 [@dyn 26] (gas: 5)\n  1965: a0 = u64 [s1 + 0x1a0]\n  1969: a2 = u64 [s1 + 0x1a8]\n  1973: a3 = u64 [s1 + 0x1b0]\n  1977: a4 = u64 [s1 + 0x1b8]\n  1981: t0 = 54, jump @1412\n      : @75 [@dyn 27] (gas: 1)\n  1986: ra = 56, jump @1432\n      : @76 [@dyn 28] (gas: 2)\n  1991: a5 = u64 [s1 + 0x108]\n  1995: t0 = 58, jump @1379\n      : @77 [@dyn 29] (gas: 32)\n  2000: a5 = s1 + 0x100\n  2004: a0 = u64 [a5 + 0x18]\n  2007: t0 = a0 + 0x20\n  2010: a1 = t0 <u a0\n  2013: a0 = u64 [s1 + 0xf8]\n  2017: a2 = a0 + a1\n  2020: a3 = a2 <u a0\n  2023: a3 = a1 if a1 == 0\n  2026: a0 = u64 [a5]\n  2028: a3 = a3 + a0\n  2031: a1 = a3 <u a0\n  2034: t2 = u64 [s1 + 0xf0]\n  2038: t2 = t2 + a1\n  2041: a0 = u64 [s1 + 0xe8]\n  2045: a1 = a0 + 0x20\n  2048: a4 = a1 <u a0\n  2051: a0 = u64 [a5 + 0x10]\n  2054: ra = a0 + a4\n  2057: a0 = ra <u a0\n  2060: a0 = a4 if a4 == 0\n  2063: a4 = u64 [s1 + 0xd8]\n  2067: a0 = a0 + a4\n  2070: a4 = a0 <u a4\n  2073: a5 = u64 [s1 + 0xe0]\n  2077: a5 = a5 + a4\n  2080: u64 [s1 + 0x118] = t0\n  2084: t0 = a2\n  2086: t1 = a3\n  2088: a3 = a1\n  2090: a1 = ra\n  2092: ra = a0\n  2094: jump @69\n      : @78 (gas: 4)\n  2097: a2 = u64 [s1 + 0x50]\n  2100: a0 = a3 | a1\n  2103: a0 = a0 | t0\n  2106: jump @94 if a0 != 0\n      : @79 (gas: 9)\n  2110: u64 [s1 + 256] = 0\n  2114: u64 [s1 + 248] = 0\n  2118: u64 [s1 + 272] = 0\n  2122: u64 [s1 + 264] = 0\n  2126: t0 = u64 [s1 + 0x38]\n  2129: a1 = u64 [s1 + 0x30]\n  2132: t1 = u64 [s1 + 0x28]\n  2135: a4 = u64 [s1 + 0x48]\n  2138: jump @96\n      : @80 (gas: 9)\n  2141: t1 = u64 [s1 + 0x60]\n  2144: a4 = u64 [s1 + 0xb0]\n  2148: a4 = a4 ^ t1\n  2151: a5 = u64 [s1 + 0x58]\n  2154: a4 = a4 | a5\n  2157: a4 = a4 | a0\n  2160: a5 = u64 [s1 + 0x48]\n  2163: t0 = u64 [s1 + 0x20]\n  2166: jump @93 if a4 == 0\n      : @81 (gas: 12)\n  2170: a0 = u64 [s1 + 0x118]\n  2174: a4 = a1 <u a0\n  2177: a3 = a3 + a4\n  2180: a0 = u64 [s1 + 0xf8]\n  2184: t0 = a3 ^ a0\n  2187: a5 = a3 <u a0\n  2190: a5 = a4 if t0 == 0\n  2193: a5 = a5 + a2\n  2196: a4 = a5 <u a2\n  2199: a0 = u64 [s1 + 0x100]\n  2203: a2 = a2 <u a0\n  2206: t0 = 60, jump @1411\n      : @82 [@dyn 30] (gas: 1)\n  2211: jump @197 if a0 != 0\n      : @83 (gas: 2)\n  2215: a0 = s1 + 0x5e0\n  2219: ra = 62, jump @1427\n      : @84 [@dyn 31] (gas: 11)\n  2224: a1 = s1 + 0x500\n  2228: a0 = u64 [a1 + 0xf8]\n  2232: u64 [s1 + 0x110] = a0\n  2236: a0 = u64 [a1 + 0xf0]\n  2240: u64 [s1 + 0x100] = a0\n  2244: a0 = u64 [a1 + 0xe8]\n  2248: u64 [s1 + 0xf8] = a0\n  2252: a0 = u64 [a1 + 0xe0]\n  2256: u64 [s1 + 0xf0] = a0\n  2260: a0 = u64 [s1 + 0x60]\n  2263: t0 = 64, jump @1410\n      : @85 [@dyn 32] (gas: 1)\n  2268: ra = 66, jump @1446\n      : @86 [@dyn 33] (gas: 6)\n  2273: u64 [s1 + 0xe8] = a0\n  2277: u64 [s1 + 0xd0] = a1\n  2281: a0 = 0xffffffffffffffff\n  2284: a1 = 0xffffffffffffffff\n  2287: a2 = u64 [s1 + 0x118]\n  2291: ra = 68, jump @1451\n      : @87 [@dyn 34] (gas: 1)\n  2296: t0 = 70, jump @1409\n      : @88 [@dyn 35] (gas: 1)\n  2301: ra = 72, jump @1451\n      : @89 [@dyn 36] (gas: 1)\n  2306: t0 = 74, jump @1359\n      : @90 [@dyn 37] (gas: 3)\n  2311: a1 = u64 [s1 + 0x110]\n  2315: a4 = a1 & ~a4\n  2318: t0 = 76, jump @1412\n      : @91 [@dyn 38] (gas: 1)\n  2323: ra = 78, jump @1432\n      : @92 [@dyn 39] (gas: 3)\n  2328: t0 = u64 [s1 + 0x20]\n  2331: a5 = u64 [s1 + 0x48]\n  2334: fallthrough\n      : @93 (gas: 25)\n  2335: a0 = u64 [s1 + 0x50]\n  2338: a2 = u64 [s1 + 0x38]\n  2341: a2 = a2 | a0\n  2344: a0 = u64 [s1 + 0x30]\n  2347: a3 = u64 [s1 + 0x28]\n  2350: a3 = a3 | a0\n  2353: a5 = t0 | a5\n  2356: a4 = u64 [s1 + 0x40]\n  2359: a4 = a4 + 0x1\n  2362: a0 = sp + 0xffffffffffffffe0\n  2365: a0 = a0 & 0xffffffffffffffe0\n  2368: sp = a0\n  2370: u64 [a0 + 24] = 0\n  2373: u64 [a0 + 16] = 0\n  2376: u64 [a0 + 8] = 0\n  2379: u64 [a0 + 0] = 0x3\n  2382: a1 = sp + 0xffffffffffffffe0\n  2385: a1 = a1 & 0xffffffffffffffe0\n  2388: sp = a1\n  2390: u64 [a1 + 0x18] = a5\n  2393: u64 [a1 + 0x10] = a3\n  2396: u64 [a1 + 0x8] = a2\n  2399: u64 [a1] = a4\n  2401: ra = 0x5e\n  2404: jump @1432\n      : @94 (gas: 4)\n  2407: a0 = s1 + 0x620\n  2411: a1 = u64 [s1 + 0xf0]\n  2415: u64 [s1 + 0x20] = a5\n  2418: ra = 80, jump @1427\n      : @95 [@dyn 40] (gas: 16)\n  2423: a5 = u64 [s1 + 0x20]\n  2426: a4 = u64 [s1 + 0x48]\n  2429: t1 = u64 [s1 + 0x28]\n  2432: a1 = u64 [s1 + 0x30]\n  2435: t0 = u64 [s1 + 0x38]\n  2438: a2 = u64 [s1 + 0x50]\n  2441: a3 = u64 [s1 + 0x60]\n  2444: a0 = u64 [s1 + 0x638]\n  2448: u64 [s1 + 0x108] = a0\n  2452: a0 = u64 [s1 + 0x630]\n  2456: u64 [s1 + 0x110] = a0\n  2460: a0 = u64 [s1 + 0x628]\n  2464: u64 [s1 + 0xf8] = a0\n  2468: a0 = u64 [s1 + 0x620]\n  2472: u64 [s1 + 0x100] = a0\n  2476: fallthrough\n      : @96 (gas: 7)\n  2477: a4 = a4 | a5\n  2480: u64 [s1 + 0xf0] = a4\n  2484: a0 = t1 | a1\n  2487: u64 [s1 + 0xe8] = a0\n  2491: a0 = t0 | a2\n  2494: u64 [s1 + 0xe0] = a0\n  2498: t0 = 82, jump @1417\n      : @97 [@dyn 41] (gas: 1)\n  2503: ra = 84, jump @1446\n      : @98 [@dyn 42] (gas: 7)\n  2508: u64 [s1 + 0xc0] = a0\n  2512: u64 [s1 + 0xd8] = a1\n  2516: a0 = u64 [s1 + 0x60]\n  2519: i32 a2 = a0 << 0x3\n  2522: a0 = 0xffffffffffffffff\n  2525: a1 = 0xffffffffffffffff\n  2528: ra = 86, jump @1451\n      : @99 [@dyn 43] (gas: 10)\n  2533: u64 [s1 + 0xd0] = a0\n  2537: u64 [s1 + 0xc8] = a1\n  2541: a1 = u64 [s1 + 0xc0]\n  2545: a0 = a0 | a1\n  2548: u64 [s1 + 0xc0] = a0\n  2552: a0 = u64 [s1 + 0x118]\n  2556: i32 a2 = a0 + 0xffffffffffffff80\n  2559: a0 = 0xffffffffffffffff\n  2562: a1 = 0xffffffffffffffff\n  2565: ra = 88, jump @1451\n      : @100 [@dyn 44] (gas: 12)\n  2570: a4 = u64 [s1 + 0x118]\n  2574: a2 = a4 <u 0x80\n  2578: a3 = u64 [s1 + 0xc0]\n  2582: a0 = a3 if a2 != 0\n  2585: a5 = u64 [s1 + 0xc8]\n  2589: a3 = u64 [s1 + 0xd8]\n  2593: a3 = a3 | a5\n  2596: a3 = a1 if a2 == 0\n  2599: a0 = 0xffffffffffffffff if a4 == 0\n  2602: a3 = 0xffffffffffffffff if a4 == 0\n  2605: a4 = u64 [s1 + 0xd0]\n  2609: t0 = 90, jump @1382\n      : @101 [@dyn 45] (gas: 2)\n  2614: a2 = u64 [s1 + 0x40]\n  2617: t0 = 92, jump @1390\n      : @102 [@dyn 46] (gas: 9)\n  2622: u64 [a0 + 0] = 0x3\n  2625: a1 = sp + 0xffffffffffffffe0\n  2628: a1 = a1 & 0xffffffffffffffe0\n  2631: sp = a1\n  2633: u64 [a1 + 0x18] = a5\n  2636: u64 [a1 + 0x10] = a4\n  2639: u64 [a1 + 0x8] = a3\n  2642: u64 [a1] = a2\n  2644: ra = 94, jump @1432\n      : @103 [@dyn 47] (gas: 3)\n  2649: a0 = s1 + 0x5c0\n  2653: a1 = u64 [s1 + 0xa0]\n  2657: ra = 96, jump @1427\n      : @104 [@dyn 48] (gas: 17)\n  2662: a0 = s1 + 0x500\n  2666: a3 = u64 [a0 + 0xd8]\n  2670: a1 = u64 [a0 + 0xd0]\n  2674: a2 = u64 [a0 + 0xc8]\n  2678: a0 = a3 >u 0\n  2680: a4 = a1 >u 0\n  2682: a4 = a0 if a3 != 0\n  2685: u64 [s1 + 0xb8] = a2\n  2689: a0 = a2 >u 0\n  2691: u64 [s1 + 0xc0] = a1\n  2695: u64 [s1 + 0xb0] = a3\n  2699: a1 = a1 | a3\n  2702: u64 [s1 + 0xd8] = a0\n  2706: u64 [s1 + 0xe0] = a4\n  2710: u64 [s1 + 0xf0] = a1\n  2714: a0 = a4 if a1 != 0\n  2717: jump @214 if a0 != 0\n      : @105 (gas: 3)\n  2721: a0 = u64 [s1 + 0x5c0]\n  2725: u64 [s1 + 0xc8] = a0\n  2729: t0 = 98, jump @1414\n      : @106 [@dyn 49] (gas: 2)\n  2734: a0 = s1 + 0x5a0\n  2738: ra = 100, jump @1431\n      : @107 [@dyn 50] (gas: 6)\n  2743: a4 = s1 + 0x500\n  2747: a0 = u64 [a4 + 0xb0]\n  2751: a1 = u64 [a4 + 0xa8]\n  2755: a2 = u64 [a4 + 0xa0]\n  2759: a3 = u64 [a4 + 0xb8]\n  2763: t0 = 102, jump @1381\n      : @108 [@dyn 51] (gas: 12)\n  2768: t0 = a2 <u 0x1\n  2771: ra = a1 & 0x7f\n  2774: t2 = a5 & a0\n  2777: a4 = a5 & t1\n  2780: ra = a1 if a2 != 0\n  2783: a1 = ra <u 0x20\n  2786: a5 = a5 & a3\n  2789: a2 = a1\n  2791: a2 = 0 if a4 != 0\n  2793: a0 = t2 | a5\n  2796: a2 = 0 if a0 != 0\n  2798: jump @220 if t0 != a2\n      : @109 (gas: 1)\n  2802: t0 = 104, jump @1392\n      : @110 [@dyn 52] (gas: 4)\n  2807: a0 = u64 [s1 + 0xc8]\n  2811: a0 = a0 <u 0x20\n  2814: u64 [s1 + 0xe8] = a0\n  2818: jump @120 if a3 == 0\n      : @111 (gas: 11)\n  2822: u64 [s1 + 0x110] = a4\n  2826: u64 [s1 + 0x118] = ra\n  2830: u64 [s1 + 0xf8] = a5\n  2834: u64 [s1 + 0x108] = t2\n  2838: u64 [s1 + 1432] = 0\n  2842: u64 [s1 + 1424] = 0\n  2846: u64 [s1 + 1416] = 0\n  2850: a1 = s1 + 0x580\n  2854: u64 [s1 + 1408] = 0x4\n  2859: a0 = 0\n  2861: ra = 106, jump @1429\n      : @112 [@dyn 53] (gas: 2)\n  2866: a1 = i32 [0x2026c]\n  2871: jump @114 if a1 >u 31\n      : @113 (gas: 4)\n  2875: a1 = 0x20\n  2878: u32 [0x2026c] = a1\n  2883: t0 = 0x6c\n  2886: jump @1422\n      : @114 (gas: 1)\n  2889: t0 = 108, jump @1422\n      : @115 [@dyn 54] (gas: 114)\n  2894: a0 = 0x20280\n  2899: i32 a0 = a0 + 0\n  2901: i32 a2 = a2 + 0\n  2903: a1 = 0x20\n  2906: ecalli 6 // 'hash_keccak_256'\n  2908: a1 = u64 [s1 + 0xc8]\n  2912: a0 = a1 + 0x1f\n  2915: a1 = a0 <u a1\n  2918: a4 = u64 [s1 + 0xb8]\n  2922: a2 = a4 + a1\n  2925: t0 = a2 <u a4\n  2928: t0 = a1 if a1 == 0\n  2931: a1 = u64 [s1 + 0xc0]\n  2935: a1 = a1 + t0\n  2938: u64 [s1 + 0xd0] = a1\n  2942: a1 = a1 << 0x3b\n  2945: a3 = a2 >> 0x5\n  2948: a5 = a3 | a1\n  2951: a1 = u64 [s1 + 0x100]\n  2955: t0 = u64 [a1 + 0x18]\n  2958: a2 = a2 << 0x3b\n  2961: a1 = u64 [a1 + 0x10]\n  2964: a0 = a0 >> 0x5\n  2967: a0 = a0 | a2\n  2970: ra = reverse t0\n  2972: t2 = reverse a1\n  2974: a3 = u64 [s1 + 0xe8]\n  2978: a3 = 0 if a4 != 0\n  2980: a1 = u64 [s1 + 0xf0]\n  2984: a3 = 0 if a1 != 0\n  2986: a5 = 0 if a3 != 0\n  2988: a0 = 0 if a3 != 0\n  2990: t0 = ra + a0\n  2993: a2 = t0 <u ra\n  2996: a1 = t2 + a2\n  2999: a1 = a1 + a5\n  3002: a5 = a1 ^ t2\n  3005: a0 = a1 <u t2\n  3008: a0 = a2 if a5 == 0\n  3011: u64 [s1 + 0xa8] = a0\n  3015: a2 = u64 [s1 + 0x118]\n  3019: a0 = a2 + 0x1f\n  3022: a5 = a0 <u a2\n  3025: a2 = u64 [s1 + 0x110]\n  3029: a4 = a2 + a5\n  3032: t1 = a4 <u a2\n  3035: t1 = a5 if a5 == 0\n  3038: a2 = u64 [s1 + 0x108]\n  3042: a2 = a2 + t1\n  3045: u64 [s1 + 0x58] = a2\n  3048: a5 = a2 << 0x3b\n  3051: a2 = a4 >> 0x5\n  3054: a2 = a2 | a5\n  3057: a4 = a4 << 0x3b\n  3060: a5 = a0 >> 0x5\n  3063: a4 = a4 | a5\n  3066: a4 = a4 + ra\n  3069: u64 [s1 + 0x118] = a4\n  3073: a5 = a4 <u ra\n  3076: a4 = t2 + a5\n  3079: a4 = a4 + a2\n  3082: a2 = a4 ^ t2\n  3085: u64 [s1 + 0x110] = a4\n  3089: a0 = a4 <u t2\n  3092: a0 = a5 if a2 == 0\n  3095: u64 [s1 + 0x60] = a0\n  3098: a5 = u64 [s1 + 0xd0]\n  3102: a0 = u64 [s1 + 0xc0]\n  3106: a2 = a5 <u a0\n  3109: a4 = u64 [s1 + 0xb0]\n  3113: a4 = a4 + a2\n  3116: a5 = a5 >> 0x5\n  3119: a2 = a4 << 0x3b\n  3122: a2 = a2 | a5\n  3125: a0 = u64 [s1 + 0x100]\n  3129: t2 = u64 [a0]\n  3131: a5 = u64 [a0 + 0x8]\n  3134: a4 = a4 >> 0x5\n  3137: a2 = 0 if a3 != 0\n  3139: a4 = 0 if a3 != 0\n  3141: a5 = reverse a5\n  3143: a0 = reverse t2\n  3145: a4 = a4 + a0\n  3148: a3 = a5 + a2\n  3151: a2 = a3 <u a5\n  3154: a4 = a4 + a2\n  3157: t1 = u64 [s1 + 0xa8]\n  3161: t1 = t1 + a3\n  3164: a3 = t1 <u a3\n  3167: t2 = a4 + a3\n  3170: a2 = u64 [s1 + 0x58]\n  3173: a3 = u64 [s1 + 0x108]\n  3177: a4 = a2 <u a3\n  3180: ra = u64 [s1 + 0xf8]\n  3184: ra = ra + a4\n  3187: a2 = a2 >> 0x5\n  3190: a4 = ra << 0x3b\n  3193: a2 = a2 | a4\n  3196: a4 = ra >> 0x5\n  3199: a4 = a4 + a0\n  3202: a2 = a2 + a5\n  3205: a5 = a2 <u a5\n  3208: a4 = a4 + a5\n  3211: a0 = u64 [s1 + 0x60]\n  3214: a0 = a0 + a2\n  3217: u64 [s1 + 0x108] = a0\n  3221: a5 = a0 <u a2\n  3224: a4 = a4 + a5\n  3227: u64 [s1 + 0x100] = a4\n  3231: a4 = sp + 0xffffffffffffffe0\n  3234: a0 = a4 & 0xffffffffffffffe0\n  3237: sp = a0\n  3239: u64 [s1 + 0xf8] = a0\n  3243: fallthrough\n      : @116 (gas: 5)\n  3244: u64 [a0] = t0\n  3246: u64 [a0 + 0x8] = a1\n  3249: a4 = u64 [s1 + 0x118]\n  3253: a3 = t0 <u a4\n  3256: t0 = 110, jump @1366\n      : @117 [@dyn 55] (gas: 1)\n  3261: jump @120 if a5 == 0\n      : @118 (gas: 8)\n  3264: a1 = sp + 0xffffffffffffffe0\n  3267: a1 = a1 & 0xffffffffffffffe0\n  3270: sp = a1\n  3272: u64 [a1 + 24] = 0\n  3275: u64 [a1 + 16] = 0\n  3278: u64 [a1 + 8] = 0\n  3281: u64 [a1 + 0] = 0\n  3283: ra = 112, jump @1432\n      : @119 [@dyn 56] (gas: 14)\n  3288: a0 = u64 [s1 + 0xf8]\n  3292: t0 = u64 [a0]\n  3294: a3 = u64 [a0 + 0x18]\n  3297: a1 = u64 [a0 + 0x8]\n  3300: a4 = u64 [a0 + 0x10]\n  3303: t0 = t0 + 0x1\n  3306: a2 = t0 <u 0x1\n  3309: a1 = a1 + a2\n  3312: a2 = t0 | a1\n  3315: a2 = a2 <u 0x1\n  3318: t1 = a4 + a2\n  3321: a4 = t1 <u a4\n  3324: t2 = a3 + a4\n  3327: jump @116\n      : @120 (gas: 9)\n  3329: a0 = u64 [s1 + 0xe8]\n  3333: a0 = a0 ^ 0x1\n  3336: a4 = u64 [s1 + 0xb8]\n  3340: a1 = u64 [s1 + 0xd8]\n  3344: a0 = a1 if a4 != 0\n  3347: a1 = u64 [s1 + 0xe0]\n  3351: a2 = u64 [s1 + 0xf0]\n  3355: a0 = a1 if a2 != 0\n  3358: jump @132 if a0 == 0\n      : @121 (gas: 10)\n  3362: a0 = u64 [s1 + 0xc8]\n  3366: a0 = a0 & 0xffffffffffffffe0\n  3369: u64 [s1 + 0xd0] = a0\n  3373: u64 [s1 + 1368] = 0\n  3377: u64 [s1 + 1360] = 0\n  3381: u64 [s1 + 1352] = 0\n  3385: a1 = s1 + 0x540\n  3389: u64 [s1 + 1344] = 0x4\n  3394: a0 = 0\n  3396: ra = 114, jump @1429\n      : @122 [@dyn 57] (gas: 7)\n  3401: a0 = sp + 0xffffffffffffffe0\n  3404: a0 = a0 & 0xffffffffffffffe0\n  3407: u64 [s1 + 0x110] = a0\n  3411: sp = a0\n  3413: a1 = 0x20\n  3416: a0 = 0\n  3418: ra = 116, jump @1439\n      : @123 [@dyn 58] (gas: 38)\n  3423: a1 = sp + 0xffffffffffffffe0\n  3426: a1 = a1 & 0xffffffffffffffe0\n  3429: u64 [s1 + 0x108] = a1\n  3433: sp = a1\n  3435: i32 a0 = a0 + 0\n  3437: i32 a2 = a1 + 0\n  3439: a1 = 0x20\n  3442: ecalli 6 // 'hash_keccak_256'\n  3444: ra = 0x20\n  3447: a0 = u64 [s1 + 0x108]\n  3451: t0 = u64 [a0]\n  3453: u64 [s1 + 280] = 0\n  3457: t1 = 0\n  3459: a5 = 0\n  3461: a4 = 0\n  3463: t2 = 0\n  3465: a2 = 0\n  3467: a3 = 0\n  3469: a1 = u64 [a0 + 0x8]\n  3472: u64 [s1 + 0x100] = a1\n  3476: a1 = a0\n  3478: a0 = reverse t0\n  3480: t0 = u64 [s1 + 0x110]\n  3484: u64 [t0 + 0x18] = a0\n  3487: a0 = u64 [a1 + 0x10]\n  3490: a1 = u64 [a1 + 0x18]\n  3493: u64 [s1 + 0x108] = a1\n  3497: a1 = u64 [s1 + 0x100]\n  3501: a1 = reverse a1\n  3503: u64 [t0 + 0x10] = a1\n  3506: a0 = reverse a0\n  3508: a1 = t0\n  3510: u64 [t0 + 0x8] = a0\n  3513: a0 = u64 [s1 + 0x108]\n  3517: a0 = reverse a0\n  3519: t0 = u64 [s1 + 0x118]\n  3523: u64 [a1] = a0\n  3525: fallthrough\n      : @124 (gas: 21)\n  3526: a0 = u64 [s1 + 0xd0]\n  3530: u64 [s1 + 0xf0] = a4\n  3534: a0 = a4 <u a0\n  3537: a4 = a0 ^ 0x1\n  3540: u64 [s1 + 0xe8] = t2\n  3544: a4 = 0x1 if t2 != 0\n  3547: u64 [s1 + 0x108] = a3\n  3551: u64 [s1 + 0x100] = a2\n  3555: a0 = a2 | a3\n  3558: a4 = 0x1 if a0 != 0\n  3561: a0 = u64 [s1 + 0xa0]\n  3565: a1 = a0 + ra\n  3568: a3 = u64 [s1 + 0x90]\n  3572: u64 [s1 + 0x118] = t0\n  3576: t0 = t0 + a3\n  3579: t2 = u64 [s1 + 0x98]\n  3583: u64 [s1 + 0xf8] = t1\n  3587: a2 = t2 + t1\n  3590: t1 = u64 [s1 + 0x88]\n  3594: t1 = t1 + a5\n  3597: jump @134 if a4 != 0\n      : @125 (gas: 8)\n  3601: u64 [s1 + 0xd8] = a5\n  3605: u64 [s1 + 0xe0] = ra\n  3609: ra = a1 <u a0\n  3612: a4 = t0 + ra\n  3615: t0 = a4 ^ a3\n  3618: a5 = a4 <u a3\n  3621: a5 = ra if t0 == 0\n  3624: t0 = 118, jump @1388\n      : @126 [@dyn 59] (gas: 1)\n  3629: jump @197 if a0 != 0\n      : @127 (gas: 2)\n  3633: a0 = s1 + 0x240\n  3637: ra = 120, jump @1427\n      : @128 [@dyn 60] (gas: 6)\n  3642: a1 = s1 + 0x200\n  3646: a0 = u64 [a1 + 0x40]\n  3649: a2 = u64 [a1 + 0x48]\n  3652: a3 = u64 [a1 + 0x50]\n  3655: a4 = u64 [a1 + 0x58]\n  3658: t0 = 122, jump @1413\n      : @129 [@dyn 61] (gas: 1)\n  3663: ra = 124, jump @1432\n      : @130 [@dyn 62] (gas: 2)\n  3668: a5 = u64 [s1 + 0x110]\n  3672: t0 = 126, jump @1379\n      : @131 [@dyn 63] (gas: 31)\n  3677: a0 = u64 [s1 + 0xe0]\n  3681: t0 = a0 + 0x20\n  3684: a1 = t0 <u a0\n  3687: a0 = u64 [s1 + 0x118]\n  3691: t1 = a0 + a1\n  3694: a3 = t1 <u a0\n  3697: a3 = a1 if a1 == 0\n  3700: a0 = u64 [s1 + 0xf8]\n  3704: t2 = a0 + a3\n  3707: a1 = t2 <u a0\n  3710: a5 = u64 [s1 + 0xd8]\n  3714: a5 = a5 + a1\n  3717: a0 = u64 [s1 + 0xf0]\n  3721: a1 = a0 + 0x20\n  3724: a4 = a1 <u a0\n  3727: a0 = u64 [s1 + 0xe8]\n  3731: a2 = a0 + a4\n  3734: a0 = a2 <u a0\n  3737: a0 = a4 if a4 == 0\n  3740: a3 = u64 [s1 + 0x100]\n  3744: a0 = a0 + a3\n  3747: a4 = a0 <u a3\n  3750: a3 = u64 [s1 + 0x108]\n  3754: a3 = a3 + a4\n  3757: ra = t0\n  3759: t0 = t1\n  3761: t1 = t2\n  3763: a4 = a1\n  3765: t2 = a2\n  3767: a2 = a0\n  3769: jump @124\n      : @132 (gas: 7)\n  3772: a3 = u64 [s1 + 0xc8]\n  3776: a2 = u64 [s1 + 0xc0]\n  3780: a0 = a3 | a2\n  3783: a5 = u64 [s1 + 0xb0]\n  3787: a1 = a4 | a5\n  3790: a0 = a0 | a1\n  3793: jump @148 if a0 != 0\n      : @133 (gas: 5)\n  3797: u64 [s1 + 256] = 0\n  3801: u64 [s1 + 248] = 0\n  3805: u64 [s1 + 272] = 0\n  3809: u64 [s1 + 264] = 0\n  3813: jump @150\n      : @134 (gas: 10)\n  3816: a4 = u64 [s1 + 0xd0]\n  3820: a5 = u64 [s1 + 0xc8]\n  3824: a4 = a4 ^ a5\n  3827: a5 = u64 [s1 + 0xc0]\n  3831: a4 = a4 | a5\n  3834: ra = u64 [s1 + 0xb8]\n  3838: a5 = u64 [s1 + 0xb0]\n  3842: a5 = ra | a5\n  3845: a4 = a4 | a5\n  3848: jump @147 if a4 == 0\n      : @135 (gas: 6)\n  3852: ra = a1 <u a0\n  3855: a4 = t0 + ra\n  3858: t0 = a4 ^ a3\n  3861: a5 = a4 <u a3\n  3864: a5 = ra if t0 == 0\n  3867: t0 = 128, jump @1388\n      : @136 [@dyn 64] (gas: 1)\n  3873: jump @197 if a0 != 0\n      : @137 (gas: 2)\n  3877: a0 = s1 + 0x520\n  3881: ra = 130, jump @1427\n      : @138 [@dyn 65] (gas: 11)\n  3887: a1 = s1 + 0x500\n  3891: a0 = u64 [a1 + 0x38]\n  3894: u64 [s1 + 0x108] = a0\n  3898: a0 = u64 [a1 + 0x30]\n  3901: u64 [s1 + 0x100] = a0\n  3905: a0 = u64 [a1 + 0x28]\n  3908: u64 [s1 + 0xf8] = a0\n  3912: a0 = u64 [a1 + 0x20]\n  3915: u64 [s1 + 0xf0] = a0\n  3919: a0 = u64 [s1 + 0xc8]\n  3923: t0 = 132, jump @1410\n      : @139 [@dyn 66] (gas: 1)\n  3929: ra = 134, jump @1446\n      : @140 [@dyn 67] (gas: 6)\n  3935: u64 [s1 + 0xe8] = a0\n  3939: u64 [s1 + 0xd0] = a1\n  3943: a0 = 0xffffffffffffffff\n  3946: a1 = 0xffffffffffffffff\n  3949: a2 = u64 [s1 + 0x118]\n  3953: ra = 136, jump @1451\n      : @141 [@dyn 68] (gas: 1)\n  3959: t0 = 138, jump @1409\n      : @142 [@dyn 69] (gas: 1)\n  3965: ra = 140, jump @1451\n      : @143 [@dyn 70] (gas: 1)\n  3971: t0 = 142, jump @1359\n      : @144 [@dyn 71] (gas: 3)\n  3977: a1 = u64 [s1 + 0x108]\n  3981: a4 = a1 & ~a4\n  3984: t0 = 144, jump @1413\n      : @145 [@dyn 72] (gas: 1)\n  3990: ra = 146, jump @1432\n      : @146 [@dyn 73] (gas: 2)\n  3996: ra = u64 [s1 + 0xb8]\n  4000: fallthrough\n      : @147 (gas: 30)\n  4001: a4 = u64 [s1 + 0xc8]\n  4005: a0 = a4 >> 0x3f\n  4008: a2 = ra << 0x1\n  4011: a2 = a2 | a0\n  4014: a0 = ra >> 0x3f\n  4017: a1 = u64 [s1 + 0xc0]\n  4021: a3 = a1 << 0x1\n  4024: a3 = a3 | a0\n  4027: a0 = a1 >> 0x3f\n  4030: a5 = u64 [s1 + 0xb0]\n  4034: a5 = a5 << 0x1\n  4037: a5 = a5 | a0\n  4040: a4 = a4 << 0x1\n  4043: a4 = a4 + 0x1\n  4046: a0 = sp + 0xffffffffffffffe0\n  4049: a0 = a0 & 0xffffffffffffffe0\n  4052: sp = a0\n  4054: u64 [a0 + 24] = 0\n  4057: u64 [a0 + 16] = 0\n  4060: u64 [a0 + 8] = 0\n  4063: u64 [a0 + 0] = 0x4\n  4066: a1 = sp + 0xffffffffffffffe0\n  4069: a1 = a1 & 0xffffffffffffffe0\n  4072: sp = a1\n  4074: u64 [a1 + 0x18] = a5\n  4077: u64 [a1 + 0x10] = a3\n  4080: u64 [a1 + 0x8] = a2\n  4083: u64 [a1] = a4\n  4085: ra = 0xa2\n  4089: jump @1432\n      : @148 (gas: 3)\n  4092: a0 = s1 + 0x560\n  4096: a1 = u64 [s1 + 0x18]\n  4099: ra = 148, jump @1427\n      : @149 [@dyn 74] (gas: 14)\n  4105: a5 = u64 [s1 + 0xb0]\n  4109: a4 = u64 [s1 + 0xb8]\n  4113: a2 = u64 [s1 + 0xc0]\n  4117: a3 = u64 [s1 + 0xc8]\n  4121: a1 = s1 + 0x500\n  4125: a0 = u64 [a1 + 0x78]\n  4128: u64 [s1 + 0x108] = a0\n  4132: a0 = u64 [a1 + 0x70]\n  4135: u64 [s1 + 0x110] = a0\n  4139: a0 = u64 [a1 + 0x68]\n  4142: u64 [s1 + 0xf8] = a0\n  4146: a0 = u64 [a1 + 0x60]\n  4149: u64 [s1 + 0x100] = a0\n  4153: fallthrough\n      : @150 (gas: 15)\n  4154: a0 = a2 >> 0x3f\n  4157: a1 = a5 << 0x1\n  4160: a0 = a0 | a1\n  4163: u64 [s1 + 0xf0] = a0\n  4167: a0 = a4 >> 0x3f\n  4170: a1 = a2 << 0x1\n  4173: a0 = a0 | a1\n  4176: u64 [s1 + 0xe8] = a0\n  4180: a0 = a3 >> 0x3f\n  4183: a1 = a4 << 0x1\n  4186: a0 = a0 | a1\n  4189: u64 [s1 + 0xe0] = a0\n  4193: a0 = a3 << 0x1\n  4196: u64 [s1 + 0xd8] = a0\n  4200: t0 = 150, jump @1417\n      : @151 [@dyn 75] (gas: 1)\n  4206: ra = 152, jump @1446\n      : @152 [@dyn 76] (gas: 7)\n  4212: u64 [s1 + 0xb8] = a0\n  4216: u64 [s1 + 0xd0] = a1\n  4220: a0 = u64 [s1 + 0xc8]\n  4224: i32 a2 = a0 << 0x3\n  4227: a0 = 0xffffffffffffffff\n  4230: a1 = 0xffffffffffffffff\n  4233: ra = 154, jump @1451\n      : @153 [@dyn 77] (gas: 10)\n  4239: u64 [s1 + 0xc8] = a0\n  4243: u64 [s1 + 0xc0] = a1\n  4247: a1 = u64 [s1 + 0xb8]\n  4251: a0 = a0 | a1\n  4254: u64 [s1 + 0xb8] = a0\n  4258: a0 = u64 [s1 + 0x118]\n  4262: i32 a2 = a0 + 0xffffffffffffff80\n  4265: a0 = 0xffffffffffffffff\n  4268: a1 = 0xffffffffffffffff\n  4271: ra = 156, jump @1451\n      : @154 [@dyn 78] (gas: 12)\n  4277: a4 = u64 [s1 + 0x118]\n  4281: a2 = a4 <u 0x80\n  4285: a3 = u64 [s1 + 0xb8]\n  4289: a0 = a3 if a2 != 0\n  4292: a5 = u64 [s1 + 0xc0]\n  4296: a3 = u64 [s1 + 0xd0]\n  4300: a3 = a3 | a5\n  4303: a3 = a1 if a2 == 0\n  4306: a0 = 0xffffffffffffffff if a4 == 0\n  4309: a3 = 0xffffffffffffffff if a4 == 0\n  4312: a4 = u64 [s1 + 0xc8]\n  4316: t0 = 158, jump @1382\n      : @155 [@dyn 79] (gas: 2)\n  4322: a2 = u64 [s1 + 0xd8]\n  4326: t0 = 160, jump @1390\n      : @156 [@dyn 80] (gas: 9)\n  4332: u64 [a0 + 0] = 0x4\n  4335: a1 = sp + 0xffffffffffffffe0\n  4338: a1 = a1 & 0xffffffffffffffe0\n  4341: sp = a1\n  4343: u64 [a1 + 0x18] = a5\n  4346: u64 [a1 + 0x10] = a4\n  4349: u64 [a1 + 0x8] = a3\n  4352: u64 [a1] = a2\n  4354: ra = 162, jump @1432\n      : @157 [@dyn 81] (gas: 9)\n  4360: a0 = 0x30280\n  4365: u64 [s1 + 0x118] = a0\n  4369: i32 a0 = a0 + 0\n  4371: u64 [s1 + 0x110] = a0\n  4375: ra = 0xa4\n  4379: ecalli 3 // 'caller'\n  4381: a2 = u64 [s1 + 0x118]\n  4385: t0 = 0xa6\n  4389: jump @1348\n      : @158 [@dyn 82] (gas: 2)\n  4392: a2 = u64 [s1 + 0x118]\n  4396: t0 = 166, jump @1348\n      : @159 [@dyn 83] (gas: 7)\n  4402: u64 [s1 + 1272] = 0\n  4406: u64 [s1 + 0x4f0] = a1\n  4410: u64 [s1 + 0x4e8] = a0\n  4414: a0 = s1 + 0x500\n  4418: a1 = s1 + 0x4e0\n  4422: u64 [s1 + 0x4e0] = a3\n  4426: ra = 168, jump @890\n      : @160 [@dyn 84] (gas: 6)\n  4432: a0 = u64 [s1 + 0x110]\n  4436: ra = 0xaa\n  4440: ecalli 3 // 'caller'\n  4442: a2 = u64 [s1 + 0x118]\n  4446: t0 = 0xac\n  4450: jump @1348\n      : @161 [@dyn 85] (gas: 2)\n  4453: a2 = u64 [s1 + 0x118]\n  4457: t0 = 172, jump @1348\n      : @162 [@dyn 86] (gas: 15)\n  4463: u64 [s1 + 1208] = 0\n  4467: u64 [s1 + 0x4b0] = a1\n  4471: u64 [s1 + 0x4a8] = a0\n  4475: a0 = s1 + 0x4c0\n  4479: a1 = s1 + 0x4a0\n  4483: u64 [s1 + 0x4a0] = a3\n  4487: ra = 0xae\n  4491: sp = sp + 0xfffffffffffffda0\n  4495: a2 = sp + 0x200\n  4499: u64 [a2 + 0x58] = ra\n  4502: u64 [a2 + 0x50] = s0\n  4505: u64 [a2 + 0x48] = s1\n  4508: s0 = sp + 0x260\n  4512: t0 = 0x3ae\n  4516: jump @1424\n      : @163 [@dyn 87] (gas: 6)\n  4519: a0 = u64 [s1 + 0x110]\n  4523: ra = 0xb0\n  4527: ecalli 3 // 'caller'\n  4529: a2 = u64 [s1 + 0x118]\n  4533: t0 = 0xb2\n  4537: jump @1348\n      : @164 [@dyn 88] (gas: 2)\n  4540: a2 = u64 [s1 + 0x118]\n  4544: t0 = 178, jump @1348\n      : @165 [@dyn 89] (gas: 16)\n  4550: u64 [s1 + 1144] = 0\n  4554: a2 = s1 + 0x400\n  4558: u64 [a2 + 0x70] = a1\n  4561: u64 [a2 + 0x68] = a0\n  4564: a0 = s1 + 0x480\n  4568: a1 = s1 + 0x460\n  4572: u64 [a2 + 0x60] = a3\n  4575: ra = 0xb4\n  4579: sp = sp + 0xfffffffffffffda0\n  4583: a2 = sp + 0x200\n  4587: u64 [a2 + 0x58] = ra\n  4590: u64 [a2 + 0x50] = s0\n  4593: u64 [a2 + 0x48] = s1\n  4596: s0 = sp + 0x260\n  4600: t0 = 0x3f4\n  4604: jump @1424\n      : @166 [@dyn 90] (gas: 3)\n  4607: a0 = u64 [s1 + 0x110]\n  4611: ecalli 3 // 'caller'\n  4613: fallthrough\n      : @167 (gas: 7)\n  4614: a2 = u64 [s1 + 0x118]\n  4618: a0 = u32 [a2 + 0x10]\n  4621: a1 = u64 [a2]\n  4623: a2 = u64 [a2 + 0x8]\n  4626: a0 = a0 | a1\n  4629: a0 = a0 | a2\n  4632: jump @226 if a0 == 0\n      : @168 (gas: 9)\n  4636: a1 = sp + 0xffffffffffffffe0\n  4639: a1 = a1 & 0xffffffffffffffe0\n  4642: sp = a1\n  4644: u64 [a1 + 24] = 0\n  4647: u64 [a1 + 16] = 0\n  4650: u64 [a1 + 8] = 0\n  4653: u64 [a1 + 0] = 0x5\n  4656: a0 = s1 + 0x440\n  4660: ra = 182, jump @1431\n      : @169 [@dyn 91] (gas: 2)\n  4666: a0 = u8 [s1 + 0x440]\n  4670: jump @231 if a0 != 0\n      : @170 (gas: 1)\n  4674: t0 = 184, jump @1385\n      : @171 [@dyn 92] (gas: 2)\n  4680: a0 = s1 + 0x400\n  4684: ra = 186, jump @1431\n      : @172 [@dyn 93] (gas: 43)\n  4690: t2 = u64 [s1 + 0x418]\n  4694: t1 = u64 [s1 + 0x410]\n  4698: ra = u64 [s1 + 0x400]\n  4702: u64 [s1 + 0x108] = ra\n  4706: a5 = u64 [s1 + 0x408]\n  4710: a1 = sp + 0xffffffffffffffe0\n  4713: a1 = a1 & 0xffffffffffffffe0\n  4716: sp = a1\n  4718: a2 = u64 [s1 + 0x70]\n  4721: a4 = a2 + a5\n  4724: a0 = u64 [s1 + 0x68]\n  4727: ra = ra + a0\n  4730: a0 = ra <u a0\n  4733: a4 = a4 + a0\n  4736: a3 = a4 ^ a2\n  4739: a2 = a4 <u a2\n  4742: a2 = a0 if a3 == 0\n  4745: t0 = u64 [s1 + 0x78]\n  4748: a0 = t0 + t1\n  4751: a3 = u64 [s1 + 0x80]\n  4755: a3 = a3 + t2\n  4758: t0 = a0 <u t0\n  4761: a3 = a3 + t0\n  4764: a2 = a2 + a0\n  4767: a0 = a2 <u a0\n  4770: t0 = a3 + a0\n  4773: a0 = a5 ^ a4\n  4776: a5 = a4 <u a5\n  4779: a3 = u64 [s1 + 0x108]\n  4783: a3 = ra <u a3\n  4786: a3 = a5 if a0 != 0\n  4789: a0 = a2 <u t1\n  4792: a5 = t2 ^ t0\n  4795: t2 = t0 <u t2\n  4798: t2 = a0 if a5 == 0\n  4801: a0 = t1 ^ a2\n  4804: a0 = a0 | a5\n  4807: a3 = t2 if a0 != 0\n  4810: u64 [a1 + 0x10] = a2\n  4813: u64 [a1 + 0x8] = a4\n  4816: u64 [a1] = ra\n  4818: u64 [a1 + 0x18] = t0\n  4821: jump @235 if a3 != 0\n      : @173 (gas: 1)\n  4825: t0 = 188, jump @1420\n      : @174 [@dyn 94] (gas: 1)\n  4831: ra = 190, jump @1432\n      : @175 [@dyn 95] (gas: 6)\n  4837: a0 = u64 [s1 + 0x110]\n  4841: ra = 0xc0\n  4845: ecalli 3 // 'caller'\n  4847: a2 = u64 [s1 + 0x118]\n  4851: t0 = 0xc2\n  4855: jump @1348\n      : @176 [@dyn 96] (gas: 2)\n  4858: a2 = u64 [s1 + 0x118]\n  4862: t0 = 194, jump @1348\n      : @177 [@dyn 97] (gas: 8)\n  4868: u64 [s1 + 1016] = 0\n  4872: a2 = s1 + 0x300\n  4876: u64 [a2 + 0xf0] = a1\n  4880: u64 [a2 + 0xe8] = a0\n  4884: a1 = s1 + 0x3e0\n  4888: u64 [a2 + 0xe0] = a3\n  4892: a0 = 0\n  4894: ra = 196, jump @1429\n      : @178 [@dyn 98] (gas: 7)\n  4900: u64 [s1 + 984] = 0\n  4904: u64 [s1 + 976] = 0\n  4908: u64 [s1 + 968] = 0\n  4912: a0 = 0x20\n  4915: a1 = s1 + 0x3c0\n  4919: u64 [s1 + 960] = 0\n  4923: ra = 198, jump @1429\n      : @179 [@dyn 99] (gas: 6)\n  4929: a0 = sp + 0xffffffffffffffe0\n  4932: a0 = a0 & 0xffffffffffffffe0\n  4935: u64 [s1 + 0x108] = a0\n  4939: sp = a0\n  4941: a1 = i32 [0x2026c]\n  4946: jump @181 if a1 >u 63\n      : @180 (gas: 4)\n  4950: a1 = 0x40\n  4953: u32 [0x2026c] = a1\n  4958: t0 = 0xc8\n  4962: jump @1422\n      : @181 (gas: 1)\n  4965: t0 = 200, jump @1422\n      : @182 [@dyn 100] (gas: 10)\n  4971: a0 = 0x20280\n  4976: u64 [s1 + 0xf8] = a0\n  4980: i32 a0 = a0 + 0\n  4982: i32 a2 = a2 + 0\n  4984: a1 = 0x40\n  4987: ra = 0xca\n  4991: ecalli 6 // 'hash_keccak_256'\n  4993: a3 = u64 [s1 + 0x100]\n  4997: t0 = 0xcc\n  5001: jump @1354\n      : @183 [@dyn 101] (gas: 2)\n  5004: a3 = u64 [s1 + 0x100]\n  5008: t0 = 204, jump @1354\n      : @184 [@dyn 102] (gas: 7)\n  5014: a1 = u64 [s1 + 0x108]\n  5018: u64 [a1 + 0x18] = a3\n  5021: u64 [a1 + 0x10] = a2\n  5024: u64 [a1 + 0x8] = a4\n  5027: u64 [a1] = a0\n  5029: a0 = s1 + 0x3a0\n  5033: ra = 206, jump @1431\n      : @185 [@dyn 103] (gas: 20)\n  5039: a1 = u64 [s1 + 0x3a8]\n  5043: a2 = u64 [s1 + 0x3a0]\n  5047: t0 = u64 [s1 + 0x3b8]\n  5051: a4 = u64 [s1 + 0x3b0]\n  5055: a5 = u64 [s1 + 0x70]\n  5058: a5 = a5 + a1\n  5061: a0 = u64 [s1 + 0x68]\n  5064: a0 = a0 + a2\n  5067: a2 = a0 <u a2\n  5070: a5 = a5 + a2\n  5073: a3 = a5 ^ a1\n  5076: a1 = a5 <u a1\n  5079: a1 = a2 if a3 == 0\n  5082: a2 = u64 [s1 + 0x78]\n  5085: a2 = a2 + a4\n  5088: a3 = u64 [s1 + 0x80]\n  5092: t0 = t0 + a3\n  5095: a3 = a2 <u a4\n  5098: a3 = a3 + t0\n  5101: t0 = 208, jump @1374\n      : @186 [@dyn 104] (gas: 2)\n  5107: a0 = u64 [s1 + 0x108]\n  5111: ra = 210, jump @1432\n      : @187 [@dyn 105] (gas: 3)\n  5117: a0 = s1 + 0x380\n  5121: a1 = 0x40\n  5124: ra = 212, jump @1427\n      : @188 [@dyn 106] (gas: 6)\n  5130: a4 = s1 + 0x300\n  5134: a3 = u64 [a4 + 0x98]\n  5138: a1 = u64 [a4 + 0x90]\n  5142: a2 = u64 [a4 + 0x88]\n  5146: a0 = u64 [a4 + 0x80]\n  5150: t0 = 214, jump @1368\n      : @189 [@dyn 107] (gas: 1)\n  5156: jump @197 if a1 != 0\n      : @190 (gas: 11)\n  5160: a1 = u64 [s1 + 0x68]\n  5163: u64 [s1 + 0x360] = a1\n  5167: a1 = u64 [s1 + 0x70]\n  5170: u64 [s1 + 0x368] = a1\n  5174: a1 = u64 [s1 + 0x78]\n  5177: u64 [s1 + 0x370] = a1\n  5181: a1 = s1 + 0x360\n  5185: a2 = u64 [s1 + 0x80]\n  5189: u64 [s1 + 0x378] = a2\n  5193: u64 [s1 + 0x108] = a0\n  5197: ra = 216, jump @1429\n      : @191 [@dyn 108] (gas: 6)\n  5203: a0 = u64 [s1 + 0x110]\n  5207: ra = 0xda\n  5211: ecalli 3 // 'caller'\n  5213: a2 = u64 [s1 + 0x118]\n  5217: t0 = 0xdc\n  5221: jump @1352\n      : @192 [@dyn 109] (gas: 2)\n  5224: a2 = u64 [s1 + 0x118]\n  5228: t0 = 220, jump @1352\n      : @193 [@dyn 110] (gas: 29)\n  5234: t0 = a1 | a0\n  5237: a3 = a3 >> 0x20\n  5240: a2 = reverse a2\n  5242: a1 = a2 << 0x20\n  5245: a1 = a1 | a3\n  5248: a2 = a2 >> 0x20\n  5251: u64 [s1 + 792] = 0\n  5255: u64 [s1 + 824] = 0\n  5259: u64 [s1 + 816] = 0\n  5263: u64 [s1 + 808] = 0\n  5267: u64 [s1 + 800] = 0\n  5271: a3 = u64 [0x20008]\n  5276: a4 = u64 [0x20010]\n  5281: a5 = u64 [0x20018]\n  5286: a0 = u64 [0x20020]\n  5291: u64 [s1 + 0x358] = a3\n  5295: a3 = s1 + 0x300\n  5299: u64 [a3 + 0x50] = a4\n  5302: u64 [a3 + 0x48] = a5\n  5305: u64 [a3 + 0x40] = a0\n  5308: u64 [a3 + 0x10] = a2\n  5311: u64 [a3 + 0x8] = a1\n  5314: a1 = 0x20\n  5317: a2 = s1 + 0x340\n  5321: a3 = s1 + 0x320\n  5325: a4 = s1 + 0x300\n  5329: u64 [s1 + 0x300] = t0\n  5333: a0 = u64 [s1 + 0x108]\n  5337: ra = 222, jump @1435\n      : @194 [@dyn 111] (gas: 3)\n  5343: a0 = s1 + 0x2e0\n  5347: a1 = 0x40\n  5350: ra = 224, jump @1427\n      : @195 [@dyn 112] (gas: 6)\n  5356: a4 = s1 + 0x200\n  5360: a0 = u64 [a4 + 0xf8]\n  5364: a1 = u64 [a4 + 0xf0]\n  5368: a2 = u64 [a4 + 0xe8]\n  5372: a3 = u64 [a4 + 0xe0]\n  5376: t0 = 226, jump @1386\n      : @196 [@dyn 113] (gas: 1)\n  5382: jump @242 if a0 == 0\n      : @197 (gas: 1)\n  5386: trap\n      : @198 (gas: 4)\n  5387: a1 = 0x20280\n  5392: i32 a1 = a1 + 0\n  5394: a0 = 0x1\n  5397: jump @200\n      : @199 (gas: 4)\n  5399: a1 = 0x20280\n  5404: i32 a1 = a1 + 0\n  5406: a0 = 0x1\n  5409: fallthrough\n      : @200 (gas: 5)\n  5410: a2 = 0\n  5412: ra = 0xe4\n  5416: ecalli 7 // 'seal_return'\n  5418: t0 = 0xe6\n  5422: jump @1387\n      : @201 [@dyn 114] (gas: 1)\n  5425: t0 = 230, jump @1387\n      : @202 [@dyn 115] (gas: 1)\n  5431: ra = 232, jump @1429\n      : @203 [@dyn 116] (gas: 1)\n  5437: t0 = 234, jump @1398\n      : @204 [@dyn 117] (gas: 1)\n  5443: ra = 236, jump @1429\n      : @205 [@dyn 118] (gas: 2)\n  5449: a1 = i32 [0x2026c]\n  5454: jump @207 if a1 >u 63\n      : @206 (gas: 3)\n  5458: u32 [0x2026c] = 0x40\n  5464: a1 = 0x20280\n  5469: jump @241\n      : @207 (gas: 2)\n  5472: a1 = 0x20280\n  5477: jump @241\n      : @208 (gas: 6)\n  5480: u64 [s1 + 400] = 0\n  5484: u64 [s1 + 392] = 0\n  5488: u64 [s1 + 384] = 0\n  5492: t0 = 0xee\n  5496: a0 = 0x4e487b7100000000\n  5506: fallthrough\n      : @209 [@dyn 119] (gas: 4)\n  5507: a1 = s1 + 0x180\n  5511: u64 [s1 + 0x198] = a0\n  5515: a0 = 0\n  5517: ra = 240, jump @1429\n      : @210 [@dyn 120] (gas: 7)\n  5523: u64 [s1 + 376] = 0\n  5527: u64 [s1 + 368] = 0\n  5531: u64 [s1 + 352] = 0x22\n  5536: a0 = 0x4\n  5539: a1 = s1 + 0x160\n  5543: u64 [s1 + 360] = 0\n  5547: ra = 242, jump @1429\n      : @211 [@dyn 121] (gas: 2)\n  5553: a1 = i32 [0x2026c]\n  5558: jump @213 if a1 >u 63\n      : @212 (gas: 3)\n  5562: u32 [0x2026c] = 0x40\n  5568: a1 = 0x20280\n  5573: jump @241\n      : @213 (gas: 2)\n  5576: a1 = 0x20280\n  5581: jump @241\n      : @214 (gas: 6)\n  5584: u64 [s1 + 496] = 0\n  5588: u64 [s1 + 488] = 0\n  5592: u64 [s1 + 480] = 0\n  5596: t0 = 0xf4\n  5600: a0 = 0x4e487b7100000000\n  5610: fallthrough\n      : @215 [@dyn 122] (gas: 4)\n  5611: a1 = s1 + 0x1e0\n  5615: u64 [s1 + 0x1f8] = a0\n  5619: a0 = 0\n  5621: ra = 246, jump @1429\n      : @216 [@dyn 123] (gas: 7)\n  5627: u64 [s1 + 472] = 0\n  5631: u64 [s1 + 464] = 0\n  5635: u64 [s1 + 448] = 0x41\n  5640: a0 = 0x4\n  5643: a1 = s1 + 0x1c0\n  5647: u64 [s1 + 456] = 0\n  5651: ra = 248, jump @1429\n      : @217 [@dyn 124] (gas: 2)\n  5657: a1 = i32 [0x2026c]\n  5662: jump @219 if a1 >u 63\n      : @218 (gas: 3)\n  5666: u32 [0x2026c] = 0x40\n  5672: a1 = 0x20280\n  5677: jump @241\n      : @219 (gas: 2)\n  5680: a1 = 0x20280\n  5685: jump @241\n      : @220 (gas: 6)\n  5688: u64 [s1 + 560] = 0\n  5692: u64 [s1 + 552] = 0\n  5696: u64 [s1 + 544] = 0\n  5700: t0 = 0xfa\n  5704: a0 = 0x4e487b7100000000\n  5714: fallthrough\n      : @221 [@dyn 125] (gas: 4)\n  5715: a1 = s1 + 0x220\n  5719: u64 [s1 + 0x238] = a0\n  5723: a0 = 0\n  5725: ra = 252, jump @1429\n      : @222 [@dyn 126] (gas: 7)\n  5731: u64 [s1 + 536] = 0\n  5735: u64 [s1 + 528] = 0\n  5739: u64 [s1 + 512] = 0x22\n  5744: a0 = 0x4\n  5747: a1 = s1 + 0x200\n  5751: u64 [s1 + 520] = 0\n  5755: ra = 254, jump @1429\n      : @223 [@dyn 127] (gas: 2)\n  5761: a1 = i32 [0x2026c]\n  5766: jump @225 if a1 >u 63\n      : @224 (gas: 3)\n  5770: u32 [0x2026c] = 0x40\n  5776: a1 = 0x20280\n  5781: jump @241\n      : @225 (gas: 2)\n  5784: a1 = 0x20280\n  5789: jump @241\n      : @226 (gas: 8)\n  5792: u64 [s1 + 656] = 0\n  5796: u64 [s1 + 648] = 0\n  5800: u64 [s1 + 640] = 0\n  5804: a0 = 0xec442f0500000000\n  5814: a1 = s1 + 0x280\n  5818: u64 [s1 + 0x298] = a0\n  5822: a0 = 0\n  5824: ra = 256, jump @1429\n      : @227 [@dyn 128] (gas: 7)\n  5830: u64 [s1 + 632] = 0\n  5834: u64 [s1 + 624] = 0\n  5838: u64 [s1 + 616] = 0\n  5842: a0 = 0x4\n  5845: a1 = s1 + 0x260\n  5849: u64 [s1 + 608] = 0\n  5853: ra = 258, jump @1429\n      : @228 [@dyn 129] (gas: 2)\n  5859: a1 = i32 [0x2026c]\n  5864: jump @230 if a1 >u 63\n      : @229 (gas: 3)\n  5868: u32 [0x2026c] = 0x40\n  5874: a1 = 0x20280\n  5879: jump @241\n      : @230 (gas: 2)\n  5882: a1 = 0x20280\n  5887: jump @241\n      : @231 (gas: 8)\n  5890: u64 [s1 + 1072] = 0\n  5894: u64 [s1 + 1064] = 0\n  5898: u64 [s1 + 1056] = 0\n  5902: a0 = 0xd93c066500000000\n  5912: a1 = s1 + 0x420\n  5916: u64 [s1 + 0x438] = a0\n  5920: a0 = 0\n  5922: ra = 260, jump @1429\n      : @232 [@dyn 130] (gas: 2)\n  5928: a1 = i32 [0x2026c]\n  5933: jump @234 if a1 >u 31\n      : @233 (gas: 2)\n  5937: u32 [0x2026c] = 0x20\n  5943: fallthrough\n      : @234 (gas: 6)\n  5944: a1 = 0x20280\n  5949: i32 a1 = a1 + 0\n  5951: a0 = 0x1\n  5954: a2 = 0x4\n  5957: ecalli 7 // 'seal_return'\n  5959: fallthrough\n      : @235 (gas: 6)\n  5960: u64 [s1 + 720] = 0\n  5964: u64 [s1 + 712] = 0\n  5968: u64 [s1 + 704] = 0\n  5972: t0 = 0x106\n  5976: a0 = 0x4e487b7100000000\n  5986: fallthrough\n      : @236 [@dyn 131] (gas: 4)\n  5987: a1 = s1 + 0x2c0\n  5991: u64 [s1 + 0x2d8] = a0\n  5995: a0 = 0\n  5997: ra = 264, jump @1429\n      : @237 [@dyn 132] (gas: 7)\n  6003: u64 [s1 + 696] = 0\n  6007: u64 [s1 + 688] = 0\n  6011: u64 [s1 + 672] = 0x11\n  6016: a0 = 0x4\n  6019: a1 = s1 + 0x2a0\n  6023: u64 [s1 + 680] = 0\n  6027: ra = 266, jump @1429\n      : @238 [@dyn 133] (gas: 2)\n  6033: a1 = i32 [0x2026c]\n  6038: jump @240 if a1 >u 63\n      : @239 (gas: 3)\n  6042: u32 [0x2026c] = 0x40\n  6048: a1 = 0x20280\n  6053: jump @241\n      : @240 (gas: 2)\n  6055: a1 = 0x20280\n  6060: fallthrough\n      : @241 (gas: 5)\n  6061: i32 a1 = a1 + 0\n  6063: a0 = 0x1\n  6066: a2 = 0x24\n  6069: ecalli 7 // 'seal_return'\n  6071: fallthrough\n      : @242 (gas: 7)\n  6072: a0 = u64 [s1 + 0xf8]\n  6076: i32 a0 = a0 + a3\n  6079: a1 = 0\n  6081: a2 = 0\n  6083: u64 [s1 + 0x118] = a3\n  6087: ecalli 0 // 'call_data_copy'\n  6088: jump @1425\n      : @243 (gas: 3)\n  6091: a0 = u64 [s1 + 0x118]\n  6095: a1 = 0\n  6097: ra = 268, jump @1439\n      : @244 [@dyn 134] (gas: 3)\n  6103: i32 a1 = a0 + 0\n  6105: a0 = 0\n  6107: jump @200\n      : @245 [@dyn 135] (gas: 4)\n  6110: a0 = 0x20268\n  6115: u64 [s1 + 0xb8] = a0\n  6119: a0 = i32 [0x20268]\n  6124: jump @247 if a0 >=u 4\n      : @246 (gas: 1)\n  6128: jump @855\n      : @247 (gas: 9)\n  6131: a0 = sp + 0xffffffffffffffe0\n  6134: a0 = a0 & 0xffffffffffffffe0\n  6137: u64 [s1 + 0xb0] = a0\n  6141: sp = a0\n  6143: i32 a0 = a0 + 0\n  6145: a1 = 0\n  6147: ra = 0x110\n  6151: ecalli 1 // 'call_data_load'\n  6153: fallthrough\n      : @248 [@dyn 136] (gas: 3)\n  6154: a0 = u64 [s1 + 0xb0]\n  6158: a0 = i32 [a0 + 0x1c]\n  6161: jump @250 if a0 != 2220280665\n      : @249 (gas: 1)\n  6168: jump @551\n      : @250 (gas: 1)\n  6171: jump @289 if a0 == 2446411860\n      : @251 (gas: 1)\n  6179: jump @253 if a0 != 2514000705\n      : @252 (gas: 1)\n  6186: jump @462\n      : @253 (gas: 1)\n  6189: jump @316 if a0 == 2719481311\n      : @254 (gas: 1)\n  6197: jump @256 if a0 != 2835717307\n      : @255 (gas: 1)\n  6204: jump @585\n      : @256 (gas: 1)\n  6207: jump @367 if a0 == 3577287571\n      : @257 (gas: 1)\n  6215: jump @328 if a0 == 3714247998\n      : @258 (gas: 1)\n  6223: jump @260 if a0 != 3862606313\n      : @259 (gas: 1)\n  6230: jump @619\n      : @260 (gas: 1)\n  6233: jump @379 if a0 == 117300739\n      : @261 (gas: 1)\n  6241: jump @263 if a0 != 157198259\n      : @262 (gas: 1)\n  6248: jump @628\n      : @263 (gas: 1)\n  6251: jump @265 if a0 != 404098525\n      : @264 (gas: 1)\n  6258: jump @517\n      : @265 (gas: 1)\n  6261: jump @267 if a0 != 599290589\n      : @266 (gas: 1)\n  6268: jump @602\n      : @267 (gas: 1)\n  6271: jump @269 if a0 != 613063843\n      : @268 (gas: 1)\n  6278: jump @573\n      : @269 (gas: 1)\n  6281: jump @355 if a0 == 826074471\n      : @270 (gas: 1)\n  6289: jump @272 if a0 != 1061922874\n      : @271 (gas: 1)\n  6296: jump @495\n      : @272 (gas: 1)\n  6299: jump @410 if a0 == 1086394137\n      : @273 (gas: 1)\n  6307: jump @275 if a0 == 1553423035\n      : @274 (gas: 1)\n  6314: jump @530\n      : @275 (gas: 1)\n  6317: t0 = 274, jump @1344\n      : @276 [@dyn 137] (gas: 4)\n  6323: ra = 0x114\n  6327: ecalli 10 // 'value_transferred'\n  6329: t0 = 0x116\n  6333: jump @1345\n      : @277 [@dyn 138] (gas: 1)\n  6336: t0 = 278, jump @1345\n      : @278 [@dyn 139] (gas: 1)\n  6342: jump @280 if a0 == 0\n      : @279 (gas: 1)\n  6345: jump @683\n      : @280 (gas: 3)\n  6348: a0 = u64 [s1 + 0xb8]\n  6352: a0 = i32 [a0]\n  6354: jump @282 if a0 >u 3\n      : @281 (gas: 1)\n  6358: jump @684\n      : @282 (gas: 1)\n  6361: t0 = 280, jump @1401\n      : @283 [@dyn 140] (gas: 2)\n  6367: a0 = a0 + 0x481\n  6371: ra = 282, jump @1431\n      : @284 [@dyn 141] (gas: 8)\n  6377: a0 = s1 + 0x7ff\n  6381: a0 = a0 + 0x39\n  6384: a0 = u64 [a0 + 0x448]\n  6388: u64 [s1 + 0xb8] = a0\n  6392: a0 = s1 + 0x7ff\n  6396: a0 = a0 + 0x461\n  6400: a1 = 0x40\n  6403: ra = 284, jump @1427\n      : @285 [@dyn 142] (gas: 8)\n  6409: a3 = s1 + 0x7ff\n  6413: a3 = a3 + 0x39\n  6416: a5 = a3 + 0x400\n  6420: a4 = u64 [a5 + 0x40]\n  6423: a1 = u64 [a5 + 0x38]\n  6426: a2 = u64 [a5 + 0x30]\n  6429: a0 = u64 [a5 + 0x28]\n  6432: t0 = 286, jump @1367\n      : @286 [@dyn 143] (gas: 1)\n  6438: jump @288 if a1 == 0\n      : @287 (gas: 1)\n  6441: jump @660\n      : @288 (gas: 11)\n  6444: a1 = u8 [s1 + 0xb8]\n  6448: a1 = a1 >u 0\n  6450: u64 [a3 + 1056] = 0\n  6454: u64 [a3 + 1048] = 0\n  6458: u64 [a3 + 0x408] = a1\n  6462: a1 = s1 + 0x7ff\n  6466: a1 = a1 + 0x441\n  6470: u64 [a3 + 1040] = 0\n  6474: u64 [s1 + 0xb8] = a0\n  6478: ra = 0x30c\n  6482: jump @1429\n      : @289 (gas: 1)\n  6485: t0 = 288, jump @1344\n      : @290 [@dyn 144] (gas: 4)\n  6491: ra = 0x122\n  6495: ecalli 10 // 'value_transferred'\n  6497: t0 = 0x124\n  6501: jump @1345\n      : @291 [@dyn 145] (gas: 1)\n  6504: t0 = 292, jump @1345\n      : @292 [@dyn 146] (gas: 1)\n  6510: jump @294 if a0 == 0\n      : @293 (gas: 1)\n  6513: jump @685\n      : @294 (gas: 4)\n  6516: a0 = u64 [s1 + 0xb8]\n  6520: a0 = i32 [a0]\n  6522: a1 = 0x43\n  6525: jump @296 if a1 <u a0\n      : @295 (gas: 1)\n  6528: jump @686\n      : @296 (gas: 5)\n  6531: a0 = s1 + 0x7ff\n  6535: a0 = a0 + 0x781\n  6539: ra = 0x126\n  6543: t0 = 0x452\n  6547: jump @1423\n      : @297 [@dyn 147] (gas: 10)\n  6550: a1 = s1 + 0x7ff\n  6554: a1 = a1 + 0x39\n  6557: a2 = a1 + 0x700\n  6561: a0 = u64 [a2 + 0x58]\n  6564: u64 [s1 + 0xa8] = a0\n  6568: a0 = u64 [a2 + 0x50]\n  6571: u64 [s1 + 0xb0] = a0\n  6575: a0 = u64 [a2 + 0x48]\n  6578: u64 [s1 + 0xb8] = a0\n  6582: t0 = 296, jump @1399\n      : @298 [@dyn 148] (gas: 17)\n  6588: ecalli 1 // 'call_data_load'\n  6590: a3 = u64 [s1 + 0xa0]\n  6594: a0 = u64 [a3]\n  6596: a1 = u64 [a3 + 0x8]\n  6599: a2 = u64 [a3 + 0x10]\n  6602: a3 = u64 [a3 + 0x18]\n  6605: a4 = s1 + 0x7ff\n  6609: a4 = a4 + 0x39\n  6612: a5 = a4 + 0x700\n  6616: u64 [a5 + 0x40] = a3\n  6619: u64 [a5 + 0x38] = a2\n  6622: u64 [a5 + 0x30] = a1\n  6625: a1 = s1 + 0x7ff\n  6629: a1 = a1 + 0x761\n  6633: u64 [a5 + 0x28] = a0\n  6636: a0 = 0\n  6638: ra = 298, jump @1429\n      : @299 [@dyn 149] (gas: 11)\n  6644: a1 = s1 + 0x7ff\n  6648: a1 = a1 + 0x39\n  6651: u64 [a1 + 1824] = 0\n  6655: u64 [a1 + 1816] = 0\n  6659: u64 [a1 + 1800] = 0x6\n  6664: a2 = a1\n  6666: a0 = 0x20\n  6669: a1 = s1 + 0x7ff\n  6673: a1 = a1 + 0x741\n  6677: u64 [a2 + 1808] = 0\n  6681: ra = 300, jump @1429\n      : @300 [@dyn 150] (gas: 3)\n  6687: a1 = 0x2026c\n  6692: a0 = i32 [0x2026c]\n  6697: jump @302 if a0 >u 63\n      : @301 (gas: 2)\n  6701: u32 [0x2026c] = 0x40\n  6707: fallthrough\n      : @302 (gas: 15)\n  6708: a0 = sp + 0xffffffffffffffe0\n  6711: a2 = a0 & 0xffffffffffffffe0\n  6714: u64 [s1 + 0x90] = a2\n  6718: sp = a2\n  6720: a0 = 0x20280\n  6725: i32 a0 = a0 + 0\n  6727: i32 a2 = a2 + 0\n  6729: u64 [s1 + 0xa0] = a1\n  6733: a1 = 0x40\n  6736: u64 [s1 + 0x98] = a0\n  6740: ra = 0x12e\n  6744: ecalli 6 // 'hash_keccak_256'\n  6746: a3 = u64 [s1 + 0x90]\n  6750: t0 = 0x130\n  6754: jump @1400\n      : @303 [@dyn 151] (gas: 2)\n  6757: a3 = u64 [s1 + 0x90]\n  6761: t0 = 304, jump @1400\n      : @304 [@dyn 152] (gas: 27)\n  6767: u64 [s1 + 0x88] = a0\n  6771: a0 = reverse a1\n  6773: u64 [s1 + 0x80] = a0\n  6777: a0 = reverse a2\n  6779: u64 [s1 + 0x78] = a0\n  6782: a0 = reverse a3\n  6784: u64 [s1 + 0x70] = a0\n  6787: a0 = sp + 0xffffffffffffffe0\n  6790: a0 = a0 & 0xffffffffffffffe0\n  6793: u64 [s1 + 0x90] = a0\n  6797: sp = a0\n  6799: a0 = u64 [s1 + 0xa8]\n  6803: a0 = a0 << 0x20\n  6806: a0 = a0 >> 0x20\n  6809: a2 = s1 + 0x7ff\n  6813: a2 = a2 + 0x39\n  6816: u64 [a2 + 1792] = 0\n  6820: a3 = a2 + 0x600\n  6824: u64 [a3 + 0xf8] = a0\n  6828: a0 = u64 [s1 + 0xb0]\n  6832: u64 [a3 + 0xf0] = a0\n  6836: a1 = s1 + 0x7ff\n  6840: a1 = a1 + 0x721\n  6844: a0 = u64 [s1 + 0xb8]\n  6848: u64 [a3 + 0xe8] = a0\n  6852: a0 = 0\n  6854: ra = 306, jump @1429\n      : @305 [@dyn 153] (gas: 16)\n  6860: a0 = u64 [s1 + 0x70]\n  6863: a1 = s1 + 0x7ff\n  6867: a1 = a1 + 0x39\n  6870: a2 = a1 + 0x600\n  6874: u64 [a2 + 0xe0] = a0\n  6878: a0 = u64 [s1 + 0x78]\n  6881: u64 [a2 + 0xd8] = a0\n  6885: a0 = u64 [s1 + 0x80]\n  6889: u64 [a2 + 0xd0] = a0\n  6893: a3 = a1\n  6895: a0 = 0x20\n  6898: a1 = s1 + 0x7ff\n  6902: a1 = a1 + 0x701\n  6906: a2 = u64 [s1 + 0x88]\n  6910: u64 [a3 + 0x6c8] = a2\n  6914: ra = 308, jump @1429\n      : @306 [@dyn 154] (gas: 3)\n  6920: a1 = u64 [s1 + 0xa0]\n  6924: a0 = i32 [a1]\n  6926: jump @308 if a0 >u 63\n      : @307 (gas: 2)\n  6930: u32 [a1 + 0] = 0x40\n  6933: fallthrough\n      : @308 (gas: 12)\n  6934: a0 = sp + 0xffffffffffffffe0\n  6937: a0 = a0 & 0xffffffffffffffe0\n  6940: u64 [s1 + 0xb8] = a0\n  6944: sp = a0\n  6946: i32 a2 = a0 + 0\n  6948: a1 = 0x40\n  6951: a0 = u64 [s1 + 0x98]\n  6955: ra = 0x136\n  6959: ecalli 6 // 'hash_keccak_256'\n  6961: a3 = u64 [s1 + 0xb8]\n  6965: t0 = 0x138\n  6969: jump @1354\n      : @309 [@dyn 155] (gas: 2)\n  6972: a3 = u64 [s1 + 0xb8]\n  6976: t0 = 312, jump @1354\n      : @310 [@dyn 156] (gas: 8)\n  6982: a1 = u64 [s1 + 0x90]\n  6986: u64 [a1 + 0x18] = a3\n  6989: u64 [a1 + 0x10] = a2\n  6992: u64 [a1 + 0x8] = a4\n  6995: u64 [a1] = a0\n  6997: a0 = s1 + 0x7ff\n  7001: a0 = a0 + 0x6e1\n  7005: ra = 314, jump @1431\n      : @311 [@dyn 157] (gas: 8)\n  7011: a0 = s1 + 0x7ff\n  7015: a0 = a0 + 0x39\n  7018: a0 = u64 [a0 + 0x6a8]\n  7022: u64 [s1 + 0xb8] = a0\n  7026: a0 = s1 + 0x7ff\n  7030: a0 = a0 + 0x6c1\n  7034: a1 = 0x40\n  7037: ra = 316, jump @1427\n      : @312 [@dyn 158] (gas: 8)\n  7043: a3 = s1 + 0x7ff\n  7047: a3 = a3 + 0x39\n  7050: a5 = a3 + 0x600\n  7054: a4 = u64 [a5 + 0xa0]\n  7058: a1 = u64 [a5 + 0x98]\n  7062: a2 = u64 [a5 + 0x90]\n  7066: a0 = u64 [a5 + 0x88]\n  7070: t0 = 318, jump @1367\n      : @313 [@dyn 159] (gas: 1)\n  7076: jump @315 if a1 == 0\n      : @314 (gas: 1)\n  7079: jump @660\n      : @315 (gas: 11)\n  7082: a1 = u8 [s1 + 0xb8]\n  7086: a1 = a1 >u 0\n  7088: u64 [a3 + 1664] = 0\n  7092: u64 [a3 + 1656] = 0\n  7096: u64 [a3 + 0x668] = a1\n  7100: a1 = s1 + 0x7ff\n  7104: a1 = a1 + 0x6a1\n  7108: u64 [a3 + 1648] = 0\n  7112: u64 [s1 + 0xb8] = a0\n  7116: ra = 0x30c\n  7120: jump @1429\n      : @316 (gas: 1)\n  7123: t0 = 320, jump @1344\n      : @317 [@dyn 160] (gas: 4)\n  7129: ra = 0x142\n  7133: ecalli 10 // 'value_transferred'\n  7135: t0 = 0x144\n  7139: jump @1345\n      : @318 [@dyn 161] (gas: 1)\n  7142: t0 = 324, jump @1345\n      : @319 [@dyn 162] (gas: 1)\n  7148: jump @321 if a0 == 0\n      : @320 (gas: 1)\n  7151: jump @687\n      : @321 (gas: 3)\n  7154: a0 = u64 [s1 + 0xb8]\n  7158: a0 = i32 [a0]\n  7160: jump @323 if a0 >u 3\n      : @322 (gas: 1)\n  7164: jump @688\n      : @323 (gas: 3)\n  7167: a0 = s1 + 0x11a0\n  7171: a1 = 0x40\n  7174: ra = 326, jump @1427\n      : @324 [@dyn 163] (gas: 7)\n  7180: a3 = s1 + 0x1038\n  7184: a5 = a3 + 0x100\n  7188: a4 = u64 [a5 + 0x80]\n  7192: a1 = u64 [a5 + 0x78]\n  7195: a2 = u64 [a5 + 0x70]\n  7198: a0 = u64 [a5 + 0x68]\n  7201: t0 = 328, jump @1367\n      : @325 [@dyn 164] (gas: 1)\n  7207: jump @327 if a1 == 0\n      : @326 (gas: 1)\n  7210: jump @660\n      : @327 (gas: 8)\n  7213: u64 [a3 + 352] = 0\n  7217: u64 [a3 + 344] = 0\n  7221: u64 [a3 + 336] = 0\n  7225: a1 = s1 + 0x1180\n  7229: u64 [a3 + 328] = 0\n  7233: u64 [s1 + 0xb8] = a0\n  7237: ra = 0x30c\n  7241: jump @1429\n      : @328 (gas: 1)\n  7244: t0 = 330, jump @1344\n      : @329 [@dyn 165] (gas: 4)\n  7250: ra = 0x14c\n  7254: ecalli 10 // 'value_transferred'\n  7256: t0 = 0x14e\n  7260: jump @1345\n      : @330 [@dyn 166] (gas: 1)\n  7263: t0 = 334, jump @1345\n      : @331 [@dyn 167] (gas: 1)\n  7269: jump @333 if a0 == 0\n      : @332 (gas: 1)\n  7272: jump @689\n      : @333 (gas: 4)\n  7275: a0 = u64 [s1 + 0xb8]\n  7279: a0 = i32 [a0]\n  7281: a1 = 0x43\n  7284: jump @335 if a1 <u a0\n      : @334 (gas: 1)\n  7287: jump @690\n      : @335 (gas: 6)\n  7290: a0 = 0xffffffff\n  7300: u64 [s1 + 0xb8] = a0\n  7304: a0 = s1 + 0x14a0\n  7308: ra = 0x150\n  7312: t0 = 0x448\n  7316: jump @1423\n      : @336 [@dyn 168] (gas: 11)\n  7319: a1 = s1 + 0x1038\n  7323: a0 = u64 [a1 + 0x468]\n  7327: u64 [s1 + 0xb0] = a0\n  7331: a0 = u64 [a1 + 0x470]\n  7335: u64 [s1 + 0x90] = a0\n  7339: a0 = u32 [a1 + 0x478]\n  7343: u64 [s1 + 0x88] = a0\n  7347: a0 = s1 + 0x1480\n  7351: ra = 0x152\n  7355: t0 = 0x452\n  7359: jump @1423\n      : @337 [@dyn 169] (gas: 19)\n  7362: a1 = s1 + 0x1038\n  7366: a2 = a1 + 0x400\n  7370: a0 = u64 [a2 + 0x58]\n  7373: u64 [s1 + 0xa8] = a0\n  7377: a0 = u64 [a2 + 0x50]\n  7380: u64 [s1 + 0xa0] = a0\n  7384: a0 = u64 [a2 + 0x48]\n  7387: u64 [s1 + 0x98] = a0\n  7391: u64 [a1 + 1088] = 0\n  7395: a0 = u64 [s1 + 0x88]\n  7399: u64 [a2 + 0x38] = a0\n  7402: a0 = u64 [s1 + 0x90]\n  7406: u64 [a2 + 0x30] = a0\n  7409: a2 = a1\n  7411: a1 = s1 + 0x1460\n  7415: a0 = u64 [s1 + 0xb0]\n  7419: u64 [a2 + 0x428] = a0\n  7423: a0 = 0\n  7425: ra = 340, jump @1429\n      : @338 [@dyn 170] (gas: 9)\n  7431: a1 = s1 + 0x1038\n  7435: u64 [a1 + 1056] = 0\n  7439: u64 [a1 + 1048] = 0\n  7443: u64 [a1 + 1032] = 0x1\n  7448: a2 = a1\n  7450: a0 = 0x20\n  7453: a1 = s1 + 0x1440\n  7457: u64 [a2 + 1040] = 0\n  7461: ra = 342, jump @1429\n      : @339 [@dyn 171] (gas: 3)\n  7467: a1 = 0x2026c\n  7472: a0 = i32 [0x2026c]\n  7477: jump @341 if a0 >u 63\n      : @340 (gas: 2)\n  7481: u32 [0x2026c] = 0x40\n  7487: fallthrough\n      : @341 (gas: 15)\n  7488: a0 = sp + 0xffffffffffffffe0\n  7491: a2 = a0 & 0xffffffffffffffe0\n  7494: u64 [s1 + 0x88] = a2\n  7498: sp = a2\n  7500: a0 = 0x20280\n  7505: i32 a0 = a0 + 0\n  7507: i32 a2 = a2 + 0\n  7509: u64 [s1 + 0xb0] = a1\n  7513: a1 = 0x40\n  7516: u64 [s1 + 0x90] = a0\n  7520: ra = 0x158\n  7524: ecalli 6 // 'hash_keccak_256'\n  7526: a3 = u64 [s1 + 0x88]\n  7530: t0 = 0x15a\n  7534: jump @1400\n      : @342 [@dyn 172] (gas: 2)\n  7537: a3 = u64 [s1 + 0x88]\n  7541: t0 = 346, jump @1400\n      : @343 [@dyn 173] (gas: 27)\n  7547: u64 [s1 + 0x80] = a0\n  7551: a0 = reverse a1\n  7553: u64 [s1 + 0x78] = a0\n  7556: a0 = reverse a2\n  7558: u64 [s1 + 0x70] = a0\n  7561: a0 = reverse a3\n  7563: u64 [s1 + 0x68] = a0\n  7566: a0 = sp + 0xffffffffffffffe0\n  7569: a0 = a0 & 0xffffffffffffffe0\n  7572: u64 [s1 + 0x88] = a0\n  7576: sp = a0\n  7578: a0 = u64 [s1 + 0x98]\n  7582: a0 = a0 & 0xffffffffffffffff\n  7585: a2 = u64 [s1 + 0xa0]\n  7589: a1 = a2 & 0xffffffffffffffff\n  7592: a2 = u64 [s1 + 0xb8]\n  7596: a3 = u64 [s1 + 0xa8]\n  7600: a2 = a2 & a3\n  7603: a3 = s1 + 0x1038\n  7607: u64 [a3 + 1024] = 0\n  7611: a4 = a3 + 0x300\n  7615: u64 [a4 + 0xf8] = a2\n  7619: u64 [a4 + 0xf0] = a1\n  7623: a1 = s1 + 0x1420\n  7627: u64 [a4 + 0xe8] = a0\n  7631: a0 = 0\n  7633: ra = 348, jump @1429\n      : @344 [@dyn 174] (gas: 14)\n  7639: a0 = u64 [s1 + 0x68]\n  7642: a1 = s1 + 0x1038\n  7646: a2 = a1 + 0x300\n  7650: u64 [a2 + 0xe0] = a0\n  7654: a0 = u64 [s1 + 0x70]\n  7657: u64 [a2 + 0xd8] = a0\n  7661: a0 = u64 [s1 + 0x78]\n  7664: u64 [a2 + 0xd0] = a0\n  7668: a3 = a1\n  7670: a0 = 0x20\n  7673: a1 = s1 + 0x1400\n  7677: a2 = u64 [s1 + 0x80]\n  7681: u64 [a3 + 0x3c8] = a2\n  7685: ra = 350, jump @1429\n      : @345 [@dyn 175] (gas: 3)\n  7691: a1 = u64 [s1 + 0xb0]\n  7695: a0 = i32 [a1]\n  7697: jump @347 if a0 >u 63\n      : @346 (gas: 2)\n  7701: u32 [a1 + 0] = 0x40\n  7704: fallthrough\n      : @347 (gas: 12)\n  7705: a0 = sp + 0xffffffffffffffe0\n  7708: a0 = a0 & 0xffffffffffffffe0\n  7711: u64 [s1 + 0xb8] = a0\n  7715: sp = a0\n  7717: i32 a2 = a0 + 0\n  7719: a1 = 0x40\n  7722: a0 = u64 [s1 + 0x90]\n  7726: ra = 0x160\n  7730: ecalli 6 // 'hash_keccak_256'\n  7732: a3 = u64 [s1 + 0xb8]\n  7736: t0 = 0x162\n  7740: jump @1354\n      : @348 [@dyn 176] (gas: 2)\n  7743: a3 = u64 [s1 + 0xb8]\n  7747: t0 = 354, jump @1354\n      : @349 [@dyn 177] (gas: 7)\n  7753: a1 = u64 [s1 + 0x88]\n  7757: u64 [a1 + 0x18] = a3\n  7760: u64 [a1 + 0x10] = a2\n  7763: u64 [a1 + 0x8] = a4\n  7766: u64 [a1] = a0\n  7768: a0 = s1 + 0x13e0\n  7772: ra = 356, jump @1431\n      : @350 [@dyn 178] (gas: 13)\n  7778: a1 = s1 + 0x1038\n  7782: a2 = a1 + 0x300\n  7786: a0 = u64 [a2 + 0xc0]\n  7790: u64 [s1 + 0xb8] = a0\n  7794: a0 = u64 [a2 + 0xb8]\n  7798: u64 [s1 + 0xb0] = a0\n  7802: a0 = u64 [a2 + 0xb0]\n  7806: u64 [s1 + 0xa8] = a0\n  7810: a0 = u64 [a2 + 0xa8]\n  7814: u64 [s1 + 0xa0] = a0\n  7818: a0 = s1 + 0x13c0\n  7822: a1 = 0x40\n  7825: ra = 358, jump @1427\n      : @351 [@dyn 179] (gas: 3)\n  7831: a3 = s1 + 0x1038\n  7835: a5 = a3 + 0x300\n  7839: t0 = 360, jump @1403\n      : @352 [@dyn 180] (gas: 1)\n  7845: jump @354 if a0 == 0\n      : @353 (gas: 1)\n  7848: jump @660\n      : @354 (gas: 14)\n  7851: a0 = u64 [s1 + 0xa0]\n  7855: a2 = a3 + 0x300\n  7859: u64 [a2 + 0x68] = a0\n  7862: a0 = u64 [s1 + 0xa8]\n  7866: u64 [a2 + 0x70] = a0\n  7869: a0 = u64 [s1 + 0xb0]\n  7873: u64 [a2 + 0x78] = a0\n  7876: a1 = s1 + 0x13a0\n  7880: a0 = u64 [s1 + 0xb8]\n  7884: u64 [a2 + 0x80] = a0\n  7888: a0 = a4\n  7890: u64 [s1 + 0xb8] = a4\n  7894: ra = 0x30c\n  7898: jump @1429\n      : @355 (gas: 1)\n  7901: t0 = 362, jump @1344\n      : @356 [@dyn 181] (gas: 4)\n  7907: ra = 0x16c\n  7911: ecalli 10 // 'value_transferred'\n  7913: t0 = 0x16e\n  7917: jump @1345\n      : @357 [@dyn 182] (gas: 1)\n  7920: t0 = 366, jump @1345\n      : @358 [@dyn 183] (gas: 1)\n  7926: jump @360 if a0 == 0\n      : @359 (gas: 1)\n  7929: jump @691\n      : @360 (gas: 3)\n  7932: a0 = u64 [s1 + 0xb8]\n  7936: a0 = i32 [a0]\n  7938: jump @362 if a0 >u 3\n      : @361 (gas: 1)\n  7942: jump @692\n      : @362 (gas: 3)\n  7945: a0 = s1 + 0x7e0\n  7949: a1 = 0x40\n  7952: ra = 368, jump @1427\n      : @363 [@dyn 184] (gas: 6)\n  7958: a4 = s1 + 0x700\n  7962: a3 = u64 [a4 + 0xf8]\n  7966: a1 = u64 [a4 + 0xf0]\n  7970: a2 = u64 [a4 + 0xe8]\n  7974: a0 = u64 [a4 + 0xe0]\n  7978: t0 = 370, jump @1368\n      : @364 [@dyn 185] (gas: 1)\n  7984: jump @366 if a1 == 0\n      : @365 (gas: 1)\n  7987: jump @660\n      : @366 (gas: 8)\n  7990: u64 [s1 + 2008] = 0\n  7994: u64 [s1 + 2000] = 0\n  7998: u64 [s1 + 1992] = 0\n  8002: a1 = s1 + 0x7c0\n  8006: u64 [s1 + 1984] = 0x12\n  8011: u64 [s1 + 0xb8] = a0\n  8015: ra = 0x30c\n  8019: jump @1429\n      : @367 (gas: 1)\n  8022: t0 = 372, jump @1344\n      : @368 [@dyn 186] (gas: 4)\n  8028: ra = 0x176\n  8032: ecalli 10 // 'value_transferred'\n  8034: t0 = 0x178\n  8038: jump @1345\n      : @369 [@dyn 187] (gas: 1)\n  8041: t0 = 376, jump @1345\n      : @370 [@dyn 188] (gas: 1)\n  8047: jump @372 if a0 == 0\n      : @371 (gas: 1)\n  8050: jump @693\n      : @372 (gas: 3)\n  8053: a0 = u64 [s1 + 0xb8]\n  8057: a0 = i32 [a0]\n  8059: jump @374 if a0 >u 3\n      : @373 (gas: 1)\n  8063: jump @694\n      : @374 (gas: 3)\n  8066: a0 = s1 + 0x12a0\n  8070: a1 = 0x40\n  8073: ra = 378, jump @1427\n      : @375 [@dyn 189] (gas: 7)\n  8079: a3 = s1 + 0x1038\n  8083: a5 = a3 + 0x200\n  8087: a4 = u64 [a5 + 0x80]\n  8091: a1 = u64 [a5 + 0x78]\n  8094: a2 = u64 [a5 + 0x70]\n  8097: a0 = u64 [a5 + 0x68]\n  8100: t0 = 380, jump @1367\n      : @376 [@dyn 190] (gas: 1)\n  8106: jump @378 if a1 == 0\n      : @377 (gas: 1)\n  8109: jump @660\n      : @378 (gas: 13)\n  8112: a1 = u64 [0x20048]\n  8117: a5 = a3 + 0x200\n  8121: u64 [a5 + 0x60] = a1\n  8124: a4 = u64 [0x20050]\n  8129: a1 = u64 [0x20058]\n  8134: a2 = u64 [0x20060]\n  8139: u64 [a5 + 0x58] = a4\n  8142: u64 [a5 + 0x50] = a1\n  8145: a1 = s1 + 0x1280\n  8149: u64 [a5 + 0x48] = a2\n  8152: u64 [s1 + 0xb8] = a0\n  8156: ra = 0x30c\n  8160: jump @1429\n      : @379 (gas: 1)\n  8163: t0 = 382, jump @1344\n      : @380 [@dyn 191] (gas: 4)\n  8169: ra = 0x180\n  8173: ecalli 10 // 'value_transferred'\n  8175: t0 = 0x182\n  8179: jump @1345\n      : @381 [@dyn 192] (gas: 1)\n  8182: t0 = 386, jump @1345\n      : @382 [@dyn 193] (gas: 1)\n  8188: jump @384 if a0 == 0\n      : @383 (gas: 1)\n  8191: jump @695\n      : @384 (gas: 3)\n  8194: a0 = u64 [s1 + 0xb8]\n  8198: a0 = i32 [a0]\n  8200: jump @386 if a0 >u 3\n      : @385 (gas: 1)\n  8204: jump @696\n      : @386 (gas: 3)\n  8207: a0 = s1 + 0x2a0\n  8211: a1 = 0x40\n  8214: ra = 388, jump @1427\n      : @387 [@dyn 194] (gas: 9)\n  8220: a0 = u64 [s1 + 0x2b8]\n  8224: u64 [s1 + 0x38] = a0\n  8227: a0 = u64 [s1 + 0x2b0]\n  8231: u64 [s1 + 0x40] = a0\n  8234: a0 = u64 [s1 + 0x2a8]\n  8238: u64 [s1 + 0x48] = a0\n  8241: a0 = u64 [s1 + 0x2a0]\n  8245: u64 [s1 + 0x50] = a0\n  8248: t0 = 390, jump @1415\n      : @388 [@dyn 195] (gas: 2)\n  8254: a0 = s1 + 0x280\n  8258: ra = 392, jump @1431\n      : @389 [@dyn 196] (gas: 34)\n  8264: a2 = u64 [s1 + 0x290]\n  8268: t2 = u64 [s1 + 0x288]\n  8272: t0 = u64 [s1 + 0x298]\n  8276: a5 = u64 [s1 + 0x280]\n  8280: a0 = a2 << 0x3f\n  8283: a1 = t2 >> 0x1\n  8286: a0 = a0 | a1\n  8289: a1 = t0 << 0x3f\n  8292: u64 [s1 + 0xb0] = a2\n  8296: a2 = a2 >> 0x1\n  8299: a1 = a1 | a2\n  8302: a2 = t2 << 0x3f\n  8305: a3 = a5 >> 0x1\n  8308: a4 = a3 | a2\n  8311: a2 = t0 >> 0x1\n  8314: u64 [s1 + 0xa8] = a5\n  8318: a5 = a5 & 0x1\n  8321: a3 = -a5\n  8323: a1 = a1 & a3\n  8326: t1 = a3 & a0\n  8329: a2 = a2 & a3\n  8332: ra = a4 & 0x7f\n  8335: a4 = ra if a5 == 0\n  8338: u64 [s1 + 0x98] = a4\n  8342: a0 = a4 <u 0x20\n  8345: u64 [s1 + 0x88] = t1\n  8349: a0 = 0 if t1 != 0\n  8351: u64 [s1 + 0x90] = a1\n  8355: u64 [s1 + 0x80] = a2\n  8359: a1 = a1 | a2\n  8362: a0 = 0 if a1 != 0\n  8364: u64 [s1 + 0xb8] = a5\n  8368: a1 = a5 <u 0x1\n  8371: jump @391 if a1 == a0\n      : @390 (gas: 1)\n  8374: jump @697\n      : @391 (gas: 12)\n  8377: a2 = u64 [s1 + 0x40]\n  8380: a4 = u64 [s1 + 0x50]\n  8383: a0 = a4 | a2\n  8386: a1 = u64 [s1 + 0x38]\n  8389: a3 = u64 [s1 + 0x48]\n  8392: a1 = a1 | a3\n  8395: a0 = a0 | a1\n  8398: a0 = a0 >> 0x20\n  8401: a1 = a1 | a2\n  8404: a1 = a1 << 0x20\n  8407: a1 = a1 | a0\n  8410: jump @393 if a1 == 0\n      : @392 (gas: 1)\n  8413: jump @660\n      : @393 (gas: 15)\n  8416: a0 = a4\n  8418: u64 [s1 + 0x70] = ra\n  8421: u64 [s1 + 0x78] = t2\n  8424: u64 [s1 + 0xa0] = t0\n  8428: a1 = u64 [s1 + 0x98]\n  8432: a3 = s1 + 0x200\n  8436: u64 [a3 + 0x60] = a1\n  8439: a1 = u64 [s1 + 0x88]\n  8443: u64 [a3 + 0x68] = a1\n  8446: a1 = u64 [s1 + 0x90]\n  8450: u64 [a3 + 0x70] = a1\n  8453: a1 = s1 + 0x260\n  8457: a2 = u64 [s1 + 0x80]\n  8461: u64 [a3 + 0x78] = a2\n  8464: ra = 394, jump @1429\n      : @394 [@dyn 197] (gas: 2)\n  8470: a0 = u64 [s1 + 0xb8]\n  8474: jump @396 if a0 == 0\n      : @395 (gas: 1)\n  8477: jump @661\n      : @396 (gas: 1)\n  8480: t0 = 396, jump @1394\n      : @397 [@dyn 198] (gas: 1)\n  8486: jump @399 if a1 != 0\n      : @398 (gas: 1)\n  8489: jump @660\n      : @399 (gas: 13)\n  8492: a1 = u64 [s1 + 0xa8]\n  8496: a1 = a1 & 0xffffffffffffff00\n  8500: i32 a0 = a3 + 0x20\n  8503: a2 = u64 [s1 + 0x78]\n  8506: a4 = s1 + 0x100\n  8510: u64 [a4 + 0xe8] = a2\n  8514: u64 [a4 + 0xe0] = a1\n  8518: a1 = u64 [s1 + 0xb0]\n  8522: u64 [a4 + 0xf0] = a1\n  8526: a1 = s1 + 0x1e0\n  8530: a3 = u64 [s1 + 0xa0]\n  8534: u64 [a4 + 0xf8] = a3\n  8538: ra = 398, jump @1429\n      : @400 [@dyn 199] (gas: 7)\n  8544: t2 = 0\n  8546: t0 = 0\n  8548: a5 = 0\n  8550: a0 = u64 [s1 + 0x70]\n  8553: a0 = a0 >u 0\n  8555: ra = a0 << 0x5\n  8558: fallthrough\n      : @401 (gas: 34)\n  8559: a0 = ra + 0x3f\n  8562: a1 = a0 <u ra\n  8565: a2 = t2 + a1\n  8568: a0 = a0 & 0xffffffffffffffe0\n  8571: t1 = u64 [s1 + 0x50]\n  8574: t1 = t1 + a0\n  8577: a0 = t1 <u a0\n  8580: a3 = u64 [s1 + 0x48]\n  8583: a3 = a3 + a2\n  8586: ra = a3 + a0\n  8589: a3 = ra ^ a2\n  8592: a4 = ra <u a2\n  8595: a4 = a0 if a3 == 0\n  8598: a0 = a2 <u t2\n  8601: a0 = a1 if a1 == 0\n  8604: a0 = a0 + t0\n  8607: a1 = a0 <u t0\n  8610: t2 = u64 [s1 + 0x40]\n  8613: a2 = a0 + t2\n  8616: a4 = a4 + a2\n  8619: a0 = a2 <u a0\n  8622: a2 = a4 <u a2\n  8625: t0 = u64 [s1 + 0x38]\n  8628: a3 = a5 + t0\n  8631: a1 = a1 + a3\n  8634: a0 = a0 + a1\n  8637: a5 = a0 + a2\n  8640: a0 = a5 >u 0\n  8642: a1 = a4 >u 0\n  8644: a1 = a0 if a5 != 0\n  8647: a0 = a4 | a5\n  8650: a2 = ra >u 0\n  8652: a2 = a1 if a0 != 0\n  8655: jump @403 if a2 == 0\n      : @402 (gas: 1)\n  8658: jump @766\n      : @403 (gas: 14)\n  8661: a0 = u64 [s1 + 0x50]\n  8664: a0 = t1 <u a0\n  8667: a2 = u64 [s1 + 0x48]\n  8670: a1 = ra ^ a2\n  8673: a2 = ra <u a2\n  8676: a2 = a0 if a1 == 0\n  8679: a0 = a4 <u t2\n  8682: a1 = a5 ^ t0\n  8685: a3 = a5 <u t0\n  8688: a3 = a0 if a1 == 0\n  8691: a0 = a4 ^ t2\n  8694: a0 = a0 | a1\n  8697: a3 = a2 if a0 == 0\n  8700: jump @405 if a3 == 0\n      : @404 (gas: 1)\n  8703: jump @766\n      : @405 (gas: 11)\n  8706: u64 [s1 + 0x1c0] = t1\n  8710: u64 [s1 + 0x1c8] = ra\n  8714: u64 [s1 + 0x1d0] = a4\n  8718: a0 = 0x40\n  8721: a1 = s1 + 0x1c0\n  8725: u64 [s1 + 0x1d8] = a5\n  8729: u64 [s1 + 0xb0] = t1\n  8733: u64 [s1 + 0xa8] = ra\n  8737: u64 [s1 + 0xa0] = a4\n  8741: u64 [s1 + 0xb8] = a5\n  8745: ra = 400, jump @1429\n      : @406 [@dyn 200] (gas: 21)\n  8751: a0 = u64 [s1 + 0x38]\n  8754: a4 = s1 + 0x100\n  8758: u64 [a4 + 0x78] = a0\n  8761: a0 = u64 [s1 + 0x40]\n  8764: u64 [a4 + 0x70] = a0\n  8767: a0 = u64 [s1 + 0x48]\n  8770: u64 [a4 + 0x68] = a0\n  8773: a0 = u64 [s1 + 0x50]\n  8776: u64 [a4 + 0x60] = a0\n  8779: a0 = u64 [s1 + 0xb8]\n  8783: u64 [a4 + 0x98] = a0\n  8787: a0 = u64 [s1 + 0xa0]\n  8791: u64 [a4 + 0x90] = a0\n  8795: a0 = u64 [s1 + 0xa8]\n  8799: u64 [a4 + 0x88] = a0\n  8803: a0 = s1 + 0x1a0\n  8807: a1 = s1 + 0x180\n  8811: a2 = s1 + 0x160\n  8815: a3 = u64 [s1 + 0xb0]\n  8819: u64 [a4 + 0x80] = a3\n  8823: ra = 402, jump @1018\n      : @407 [@dyn 201] (gas: 12)\n  8829: a5 = u64 [s1 + 0xb8]\n  8833: t0 = u64 [s1 + 0xa0]\n  8837: a4 = u64 [s1 + 0xa8]\n  8841: a2 = u64 [s1 + 0xb0]\n  8845: a0 = a2 | t0\n  8848: a1 = a4 | a5\n  8851: a0 = a0 | a1\n  8854: a0 = a0 >> 0x20\n  8857: a1 = a1 | t0\n  8860: a1 = a1 << 0x20\n  8863: a0 = a0 | a1\n  8866: jump @409 if a0 == 0\n      : @408 (gas: 1)\n  8869: jump @660\n      : @409 (gas: 7)\n  8872: a5 = s1 + 0x100\n  8876: a0 = u64 [a5 + 0xa8]\n  8880: a1 = u64 [a5 + 0xb8]\n  8884: u64 [s1 + 0x98] = a1\n  8888: t1 = u64 [s1 + 0x1a0]\n  8892: a3 = u64 [a5 + 0xb0]\n  8896: jump @492\n      : @410 (gas: 1)\n  8899: t0 = 404, jump @1344\n      : @411 [@dyn 202] (gas: 4)\n  8905: ra = 0x196\n  8909: ecalli 10 // 'value_transferred'\n  8911: t0 = 0x198\n  8915: jump @1345\n      : @412 [@dyn 203] (gas: 1)\n  8918: t0 = 408, jump @1345\n      : @413 [@dyn 204] (gas: 1)\n  8924: jump @415 if a0 == 0\n      : @414 (gas: 1)\n  8927: jump @703\n      : @415 (gas: 4)\n  8930: a0 = u64 [s1 + 0xb8]\n  8934: a0 = i32 [a0]\n  8936: a1 = 0x43\n  8939: jump @417 if a1 <u a0\n      : @416 (gas: 1)\n  8942: jump @704\n      : @417 (gas: 5)\n  8945: a0 = s1 + 0x7ff\n  8949: a0 = a0 + 0x3e1\n  8953: ra = 0x19a\n  8957: t0 = 0x448\n  8961: jump @1423\n      : @418 [@dyn 205] (gas: 44)\n  8964: a1 = s1 + 0x7ff\n  8968: a1 = a1 + 0x39\n  8971: a2 = a1 + 0x300\n  8975: a0 = u64 [a2 + 0xb8]\n  8979: u64 [s1 + 0x78] = a0\n  8982: a0 = u64 [a2 + 0xb0]\n  8986: u64 [s1 + 0xa8] = a0\n  8990: a0 = u64 [a2 + 0xa8]\n  8994: u64 [s1 + 0xb0] = a0\n  8998: a0 = sp + 0xffffffffffffffe0\n  9001: a0 = a0 & 0xffffffffffffffe0\n  9004: u64 [s1 + 0xb8] = a0\n  9008: sp = a0\n  9010: i32 a0 = a0 + 0\n  9012: a1 = 0x24\n  9015: ecalli 1 // 'call_data_load'\n  9017: a1 = u64 [s1 + 0xb8]\n  9021: a0 = u64 [a1 + 0x18]\n  9024: u64 [s1 + 0xa0] = a0\n  9028: a0 = u64 [a1 + 0x10]\n  9031: u64 [s1 + 0x98] = a0\n  9035: a0 = u64 [a1 + 0x8]\n  9038: u64 [s1 + 0x90] = a0\n  9042: a0 = u64 [a1]\n  9044: u64 [s1 + 0x80] = a0\n  9048: a0 = u64 [0x20048]\n  9053: u64 [s1 + 0x40] = a0\n  9056: a3 = s1 + 0x7ff\n  9060: a3 = a3 + 0x39\n  9063: a4 = a3 + 0x300\n  9067: u64 [a4 + 0xa0] = a0\n  9071: a1 = u64 [0x20050]\n  9076: a2 = u64 [0x20058]\n  9081: a0 = u64 [0x20060]\n  9086: u64 [s1 + 0x30] = a1\n  9089: u64 [a4 + 0x98] = a1\n  9093: u64 [s1 + 0x28] = a2\n  9096: u64 [a4 + 0x90] = a2\n  9100: a1 = s1 + 0x7ff\n  9104: a1 = a1 + 0x3c1\n  9108: u64 [s1 + 0x38] = a0\n  9111: u64 [a4 + 0x88] = a0\n  9115: a0 = 0\n  9117: ra = 412, jump @1429\n      : @419 [@dyn 206] (gas: 11)\n  9123: a1 = s1 + 0x7ff\n  9127: a1 = a1 + 0x39\n  9130: u64 [a1 + 896] = 0\n  9134: u64 [a1 + 888] = 0\n  9138: u64 [a1 + 872] = 0x6\n  9143: a2 = a1\n  9145: a0 = 0x20\n  9148: a1 = s1 + 0x7ff\n  9152: a1 = a1 + 0x3a1\n  9156: u64 [a2 + 880] = 0\n  9160: ra = 414, jump @1429\n      : @420 [@dyn 207] (gas: 3)\n  9166: a1 = 0x2026c\n  9171: a0 = i32 [0x2026c]\n  9176: jump @422 if a0 >u 63\n      : @421 (gas: 2)\n  9180: u32 [0x2026c] = 0x40\n  9186: fallthrough\n      : @422 (gas: 15)\n  9187: a0 = sp + 0xffffffffffffffe0\n  9190: a2 = a0 & 0xffffffffffffffe0\n  9193: u64 [s1 + 0x70] = a2\n  9196: sp = a2\n  9198: a0 = 0x20280\n  9203: i32 a0 = a0 + 0\n  9205: u64 [s1 + 0x88] = a1\n  9209: i32 a2 = a2 + 0\n  9211: a1 = 0x40\n  9214: u64 [s1 + 0xb8] = a0\n  9218: ra = 0x1a0\n  9222: ecalli 6 // 'hash_keccak_256'\n  9224: a3 = u64 [s1 + 0x70]\n  9227: t0 = 0x1a2\n  9231: jump @1377\n      : @423 [@dyn 208] (gas: 2)\n  9234: a3 = u64 [s1 + 0x70]\n  9237: t0 = 418, jump @1377\n      : @424 [@dyn 209] (gas: 9)\n  9243: a0 = 0x30280\n  9248: u64 [s1 + 0x70] = a0\n  9251: i32 a0 = a0 + 0\n  9253: u64 [s1 + 0x20] = a0\n  9256: ra = 0x1a4\n  9260: ecalli 3 // 'caller'\n  9262: a2 = u64 [s1 + 0x70]\n  9265: t0 = 0x1a6\n  9269: jump @1346\n      : @425 [@dyn 210] (gas: 2)\n  9272: a2 = u64 [s1 + 0x70]\n  9275: t0 = 422, jump @1346\n      : @426 [@dyn 211] (gas: 9)\n  9281: u64 [a2 + 864] = 0\n  9285: a4 = a2 + 0x300\n  9289: u64 [a4 + 0x58] = a1\n  9292: u64 [a4 + 0x50] = a0\n  9295: a1 = s1 + 0x7ff\n  9299: a1 = a1 + 0x381\n  9303: u64 [a4 + 0x48] = a3\n  9306: a0 = 0\n  9308: ra = 424, jump @1429\n      : @427 [@dyn 212] (gas: 16)\n  9314: a0 = u64 [s1 + 0x48]\n  9317: a1 = s1 + 0x7ff\n  9321: a1 = a1 + 0x39\n  9324: a2 = a1 + 0x300\n  9328: u64 [a2 + 0x40] = a0\n  9331: a0 = u64 [s1 + 0x50]\n  9334: u64 [a2 + 0x38] = a0\n  9337: a0 = u64 [s1 + 0x58]\n  9340: u64 [a2 + 0x30] = a0\n  9343: a3 = a1\n  9345: a0 = 0x20\n  9348: a1 = s1 + 0x7ff\n  9352: a1 = a1 + 0x361\n  9356: a2 = u64 [s1 + 0x60]\n  9359: u64 [a3 + 0x328] = a2\n  9363: ra = 426, jump @1429\n      : @428 [@dyn 213] (gas: 3)\n  9369: a1 = u64 [s1 + 0x88]\n  9373: a0 = i32 [a1]\n  9375: jump @430 if a0 >u 63\n      : @429 (gas: 2)\n  9379: u32 [a1 + 0] = 0x40\n  9382: fallthrough\n      : @430 (gas: 4)\n  9383: a0 = sp + 0xffffffffffffffe0\n  9386: a0 = a0 & 0xffffffffffffffe0\n  9389: u64 [s1 + 0x60] = a0\n  9392: t0 = 428, jump @1405\n      : @431 [@dyn 214] (gas: 5)\n  9398: ra = 0x1ae\n  9402: ecalli 6 // 'hash_keccak_256'\n  9404: a3 = u64 [s1 + 0x60]\n  9407: t0 = 0x1b0\n  9411: jump @1384\n      : @432 [@dyn 215] (gas: 2)\n  9414: a3 = u64 [s1 + 0x60]\n  9417: t0 = 432, jump @1384\n      : @433 [@dyn 216] (gas: 3)\n  9423: a0 = s1 + 0x7ff\n  9427: a0 = a0 + 0x341\n  9431: ra = 434, jump @1431\n      : @434 [@dyn 217] (gas: 4)\n  9437: a2 = s1 + 0x7ff\n  9441: a2 = a2 + 0x39\n  9444: a0 = u8 [a2 + 0x308]\n  9448: jump @436 if a0 != 0\n      : @435 (gas: 1)\n  9451: jump @705\n      : @436 (gas: 9)\n  9454: a0 = u64 [s1 + 0x78]\n  9457: a0 = a0 << 0x20\n  9460: a2 = a0 >> 0x20\n  9463: a0 = u64 [s1 + 0xb0]\n  9467: a1 = u64 [s1 + 0xa8]\n  9471: a0 = a0 | a1\n  9474: u64 [s1 + 0x70] = a2\n  9477: a0 = a0 | a2\n  9480: jump @438 if a0 != 0\n      : @437 (gas: 1)\n  9483: jump @713\n      : @438 (gas: 1)\n  9486: ra = 436, jump @1335\n      : @439 [@dyn 218] (gas: 1)\n  9492: t0 = 438, jump @1385\n      : @440 [@dyn 219] (gas: 3)\n  9498: a0 = s1 + 0x7ff\n  9502: a0 = a0 + 0x321\n  9506: ra = 440, jump @1431\n      : @441 [@dyn 220] (gas: 40)\n  9512: a1 = s1 + 0x7ff\n  9516: a1 = a1 + 0x39\n  9519: t2 = u64 [a1 + 0x300]\n  9523: a2 = a1 + 0x200\n  9527: a0 = u64 [a2 + 0xf8]\n  9531: a4 = u64 [a2 + 0xe8]\n  9535: a5 = u64 [a2 + 0xf0]\n  9539: a1 = sp + 0xffffffffffffffe0\n  9542: a1 = a1 & 0xffffffffffffffe0\n  9545: sp = a1\n  9547: a3 = u64 [s1 + 0x90]\n  9551: a3 = a3 + a5\n  9554: t0 = u64 [s1 + 0x80]\n  9558: t0 = t0 + a4\n  9561: a4 = t0 <u a4\n  9564: a3 = a3 + a4\n  9567: t1 = a3 ^ a5\n  9570: a2 = a3 <u a5\n  9573: a2 = a4 if t1 == 0\n  9576: a4 = u64 [s1 + 0x98]\n  9580: a4 = a4 + a0\n  9583: a5 = a4 + a2\n  9586: t1 = a5 <u a4\n  9589: ra = u64 [s1 + 0xa0]\n  9593: ra = ra + t2\n  9596: a4 = a4 <u a0\n  9599: a4 = a4 + ra\n  9602: ra = a4 + t1\n  9605: t1 = a5 <u a0\n  9608: a4 = t2 ^ ra\n  9611: t2 = ra <u t2\n  9614: t2 = t1 if a4 == 0\n  9617: a0 = a0 ^ a5\n  9620: a0 = a0 | a4\n  9623: t2 = a2 if a0 == 0\n  9626: u64 [a1 + 0x10] = a5\n  9629: u64 [a1 + 0x8] = a3\n  9632: u64 [a1] = t0\n  9634: u64 [a1 + 0x18] = ra\n  9637: jump @443 if t2 == 0\n      : @442 (gas: 1)\n  9640: jump @715\n      : @443 (gas: 1)\n  9643: t0 = 442, jump @1420\n      : @444 [@dyn 221] (gas: 1)\n  9649: ra = 444, jump @1432\n      : @445 [@dyn 222] (gas: 14)\n  9655: a2 = s1 + 0x7ff\n  9659: a2 = a2 + 0x39\n  9662: u64 [a2 + 736] = 0\n  9666: a0 = u64 [s1 + 0x70]\n  9669: a3 = a2 + 0x200\n  9673: u64 [a3 + 0xd8] = a0\n  9677: a0 = u64 [s1 + 0xa8]\n  9681: u64 [a3 + 0xd0] = a0\n  9685: a1 = s1 + 0x7ff\n  9689: a1 = a1 + 0x301\n  9693: a0 = u64 [s1 + 0xb0]\n  9697: u64 [a3 + 0xc8] = a0\n  9701: a0 = 0\n  9703: ra = 446, jump @1429\n      : @446 [@dyn 223] (gas: 11)\n  9709: a0 = s1 + 0x7ff\n  9713: a0 = a0 + 0x39\n  9716: u64 [a0 + 704] = 0\n  9720: u64 [a0 + 696] = 0\n  9724: u64 [a0 + 688] = 0\n  9728: a2 = a0\n  9730: a0 = 0x20\n  9733: a1 = s1 + 0x7ff\n  9737: a1 = a1 + 0x2e1\n  9741: u64 [a2 + 680] = 0\n  9745: ra = 448, jump @1429\n      : @447 [@dyn 224] (gas: 7)\n  9751: a0 = sp + 0xffffffffffffffe0\n  9754: a0 = a0 & 0xffffffffffffffe0\n  9757: u64 [s1 + 0x78] = a0\n  9760: sp = a0\n  9762: a2 = u64 [s1 + 0x88]\n  9766: a0 = i32 [a2]\n  9768: jump @449 if a0 >u 63\n      : @448 (gas: 2)\n  9772: u32 [a2 + 0] = 0x40\n  9775: fallthrough\n      : @449 (gas: 4)\n  9776: a0 = sp + 0xffffffffffffffe0\n  9779: a0 = a0 & 0xffffffffffffffe0\n  9782: u64 [s1 + 0x88] = a0\n  9786: t0 = 450, jump @1405\n      : @450 [@dyn 225] (gas: 5)\n  9792: ra = 0x1c4\n  9796: ecalli 6 // 'hash_keccak_256'\n  9798: a3 = u64 [s1 + 0x88]\n  9802: t0 = 0x1c6\n  9806: jump @1354\n      : @451 [@dyn 226] (gas: 2)\n  9809: a3 = u64 [s1 + 0x88]\n  9813: t0 = 454, jump @1354\n      : @452 [@dyn 227] (gas: 8)\n  9819: a1 = u64 [s1 + 0x78]\n  9822: u64 [a1 + 0x18] = a3\n  9825: u64 [a1 + 0x10] = a2\n  9828: u64 [a1 + 0x8] = a4\n  9831: u64 [a1] = a0\n  9833: a0 = s1 + 0x7ff\n  9837: a0 = a0 + 0x2c1\n  9841: ra = 456, jump @1431\n      : @453 [@dyn 228] (gas: 23)\n  9847: a0 = s1 + 0x7ff\n  9851: a0 = a0 + 0x39\n  9854: a3 = a0 + 0x200\n  9858: a1 = u64 [a3 + 0x90]\n  9862: a2 = u64 [a3 + 0x88]\n  9866: t0 = u64 [a0 + 0x2a0]\n  9870: a4 = u64 [a3 + 0x98]\n  9874: a5 = u64 [s1 + 0x90]\n  9878: a5 = a5 + a1\n  9881: a0 = u64 [s1 + 0x80]\n  9885: a0 = a0 + a2\n  9888: a2 = a0 <u a2\n  9891: a5 = a5 + a2\n  9894: a3 = a5 ^ a1\n  9897: a1 = a5 <u a1\n  9900: a1 = a2 if a3 == 0\n  9903: a2 = u64 [s1 + 0x98]\n  9907: a2 = a2 + a4\n  9910: a3 = u64 [s1 + 0xa0]\n  9914: t0 = t0 + a3\n  9917: a3 = a2 <u a4\n  9920: a3 = a3 + t0\n  9923: t0 = 458, jump @1374\n      : @454 [@dyn 229] (gas: 2)\n  9929: a0 = u64 [s1 + 0x78]\n  9932: ra = 460, jump @1432\n      : @455 [@dyn 230] (gas: 4)\n  9938: a0 = s1 + 0x7ff\n  9942: a0 = a0 + 0x2a1\n  9946: a1 = 0x40\n  9949: ra = 462, jump @1427\n      : @456 [@dyn 231] (gas: 8)\n  9955: a3 = s1 + 0x7ff\n  9959: a3 = a3 + 0x39\n  9962: a5 = a3 + 0x200\n  9966: a4 = u64 [a5 + 0x80]\n  9970: a1 = u64 [a5 + 0x78]\n  9973: a2 = u64 [a5 + 0x70]\n  9976: a0 = u64 [a5 + 0x68]\n  9979: t0 = 464, jump @1367\n      : @457 [@dyn 232] (gas: 1)\n  9985: jump @459 if a1 == 0\n      : @458 (gas: 1)\n  9988: jump @660\n      : @459 (gas: 13)\n  9991: a1 = u64 [s1 + 0x80]\n  9995: a4 = a3 + 0x200\n  9999: u64 [a4 + 0x48] = a1\n 10002: a1 = u64 [s1 + 0x90]\n 10006: u64 [a4 + 0x50] = a1\n 10009: a1 = u64 [s1 + 0x98]\n 10013: u64 [a4 + 0x58] = a1\n 10016: a1 = s1 + 0x7ff\n 10020: a1 = a1 + 0x281\n 10024: a2 = u64 [s1 + 0xa0]\n 10028: u64 [a4 + 0x60] = a2\n 10031: u64 [s1 + 0xa0] = a0\n 10035: ra = 466, jump @1429\n      : @460 [@dyn 233] (gas: 32)\n 10041: a5 = s1 + 0x7ff\n 10045: a5 = a5 + 0x39\n 10048: u64 [a5 + 512] = 0\n 10052: a0 = u64 [s1 + 0x70]\n 10055: a1 = a5 + 0x100\n 10059: u64 [a1 + 0xf8] = a0\n 10063: a0 = u64 [s1 + 0xa8]\n 10067: u64 [a1 + 0xf0] = a0\n 10071: a0 = u64 [s1 + 0xb0]\n 10075: u64 [a1 + 0xe8] = a0\n 10079: u64 [a5 + 544] = 0\n 10083: u64 [a5 + 536] = 0\n 10087: u64 [a5 + 528] = 0\n 10091: a0 = u64 [0x200a8]\n 10096: a1 = u64 [0x200b0]\n 10101: a2 = u64 [0x200b8]\n 10106: a3 = u64 [0x200c0]\n 10111: a4 = a5 + 0x200\n 10115: u64 [a4 + 0x40] = a0\n 10118: u64 [a4 + 0x38] = a1\n 10121: u64 [a4 + 0x30] = a2\n 10124: u64 [a4 + 0x28] = a3\n 10127: a1 = 0x20\n 10130: a2 = s1 + 0x7ff\n 10134: a2 = a2 + 0x261\n 10138: a3 = s1 + 0x7ff\n 10142: a3 = a3 + 0x241\n 10146: a4 = s1 + 0x7ff\n 10150: a4 = a4 + 0x221\n 10154: u64 [a5 + 520] = 0\n 10158: a0 = u64 [s1 + 0xa0]\n 10162: ra = 468, jump @1435\n      : @461 [@dyn 234] (gas: 6)\n 10168: a0 = 0\n 10170: a1 = u64 [s1 + 0xb8]\n 10174: a2 = 0\n 10176: ecalli 7 // 'seal_return'\n 10178: a1 = 0x20280\n 10183: jump @572\n      : @462 (gas: 1)\n 10186: t0 = 470, jump @1344\n      : @463 [@dyn 235] (gas: 4)\n 10192: ra = 0x1d8\n 10196: ecalli 10 // 'value_transferred'\n 10198: t0 = 0x1da\n 10202: jump @1345\n      : @464 [@dyn 236] (gas: 1)\n 10205: t0 = 474, jump @1345\n      : @465 [@dyn 237] (gas: 1)\n 10211: jump @467 if a0 == 0\n      : @466 (gas: 1)\n 10214: jump @720\n      : @467 (gas: 3)\n 10217: a0 = u64 [s1 + 0xb8]\n 10221: a0 = i32 [a0]\n 10223: jump @469 if a0 >u 3\n      : @468 (gas: 1)\n 10227: jump @721\n      : @469 (gas: 3)\n 10230: a0 = s1 + 0x1160\n 10234: a1 = 0x40\n 10237: ra = 476, jump @1427\n      : @470 [@dyn 238] (gas: 11)\n 10243: a1 = s1 + 0x1038\n 10247: a2 = a1 + 0x100\n 10251: a0 = u64 [a2 + 0x40]\n 10254: u64 [s1 + 0x38] = a0\n 10257: a0 = u64 [a2 + 0x38]\n 10260: u64 [s1 + 0x40] = a0\n 10263: a0 = u64 [a2 + 0x30]\n 10266: u64 [s1 + 0x48] = a0\n 10269: a0 = u64 [a2 + 0x28]\n 10272: u64 [s1 + 0x50] = a0\n 10275: t0 = 478, jump @1414\n      : @471 [@dyn 239] (gas: 2)\n 10281: a0 = s1 + 0x1140\n 10285: ra = 480, jump @1431\n      : @472 [@dyn 240] (gas: 35)\n 10291: a0 = s1 + 0x1038\n 10295: t2 = u64 [a0 + 0x118]\n 10299: ra = u64 [a0 + 0x110]\n 10303: t1 = u64 [a0 + 0x120]\n 10307: a4 = u64 [a0 + 0x108]\n 10311: a0 = t2 << 0x3f\n 10314: a1 = ra >> 0x1\n 10317: a0 = a0 | a1\n 10320: a1 = t1 << 0x3f\n 10323: a2 = t2 >> 0x1\n 10326: a1 = a1 | a2\n 10329: a2 = ra << 0x3f\n 10332: a3 = a4 >> 0x1\n 10335: a5 = a3 | a2\n 10338: a2 = t1 >> 0x1\n 10341: u64 [s1 + 0xa8] = a4\n 10345: a4 = a4 & 0x1\n 10348: a3 = -a4\n 10350: a1 = a1 & a3\n 10353: t0 = a3 & a0\n 10356: a2 = a2 & a3\n 10359: a0 = a5 & 0x7f\n 10362: u64 [s1 + 0xb0] = a0\n 10366: a5 = a0 if a4 == 0\n 10369: u64 [s1 + 0x98] = a5\n 10373: a0 = a5 <u 0x20\n 10376: u64 [s1 + 0x88] = t0\n 10380: a0 = 0 if t0 != 0\n 10382: u64 [s1 + 0x90] = a1\n 10386: u64 [s1 + 0x80] = a2\n 10390: a1 = a1 | a2\n 10393: a0 = 0 if a1 != 0\n 10395: u64 [s1 + 0xb8] = a4\n 10399: a1 = a4 <u 0x1\n 10402: jump @474 if a1 == a0\n      : @473 (gas: 1)\n 10405: jump @722\n      : @474 (gas: 12)\n 10408: a2 = u64 [s1 + 0x40]\n 10411: a3 = u64 [s1 + 0x50]\n 10414: a0 = a3 | a2\n 10417: a1 = u64 [s1 + 0x48]\n 10420: a4 = u64 [s1 + 0x38]\n 10423: a1 = a1 | a4\n 10426: a0 = a0 | a1\n 10429: a0 = a0 >> 0x20\n 10432: a1 = a1 | a2\n 10435: a1 = a1 << 0x20\n 10438: a1 = a1 | a0\n 10441: jump @476 if a1 == 0\n      : @475 (gas: 1)\n 10444: jump @660\n      : @476 (gas: 15)\n 10447: a0 = a3\n 10449: u64 [s1 + 0x70] = ra\n 10452: u64 [s1 + 0x78] = t2\n 10455: u64 [s1 + 0xa0] = t1\n 10459: a1 = u64 [s1 + 0x98]\n 10463: a3 = s1 + 0x1038\n 10467: u64 [a3 + 0xe8] = a1\n 10471: a1 = u64 [s1 + 0x88]\n 10475: u64 [a3 + 0xf0] = a1\n 10479: a1 = u64 [s1 + 0x90]\n 10483: u64 [a3 + 0xf8] = a1\n 10487: a1 = s1 + 0x1120\n 10491: a2 = u64 [s1 + 0x80]\n 10495: u64 [a3 + 0x100] = a2\n 10499: ra = 482, jump @1429\n      : @477 [@dyn 241] (gas: 2)\n 10505: a0 = u64 [s1 + 0xb8]\n 10509: jump @479 if a0 == 0\n      : @478 (gas: 1)\n 10512: jump @672\n      : @479 (gas: 1)\n 10515: t0 = 484, jump @1394\n      : @480 [@dyn 242] (gas: 1)\n 10521: jump @482 if a1 != 0\n      : @481 (gas: 1)\n 10524: jump @660\n      : @482 (gas: 13)\n 10527: a1 = u64 [s1 + 0xa8]\n 10531: a1 = a1 & 0xffffffffffffff00\n 10535: i32 a0 = a3 + 0x20\n 10538: a2 = s1 + 0x1038\n 10542: a3 = u64 [s1 + 0x70]\n 10545: u64 [a2 + 0x70] = a3\n 10548: u64 [a2 + 0x68] = a1\n 10551: a1 = u64 [s1 + 0x78]\n 10554: u64 [a2 + 0x78] = a1\n 10557: a1 = s1 + 0x10a0\n 10561: a3 = u64 [s1 + 0xa0]\n 10565: u64 [a2 + 0x80] = a3\n 10569: ra = 486, jump @1429\n      : @483 [@dyn 243] (gas: 7)\n 10575: t2 = 0\n 10577: t0 = 0\n 10579: a5 = 0\n 10581: a0 = u64 [s1 + 0xb0]\n 10585: a0 = a0 >u 0\n 10587: ra = a0 << 0x5\n 10590: fallthrough\n      : @484 (gas: 34)\n 10591: a0 = ra + 0x3f\n 10594: a1 = a0 <u ra\n 10597: a2 = t2 + a1\n 10600: a0 = a0 & 0xffffffffffffffe0\n 10603: t1 = u64 [s1 + 0x50]\n 10606: t1 = t1 + a0\n 10609: a0 = t1 <u a0\n 10612: a3 = u64 [s1 + 0x48]\n 10615: a3 = a3 + a2\n 10618: ra = a3 + a0\n 10621: a3 = ra ^ a2\n 10624: a4 = ra <u a2\n 10627: a4 = a0 if a3 == 0\n 10630: a0 = a2 <u t2\n 10633: a0 = a1 if a1 == 0\n 10636: a0 = a0 + t0\n 10639: a1 = a0 <u t0\n 10642: t2 = u64 [s1 + 0x40]\n 10645: a2 = a0 + t2\n 10648: a4 = a4 + a2\n 10651: a0 = a2 <u a0\n 10654: a2 = a4 <u a2\n 10657: t0 = u64 [s1 + 0x38]\n 10660: a3 = a5 + t0\n 10663: a1 = a1 + a3\n 10666: a0 = a0 + a1\n 10669: a5 = a0 + a2\n 10672: a0 = a5 >u 0\n 10674: a1 = a4 >u 0\n 10676: a1 = a0 if a5 != 0\n 10679: a0 = a4 | a5\n 10682: a2 = ra >u 0\n 10684: a2 = a1 if a0 != 0\n 10687: jump @486 if a2 == 0\n      : @485 (gas: 1)\n 10690: jump @773\n      : @486 (gas: 14)\n 10693: a0 = u64 [s1 + 0x50]\n 10696: a0 = t1 <u a0\n 10699: a2 = u64 [s1 + 0x48]\n 10702: a1 = ra ^ a2\n 10705: a2 = ra <u a2\n 10708: a2 = a0 if a1 == 0\n 10711: a0 = a4 <u t2\n 10714: a1 = a5 ^ t0\n 10717: a3 = a5 <u t0\n 10720: a3 = a0 if a1 == 0\n 10723: a0 = a4 ^ t2\n 10726: a0 = a0 | a1\n 10729: a3 = a2 if a0 == 0\n 10732: jump @488 if a3 == 0\n      : @487 (gas: 1)\n 10735: jump @773\n      : @488 (gas: 13)\n 10738: a2 = s1 + 0x1038\n 10742: a3 = t1\n 10744: u64 [a2 + 0x48] = a3\n 10747: u64 [a2 + 0x50] = ra\n 10750: u64 [a2 + 0x58] = a4\n 10753: a0 = 0x40\n 10756: a1 = s1 + 0x1080\n 10760: u64 [a2 + 0x60] = a5\n 10763: u64 [s1 + 0xb0] = a3\n 10767: u64 [s1 + 0xa8] = ra\n 10771: u64 [s1 + 0xa0] = a4\n 10775: u64 [s1 + 0xb8] = a5\n 10779: ra = 488, jump @1429\n      : @489 [@dyn 244] (gas: 23)\n 10785: a1 = s1 + 0x1038\n 10789: a0 = u64 [s1 + 0x38]\n 10792: u64 [a1] = a0\n 10794: a0 = u64 [s1 + 0x40]\n 10797: a2 = a1 + 0xffffffffffffff00\n 10801: u64 [a2 + 0xf8] = a0\n 10805: a0 = u64 [s1 + 0x48]\n 10808: u64 [a2 + 0xf0] = a0\n 10812: a0 = u64 [s1 + 0x50]\n 10815: u64 [a2 + 0xe8] = a0\n 10819: a0 = u64 [s1 + 0xb8]\n 10823: u64 [a1 + 0x20] = a0\n 10826: a0 = u64 [s1 + 0xa0]\n 10830: u64 [a1 + 0x18] = a0\n 10833: a0 = u64 [s1 + 0xa8]\n 10837: u64 [a1 + 0x10] = a0\n 10840: a4 = a1\n 10842: a0 = s1 + 0x1060\n 10846: a1 = s1 + 0x1040\n 10850: a2 = s1 + 0x1020\n 10854: a3 = u64 [s1 + 0xb0]\n 10858: u64 [a4 + 0x8] = a3\n 10861: ra = 490, jump @1018\n      : @490 [@dyn 245] (gas: 12)\n 10867: a5 = u64 [s1 + 0xb8]\n 10871: t0 = u64 [s1 + 0xa0]\n 10875: a4 = u64 [s1 + 0xa8]\n 10879: a2 = u64 [s1 + 0xb0]\n 10883: a0 = a2 | t0\n 10886: a1 = a4 | a5\n 10889: a0 = a0 | a1\n 10892: a0 = a0 >> 0x20\n 10895: a1 = a1 | t0\n 10898: a1 = a1 << 0x20\n 10901: a0 = a0 | a1\n 10904: jump @660 if a0 != 0\n      : @491 (gas: 7)\n 10908: a1 = s1 + 0x1038\n 10912: a0 = u64 [a1 + 0x30]\n 10915: a3 = u64 [a1 + 0x40]\n 10918: u64 [s1 + 0x98] = a3\n 10922: t1 = u64 [a1 + 0x28]\n 10925: a3 = u64 [a1 + 0x38]\n 10928: fallthrough\n      : @492 (gas: 24)\n 10929: t2 = a0 ^ a4\n 10932: a5 = a0 <u a4\n 10935: ra = t1 <u a2\n 10938: a5 = ra if t2 == 0\n 10941: a1 = a3 - t0\n 10944: t2 = a1 - a5\n 10947: a1 = a1 <u a5\n 10950: a3 = a3 <u t0\n 10953: a5 = u64 [s1 + 0x98]\n 10957: a3 = a5 - a3\n 10960: a5 = u64 [s1 + 0xb8]\n 10964: a3 = a3 - a5\n 10967: a3 = a3 - a1\n 10970: a0 = a0 - a4\n 10973: a0 = a0 - ra\n 10976: a1 = t1 - a2\n 10979: a0 = a0 | a3\n 10982: a3 = a1 | t2\n 10985: a3 = a3 | a0\n 10988: a0 = a0 | t2\n 10991: a3 = a3 >> 0x20\n 10994: a0 = a0 << 0x20\n 10997: a0 = a0 | a3\n 11000: jump @660 if a0 != 0\n      : @493 (gas: 3)\n 11004: a0 = a2\n 11006: u64 [s1 + 0xb8] = a1\n 11010: ra = 492, jump @1439\n      : @494 [@dyn 246] (gas: 6)\n 11016: i32 a1 = a0 + 0\n 11018: a2 = i32 [s1 + 0xb8]\n 11022: a0 = 0\n 11024: ra = 0x310\n 11028: ecalli 7 // 'seal_return'\n 11030: jump @784\n      : @495 (gas: 1)\n 11033: t0 = 494, jump @1344\n      : @496 [@dyn 247] (gas: 4)\n 11039: ra = 0x1f0\n 11043: ecalli 10 // 'value_transferred'\n 11045: t0 = 0x1f2\n 11049: jump @1345\n      : @497 [@dyn 248] (gas: 1)\n 11052: t0 = 498, jump @1345\n      : @498 [@dyn 249] (gas: 1)\n 11058: jump @500 if a0 == 0\n      : @499 (gas: 1)\n 11061: jump @727\n      : @500 (gas: 3)\n 11064: a0 = u64 [s1 + 0xb8]\n 11068: a0 = i32 [a0]\n 11070: jump @502 if a0 >u 3\n      : @501 (gas: 1)\n 11074: jump @728\n      : @502 (gas: 1)\n 11077: ra = 500, jump @1153\n      : @503 [@dyn 250] (gas: 1)\n 11083: t0 = 502, jump @1401\n      : @504 [@dyn 251] (gas: 2)\n 11089: a0 = a0 + 0x121\n 11093: ra = 504, jump @1431\n      : @505 [@dyn 252] (gas: 5)\n 11099: a2 = s1 + 0x7ff\n 11103: a2 = a2 + 0x39\n 11106: a0 = u64 [a2 + 0xe8]\n 11110: a1 = a0 & 0xff\n 11114: jump @507 if a1 != 0\n      : @506 (gas: 1)\n 11117: jump @729\n      : @507 (gas: 5)\n 11120: a4 = u64 [a2 + 0x100]\n 11124: a3 = u64 [a2 + 0xf8]\n 11128: a2 = u64 [a2 + 0xf0]\n 11132: a5 = a0 & 0xffffffffffffff00\n 11136: t0 = 506, jump @1383\n      : @508 [@dyn 253] (gas: 1)\n 11142: ra = 508, jump @1432\n      : @509 [@dyn 254] (gas: 4)\n 11148: a0 = s1 + 0x7ff\n 11152: a0 = a0 + 0x101\n 11156: a1 = 0x40\n 11159: ra = 510, jump @1427\n      : @510 [@dyn 255] (gas: 17)\n 11165: a0 = s1 + 0x7ff\n 11169: a0 = a0 + 0x39\n 11172: a1 = u64 [a0 + 0xe0]\n 11176: u64 [s1 + 0xb0] = a1\n 11180: a1 = u64 [a0 + 0xd8]\n 11184: u64 [s1 + 0xa8] = a1\n 11188: a1 = u64 [a0 + 0xd0]\n 11192: u64 [s1 + 0xa0] = a1\n 11196: a0 = u64 [a0 + 0xc8]\n 11200: u64 [s1 + 0xb8] = a0\n 11204: a0 = 0x30280\n 11209: u64 [s1 + 0x98] = a0\n 11213: i32 a0 = a0 + 0\n 11215: ra = 0x200\n 11219: ecalli 3 // 'caller'\n 11221: t0 = 0x202\n 11225: jump @1402\n      : @511 [@dyn 256] (gas: 1)\n 11228: t0 = 514, jump @1402\n      : @512 [@dyn 257] (gas: 1)\n 11234: jump @660 if a0 != 0\n      : @513 (gas: 2)\n 11238: a2 = u64 [s1 + 0x98]\n 11242: t0 = 516, jump @1346\n      : @514 [@dyn 258] (gas: 8)\n 11248: u64 [a2 + 192] = 0\n 11252: u64 [a2 + 0xb8] = a1\n 11256: u64 [a2 + 0xb0] = a0\n 11260: a1 = s1 + 0x7ff\n 11264: a1 = a1 + 0xe1\n 11268: u64 [a2 + 0xa8] = a3\n 11272: a0 = a4\n 11274: ra = 518, jump @1429\n      : @515 [@dyn 259] (gas: 16)\n 11280: a0 = u64 [0x200c8]\n 11285: a1 = u64 [0x200d0]\n 11290: a2 = s1 + 0x7ff\n 11294: a2 = a2 + 0x39\n 11297: u64 [a2 + 0xa0] = a0\n 11301: a0 = u64 [0x200d8]\n 11306: u64 [a2 + 0x98] = a1\n 11310: a3 = u64 [0x200e0]\n 11315: u64 [a2 + 0x90] = a0\n 11319: a0 = a2\n 11321: a1 = 0x20\n 11324: a2 = s1 + 0x7ff\n 11328: a2 = a2 + 0xc1\n 11332: u64 [a0 + 0x88] = a3\n 11336: a0 = u64 [s1 + 0xb8]\n 11340: ra = 520, jump @1433\n      : @516 [@dyn 260] (gas: 4)\n 11346: a1 = 0x20280\n 11351: i32 a1 = a1 + 0\n 11353: a0 = 0\n 11355: jump @856\n      : @517 (gas: 1)\n 11358: t0 = 522, jump @1344\n      : @518 [@dyn 261] (gas: 4)\n 11364: ra = 0x20c\n 11368: ecalli 10 // 'value_transferred'\n 11370: t0 = 0x20e\n 11374: jump @1345\n      : @519 [@dyn 262] (gas: 1)\n 11377: t0 = 526, jump @1345\n      : @520 [@dyn 263] (gas: 1)\n 11383: jump @522 if a0 == 0\n      : @521 (gas: 1)\n 11386: jump @734\n      : @522 (gas: 3)\n 11389: a0 = u64 [s1 + 0xb8]\n 11393: a0 = i32 [a0]\n 11395: jump @524 if a0 >u 3\n      : @523 (gas: 1)\n 11399: jump @735\n      : @524 (gas: 1)\n 11402: t0 = 528, jump @1385\n      : @525 [@dyn 264] (gas: 2)\n 11408: a0 = s1 + 0x500\n 11412: ra = 530, jump @1431\n      : @526 [@dyn 265] (gas: 12)\n 11418: a1 = s1 + 0x500\n 11422: a0 = u64 [a1 + 0x18]\n 11425: u64 [s1 + 0xb8] = a0\n 11429: a0 = u64 [a1 + 0x10]\n 11432: u64 [s1 + 0xb0] = a0\n 11436: a0 = u64 [a1 + 0x8]\n 11439: u64 [s1 + 0xa8] = a0\n 11443: a0 = u64 [a1]\n 11445: u64 [s1 + 0xa0] = a0\n 11449: a0 = s1 + 0x4e0\n 11453: a1 = 0x40\n 11456: ra = 532, jump @1427\n      : @527 [@dyn 266] (gas: 6)\n 11462: a4 = s1 + 0x400\n 11466: a0 = u64 [a4 + 0xf8]\n 11470: a1 = u64 [a4 + 0xf0]\n 11474: a2 = u64 [a4 + 0xe8]\n 11478: a3 = u64 [a4 + 0xe0]\n 11482: t0 = 534, jump @1386\n      : @528 [@dyn 267] (gas: 1)\n 11488: jump @660 if a0 != 0\n      : @529 (gas: 14)\n 11492: a0 = u64 [s1 + 0xa0]\n 11496: a2 = s1 + 0x400\n 11500: u64 [a2 + 0xc0] = a0\n 11504: a0 = u64 [s1 + 0xa8]\n 11508: u64 [a2 + 0xc8] = a0\n 11512: a0 = u64 [s1 + 0xb0]\n 11516: u64 [a2 + 0xd0] = a0\n 11520: a1 = s1 + 0x4c0\n 11524: a0 = u64 [s1 + 0xb8]\n 11528: u64 [a2 + 0xd8] = a0\n 11532: a0 = a3\n 11534: u64 [s1 + 0xb8] = a3\n 11538: ra = 0x30c\n 11542: jump @1429\n      : @530 (gas: 1)\n 11545: jump @532 if a0 == 1889567281\n      : @531 (gas: 1)\n 11552: jump @736\n      : @532 (gas: 1)\n 11555: t0 = 536, jump @1344\n      : @533 [@dyn 268] (gas: 4)\n 11561: ra = 0x21a\n 11565: ecalli 10 // 'value_transferred'\n 11567: t0 = 0x21c\n 11571: jump @1345\n      : @534 [@dyn 269] (gas: 1)\n 11574: t0 = 540, jump @1345\n      : @535 [@dyn 270] (gas: 1)\n 11580: jump @537 if a0 == 0\n      : @536 (gas: 1)\n 11583: jump @742\n      : @537 (gas: 4)\n 11586: a0 = u64 [s1 + 0xb8]\n 11590: a0 = i32 [a0]\n 11592: a1 = 0x23\n 11595: jump @539 if a1 <u a0\n      : @538 (gas: 1)\n 11598: jump @743\n      : @539 (gas: 5)\n 11601: a0 = s1 + 0x7ff\n 11605: a0 = a0 + 0x541\n 11609: ra = 0x21e\n 11613: t0 = 0x448\n 11617: jump @1423\n      : @540 [@dyn 271] (gas: 14)\n 11620: a3 = s1 + 0x7ff\n 11624: a3 = a3 + 0x39\n 11627: a0 = u64 [a3 + 0x508]\n 11631: a1 = u64 [a3 + 0x510]\n 11635: a2 = u32 [a3 + 0x518]\n 11639: u64 [a3 + 1280] = 0\n 11643: a4 = a3 + 0x400\n 11647: u64 [a4 + 0xf8] = a2\n 11651: u64 [a4 + 0xf0] = a1\n 11655: a1 = s1 + 0x7ff\n 11659: a1 = a1 + 0x521\n 11663: u64 [a4 + 0xe8] = a0\n 11667: a0 = 0\n 11669: ra = 544, jump @1429\n      : @541 [@dyn 272] (gas: 11)\n 11675: a0 = s1 + 0x7ff\n 11679: a0 = a0 + 0x39\n 11682: u64 [a0 + 1248] = 0\n 11686: u64 [a0 + 1240] = 0\n 11690: u64 [a0 + 1232] = 0\n 11694: a2 = a0\n 11696: a0 = 0x20\n 11699: a1 = s1 + 0x7ff\n 11703: a1 = a1 + 0x501\n 11707: u64 [a2 + 1224] = 0\n 11711: ra = 546, jump @1429\n      : @542 [@dyn 273] (gas: 2)\n 11717: a1 = i32 [0x2026c]\n 11722: jump @544 if a1 >u 63\n      : @543 (gas: 2)\n 11726: u32 [0x2026c] = 0x40\n 11732: fallthrough\n      : @544 (gas: 13)\n 11733: a0 = sp + 0xffffffffffffffe0\n 11736: a2 = a0 & 0xffffffffffffffe0\n 11739: u64 [s1 + 0xb8] = a2\n 11743: sp = a2\n 11745: a0 = 0x20280\n 11750: i32 a0 = a0 + 0\n 11752: i32 a2 = a2 + 0\n 11754: a1 = 0x40\n 11757: ra = 0x224\n 11761: ecalli 6 // 'hash_keccak_256'\n 11763: a3 = u64 [s1 + 0xb8]\n 11767: t0 = 0x226\n 11771: jump @1355\n      : @545 [@dyn 274] (gas: 2)\n 11774: a3 = u64 [s1 + 0xb8]\n 11778: t0 = 550, jump @1355\n      : @546 [@dyn 275] (gas: 3)\n 11784: a0 = s1 + 0x7ff\n 11788: a0 = a0 + 0x4e1\n 11792: ra = 552, jump @1431\n      : @547 [@dyn 276] (gas: 15)\n 11798: a1 = s1 + 0x7ff\n 11802: a1 = a1 + 0x39\n 11805: a2 = a1 + 0x400\n 11809: a0 = u64 [a2 + 0xc0]\n 11813: u64 [s1 + 0xb8] = a0\n 11817: a0 = u64 [a2 + 0xb8]\n 11821: u64 [s1 + 0xb0] = a0\n 11825: a0 = u64 [a2 + 0xb0]\n 11829: u64 [s1 + 0xa8] = a0\n 11833: a0 = u64 [a2 + 0xa8]\n 11837: u64 [s1 + 0xa0] = a0\n 11841: a0 = s1 + 0x7ff\n 11845: a0 = a0 + 0x4c1\n 11849: a1 = 0x40\n 11852: ra = 554, jump @1427\n      : @548 [@dyn 277] (gas: 4)\n 11858: a3 = s1 + 0x7ff\n 11862: a3 = a3 + 0x39\n 11865: a5 = a3 + 0x400\n 11869: t0 = 556, jump @1403\n      : @549 [@dyn 278] (gas: 1)\n 11875: jump @660 if a0 != 0\n      : @550 (gas: 15)\n 11879: a0 = u64 [s1 + 0xa0]\n 11883: a2 = a3 + 0x400\n 11887: u64 [a2 + 0x68] = a0\n 11890: a0 = u64 [s1 + 0xa8]\n 11894: u64 [a2 + 0x70] = a0\n 11897: a0 = u64 [s1 + 0xb0]\n 11901: u64 [a2 + 0x78] = a0\n 11904: a1 = s1 + 0x7ff\n 11908: a1 = a1 + 0x4a1\n 11912: a0 = u64 [s1 + 0xb8]\n 11916: u64 [a2 + 0x80] = a0\n 11920: a0 = a4\n 11922: u64 [s1 + 0xb8] = a4\n 11926: ra = 0x30c\n 11930: jump @1429\n      : @551 (gas: 1)\n 11933: t0 = 558, jump @1344\n      : @552 [@dyn 279] (gas: 4)\n 11939: ra = 0x230\n 11943: ecalli 10 // 'value_transferred'\n 11945: t0 = 0x232\n 11949: jump @1345\n      : @553 [@dyn 280] (gas: 1)\n 11952: t0 = 562, jump @1345\n      : @554 [@dyn 281] (gas: 1)\n 11958: jump @556 if a0 == 0\n      : @555 (gas: 1)\n 11961: jump @744\n      : @556 (gas: 3)\n 11964: a0 = u64 [s1 + 0xb8]\n 11968: a0 = i32 [a0]\n 11970: jump @558 if a0 >u 3\n      : @557 (gas: 1)\n 11974: jump @745\n      : @558 (gas: 1)\n 11977: ra = 564, jump @1153\n      : @559 [@dyn 282] (gas: 1)\n 11983: ra = 566, jump @1335\n      : @560 [@dyn 283] (gas: 1)\n 11989: t0 = 568, jump @1416\n      : @561 [@dyn 284] (gas: 4)\n 11995: u64 [a1 + 0] = 0x5\n 11998: a0 = s1 + 0x7ff\n 12002: a0 = a0 + 0x681\n 12006: ra = 570, jump @1431\n      : @562 [@dyn 285] (gas: 10)\n 12012: a1 = s1 + 0x7ff\n 12016: a1 = a1 + 0x39\n 12019: a5 = a1 + 0x600\n 12023: a2 = u64 [a5 + 0x50]\n 12026: a0 = u64 [a5 + 0x48]\n 12029: a3 = u64 [a5 + 0x58]\n 12032: a4 = u64 [a5 + 0x60]\n 12035: a0 = a0 & 0xffffffffffffff00\n 12039: a5 = a0 | 0x1\n 12042: t0 = 572, jump @1383\n      : @563 [@dyn 286] (gas: 1)\n 12048: ra = 574, jump @1432\n      : @564 [@dyn 287] (gas: 4)\n 12054: a0 = s1 + 0x7ff\n 12058: a0 = a0 + 0x661\n 12062: a1 = 0x40\n 12065: ra = 576, jump @1427\n      : @565 [@dyn 288] (gas: 18)\n 12071: a0 = s1 + 0x7ff\n 12075: a0 = a0 + 0x39\n 12078: a2 = a0 + 0x600\n 12082: a1 = u64 [a2 + 0x40]\n 12085: u64 [s1 + 0xb0] = a1\n 12089: a1 = u64 [a2 + 0x38]\n 12092: u64 [s1 + 0xa8] = a1\n 12096: a1 = u64 [a2 + 0x30]\n 12099: u64 [s1 + 0xa0] = a1\n 12103: a0 = u64 [a2 + 0x28]\n 12106: u64 [s1 + 0xb8] = a0\n 12110: a0 = 0x30280\n 12115: u64 [s1 + 0x98] = a0\n 12119: i32 a0 = a0 + 0\n 12121: ra = 0x242\n 12125: ecalli 3 // 'caller'\n 12127: t0 = 0x244\n 12131: jump @1402\n      : @566 [@dyn 289] (gas: 1)\n 12134: t0 = 580, jump @1402\n      : @567 [@dyn 290] (gas: 1)\n 12140: jump @660 if a0 != 0\n      : @568 (gas: 2)\n 12144: a2 = u64 [s1 + 0x98]\n 12148: t0 = 582, jump @1346\n      : @569 [@dyn 291] (gas: 9)\n 12154: u64 [a2 + 1568] = 0\n 12158: a5 = a2 + 0x600\n 12162: u64 [a5 + 0x18] = a1\n 12165: u64 [a5 + 0x10] = a0\n 12168: a1 = s1 + 0x7ff\n 12172: a1 = a1 + 0x641\n 12176: u64 [a5 + 0x8] = a3\n 12179: a0 = a4\n 12181: ra = 584, jump @1429\n      : @570 [@dyn 292] (gas: 16)\n 12187: a0 = u64 [0x20088]\n 12192: a1 = u64 [0x20090]\n 12197: a2 = s1 + 0x7ff\n 12201: a2 = a2 + 0x39\n 12204: u64 [a2 + 0x600] = a0\n 12208: a0 = u64 [0x20098]\n 12213: u64 [a2 + 0x5f8] = a1\n 12217: a3 = u64 [0x200a0]\n 12222: u64 [a2 + 0x5f0] = a0\n 12226: a0 = a2\n 12228: a1 = 0x20\n 12231: a2 = s1 + 0x7ff\n 12235: a2 = a2 + 0x621\n 12239: u64 [a0 + 0x5e8] = a3\n 12243: a0 = u64 [s1 + 0xb8]\n 12247: ra = 586, jump @1433\n      : @571 [@dyn 293] (gas: 4)\n 12253: a1 = 0x20280\n 12258: i32 a1 = a1 + 0\n 12260: a0 = 0\n 12262: jump @856\n      : @572 (gas: 6)\n 12265: i32 a1 = a1 + 0\n 12267: a0 = 0\n 12269: a2 = 0\n 12271: ecalli 7 // 'seal_return'\n 12273: a1 = 0x20280\n 12278: jump @572\n      : @573 (gas: 1)\n 12280: t0 = 588, jump @1344\n      : @574 [@dyn 294] (gas: 4)\n 12286: ra = 0x24e\n 12290: ecalli 10 // 'value_transferred'\n 12292: t0 = 0x250\n 12296: jump @1345\n      : @575 [@dyn 295] (gas: 1)\n 12299: t0 = 592, jump @1345\n      : @576 [@dyn 296] (gas: 1)\n 12305: jump @578 if a0 == 0\n      : @577 (gas: 1)\n 12308: jump @746\n      : @578 (gas: 3)\n 12311: a0 = u64 [s1 + 0xb8]\n 12315: a0 = i32 [a0]\n 12317: jump @580 if a0 >u 35\n      : @579 (gas: 1)\n 12321: jump @747\n      : @580 (gas: 19)\n 12324: a0 = sp + 0xffffffffffffffe0\n 12327: a0 = a0 & 0xffffffffffffffe0\n 12330: u64 [s1 + 0xb8] = a0\n 12334: sp = a0\n 12336: i32 a0 = a0 + 0\n 12338: a1 = 0x4\n 12341: ecalli 1 // 'call_data_load'\n 12343: a3 = u64 [s1 + 0xb8]\n 12347: a2 = u64 [a3]\n 12349: a0 = u64 [a3 + 0x8]\n 12352: a1 = u64 [a3 + 0x10]\n 12355: a3 = u64 [a3 + 0x18]\n 12358: u64 [s1 + 0x6b8] = a3\n 12362: u64 [s1 + 0x6b0] = a1\n 12366: u64 [s1 + 0x6a8] = a0\n 12370: a0 = s1 + 0x6c0\n 12374: a1 = s1 + 0x6a0\n 12378: u64 [s1 + 0x6a0] = a2\n 12382: ra = 594, jump @1047\n      : @581 [@dyn 297] (gas: 11)\n 12388: a0 = u64 [s1 + 0x6d8]\n 12392: u64 [s1 + 0xb8] = a0\n 12396: a0 = u64 [s1 + 0x6d0]\n 12400: u64 [s1 + 0xb0] = a0\n 12404: a0 = u64 [s1 + 0x6c8]\n 12408: u64 [s1 + 0xa8] = a0\n 12412: a0 = u64 [s1 + 0x6c0]\n 12416: u64 [s1 + 0xa0] = a0\n 12420: a0 = s1 + 0x680\n 12424: a1 = 0x40\n 12427: ra = 596, jump @1427\n      : @582 [@dyn 298] (gas: 6)\n 12433: a4 = s1 + 0x600\n 12437: a0 = u64 [a4 + 0x98]\n 12441: a1 = u64 [a4 + 0x90]\n 12445: a2 = u64 [a4 + 0x88]\n 12449: a3 = u64 [a4 + 0x80]\n 12453: t0 = 598, jump @1386\n      : @583 [@dyn 299] (gas: 1)\n 12459: jump @660 if a0 != 0\n      : @584 (gas: 14)\n 12463: a0 = u64 [s1 + 0xa0]\n 12467: a2 = s1 + 0x600\n 12471: u64 [a2 + 0x60] = a0\n 12474: a0 = u64 [s1 + 0xa8]\n 12478: u64 [a2 + 0x68] = a0\n 12481: a0 = u64 [s1 + 0xb0]\n 12485: u64 [a2 + 0x70] = a0\n 12488: a1 = s1 + 0x660\n 12492: a0 = u64 [s1 + 0xb8]\n 12496: u64 [a2 + 0x78] = a0\n 12499: a0 = a3\n 12501: u64 [s1 + 0xb8] = a3\n 12505: ra = 0x30c\n 12509: jump @1429\n      : @585 (gas: 1)\n 12512: t0 = 600, jump @1344\n      : @586 [@dyn 300] (gas: 4)\n 12518: ra = 0x25a\n 12522: ecalli 10 // 'value_transferred'\n 12524: t0 = 0x25c\n 12528: jump @1345\n      : @587 [@dyn 301] (gas: 1)\n 12531: t0 = 604, jump @1345\n      : @588 [@dyn 302] (gas: 1)\n 12537: jump @590 if a0 == 0\n      : @589 (gas: 1)\n 12540: jump @748\n      : @590 (gas: 4)\n 12543: a0 = u64 [s1 + 0xb8]\n 12547: a0 = i32 [a0]\n 12549: a1 = 0x43\n 12552: jump @592 if a1 <u a0\n      : @591 (gas: 1)\n 12555: jump @749\n      : @592 (gas: 4)\n 12558: a0 = s1 + 0x1260\n 12562: ra = 0x25e\n 12566: t0 = 0x448\n 12570: jump @1423\n      : @593 [@dyn 303] (gas: 20)\n 12573: a1 = s1 + 0x1038\n 12577: a2 = a1 + 0x200\n 12581: a0 = u64 [a2 + 0x28]\n 12584: u64 [s1 + 0xb8] = a0\n 12588: a0 = u64 [a2 + 0x30]\n 12591: u64 [s1 + 0xb0] = a0\n 12595: a0 = u64 [a2 + 0x38]\n 12598: u64 [s1 + 0xa8] = a0\n 12602: a0 = u64 [a2 + 0x40]\n 12605: u64 [s1 + 0xa0] = a0\n 12609: a0 = sp + 0xffffffffffffffe0\n 12612: a0 = a0 & 0xffffffffffffffe0\n 12615: u64 [s1 + 0x80] = a0\n 12619: sp = a0\n 12621: i32 a0 = a0 + 0\n 12623: a1 = 0x24\n 12626: ra = 0x260\n 12630: ecalli 1 // 'call_data_load'\n 12632: t0 = 0x262\n 12636: jump @1397\n      : @594 [@dyn 304] (gas: 1)\n 12639: t0 = 610, jump @1397\n      : @595 [@dyn 305] (gas: 7)\n 12645: a0 = 0x30280\n 12650: u64 [s1 + 0x78] = a0\n 12653: i32 a0 = a0 + 0\n 12655: ra = 0x264\n 12659: ecalli 3 // 'caller'\n 12661: t0 = 0x266\n 12665: jump @1380\n      : @596 [@dyn 306] (gas: 1)\n 12668: t0 = 614, jump @1380\n      : @597 [@dyn 307] (gas: 27)\n 12674: a3 = s1 + 0x1038\n 12678: a4 = u64 [s1 + 0x80]\n 12682: a5 = a3 + 0x100\n 12686: u64 [a5 + 0xe0] = a4\n 12690: a4 = u64 [s1 + 0x88]\n 12694: u64 [a5 + 0xd8] = a4\n 12698: a4 = u64 [s1 + 0x90]\n 12702: u64 [a5 + 0xd0] = a4\n 12706: a4 = u64 [s1 + 0x98]\n 12710: u64 [a5 + 0xc8] = a4\n 12714: a4 = u64 [s1 + 0xa0]\n 12718: u64 [a3 + 0x200] = a4\n 12722: a4 = u64 [s1 + 0xa8]\n 12726: u64 [a5 + 0xf8] = a4\n 12730: a4 = u64 [s1 + 0xb0]\n 12734: u64 [a5 + 0xf0] = a4\n 12738: a4 = u64 [s1 + 0xb8]\n 12742: u64 [a5 + 0xe8] = a4\n 12746: a4 = a3 + 0x200\n 12750: u64 [a4 + 0x18] = a2\n 12753: u64 [a4 + 0x10] = a0\n 12756: u64 [a4 + 0x8] = a1\n 12759: a0 = s1 + 0x1240\n 12763: a1 = s1 + 0x1220\n 12767: a2 = s1 + 0x1200\n 12771: u64 [a3 + 544] = 0\n 12775: ra = 616, jump @1100\n      : @598 [@dyn 308] (gas: 3)\n 12781: a0 = s1 + 0x11e0\n 12785: a1 = 0x40\n 12788: ra = 618, jump @1427\n      : @599 [@dyn 309] (gas: 7)\n 12794: a3 = s1 + 0x1038\n 12798: a5 = a3 + 0x100\n 12802: a4 = u64 [a5 + 0xc0]\n 12806: a1 = u64 [a5 + 0xb8]\n 12810: a2 = u64 [a5 + 0xb0]\n 12814: a0 = u64 [a5 + 0xa8]\n 12818: t0 = 620, jump @1367\n      : @600 [@dyn 310] (gas: 1)\n 12824: jump @660 if a1 != 0\n      : @601 (gas: 8)\n 12828: u64 [a3 + 416] = 0\n 12832: u64 [a3 + 408] = 0\n 12836: u64 [a3 + 392] = 0x1\n 12841: a1 = s1 + 0x11c0\n 12845: u64 [a3 + 400] = 0\n 12849: u64 [s1 + 0xb8] = a0\n 12853: ra = 0x30c\n 12857: jump @1429\n      : @602 (gas: 1)\n 12860: t0 = 622, jump @1344\n      : @603 [@dyn 311] (gas: 4)\n 12866: ra = 0x270\n 12870: ecalli 10 // 'value_transferred'\n 12872: t0 = 0x272\n 12876: jump @1345\n      : @604 [@dyn 312] (gas: 1)\n 12879: t0 = 626, jump @1345\n      : @605 [@dyn 313] (gas: 1)\n 12885: jump @750 if a0 != 0\n      : @606 (gas: 4)\n 12889: a0 = u64 [s1 + 0xb8]\n 12893: a0 = i32 [a0]\n 12895: a1 = 0x63\n 12898: jump @751 if a1 >=u a0\n      : @607 (gas: 4)\n 12902: a0 = s1 + 0x640\n 12906: ra = 0x274\n 12910: t0 = 0x448\n 12914: jump @1423\n      : @608 [@dyn 314] (gas: 12)\n 12917: a0 = u64 [s1 + 0x640]\n 12921: u64 [s1 + 0xb8] = a0\n 12925: a0 = u64 [s1 + 0x648]\n 12929: u64 [s1 + 0xb0] = a0\n 12933: a0 = u64 [s1 + 0x650]\n 12937: u64 [s1 + 0xa8] = a0\n 12941: a0 = u64 [s1 + 0x658]\n 12945: u64 [s1 + 0xa0] = a0\n 12949: a0 = s1 + 0x620\n 12953: ra = 0x276\n 12957: t0 = 0x452\n 12961: jump @1423\n      : @609 [@dyn 315] (gas: 18)\n 12964: a0 = u64 [s1 + 0x620]\n 12968: u64 [s1 + 0x78] = a0\n 12971: a0 = u64 [s1 + 0x628]\n 12975: u64 [s1 + 0x70] = a0\n 12978: a0 = u64 [s1 + 0x630]\n 12982: u64 [s1 + 0x68] = a0\n 12985: a0 = u64 [s1 + 0x638]\n 12989: u64 [s1 + 0x60] = a0\n 12992: a0 = sp + 0xffffffffffffffe0\n 12995: a0 = a0 & 0xffffffffffffffe0\n 12998: u64 [s1 + 0x80] = a0\n 13002: sp = a0\n 13004: i32 a0 = a0 + 0\n 13006: a1 = 0x44\n 13009: ra = 0x278\n 13013: ecalli 1 // 'call_data_load'\n 13015: t0 = 0x27a\n 13019: jump @1397\n      : @610 [@dyn 316] (gas: 1)\n 13022: t0 = 634, jump @1397\n      : @611 [@dyn 317] (gas: 8)\n 13028: a0 = 0x30280\n 13033: u64 [s1 + 0x58] = a0\n 13036: i32 a0 = a0 + 0\n 13038: ra = 0x27c\n 13042: ecalli 3 // 'caller'\n 13044: a2 = u64 [s1 + 0x58]\n 13047: t0 = 0x27e\n 13051: jump @1348\n      : @612 [@dyn 318] (gas: 2)\n 13054: a2 = u64 [s1 + 0x58]\n 13057: t0 = 638, jump @1348\n      : @613 [@dyn 319] (gas: 25)\n 13063: a2 = u64 [s1 + 0x80]\n 13067: u64 [s1 + 0x5d8] = a2\n 13071: a2 = u64 [s1 + 0x88]\n 13075: u64 [s1 + 0x5d0] = a2\n 13079: a2 = u64 [s1 + 0x90]\n 13083: u64 [s1 + 0x5c8] = a2\n 13087: a2 = u64 [s1 + 0x98]\n 13091: u64 [s1 + 0x5c0] = a2\n 13095: u64 [s1 + 1528] = 0\n 13099: a2 = u64 [s1 + 0xa0]\n 13103: a4 = s1 + 0x600\n 13107: u64 [a4 + 0x18] = a2\n 13110: a2 = u64 [s1 + 0xa8]\n 13114: u64 [a4 + 0x10] = a2\n 13117: a2 = u64 [s1 + 0xb0]\n 13121: u64 [a4 + 0x8] = a2\n 13124: a2 = u64 [s1 + 0xb8]\n 13128: u64 [a4] = a2\n 13130: u64 [s1 + 0x5f0] = a1\n 13134: u64 [s1 + 0x5e8] = a0\n 13138: a0 = s1 + 0x600\n 13142: a1 = s1 + 0x5e0\n 13146: a2 = s1 + 0x5c0\n 13150: u64 [s1 + 0x5e0] = a3\n 13154: ra = 640, jump @1053\n      : @614 [@dyn 320] (gas: 28)\n 13160: a0 = u64 [s1 + 0x80]\n 13164: u64 [s1 + 0x578] = a0\n 13168: a0 = u64 [s1 + 0x88]\n 13172: u64 [s1 + 0x570] = a0\n 13176: a0 = u64 [s1 + 0x90]\n 13180: u64 [s1 + 0x568] = a0\n 13184: a0 = u64 [s1 + 0x98]\n 13188: u64 [s1 + 0x560] = a0\n 13192: a0 = u64 [s1 + 0x60]\n 13195: u64 [s1 + 0x598] = a0\n 13199: a0 = u64 [s1 + 0x68]\n 13202: u64 [s1 + 0x590] = a0\n 13206: a0 = u64 [s1 + 0x70]\n 13209: u64 [s1 + 0x588] = a0\n 13213: a0 = u64 [s1 + 0x78]\n 13216: u64 [s1 + 0x580] = a0\n 13220: a0 = u64 [s1 + 0xa0]\n 13224: u64 [s1 + 0x5b8] = a0\n 13228: a0 = u64 [s1 + 0xa8]\n 13232: u64 [s1 + 0x5b0] = a0\n 13236: a0 = u64 [s1 + 0xb0]\n 13240: u64 [s1 + 0x5a8] = a0\n 13244: a0 = s1 + 0x5a0\n 13248: a1 = s1 + 0x580\n 13252: a2 = s1 + 0x560\n 13256: a3 = u64 [s1 + 0xb8]\n 13260: u64 [s1 + 0x5a0] = a3\n 13264: ra = 642, jump @1100\n      : @615 [@dyn 321] (gas: 3)\n 13270: a0 = s1 + 0x540\n 13274: a1 = 0x40\n 13277: ra = 644, jump @1427\n      : @616 [@dyn 322] (gas: 6)\n 13283: a4 = s1 + 0x500\n 13287: a3 = u64 [a4 + 0x58]\n 13290: a1 = u64 [a4 + 0x50]\n 13293: a2 = u64 [a4 + 0x48]\n 13296: a0 = u64 [a4 + 0x40]\n 13299: t0 = 646, jump @1368\n      : @617 [@dyn 323] (gas: 1)\n 13305: jump @660 if a1 != 0\n      : @618 (gas: 8)\n 13309: u64 [s1 + 1336] = 0\n 13313: u64 [s1 + 1328] = 0\n 13317: u64 [s1 + 1320] = 0\n 13321: a1 = s1 + 0x520\n 13325: u64 [s1 + 1312] = 0x1\n 13330: u64 [s1 + 0xb8] = a0\n 13334: ra = 0x30c\n 13338: jump @1429\n      : @619 (gas: 1)\n 13341: t0 = 648, jump @1344\n      : @620 [@dyn 324] (gas: 4)\n 13347: ra = 0x28a\n 13351: ecalli 10 // 'value_transferred'\n 13353: t0 = 0x28c\n 13357: jump @1345\n      : @621 [@dyn 325] (gas: 1)\n 13360: t0 = 652, jump @1345\n      : @622 [@dyn 326] (gas: 1)\n 13366: jump @752 if a0 != 0\n      : @623 (gas: 3)\n 13370: a0 = u64 [s1 + 0xb8]\n 13374: a0 = i32 [a0]\n 13376: jump @753 if a0 <=u 3\n      : @624 (gas: 3)\n 13381: a0 = s1 + 0x14e0\n 13385: a1 = 0x40\n 13388: ra = 654, jump @1427\n      : @625 [@dyn 327] (gas: 7)\n 13394: a3 = s1 + 0x1038\n 13398: a5 = a3 + 0x400\n 13402: a4 = u64 [a5 + 0xc0]\n 13406: a1 = u64 [a5 + 0xb8]\n 13410: a2 = u64 [a5 + 0xb0]\n 13414: a0 = u64 [a5 + 0xa8]\n 13418: t0 = 656, jump @1367\n      : @626 [@dyn 328] (gas: 1)\n 13424: jump @660 if a1 != 0\n      : @627 (gas: 13)\n 13428: a1 = u64 [0x20028]\n 13433: a5 = a3 + 0x400\n 13437: u64 [a5 + 0xa0] = a1\n 13441: a4 = u64 [0x20030]\n 13446: a1 = u64 [0x20038]\n 13451: a2 = u64 [0x20040]\n 13456: u64 [a5 + 0x98] = a4\n 13460: u64 [a5 + 0x90] = a1\n 13464: a1 = s1 + 0x14c0\n 13468: u64 [a5 + 0x88] = a2\n 13472: u64 [s1 + 0xb8] = a0\n 13476: ra = 0x30c\n 13480: jump @1429\n      : @628 (gas: 1)\n 13483: t0 = 658, jump @1344\n      : @629 [@dyn 329] (gas: 4)\n 13489: ra = 0x294\n 13493: ecalli 10 // 'value_transferred'\n 13495: t0 = 0x296\n 13499: jump @1345\n      : @630 [@dyn 330] (gas: 1)\n 13502: t0 = 662, jump @1345\n      : @631 [@dyn 331] (gas: 1)\n 13508: jump @754 if a0 != 0\n      : @632 (gas: 4)\n 13512: a0 = u64 [s1 + 0xb8]\n 13516: a0 = i32 [a0]\n 13518: a1 = 0x43\n 13521: jump @755 if a1 >=u a0\n      : @633 (gas: 4)\n 13525: a0 = s1 + 0x4a0\n 13529: ra = 0x298\n 13533: t0 = 0x448\n 13537: jump @1423\n      : @634 [@dyn 332] (gas: 34)\n 13540: a1 = s1 + 0x400\n 13544: a0 = u64 [a1 + 0xb0]\n 13548: u64 [s1 + 0x98] = a0\n 13552: a0 = u64 [a1 + 0xa8]\n 13556: u64 [s1 + 0xb0] = a0\n 13560: a0 = u64 [a1 + 0xa0]\n 13564: u64 [s1 + 0xb8] = a0\n 13568: a0 = sp + 0xffffffffffffffe0\n 13571: a0 = a0 & 0xffffffffffffffe0\n 13574: u64 [s1 + 0xa8] = a0\n 13578: sp = a0\n 13580: a0 = sp + 0xffffffffffffffe0\n 13583: a0 = a0 & 0xffffffffffffffe0\n 13586: u64 [s1 + 0xa0] = a0\n 13590: sp = a0\n 13592: i32 a0 = a0 + 0\n 13594: a1 = 0x24\n 13597: ecalli 1 // 'call_data_load'\n 13599: a3 = u64 [s1 + 0xa0]\n 13603: a0 = u64 [a3 + 0x18]\n 13606: a1 = u64 [a3 + 0x10]\n 13609: a2 = u64 [a3 + 0x8]\n 13612: a3 = u64 [a3]\n 13614: a4 = u64 [s1 + 0xa8]\n 13618: u64 [a4 + 0x18] = a0\n 13621: u64 [a4 + 0x10] = a1\n 13624: u64 [a4 + 0x8] = a2\n 13627: u64 [a4] = a3\n 13629: a0 = 0x30280\n 13634: u64 [s1 + 0xa0] = a0\n 13638: i32 a0 = a0 + 0\n 13640: u64 [s1 + 0x90] = a0\n 13644: ecalli 3 // 'caller'\n 13646: fallthrough\n      : @635 (gas: 7)\n 13647: a2 = u64 [s1 + 0xa0]\n 13651: a0 = u32 [a2 + 0x10]\n 13654: a1 = u64 [a2]\n 13656: a2 = u64 [a2 + 0x8]\n 13659: a0 = a0 | a1\n 13662: a0 = a0 | a2\n 13665: jump @756 if a0 == 0\n      : @636 (gas: 9)\n 13669: a0 = u64 [s1 + 0x98]\n 13673: a0 = a0 << 0x20\n 13676: a1 = a0 >> 0x20\n 13679: a0 = u64 [s1 + 0xb0]\n 13683: a2 = u64 [s1 + 0xb8]\n 13687: a0 = a0 | a2\n 13690: u64 [s1 + 0x98] = a1\n 13694: a0 = a0 | a1\n 13697: jump @761 if a0 == 0\n      : @637 (gas: 6)\n 13701: a0 = u64 [s1 + 0x90]\n 13705: ra = 0x29a\n 13709: ecalli 3 // 'caller'\n 13711: a2 = u64 [s1 + 0xa0]\n 13715: t0 = 0x29c\n 13719: jump @1348\n      : @638 [@dyn 333] (gas: 2)\n 13722: a2 = u64 [s1 + 0xa0]\n 13726: t0 = 668, jump @1348\n      : @639 [@dyn 334] (gas: 7)\n 13732: u64 [s1 + 1176] = 0\n 13736: u64 [s1 + 0x490] = a1\n 13740: u64 [s1 + 0x488] = a0\n 13744: a1 = s1 + 0x480\n 13748: u64 [s1 + 0x480] = a3\n 13752: a0 = 0\n 13754: ra = 670, jump @1429\n      : @640 [@dyn 335] (gas: 7)\n 13760: u64 [s1 + 1144] = 0\n 13764: u64 [s1 + 1136] = 0\n 13768: u64 [s1 + 1120] = 0x1\n 13773: a0 = 0x20\n 13776: a1 = s1 + 0x460\n 13780: u64 [s1 + 1128] = 0\n 13784: ra = 672, jump @1429\n      : @641 [@dyn 336] (gas: 3)\n 13790: a1 = 0x2026c\n 13795: a0 = i32 [0x2026c]\n 13800: jump @643 if a0 >u 63\n      : @642 (gas: 2)\n 13804: u32 [0x2026c] = 0x40\n 13810: fallthrough\n      : @643 (gas: 15)\n 13811: a0 = sp + 0xffffffffffffffe0\n 13814: a2 = a0 & 0xffffffffffffffe0\n 13817: u64 [s1 + 0x78] = a2\n 13820: sp = a2\n 13822: a0 = 0x20280\n 13827: i32 a0 = a0 + 0\n 13829: i32 a2 = a2 + 0\n 13831: u64 [s1 + 0x88] = a1\n 13835: a1 = 0x40\n 13838: u64 [s1 + 0x80] = a0\n 13842: ra = 0x2a2\n 13846: ecalli 6 // 'hash_keccak_256'\n 13848: a3 = u64 [s1 + 0x78]\n 13851: t0 = 0x2a4\n 13855: jump @1400\n      : @644 [@dyn 337] (gas: 2)\n 13858: a3 = u64 [s1 + 0x78]\n 13861: t0 = 676, jump @1400\n      : @645 [@dyn 338] (gas: 21)\n 13867: u64 [s1 + 0x70] = a0\n 13870: a0 = reverse a1\n 13872: u64 [s1 + 0x68] = a0\n 13875: a0 = reverse a2\n 13877: u64 [s1 + 0x60] = a0\n 13880: a0 = reverse a3\n 13882: u64 [s1 + 0x58] = a0\n 13885: a0 = sp + 0xffffffffffffffe0\n 13888: a0 = a0 & 0xffffffffffffffe0\n 13891: u64 [s1 + 0x78] = a0\n 13894: sp = a0\n 13896: u64 [s1 + 1112] = 0\n 13900: a0 = u64 [s1 + 0x98]\n 13904: u64 [s1 + 0x450] = a0\n 13908: a0 = u64 [s1 + 0xb0]\n 13912: u64 [s1 + 0x448] = a0\n 13916: a1 = s1 + 0x440\n 13920: a0 = u64 [s1 + 0xb8]\n 13924: u64 [s1 + 0x440] = a0\n 13928: a0 = 0\n 13930: ra = 678, jump @1429\n      : @646 [@dyn 339] (gas: 12)\n 13936: a0 = u64 [s1 + 0x58]\n 13939: a3 = s1 + 0x400\n 13943: u64 [a3 + 0x38] = a0\n 13946: a0 = u64 [s1 + 0x60]\n 13949: u64 [a3 + 0x30] = a0\n 13952: a0 = u64 [s1 + 0x68]\n 13955: u64 [a3 + 0x28] = a0\n 13958: a0 = 0x20\n 13961: a1 = s1 + 0x420\n 13965: a2 = u64 [s1 + 0x70]\n 13968: u64 [a3 + 0x20] = a2\n 13971: ra = 680, jump @1429\n      : @647 [@dyn 340] (gas: 3)\n 13977: a1 = u64 [s1 + 0x88]\n 13981: a0 = i32 [a1]\n 13983: jump @649 if a0 >u 63\n      : @648 (gas: 2)\n 13987: u32 [a1 + 0] = 0x40\n 13990: fallthrough\n      : @649 (gas: 24)\n 13991: a0 = sp + 0xffffffffffffffe0\n 13994: a0 = a0 & 0xffffffffffffffe0\n 13997: u64 [s1 + 0x88] = a0\n 14001: sp = a0\n 14003: i32 a2 = a0 + 0\n 14005: a1 = 0x40\n 14008: a0 = u64 [s1 + 0x80]\n 14012: ecalli 6 // 'hash_keccak_256'\n 14014: a3 = u64 [s1 + 0x88]\n 14018: a0 = u64 [a3 + 0x18]\n 14021: a1 = u64 [a3 + 0x10]\n 14024: a2 = u64 [a3 + 0x8]\n 14027: a3 = u64 [a3]\n 14029: a4 = reverse a0\n 14031: a1 = reverse a1\n 14033: a2 = reverse a2\n 14035: a3 = reverse a3\n 14037: a0 = u64 [s1 + 0x78]\n 14040: u64 [a0 + 0x18] = a3\n 14043: u64 [a0 + 0x10] = a2\n 14046: u64 [a0 + 0x8] = a1\n 14049: u64 [a0] = a4\n 14051: a1 = u64 [s1 + 0xa8]\n 14055: ra = 682, jump @1432\n      : @650 [@dyn 341] (gas: 3)\n 14061: a0 = s1 + 0x400\n 14065: a1 = 0x40\n 14068: ra = 684, jump @1427\n      : @651 [@dyn 342] (gas: 6)\n 14074: a4 = s1 + 0x400\n 14078: a3 = u64 [a4 + 0x18]\n 14081: a1 = u64 [a4 + 0x10]\n 14084: a2 = u64 [a4 + 0x8]\n 14087: a0 = u64 [a4]\n 14089: t0 = 686, jump @1368\n      : @652 [@dyn 343] (gas: 1)\n 14095: jump @660 if a1 != 0\n      : @653 (gas: 12)\n 14099: a3 = u64 [s1 + 0xa8]\n 14103: a4 = u64 [a3]\n 14105: a1 = u64 [a3 + 0x8]\n 14108: a2 = u64 [a3 + 0x10]\n 14111: a3 = u64 [a3 + 0x18]\n 14114: u64 [s1 + 0x3f8] = a3\n 14118: u64 [s1 + 0x3f0] = a2\n 14122: u64 [s1 + 0x3e8] = a1\n 14126: a1 = s1 + 0x3e0\n 14130: u64 [s1 + 0x3e0] = a4\n 14134: u64 [s1 + 0xa8] = a0\n 14138: ra = 688, jump @1429\n      : @654 [@dyn 344] (gas: 6)\n 14144: a0 = u64 [s1 + 0x90]\n 14148: ra = 0x2b2\n 14152: ecalli 3 // 'caller'\n 14154: a2 = u64 [s1 + 0xa0]\n 14158: t0 = 0x2b4\n 14162: jump @1352\n      : @655 [@dyn 345] (gas: 2)\n 14165: a2 = u64 [s1 + 0xa0]\n 14169: t0 = 692, jump @1352\n      : @656 [@dyn 346] (gas: 31)\n 14175: t0 = a1 | a0\n 14178: a3 = a3 >> 0x20\n 14181: a2 = reverse a2\n 14183: a1 = a2 << 0x20\n 14186: a1 = a1 | a3\n 14189: a2 = a2 >> 0x20\n 14192: u64 [s1 + 920] = 0\n 14196: a0 = u64 [s1 + 0x98]\n 14200: u64 [s1 + 0x390] = a0\n 14204: a0 = u64 [s1 + 0xb0]\n 14208: u64 [s1 + 0x388] = a0\n 14212: a0 = u64 [s1 + 0xb8]\n 14216: u64 [s1 + 0x380] = a0\n 14220: u64 [s1 + 952] = 0\n 14224: a3 = u64 [0x200e8]\n 14229: a4 = u64 [0x200f0]\n 14234: a5 = u64 [0x200f8]\n 14239: a0 = u64 [0x20100]\n 14244: u64 [s1 + 0x3d8] = a3\n 14248: u64 [s1 + 0x3d0] = a4\n 14252: u64 [s1 + 0x3c8] = a5\n 14256: u64 [s1 + 0x3c0] = a0\n 14260: u64 [s1 + 0x3b0] = a2\n 14264: u64 [s1 + 0x3a8] = a1\n 14268: a1 = 0x20\n 14271: a2 = s1 + 0x3c0\n 14275: a3 = s1 + 0x3a0\n 14279: a4 = s1 + 0x380\n 14283: u64 [s1 + 0x3a0] = t0\n 14287: a0 = u64 [s1 + 0xa8]\n 14291: ra = 694, jump @1435\n      : @657 [@dyn 347] (gas: 3)\n 14297: a0 = s1 + 0x360\n 14301: a1 = 0x40\n 14304: ra = 696, jump @1427\n      : @658 [@dyn 348] (gas: 6)\n 14310: a4 = s1 + 0x300\n 14314: a3 = u64 [a4 + 0x78]\n 14317: a1 = u64 [a4 + 0x70]\n 14320: a2 = u64 [a4 + 0x68]\n 14323: a0 = u64 [a4 + 0x60]\n 14326: t0 = 698, jump @1368\n      : @659 [@dyn 349] (gas: 1)\n 14332: jump @780 if a1 == 0\n      : @660 (gas: 1)\n 14336: trap\n      : @661 (gas: 7)\n 14337: u64 [s1 + 600] = 0\n 14341: u64 [s1 + 592] = 0\n 14345: u64 [s1 + 584] = 0\n 14349: a1 = s1 + 0x240\n 14353: u64 [s1 + 576] = 0x3\n 14358: a0 = 0\n 14360: ra = 700, jump @1429\n      : @662 [@dyn 350] (gas: 34)\n 14366: a0 = sp + 0xffffffffffffffe0\n 14369: t1 = a0 & 0xffffffffffffffe0\n 14372: sp = t1\n 14374: ra = 0\n 14376: t2 = 0\n 14378: t0 = 0\n 14380: a5 = 0\n 14382: a0 = u64 [0x20108]\n 14387: a1 = u64 [0x20110]\n 14392: a2 = u64 [0x20118]\n 14397: a3 = u64 [0x20120]\n 14402: a4 = t1\n 14404: u64 [a4 + 0x18] = a0\n 14407: u64 [a4 + 0x10] = a1\n 14410: u64 [a4 + 0x8] = a2\n 14413: u64 [a4] = a3\n 14415: a1 = u64 [s1 + 0x50]\n 14418: a0 = a1 + 0x20\n 14421: u64 [s1 + 0x78] = a0\n 14424: a0 = a0 <u a1\n 14427: a1 = u64 [s1 + 0x48]\n 14430: a2 = a1 + a0\n 14433: u64 [s1 + 0x70] = a2\n 14436: a1 = a2 <u a1\n 14439: a1 = a0 if a0 == 0\n 14442: a0 = u64 [s1 + 0x40]\n 14445: a1 = a1 + a0\n 14448: u64 [s1 + 0x68] = a1\n 14451: a0 = a1 <u a0\n 14454: a1 = u64 [s1 + 0x38]\n 14457: a0 = a0 + a1\n 14460: u64 [s1 + 0x60] = a0\n 14463: u64 [s1 + 0x58] = a4\n 14466: fallthrough\n      : @663 (gas: 16)\n 14467: a0 = u64 [s1 + 0x98]\n 14471: a0 = ra <u a0\n 14474: a2 = u64 [s1 + 0x88]\n 14478: a1 = t2 ^ a2\n 14481: a2 = t2 <u a2\n 14484: a2 = a0 if a1 == 0\n 14487: a4 = u64 [s1 + 0x90]\n 14491: a0 = t0 <u a4\n 14494: a3 = u64 [s1 + 0x80]\n 14498: a1 = a5 ^ a3\n 14501: a3 = a5 <u a3\n 14504: a3 = a0 if a1 == 0\n 14507: a0 = t0 ^ a4\n 14510: a0 = a0 | a1\n 14513: a3 = a2 if a0 == 0\n 14516: jump @665 if a3 != 0\n      : @664 (gas: 1)\n 14519: jump @401\n      : @665 (gas: 7)\n 14522: a0 = s1 + 0x220\n 14526: a1 = t1\n 14528: u64 [s1 + 0xb8] = a5\n 14532: u64 [s1 + 0xb0] = t0\n 14536: u64 [s1 + 0xa8] = t2\n 14540: u64 [s1 + 0xa0] = ra\n 14544: ra = 702, jump @1431\n      : @666 [@dyn 351] (gas: 1)\n 14550: t0 = 704, jump @1372\n      : @667 [@dyn 352] (gas: 6)\n 14556: t0 = a1 <u a5\n 14559: a5 = u64 [s1 + 0xb8]\n 14563: a3 = u64 [s1 + 0x60]\n 14566: a5 = a5 + a3\n 14569: a5 = a5 + t0\n 14572: t0 = 706, jump @1404\n      : @668 [@dyn 353] (gas: 1)\n 14578: jump @660 if a1 != 0\n      : @669 (gas: 11)\n 14582: a3 = s1 + 0x200\n 14586: a2 = u64 [a3 + 0x38]\n 14589: a1 = u64 [a3 + 0x30]\n 14592: a5 = u64 [a3 + 0x28]\n 14595: a4 = u64 [a3 + 0x20]\n 14598: u64 [a3] = a4\n 14600: u64 [a3 + 0x8] = a5\n 14603: u64 [a3 + 0x10] = a1\n 14606: a1 = s1 + 0x200\n 14610: u64 [a3 + 0x18] = a2\n 14613: ra = 708, jump @1429\n      : @670 [@dyn 354] (gas: 1)\n 14619: t0 = 710, jump @1350\n      : @671 [@dyn 355] (gas: 2)\n 14625: t0 = a3\n 14627: jump @663\n      : @672 (gas: 8)\n 14630: a2 = s1 + 0x1038\n 14634: u64 [a2 + 224] = 0\n 14638: u64 [a2 + 216] = 0\n 14642: u64 [a2 + 208] = 0\n 14646: a1 = s1 + 0x1100\n 14650: u64 [a2 + 200] = 0x4\n 14655: a0 = 0\n 14657: ra = 712, jump @1429\n      : @673 [@dyn 356] (gas: 34)\n 14663: a0 = sp + 0xffffffffffffffe0\n 14666: t1 = a0 & 0xffffffffffffffe0\n 14669: sp = t1\n 14671: ra = 0\n 14673: t2 = 0\n 14675: t0 = 0\n 14677: a5 = 0\n 14679: a0 = u64 [0x20068]\n 14684: a1 = u64 [0x20070]\n 14689: a2 = u64 [0x20078]\n 14694: a3 = u64 [0x20080]\n 14699: a4 = t1\n 14701: u64 [a4 + 0x18] = a0\n 14704: u64 [a4 + 0x10] = a1\n 14707: u64 [a4 + 0x8] = a2\n 14710: u64 [a4] = a3\n 14712: a1 = u64 [s1 + 0x50]\n 14715: a0 = a1 + 0x20\n 14718: u64 [s1 + 0x78] = a0\n 14721: a0 = a0 <u a1\n 14724: a1 = u64 [s1 + 0x48]\n 14727: a2 = a1 + a0\n 14730: u64 [s1 + 0x70] = a2\n 14733: a1 = a2 <u a1\n 14736: a1 = a0 if a0 == 0\n 14739: a0 = u64 [s1 + 0x40]\n 14742: a1 = a1 + a0\n 14745: u64 [s1 + 0x68] = a1\n 14748: a0 = a1 <u a0\n 14751: a1 = u64 [s1 + 0x38]\n 14754: a0 = a0 + a1\n 14757: u64 [s1 + 0x60] = a0\n 14760: u64 [s1 + 0x58] = a4\n 14763: fallthrough\n      : @674 (gas: 16)\n 14764: a0 = u64 [s1 + 0x98]\n 14768: a0 = ra <u a0\n 14771: a2 = u64 [s1 + 0x88]\n 14775: a1 = t2 ^ a2\n 14778: a2 = t2 <u a2\n 14781: a2 = a0 if a1 == 0\n 14784: a4 = u64 [s1 + 0x90]\n 14788: a0 = t0 <u a4\n 14791: a3 = u64 [s1 + 0x80]\n 14795: a1 = a5 ^ a3\n 14798: a3 = a5 <u a3\n 14801: a3 = a0 if a1 == 0\n 14804: a0 = t0 ^ a4\n 14807: a0 = a0 | a1\n 14810: a3 = a2 if a0 == 0\n 14813: jump @676 if a3 != 0\n      : @675 (gas: 1)\n 14816: jump @484\n      : @676 (gas: 7)\n 14819: a0 = s1 + 0x10e0\n 14823: a1 = t1\n 14825: u64 [s1 + 0xb8] = a5\n 14829: u64 [s1 + 0xb0] = t0\n 14833: u64 [s1 + 0xa8] = t2\n 14837: u64 [s1 + 0xa0] = ra\n 14841: ra = 714, jump @1431\n      : @677 [@dyn 357] (gas: 1)\n 14847: t0 = 716, jump @1372\n      : @678 [@dyn 358] (gas: 6)\n 14853: t0 = a1 <u a5\n 14856: a5 = u64 [s1 + 0xb8]\n 14860: a3 = u64 [s1 + 0x60]\n 14863: a5 = a5 + a3\n 14866: a5 = a5 + t0\n 14869: t0 = 718, jump @1404\n      : @679 [@dyn 359] (gas: 1)\n 14875: jump @660 if a1 != 0\n      : @680 (gas: 11)\n 14879: a5 = s1 + 0x1038\n 14883: t0 = u64 [a5 + 0xc0]\n 14887: a1 = u64 [a5 + 0xb8]\n 14891: a2 = u64 [a5 + 0xb0]\n 14895: a4 = u64 [a5 + 0xa8]\n 14899: u64 [a5 + 0x88] = a4\n 14903: u64 [a5 + 0x90] = a2\n 14907: u64 [a5 + 0x98] = a1\n 14911: a1 = s1 + 0x10c0\n 14915: u64 [a5 + 0xa0] = t0\n 14919: ra = 720, jump @1429\n      : @681 [@dyn 360] (gas: 1)\n 14925: t0 = 722, jump @1350\n      : @682 [@dyn 361] (gas: 2)\n 14931: t0 = a3\n 14933: jump @674\n      : @683 (gas: 4)\n 14936: a1 = 0x20280\n 14941: i32 a1 = a1 + 0\n 14943: a0 = 0x1\n 14946: jump @856\n      : @684 (gas: 4)\n 14949: a1 = 0x20280\n 14954: i32 a1 = a1 + 0\n 14956: a0 = 0x1\n 14959: jump @856\n      : @685 (gas: 4)\n 14962: a1 = 0x20280\n 14967: i32 a1 = a1 + 0\n 14969: a0 = 0x1\n 14972: jump @856\n      : @686 (gas: 4)\n 14975: a1 = 0x20280\n 14980: i32 a1 = a1 + 0\n 14982: a0 = 0x1\n 14985: jump @856\n      : @687 (gas: 4)\n 14988: a1 = 0x20280\n 14993: i32 a1 = a1 + 0\n 14995: a0 = 0x1\n 14998: jump @856\n      : @688 (gas: 4)\n 15001: a1 = 0x20280\n 15006: i32 a1 = a1 + 0\n 15008: a0 = 0x1\n 15011: jump @856\n      : @689 (gas: 4)\n 15014: a1 = 0x20280\n 15019: i32 a1 = a1 + 0\n 15021: a0 = 0x1\n 15024: jump @856\n      : @690 (gas: 4)\n 15027: a1 = 0x20280\n 15032: i32 a1 = a1 + 0\n 15034: a0 = 0x1\n 15037: jump @856\n      : @691 (gas: 4)\n 15040: a1 = 0x20280\n 15045: i32 a1 = a1 + 0\n 15047: a0 = 0x1\n 15050: jump @856\n      : @692 (gas: 4)\n 15053: a1 = 0x20280\n 15058: i32 a1 = a1 + 0\n 15060: a0 = 0x1\n 15063: jump @856\n      : @693 (gas: 4)\n 15066: a1 = 0x20280\n 15071: i32 a1 = a1 + 0\n 15073: a0 = 0x1\n 15076: jump @856\n      : @694 (gas: 4)\n 15079: a1 = 0x20280\n 15084: i32 a1 = a1 + 0\n 15086: a0 = 0x1\n 15089: jump @856\n      : @695 (gas: 4)\n 15092: a1 = 0x20280\n 15097: i32 a1 = a1 + 0\n 15099: a0 = 0x1\n 15102: jump @856\n      : @696 (gas: 4)\n 15105: a1 = 0x20280\n 15110: i32 a1 = a1 + 0\n 15112: a0 = 0x1\n 15115: jump @856\n      : @697 (gas: 6)\n 15118: u64 [s1 + 272] = 0\n 15122: u64 [s1 + 264] = 0\n 15126: u64 [s1 + 256] = 0\n 15130: t0 = 0x2d4\n 15134: a0 = 0x4e487b7100000000\n 15144: fallthrough\n      : @698 [@dyn 362] (gas: 4)\n 15145: a1 = s1 + 0x100\n 15149: u64 [s1 + 0x118] = a0\n 15153: a0 = 0\n 15155: ra = 726, jump @1429\n      : @699 [@dyn 363] (gas: 7)\n 15161: u64 [s1 + 248] = 0\n 15165: u64 [s1 + 240] = 0\n 15169: u64 [s1 + 224] = 0x22\n 15174: a0 = 0x4\n 15177: a1 = s1 + 0xe0\n 15181: u64 [s1 + 232] = 0\n 15185: ra = 728, jump @1429\n      : @700 [@dyn 364] (gas: 2)\n 15191: a1 = i32 [0x2026c]\n 15196: jump @702 if a1 >u 63\n      : @701 (gas: 3)\n 15200: u32 [0x2026c] = 0x40\n 15206: a1 = 0x20280\n 15211: jump @779\n      : @702 (gas: 2)\n 15214: a1 = 0x20280\n 15219: jump @779\n      : @703 (gas: 4)\n 15222: a1 = 0x20280\n 15227: i32 a1 = a1 + 0\n 15229: a0 = 0x1\n 15232: jump @856\n      : @704 (gas: 4)\n 15235: a1 = 0x20280\n 15240: i32 a1 = a1 + 0\n 15242: a0 = 0x1\n 15245: jump @856\n      : @705 (gas: 9)\n 15248: u64 [a2 + 344] = 0\n 15252: u64 [a2 + 336] = 0\n 15256: u64 [a2 + 328] = 0\n 15260: a0 = 0xe2517d3f00000000\n 15270: a1 = s1 + 0x7ff\n 15274: a1 = a1 + 0x181\n 15278: u64 [a2 + 0x160] = a0\n 15282: a0 = 0\n 15284: ra = 730, jump @1429\n      : @706 [@dyn 365] (gas: 6)\n 15290: a0 = u64 [s1 + 0x20]\n 15293: ra = 0x2dc\n 15297: ecalli 3 // 'caller'\n 15299: a2 = u64 [s1 + 0x70]\n 15302: t0 = 0x2de\n 15306: jump @1346\n      : @707 [@dyn 366] (gas: 2)\n 15309: a2 = u64 [s1 + 0x70]\n 15312: t0 = 734, jump @1346\n      : @708 [@dyn 367] (gas: 9)\n 15318: u64 [a2 + 320] = 0\n 15322: a4 = a2 + 0x100\n 15326: u64 [a4 + 0x38] = a1\n 15329: u64 [a4 + 0x30] = a0\n 15332: a0 = 0x4\n 15335: a1 = s1 + 0x7ff\n 15339: a1 = a1 + 0x161\n 15343: u64 [a4 + 0x28] = a3\n 15346: ra = 736, jump @1429\n      : @709 [@dyn 368] (gas: 16)\n 15352: a0 = u64 [s1 + 0x40]\n 15355: a1 = s1 + 0x7ff\n 15359: a1 = a1 + 0x39\n 15362: a2 = a1 + 0x100\n 15366: u64 [a2 + 0x20] = a0\n 15369: a0 = u64 [s1 + 0x30]\n 15372: u64 [a2 + 0x18] = a0\n 15375: a0 = u64 [s1 + 0x28]\n 15378: u64 [a2 + 0x10] = a0\n 15381: a3 = a1\n 15383: a0 = 0x24\n 15386: a1 = s1 + 0x7ff\n 15390: a1 = a1 + 0x141\n 15394: a2 = u64 [s1 + 0x38]\n 15397: u64 [a3 + 0x108] = a2\n 15401: ra = 738, jump @1429\n      : @710 [@dyn 369] (gas: 3)\n 15407: a0 = u64 [s1 + 0x88]\n 15411: a0 = i32 [a0]\n 15413: jump @712 if a0 >u 95\n      : @711 (gas: 7)\n 15417: a1 = u64 [s1 + 0x88]\n 15421: u32 [a1 + 0] = 0x60\n 15424: a0 = 0x1\n 15427: a2 = 0x44\n 15430: a1 = u64 [s1 + 0xb8]\n 15434: ecalli 7 // 'seal_return'\n 15436: jump @720\n      : @712 (gas: 5)\n 15439: a0 = 0x1\n 15442: a2 = 0x44\n 15445: a1 = u64 [s1 + 0xb8]\n 15449: ecalli 7 // 'seal_return'\n 15451: jump @720\n      : @713 (gas: 12)\n 15454: a0 = s1 + 0x7ff\n 15458: a0 = a0 + 0x39\n 15461: u64 [a0 + 408] = 0\n 15465: u64 [a0 + 400] = 0\n 15469: u64 [a0 + 392] = 0\n 15473: a2 = a0\n 15475: a0 = 0xec442f0500000000\n 15485: a1 = s1 + 0x7ff\n 15489: a1 = a1 + 0x1c1\n 15493: u64 [a2 + 0x1a0] = a0\n 15497: a0 = 0\n 15499: ra = 740, jump @1429\n      : @714 [@dyn 370] (gas: 12)\n 15505: a0 = s1 + 0x7ff\n 15509: a0 = a0 + 0x39\n 15512: u64 [a0 + 384] = 0\n 15516: u64 [a0 + 376] = 0\n 15520: u64 [a0 + 368] = 0\n 15524: a2 = a0\n 15526: a0 = 0x4\n 15529: a1 = s1 + 0x7ff\n 15533: a1 = a1 + 0x1a1\n 15537: u64 [a2 + 360] = 0\n 15541: ra = 0x2e8\n 15545: jump @1429\n      : @715 (gas: 12)\n 15548: a0 = s1 + 0x7ff\n 15552: a0 = a0 + 0x39\n 15555: u64 [a0 + 472] = 0\n 15559: u64 [a0 + 464] = 0\n 15563: u64 [a0 + 456] = 0\n 15567: a2 = a0\n 15569: a0 = 0x4e487b7100000000\n 15579: a1 = s1 + 0x7ff\n 15583: a1 = a1 + 0x201\n 15587: u64 [a2 + 0x1e0] = a0\n 15591: a0 = 0\n 15593: ra = 742, jump @1429\n      : @716 [@dyn 371] (gas: 11)\n 15599: a1 = s1 + 0x7ff\n 15603: a1 = a1 + 0x39\n 15606: u64 [a1 + 448] = 0\n 15610: u64 [a1 + 440] = 0\n 15614: u64 [a1 + 424] = 0x11\n 15619: a2 = a1\n 15621: a0 = 0x4\n 15624: a1 = s1 + 0x7ff\n 15628: a1 = a1 + 0x1e1\n 15632: u64 [a2 + 432] = 0\n 15636: ra = 744, jump @1429\n      : @717 [@dyn 372] (gas: 3)\n 15642: a0 = u64 [s1 + 0x88]\n 15646: a0 = i32 [a0]\n 15648: jump @719 if a0 >u 63\n      : @718 (gas: 7)\n 15652: a1 = u64 [s1 + 0x88]\n 15656: u32 [a1 + 0] = 0x40\n 15659: a0 = 0x1\n 15662: a2 = 0x24\n 15665: a1 = u64 [s1 + 0xb8]\n 15669: ecalli 7 // 'seal_return'\n 15671: jump @720\n      : @719 (gas: 5)\n 15673: a0 = 0x1\n 15676: a2 = 0x24\n 15679: a1 = u64 [s1 + 0xb8]\n 15683: ecalli 7 // 'seal_return'\n 15685: fallthrough\n      : @720 (gas: 4)\n 15686: a1 = 0x20280\n 15691: i32 a1 = a1 + 0\n 15693: a0 = 0x1\n 15696: jump @856\n      : @721 (gas: 4)\n 15699: a1 = 0x20280\n 15704: i32 a1 = a1 + 0\n 15706: a0 = 0x1\n 15709: jump @856\n      : @722 (gas: 12)\n 15712: a0 = s1 + 0x7ff\n 15716: a0 = a0 + 0x39\n 15719: u64 [a0 + 1944] = 0\n 15723: u64 [a0 + 1936] = 0\n 15727: u64 [a0 + 1928] = 0\n 15731: a2 = a0\n 15733: a0 = 0x4e487b7100000000\n 15743: a1 = s1 + 0x7ff\n 15747: a1 = a1 + 0x7c1\n 15751: u64 [a2 + 0x7a0] = a0\n 15755: a0 = 0\n 15757: ra = 746, jump @1429\n      : @723 [@dyn 373] (gas: 11)\n 15763: a1 = s1 + 0x7ff\n 15767: a1 = a1 + 0x39\n 15770: u64 [a1 + 1920] = 0\n 15774: u64 [a1 + 1912] = 0\n 15778: u64 [a1 + 1896] = 0x22\n 15783: a2 = a1\n 15785: a0 = 0x4\n 15788: a1 = s1 + 0x7ff\n 15792: a1 = a1 + 0x7a1\n 15796: u64 [a2 + 1904] = 0\n 15800: ra = 748, jump @1429\n      : @724 [@dyn 374] (gas: 2)\n 15806: a1 = i32 [0x2026c]\n 15811: jump @726 if a1 >u 63\n      : @725 (gas: 3)\n 15815: u32 [0x2026c] = 0x40\n 15821: a1 = 0x20280\n 15826: jump @779\n      : @726 (gas: 2)\n 15829: a1 = 0x20280\n 15834: jump @779\n      : @727 (gas: 4)\n 15837: a1 = 0x20280\n 15842: i32 a1 = a1 + 0\n 15844: a0 = 0x1\n 15847: jump @856\n      : @728 (gas: 4)\n 15850: a1 = 0x20280\n 15855: i32 a1 = a1 + 0\n 15857: a0 = 0x1\n 15860: jump @856\n      : @729 (gas: 10)\n 15863: a3 = 0\n 15865: u64 [a2 + 120] = 0\n 15868: u64 [a2 + 112] = 0\n 15871: a0 = 0x8dfc202b00000000\n 15881: u64 [a2 + 0x80] = a0\n 15885: a1 = s1 + 0x7ff\n 15889: a1 = a1 + 0xa1\n 15893: u64 [a2 + 104] = 0\n 15896: a0 = 0\n 15898: ra = 750, jump @1429\n      : @730 [@dyn 375] (gas: 2)\n 15904: a1 = i32 [0x2026c]\n 15909: jump @732 if a1 >u 31\n      : @731 (gas: 3)\n 15913: u32 [0x2026c] = 0x20\n 15919: a1 = 0x20280\n 15924: jump @733\n      : @732 (gas: 2)\n 15926: a1 = 0x20280\n 15931: fallthrough\n      : @733 (gas: 5)\n 15932: i32 a1 = a1 + 0\n 15934: a0 = 0x1\n 15937: a2 = 0x4\n 15940: ecalli 7 // 'seal_return'\n 15942: fallthrough\n      : @734 (gas: 4)\n 15943: a1 = 0x20280\n 15948: i32 a1 = a1 + 0\n 15950: a0 = 0x1\n 15953: jump @856\n      : @735 (gas: 4)\n 15956: a1 = 0x20280\n 15961: i32 a1 = a1 + 0\n 15963: a0 = 0x1\n 15966: jump @856\n      : @736 (gas: 1)\n 15969: jump @784 if a0 != 3578229791\n      : @737 (gas: 1)\n 15977: t0 = 752, jump @1344\n      : @738 [@dyn 376] (gas: 4)\n 15983: ra = 0x2f2\n 15987: ecalli 10 // 'value_transferred'\n 15989: t0 = 0x2f4\n 15993: jump @1345\n      : @739 [@dyn 377] (gas: 1)\n 15996: t0 = 756, jump @1345\n      : @740 [@dyn 378] (gas: 1)\n 16002: jump @796 if a0 == 0\n      : @741 (gas: 4)\n 16006: a1 = 0x20280\n 16011: i32 a1 = a1 + 0\n 16013: a0 = 0x1\n 16016: jump @856\n      : @742 (gas: 4)\n 16019: a1 = 0x20280\n 16024: i32 a1 = a1 + 0\n 16026: a0 = 0x1\n 16029: jump @856\n      : @743 (gas: 4)\n 16032: a1 = 0x20280\n 16037: i32 a1 = a1 + 0\n 16039: a0 = 0x1\n 16042: jump @856\n      : @744 (gas: 4)\n 16045: a1 = 0x20280\n 16050: i32 a1 = a1 + 0\n 16052: a0 = 0x1\n 16055: jump @856\n      : @745 (gas: 4)\n 16058: a1 = 0x20280\n 16063: i32 a1 = a1 + 0\n 16065: a0 = 0x1\n 16068: jump @856\n      : @746 (gas: 4)\n 16071: a1 = 0x20280\n 16076: i32 a1 = a1 + 0\n 16078: a0 = 0x1\n 16081: jump @856\n      : @747 (gas: 4)\n 16084: a1 = 0x20280\n 16089: i32 a1 = a1 + 0\n 16091: a0 = 0x1\n 16094: jump @856\n      : @748 (gas: 4)\n 16097: a1 = 0x20280\n 16102: i32 a1 = a1 + 0\n 16104: a0 = 0x1\n 16107: jump @856\n      : @749 (gas: 4)\n 16110: a1 = 0x20280\n 16115: i32 a1 = a1 + 0\n 16117: a0 = 0x1\n 16120: jump @856\n      : @750 (gas: 4)\n 16123: a1 = 0x20280\n 16128: i32 a1 = a1 + 0\n 16130: a0 = 0x1\n 16133: jump @856\n      : @751 (gas: 4)\n 16136: a1 = 0x20280\n 16141: i32 a1 = a1 + 0\n 16143: a0 = 0x1\n 16146: jump @856\n      : @752 (gas: 4)\n 16149: a1 = 0x20280\n 16154: i32 a1 = a1 + 0\n 16156: a0 = 0x1\n 16159: jump @856\n      : @753 (gas: 4)\n 16162: a1 = 0x20280\n 16167: i32 a1 = a1 + 0\n 16169: a0 = 0x1\n 16172: jump @856\n      : @754 (gas: 4)\n 16175: a1 = 0x20280\n 16180: i32 a1 = a1 + 0\n 16182: a0 = 0x1\n 16185: jump @856\n      : @755 (gas: 4)\n 16188: a1 = 0x20280\n 16193: i32 a1 = a1 + 0\n 16195: a0 = 0x1\n 16198: jump @856\n      : @756 (gas: 8)\n 16201: u64 [s1 + 752] = 0\n 16205: u64 [s1 + 744] = 0\n 16209: u64 [s1 + 736] = 0\n 16213: a0 = 0xe602df0500000000\n 16223: a1 = s1 + 0x2e0\n 16227: u64 [s1 + 0x2f8] = a0\n 16231: a0 = 0\n 16233: ra = 758, jump @1429\n      : @757 [@dyn 379] (gas: 7)\n 16239: u64 [s1 + 728] = 0\n 16243: u64 [s1 + 720] = 0\n 16247: u64 [s1 + 712] = 0\n 16251: a0 = 0x4\n 16254: a1 = s1 + 0x2c0\n 16258: u64 [s1 + 704] = 0\n 16262: ra = 760, jump @1429\n      : @758 [@dyn 380] (gas: 2)\n 16268: a1 = i32 [0x2026c]\n 16273: jump @760 if a1 >u 63\n      : @759 (gas: 3)\n 16277: u32 [0x2026c] = 0x40\n 16283: a1 = 0x20280\n 16288: jump @779\n      : @760 (gas: 2)\n 16291: a1 = 0x20280\n 16296: jump @779\n      : @761 (gas: 8)\n 16299: u64 [s1 + 816] = 0\n 16303: u64 [s1 + 808] = 0\n 16307: u64 [s1 + 800] = 0\n 16311: a0 = 0x94280d6200000000\n 16321: a1 = s1 + 0x320\n 16325: u64 [s1 + 0x338] = a0\n 16329: a0 = 0\n 16331: ra = 762, jump @1429\n      : @762 [@dyn 381] (gas: 7)\n 16337: u64 [s1 + 792] = 0\n 16341: u64 [s1 + 784] = 0\n 16345: u64 [s1 + 776] = 0\n 16349: a0 = 0x4\n 16352: a1 = s1 + 0x300\n 16356: u64 [s1 + 768] = 0\n 16360: ra = 764, jump @1429\n      : @763 [@dyn 382] (gas: 2)\n 16366: a1 = i32 [0x2026c]\n 16371: jump @765 if a1 >u 63\n      : @764 (gas: 3)\n 16375: u32 [0x2026c] = 0x40\n 16381: a1 = 0x20280\n 16386: jump @779\n      : @765 (gas: 2)\n 16389: a1 = 0x20280\n 16394: jump @779\n      : @766 (gas: 1)\n 16397: t0 = 766, jump @1387\n      : @767 [@dyn 383] (gas: 1)\n 16403: ra = 768, jump @1429\n      : @768 [@dyn 384] (gas: 1)\n 16409: t0 = 770, jump @1398\n      : @769 [@dyn 385] (gas: 1)\n 16415: ra = 772, jump @1429\n      : @770 [@dyn 386] (gas: 2)\n 16421: a1 = i32 [0x2026c]\n 16426: jump @772 if a1 >u 63\n      : @771 (gas: 3)\n 16430: u32 [0x2026c] = 0x40\n 16436: a1 = 0x20280\n 16441: jump @779\n      : @772 (gas: 2)\n 16444: a1 = 0x20280\n 16449: jump @779\n      : @773 (gas: 9)\n 16451: a0 = s1 + 0x7ff\n 16455: a0 = a0 + 0x39\n 16458: u64 [a0 + 2008] = 0\n 16462: u64 [a0 + 2000] = 0\n 16466: u64 [a0 + 1992] = 0\n 16470: a2 = a0\n 16472: t0 = 0x306\n 16476: a0 = 0x4e487b7100000000\n 16486: fallthrough\n      : @774 [@dyn 387] (gas: 4)\n 16487: a1 = s1 + 0x1000\n 16491: u64 [a2 + 0x7e0] = a0\n 16495: a0 = 0\n 16497: ra = 776, jump @1429\n      : @775 [@dyn 388] (gas: 11)\n 16503: a1 = s1 + 0x7ff\n 16507: a1 = a1 + 0x39\n 16510: u64 [a1 + 1984] = 0\n 16514: u64 [a1 + 1976] = 0\n 16518: u64 [a1 + 1960] = 0x41\n 16523: a2 = a1\n 16525: a0 = 0x4\n 16528: a1 = s1 + 0x7ff\n 16532: a1 = a1 + 0x7e1\n 16536: u64 [a2 + 1968] = 0\n 16540: ra = 778, jump @1429\n      : @776 [@dyn 389] (gas: 2)\n 16546: a1 = i32 [0x2026c]\n 16551: jump @778 if a1 >u 63\n      : @777 (gas: 3)\n 16555: u32 [0x2026c] = 0x40\n 16561: a1 = 0x20280\n 16566: jump @779\n      : @778 (gas: 2)\n 16568: a1 = 0x20280\n 16573: fallthrough\n      : @779 (gas: 5)\n 16574: i32 a1 = a1 + 0\n 16576: a0 = 0x1\n 16579: a2 = 0x24\n 16582: ecalli 7 // 'seal_return'\n 16584: fallthrough\n      : @780 (gas: 7)\n 16585: u64 [s1 + 856] = 0\n 16589: u64 [s1 + 848] = 0\n 16593: u64 [s1 + 840] = 0\n 16597: a1 = s1 + 0x340\n 16601: u64 [s1 + 832] = 0x1\n 16606: u64 [s1 + 0xb8] = a0\n 16610: ra = 780, jump @1429\n      : @781 [@dyn 390] (gas: 3)\n 16616: a1 = 0x20\n 16619: a0 = u64 [s1 + 0xb8]\n 16623: ra = 782, jump @1439\n      : @782 [@dyn 391] (gas: 6)\n 16629: i32 a1 = a0 + 0\n 16631: a2 = 0x20\n 16634: a0 = 0\n 16636: ra = 0x310\n 16640: ecalli 7 // 'seal_return'\n 16642: jump @784\n      : @783 (gas: 5)\n 16644: a2 = 0x20\n 16647: a0 = 0\n 16649: ra = 0x310\n 16653: ecalli 7 // 'seal_return'\n 16655: fallthrough\n      : @784 [@dyn 392] (gas: 1)\n 16656: jump @790 if a0 != 33540519\n      : @785 (gas: 1)\n 16663: t0 = 786, jump @1344\n      : @786 [@dyn 393] (gas: 4)\n 16669: ra = 0x314\n 16673: ecalli 10 // 'value_transferred'\n 16675: t0 = 0x316\n 16679: jump @1345\n      : @787 [@dyn 394] (gas: 1)\n 16682: t0 = 790, jump @1345\n      : @788 [@dyn 395] (gas: 1)\n 16688: jump @804 if a0 == 0\n      : @789 (gas: 4)\n 16692: a1 = 0x20280\n 16697: i32 a1 = a1 + 0\n 16699: a0 = 0x1\n 16702: jump @856\n      : @790 (gas: 1)\n 16705: jump @798 if a0 != 791671133\n      : @791 (gas: 1)\n 16712: t0 = 792, jump @1344\n      : @792 [@dyn 396] (gas: 4)\n 16718: ra = 0x31a\n 16722: ecalli 10 // 'value_transferred'\n 16724: t0 = 0x31c\n 16728: jump @1345\n      : @793 [@dyn 397] (gas: 1)\n 16731: t0 = 796, jump @1345\n      : @794 [@dyn 398] (gas: 1)\n 16737: jump @820 if a0 == 0\n      : @795 (gas: 4)\n 16741: a1 = 0x20280\n 16746: i32 a1 = a1 + 0\n 16748: a0 = 0x1\n 16751: jump @856\n      : @796 (gas: 3)\n 16754: a0 = u64 [s1 + 0xb8]\n 16758: a0 = i32 [a0]\n 16760: jump @806 if a0 >u 67\n      : @797 (gas: 4)\n 16764: a1 = 0x20280\n 16769: i32 a1 = a1 + 0\n 16771: a0 = 0x1\n 16774: jump @856\n      : @798 (gas: 1)\n 16777: jump @814 if a0 != 911641278\n      : @799 (gas: 1)\n 16785: t0 = 798, jump @1344\n      : @800 [@dyn 399] (gas: 4)\n 16791: ra = 0x320\n 16795: ecalli 10 // 'value_transferred'\n 16797: t0 = 0x322\n 16801: jump @1345\n      : @801 [@dyn 400] (gas: 1)\n 16804: t0 = 802, jump @1345\n      : @802 [@dyn 401] (gas: 1)\n 16810: jump @825 if a0 == 0\n      : @803 (gas: 4)\n 16814: a1 = 0x20280\n 16819: i32 a1 = a1 + 0\n 16821: a0 = 0x1\n 16824: jump @856\n      : @804 (gas: 3)\n 16827: a0 = u64 [s1 + 0xb8]\n 16831: a0 = i32 [a0]\n 16833: jump @822 if a0 >u 35\n      : @805 (gas: 4)\n 16838: a1 = 0x20280\n 16843: i32 a1 = a1 + 0\n 16845: a0 = 0x1\n 16848: jump @856\n      : @806 (gas: 1)\n 16851: t0 = 804, jump @1399\n      : @807 [@dyn 402] (gas: 4)\n 16857: ra = 0x326\n 16861: ecalli 1 // 'call_data_load'\n 16863: t0 = 0x328\n 16867: jump @1395\n      : @808 [@dyn 403] (gas: 1)\n 16870: t0 = 808, jump @1395\n      : @809 [@dyn 404] (gas: 4)\n 16876: a0 = s1 + 0x1380\n 16880: ra = 0x32a\n 16884: t0 = 0x452\n 16888: jump @1423\n      : @810 [@dyn 405] (gas: 22)\n 16891: a1 = s1 + 0x1038\n 16895: a2 = a1 + 0x300\n 16899: a0 = u64 [a2 + 0x48]\n 16902: u64 [s1 + 0x98] = a0\n 16906: a0 = u64 [a2 + 0x50]\n 16909: u64 [s1 + 0x90] = a0\n 16913: a0 = u64 [a2 + 0x58]\n 16916: u64 [s1 + 0x88] = a0\n 16920: a0 = u64 [a2 + 0x60]\n 16923: u64 [s1 + 0x80] = a0\n 16927: a0 = u64 [s1 + 0xa0]\n 16931: u64 [a2 + 0x20] = a0\n 16934: a0 = u64 [s1 + 0xa8]\n 16938: u64 [a2 + 0x18] = a0\n 16941: a0 = u64 [s1 + 0xb0]\n 16945: u64 [a2 + 0x10] = a0\n 16948: a3 = a1\n 16950: a0 = s1 + 0x1360\n 16954: a1 = s1 + 0x1340\n 16958: a2 = u64 [s1 + 0xb8]\n 16962: u64 [a3 + 0x308] = a2\n 16966: ra = 812, jump @1047\n      : @811 [@dyn 406] (gas: 13)\n 16972: a4 = s1 + 0x1038\n 16976: a5 = a4 + 0x300\n 16980: a1 = u64 [a5 + 0x28]\n 16983: a0 = u64 [a5 + 0x30]\n 16986: a2 = u64 [a5 + 0x38]\n 16989: a3 = u64 [a5 + 0x40]\n 16992: u64 [a5] = a3\n 16994: a3 = a4 + 0x200\n 16998: u64 [a3 + 0xf8] = a2\n 17002: u64 [a3 + 0xf0] = a0\n 17006: a0 = s1 + 0x1320\n 17010: u64 [a3 + 0xe8] = a1\n 17014: ra = 814, jump @1182\n      : @812 [@dyn 407] (gas: 23)\n 17020: a0 = s1 + 0x1038\n 17024: a1 = u64 [s1 + 0x80]\n 17028: a2 = a0 + 0x200\n 17032: u64 [a2 + 0xa0] = a1\n 17036: a1 = u64 [s1 + 0x88]\n 17040: u64 [a2 + 0x98] = a1\n 17044: a1 = u64 [s1 + 0x90]\n 17048: u64 [a2 + 0x90] = a1\n 17052: a1 = u64 [s1 + 0x98]\n 17056: u64 [a2 + 0x88] = a1\n 17060: a1 = u64 [s1 + 0xa0]\n 17064: u64 [a2 + 0xc0] = a1\n 17068: a1 = u64 [s1 + 0xa8]\n 17072: u64 [a2 + 0xb8] = a1\n 17076: a1 = u64 [s1 + 0xb0]\n 17080: u64 [a2 + 0xb0] = a1\n 17084: a4 = a0\n 17086: a0 = s1 + 0x1300\n 17090: a1 = s1 + 0x12e0\n 17094: a2 = s1 + 0x12c0\n 17098: a3 = u64 [s1 + 0xb8]\n 17102: u64 [a4 + 0x2a8] = a3\n 17106: ra = 816, jump @1254\n      : @813 [@dyn 408] (gas: 2)\n 17112: a1 = 0x20280\n 17117: jump @572\n      : @814 (gas: 1)\n 17120: jump @827 if a0 != 1117154408\n      : @815 (gas: 1)\n 17128: t0 = 818, jump @1344\n      : @816 [@dyn 409] (gas: 4)\n 17134: ra = 0x334\n 17138: ecalli 10 // 'value_transferred'\n 17140: t0 = 0x336\n 17144: jump @1345\n      : @817 [@dyn 410] (gas: 1)\n 17147: t0 = 822, jump @1345\n      : @818 [@dyn 411] (gas: 1)\n 17153: jump @830 if a0 == 0\n      : @819 (gas: 4)\n 17157: a1 = 0x20280\n 17162: i32 a1 = a1 + 0\n 17164: a0 = 0x1\n 17167: jump @856\n      : @820 (gas: 3)\n 17170: a0 = u64 [s1 + 0xb8]\n 17174: a0 = i32 [a0]\n 17176: jump @832 if a0 >u 67\n      : @821 (gas: 4)\n 17181: a1 = 0x20280\n 17186: i32 a1 = a1 + 0\n 17188: a0 = 0x1\n 17191: jump @856\n      : @822 (gas: 8)\n 17194: a0 = sp + 0xffffffffffffffe0\n 17197: a0 = a0 & 0xffffffffffffffe0\n 17200: u64 [s1 + 0xb8] = a0\n 17204: sp = a0\n 17206: i32 a0 = a0 + 0\n 17208: a1 = 0x4\n 17211: ecalli 1 // 'call_data_load'\n 17213: fallthrough\n      : @823 (gas: 11)\n 17214: a1 = u64 [s1 + 0xb8]\n 17218: a0 = u64 [a1 + 0x18]\n 17221: a2 = u64 [a1 + 0x10]\n 17224: a3 = u64 [a1]\n 17226: a1 = u64 [a1 + 0x8]\n 17229: a4 = a0 << 0x20\n 17232: a4 = a4 >> 0x20\n 17235: a2 = a2 | a3\n 17238: a4 = a4 | a1\n 17241: a4 = a4 | a2\n 17244: jump @840 if a4 == 0\n      : @824 (gas: 4)\n 17248: a1 = 0x20280\n 17253: i32 a1 = a1 + 0\n 17255: a0 = 0x1\n 17258: jump @856\n      : @825 (gas: 4)\n 17261: a0 = u64 [s1 + 0xb8]\n 17265: a0 = i32 [a0]\n 17267: a1 = 0x43\n 17270: jump @844 if a1 <u a0\n      : @826 (gas: 4)\n 17274: a1 = 0x20280\n 17279: i32 a1 = a1 + 0\n 17281: a0 = 0x1\n 17284: jump @856\n      : @827 (gas: 1)\n 17287: jump @849 if a0 != 1718049449\n      : @828 (gas: 3)\n 17295: a0 = u64 [s1 + 0xb8]\n 17299: a0 = i32 [a0]\n 17301: jump @857 if a0 >u 3\n      : @829 (gas: 4)\n 17306: a1 = 0x20280\n 17311: i32 a1 = a1 + 0\n 17313: a0 = 0x1\n 17316: jump @856\n      : @830 (gas: 3)\n 17319: a0 = u64 [s1 + 0xb8]\n 17323: a0 = i32 [a0]\n 17325: jump @858 if a0 >u 35\n      : @831 (gas: 4)\n 17330: a1 = 0x20280\n 17335: i32 a1 = a1 + 0\n 17337: a0 = 0x1\n 17340: jump @856\n      : @832 (gas: 1)\n 17343: t0 = 824, jump @1399\n      : @833 [@dyn 412] (gas: 4)\n 17349: ra = 0x33a\n 17353: ecalli 1 // 'call_data_load'\n 17355: t0 = 0x33c\n 17359: jump @1395\n      : @834 [@dyn 413] (gas: 1)\n 17362: t0 = 828, jump @1395\n      : @835 [@dyn 414] (gas: 4)\n 17368: a0 = s1 + 0x7a0\n 17372: ra = 0x33e\n 17376: t0 = 0x452\n 17380: jump @1423\n      : @836 [@dyn 415] (gas: 19)\n 17383: a0 = u64 [s1 + 0x7a0]\n 17387: u64 [s1 + 0x98] = a0\n 17391: a0 = u64 [s1 + 0x7a8]\n 17395: u64 [s1 + 0x90] = a0\n 17399: a0 = u64 [s1 + 0x7b0]\n 17403: u64 [s1 + 0x88] = a0\n 17407: a0 = u64 [s1 + 0x7b8]\n 17411: u64 [s1 + 0x80] = a0\n 17415: a0 = u64 [s1 + 0xa0]\n 17419: u64 [s1 + 0x778] = a0\n 17423: a0 = u64 [s1 + 0xa8]\n 17427: u64 [s1 + 0x770] = a0\n 17431: a0 = u64 [s1 + 0xb0]\n 17435: u64 [s1 + 0x768] = a0\n 17439: a0 = s1 + 0x780\n 17443: a1 = s1 + 0x760\n 17447: a2 = u64 [s1 + 0xb8]\n 17451: u64 [s1 + 0x760] = a2\n 17455: ra = 832, jump @1047\n      : @837 [@dyn 416] (gas: 10)\n 17461: a1 = u64 [s1 + 0x780]\n 17465: a0 = u64 [s1 + 0x788]\n 17469: a2 = u64 [s1 + 0x790]\n 17473: a3 = u64 [s1 + 0x798]\n 17477: u64 [s1 + 0x758] = a3\n 17481: u64 [s1 + 0x750] = a2\n 17485: u64 [s1 + 0x748] = a0\n 17489: a0 = s1 + 0x740\n 17493: u64 [s1 + 0x740] = a1\n 17497: ra = 834, jump @1182\n      : @838 [@dyn 417] (gas: 22)\n 17503: a0 = u64 [s1 + 0x80]\n 17507: a1 = s1 + 0x600\n 17511: u64 [a1 + 0xf8] = a0\n 17515: a0 = u64 [s1 + 0x88]\n 17519: u64 [a1 + 0xf0] = a0\n 17523: a0 = u64 [s1 + 0x90]\n 17527: u64 [a1 + 0xe8] = a0\n 17531: a0 = u64 [s1 + 0x98]\n 17535: u64 [a1 + 0xe0] = a0\n 17539: a0 = u64 [s1 + 0xa0]\n 17543: a4 = s1 + 0x700\n 17547: u64 [a4 + 0x18] = a0\n 17550: a0 = u64 [s1 + 0xa8]\n 17554: u64 [a4 + 0x10] = a0\n 17557: a0 = u64 [s1 + 0xb0]\n 17561: u64 [a4 + 0x8] = a0\n 17564: a0 = s1 + 0x720\n 17568: a1 = s1 + 0x700\n 17572: a2 = s1 + 0x6e0\n 17576: a3 = u64 [s1 + 0xb8]\n 17580: u64 [a4] = a3\n 17582: ra = 836, jump @1211\n      : @839 [@dyn 418] (gas: 2)\n 17588: a1 = 0x20280\n 17593: jump @572\n      : @840 (gas: 18)\n 17596: a3 = 0x7965db0b00000000\n 17606: a3 = a3 ^ a0\n 17609: a3 = a3 | a1\n 17612: a3 = a3 | a2\n 17615: a3 = a3 <u 0x1\n 17618: a4 = 0x1ffc9a700000000\n 17628: a0 = a0 ^ a4\n 17631: a0 = a0 | a1\n 17634: a0 = a0 | a2\n 17637: a0 = a0 <u 0x1\n 17640: a0 = a0 | a3\n 17643: u64 [s1 + 216] = 0\n 17647: u64 [s1 + 208] = 0\n 17651: u64 [s1 + 0xc0] = a0\n 17655: a0 = 0x80\n 17659: a1 = s1 + 0xc0\n 17663: u64 [s1 + 200] = 0\n 17667: ra = 838, jump @1429\n      : @841 [@dyn 419] (gas: 2)\n 17673: a1 = i32 [0x2026c]\n 17678: jump @843 if a1 >u 159\n      : @842 (gas: 4)\n 17683: u32 [0x2026c] = 0xa0\n 17690: a0 = 0x20280\n 17695: i32 a1 = a0 + 0x80\n 17699: jump @783\n      : @843 (gas: 3)\n 17702: a0 = 0x20280\n 17707: i32 a1 = a0 + 0x80\n 17711: jump @783\n      : @844 (gas: 5)\n 17714: a0 = s1 + 0x7ff\n 17718: a0 = a0 + 0x81\n 17722: ra = 0x348\n 17726: t0 = 0x452\n 17730: jump @1423\n      : @845 [@dyn 420] (gas: 15)\n 17733: a0 = s1 + 0x7ff\n 17737: a0 = a0 + 0x39\n 17740: a1 = u64 [a0 + 0x60]\n 17743: u64 [s1 + 0xa0] = a1\n 17747: a1 = u64 [a0 + 0x58]\n 17750: u64 [s1 + 0xa8] = a1\n 17754: a1 = u64 [a0 + 0x50]\n 17757: u64 [s1 + 0xb0] = a1\n 17761: a0 = u64 [a0 + 0x48]\n 17764: u64 [s1 + 0xb8] = a0\n 17768: a0 = 0x30280\n 17773: u64 [s1 + 0x98] = a0\n 17777: i32 a0 = a0 + 0\n 17779: ecalli 3 // 'caller'\n 17781: fallthrough\n      : @846 (gas: 25)\n 17782: a2 = u64 [s1 + 0x98]\n 17786: a0 = u64 [a2 + 0x8]\n 17789: a1 = u64 [a2]\n 17791: a2 = i32 [a2 + 0x10]\n 17794: a0 = reverse a0\n 17796: a3 = a0 >> 0x20\n 17799: a1 = reverse a1\n 17801: a4 = a1 << 0x20\n 17804: a3 = a3 | a4\n 17807: a0 = a0 << 0x20\n 17810: a2 = reverse a2\n 17812: a2 = a2 >> 0x20\n 17815: a0 = a0 | a2\n 17818: a1 = a1 >> 0x20\n 17821: a2 = u64 [s1 + 0xa8]\n 17825: a2 = a2 << 0x20\n 17828: a2 = a2 >> 0x20\n 17831: a1 = a1 ^ a2\n 17834: a2 = u64 [s1 + 0xb8]\n 17838: a0 = a0 ^ a2\n 17841: a0 = a0 | a1\n 17844: a1 = u64 [s1 + 0xb0]\n 17848: a1 = a1 ^ a3\n 17851: a0 = a0 | a1\n 17854: jump @865 if a0 != 0\n      : @847 (gas: 39)\n 17858: a0 = sp + 0xffffffffffffffe0\n 17861: a0 = a0 & 0xffffffffffffffe0\n 17864: u64 [s1 + 0x98] = a0\n 17868: sp = a0\n 17870: i32 a0 = a0 + 0\n 17872: a1 = 0x4\n 17875: ecalli 1 // 'call_data_load'\n 17877: a2 = u64 [s1 + 0x98]\n 17881: a3 = u64 [a2]\n 17883: a0 = u64 [a2 + 0x8]\n 17886: a1 = u64 [a2 + 0x10]\n 17889: a2 = u64 [a2 + 0x18]\n 17892: a4 = u64 [s1 + 0xa0]\n 17896: a5 = s1 + 0x1000\n 17900: u64 [a5 + 0xfffffffffffff818] = a4\n 17904: a4 = u64 [s1 + 0xa8]\n 17908: a5 = s1 + 0x1000\n 17912: u64 [a5 + 0xfffffffffffff810] = a4\n 17916: a4 = u64 [s1 + 0xb0]\n 17920: a5 = s1 + 0x1000\n 17924: u64 [a5 + 0xfffffffffffff808] = a4\n 17928: a4 = u64 [s1 + 0xb8]\n 17932: a5 = s1 + 0x1000\n 17936: u64 [a5 + 0xfffffffffffff800] = a4\n 17940: a4 = s1 + 0x7ff\n 17944: a4 = a4 + 0x39\n 17947: u64 [a4] = a2\n 17949: u64 [a4 + 0xfffffffffffffff8] = a1\n 17952: a1 = s1 + 0x1000\n 17956: u64 [a1 + 0xfffffffffffff828] = a0\n 17960: a0 = s1 + 0x7ff\n 17964: a0 = a0 + 0x41\n 17967: a1 = s1 + 0x7ff\n 17971: a1 = a1 + 0x21\n 17974: a2 = s1 + 0x7ff\n 17978: a2 = a2 + 0x1\n 17981: a4 = s1 + 0x1000\n 17985: u64 [a4 + 0xfffffffffffff820] = a3\n 17989: ra = 842, jump @1254\n      : @848 [@dyn 421] (gas: 2)\n 17995: a1 = 0x20280\n 18000: jump @572\n      : @849 (gas: 1)\n 18003: jump @855 if a0 != 2043438992\n      : @850 (gas: 1)\n 18010: t0 = 844, jump @1344\n      : @851 [@dyn 422] (gas: 4)\n 18016: ra = 0x34e\n 18020: ecalli 10 // 'value_transferred'\n 18022: t0 = 0x350\n 18026: jump @1345\n      : @852 [@dyn 423] (gas: 1)\n 18029: t0 = 848, jump @1345\n      : @853 [@dyn 424] (gas: 1)\n 18035: jump @869 if a0 == 0\n      : @854 (gas: 4)\n 18039: a1 = 0x20280\n 18044: i32 a1 = a1 + 0\n 18046: a0 = 0x1\n 18049: jump @856\n      : @855 (gas: 4)\n 18051: a1 = 0x20280\n 18056: i32 a1 = a1 + 0\n 18058: a0 = 0x1\n 18061: fallthrough\n      : @856 (gas: 4)\n 18062: a2 = 0\n 18064: ecalli 7 // 'seal_return'\n 18066: a1 = 0x20280\n 18071: jump @572\n      : @857 (gas: 2)\n 18074: a1 = 0x20280\n 18079: jump @572\n      : @858 (gas: 1)\n 18082: t0 = 850, jump @1399\n      : @859 [@dyn 425] (gas: 4)\n 18088: ra = 0x354\n 18092: ecalli 1 // 'call_data_load'\n 18094: t0 = 0x356\n 18098: jump @1395\n      : @860 [@dyn 426] (gas: 1)\n 18101: t0 = 854, jump @1395\n      : @861 [@dyn 427] (gas: 8)\n 18107: a0 = 0x30280\n 18112: u64 [s1 + 0x98] = a0\n 18116: i32 a0 = a0 + 0\n 18118: ra = 0x358\n 18122: ecalli 3 // 'caller'\n 18124: a2 = u64 [s1 + 0x98]\n 18128: t0 = 0x35a\n 18132: jump @1346\n      : @862 [@dyn 428] (gas: 2)\n 18135: a2 = u64 [s1 + 0x98]\n 18139: t0 = 858, jump @1346\n      : @863 [@dyn 429] (gas: 18)\n 18145: a4 = u64 [s1 + 0xa0]\n 18149: a5 = a2 + 0x300\n 18153: u64 [a5 + 0xe0] = a4\n 18157: a4 = u64 [s1 + 0xa8]\n 18161: u64 [a5 + 0xd8] = a4\n 18165: a4 = u64 [s1 + 0xb0]\n 18169: u64 [a5 + 0xd0] = a4\n 18173: a4 = u64 [s1 + 0xb8]\n 18177: u64 [a5 + 0xc8] = a4\n 18181: u64 [a2 + 1024] = 0\n 18185: u64 [a5 + 0xf8] = a1\n 18189: u64 [a5 + 0xf0] = a0\n 18193: a0 = s1 + 0x7ff\n 18197: a0 = a0 + 0x421\n 18201: a1 = s1 + 0x7ff\n 18205: a1 = a1 + 0x401\n 18209: u64 [a5 + 0xe8] = a3\n 18213: ra = 860, jump @1294\n      : @864 [@dyn 430] (gas: 2)\n 18219: a1 = 0x20280\n 18224: jump @572\n      : @865 (gas: 12)\n 18227: a2 = s1 + 0x7ff\n 18231: a2 = a2 + 0x39\n 18234: a3 = 0\n 18236: u64 [a2 + 56] = 0\n 18239: u64 [a2 + 48] = 0\n 18242: a0 = 0x6697b23200000000\n 18252: u64 [a2 + 0x40] = a0\n 18255: a1 = s1 + 0x7ff\n 18259: a1 = a1 + 0x61\n 18262: u64 [a2 + 40] = 0\n 18265: a0 = 0\n 18267: ra = 862, jump @1429\n      : @866 [@dyn 431] (gas: 2)\n 18273: a1 = i32 [0x2026c]\n 18278: jump @868 if a1 >u 31\n      : @867 (gas: 3)\n 18282: u32 [0x2026c] = 0x20\n 18288: a1 = 0x20280\n 18293: jump @733\n      : @868 (gas: 2)\n 18296: a1 = 0x20280\n 18301: jump @733\n      : @869 (gas: 4)\n 18304: a0 = u64 [s1 + 0xb8]\n 18308: a0 = i32 [a0]\n 18310: a1 = 0x43\n 18313: jump @871 if a1 <u a0\n      : @870 (gas: 7)\n 18316: a1 = 0x20280\n 18321: i32 a1 = a1 + 0\n 18323: a0 = 0x1\n 18326: a2 = 0\n 18328: ecalli 7 // 'seal_return'\n 18330: a1 = 0x20280\n 18335: jump @572\n      : @871 (gas: 5)\n 18338: a0 = s1 + 0x7ff\n 18342: a0 = a0 + 0x601\n 18346: ra = 0x360\n 18350: t0 = 0x448\n 18354: jump @1423\n      : @872 [@dyn 432] (gas: 21)\n 18357: a1 = s1 + 0x7ff\n 18361: a1 = a1 + 0x39\n 18364: a2 = a1 + 0x500\n 18368: a0 = u64 [a2 + 0xc8]\n 18372: u64 [s1 + 0xb8] = a0\n 18376: a0 = u64 [a2 + 0xd0]\n 18380: u64 [s1 + 0xb0] = a0\n 18384: a0 = u64 [a2 + 0xd8]\n 18388: u64 [s1 + 0xa8] = a0\n 18392: a0 = u64 [a2 + 0xe0]\n 18396: u64 [s1 + 0xa0] = a0\n 18400: a0 = sp + 0xffffffffffffffe0\n 18403: a0 = a0 & 0xffffffffffffffe0\n 18406: u64 [s1 + 0x80] = a0\n 18410: sp = a0\n 18412: i32 a0 = a0 + 0\n 18414: a1 = 0x24\n 18417: ra = 0x362\n 18421: ecalli 1 // 'call_data_load'\n 18423: t0 = 0x364\n 18427: jump @1397\n      : @873 [@dyn 433] (gas: 1)\n 18430: t0 = 868, jump @1397\n      : @874 [@dyn 434] (gas: 7)\n 18436: a0 = 0x30280\n 18441: u64 [s1 + 0x78] = a0\n 18444: i32 a0 = a0 + 0\n 18446: ra = 0x366\n 18450: ecalli 3 // 'caller'\n 18452: t0 = 0x368\n 18456: jump @1380\n      : @875 [@dyn 435] (gas: 1)\n 18459: t0 = 872, jump @1380\n      : @876 [@dyn 436] (gas: 31)\n 18465: a3 = s1 + 0x7ff\n 18469: a3 = a3 + 0x39\n 18472: a4 = u64 [s1 + 0x80]\n 18476: a5 = a3 + 0x500\n 18480: u64 [a5 + 0x80] = a4\n 18484: a4 = u64 [s1 + 0x88]\n 18488: u64 [a5 + 0x78] = a4\n 18491: a4 = u64 [s1 + 0x90]\n 18495: u64 [a5 + 0x70] = a4\n 18498: a4 = u64 [s1 + 0x98]\n 18502: u64 [a5 + 0x68] = a4\n 18505: u64 [a3 + 1440] = 0\n 18509: a4 = u64 [s1 + 0xa0]\n 18513: u64 [a5 + 0xc0] = a4\n 18517: a4 = u64 [s1 + 0xa8]\n 18521: u64 [a5 + 0xb8] = a4\n 18525: a4 = u64 [s1 + 0xb0]\n 18529: u64 [a5 + 0xb0] = a4\n 18533: u64 [a5 + 0x98] = a2\n 18537: u64 [a5 + 0x90] = a0\n 18541: u64 [a5 + 0x88] = a1\n 18545: a4 = a3\n 18547: a0 = s1 + 0x7ff\n 18551: a0 = a0 + 0x5e1\n 18555: a1 = s1 + 0x7ff\n 18559: a1 = a1 + 0x5c1\n 18563: a2 = s1 + 0x7ff\n 18567: a2 = a2 + 0x5a1\n 18571: a3 = u64 [s1 + 0xb8]\n 18575: u64 [a4 + 0x5a8] = a3\n 18579: ra = 874, jump @1053\n      : @877 [@dyn 437] (gas: 25)\n 18585: a0 = u64 [s1 + 0x80]\n 18589: a1 = s1 + 0x7ff\n 18593: a1 = a1 + 0x39\n 18596: a2 = a1 + 0x500\n 18600: u64 [a2 + 0x40] = a0\n 18603: a0 = u64 [s1 + 0x88]\n 18607: u64 [a2 + 0x38] = a0\n 18610: a0 = u64 [s1 + 0x90]\n 18614: u64 [a2 + 0x30] = a0\n 18617: a0 = u64 [s1 + 0x98]\n 18621: u64 [a2 + 0x28] = a0\n 18624: a0 = u64 [s1 + 0xa0]\n 18628: u64 [a2 + 0x60] = a0\n 18631: a0 = u64 [s1 + 0xa8]\n 18635: u64 [a2 + 0x58] = a0\n 18638: a0 = u64 [s1 + 0xb0]\n 18642: u64 [a2 + 0x50] = a0\n 18645: a3 = a1\n 18647: a0 = s1 + 0x7ff\n 18651: a0 = a0 + 0x581\n 18655: a1 = s1 + 0x7ff\n 18659: a1 = a1 + 0x561\n 18663: a2 = u64 [s1 + 0xb8]\n 18667: u64 [a3 + 0x548] = a2\n 18671: ra = 876, jump @1294\n      : @878 [@dyn 438] (gas: 2)\n 18677: a1 = 0x20280\n 18682: jump @572\n      : @879 (gas: 17)\n 18685: sp = sp + 0xffffffffffffff30\n 18689: u64 [sp + 0xc8] = ra\n 18693: u64 [sp + 0xc0] = s0\n 18697: u64 [sp + 0xb8] = s1\n 18701: s0 = sp + 0xd0\n 18705: sp = sp & 0xfffffffffffffff0\n 18708: a2 = u64 [a1 + 0x18]\n 18711: u64 [sp + 0x10] = a2\n 18714: a2 = u64 [a1 + 0x10]\n 18717: u64 [sp + 0x8] = a2\n 18720: a2 = u64 [a1 + 0x8]\n 18723: u64 [sp] = a2\n 18725: s1 = u64 [a1]\n 18727: u64 [sp + 0x28] = a0\n 18730: a0 = sp + 0x90\n 18734: a1 = 0x40\n 18737: ra = 878, jump @1427\n      : @880 [@dyn 439] (gas: 39)\n 18743: a1 = u64 [sp + 0x98]\n 18747: a2 = u64 [sp + 0x90]\n 18751: a0 = s1 + 0x1f\n 18754: ra = a0 <u s1\n 18757: a3 = u64 [sp]\n 18759: a4 = a3 + ra\n 18762: a0 = a0 & 0xffffffffffffffe0\n 18765: t1 = a1 + a4\n 18768: t0 = a2 + a0\n 18771: u64 [sp + 0x20] = a2\n 18774: a5 = t0 <u a2\n 18777: t1 = t1 + a5\n 18780: s1 = t1 ^ a1\n 18783: u64 [sp + 0x18] = a1\n 18786: a2 = t1 <u a1\n 18789: a2 = a5 if s1 == 0\n 18792: t2 = u64 [sp + 0xa8]\n 18796: a4 = a4 <u a3\n 18799: s1 = u64 [sp + 0xa0]\n 18803: a4 = ra if ra == 0\n 18806: a0 = u64 [sp + 0x8]\n 18809: a4 = a4 + a0\n 18812: a5 = a4 <u a0\n 18815: a4 = a4 + s1\n 18818: a3 = a4 + a2\n 18821: a0 = u64 [sp + 0x10]\n 18824: a0 = a0 + t2\n 18827: a0 = a0 + a5\n 18830: a5 = a3 <u a4\n 18833: a4 = a4 <u s1\n 18836: a0 = a0 + a4\n 18839: a4 = a0 + a5\n 18842: a0 = a4 >u 0\n 18844: a5 = a3 >u 0\n 18846: a5 = a0 if a4 != 0\n 18849: a0 = a3 | a4\n 18852: a1 = t1 >u 0\n 18854: a1 = a5 if a0 != 0\n 18857: jump @884 if a1 != 0\n      : @881 (gas: 8)\n 18860: a0 = a3 <u s1\n 18863: a1 = a4 ^ t2\n 18866: a5 = a4 <u t2\n 18869: a5 = a0 if a1 == 0\n 18872: a0 = a3 ^ s1\n 18875: a0 = a0 | a1\n 18878: a2 = a5 if a0 != 0\n 18881: jump @884 if a2 != 0\n      : @882 (gas: 8)\n 18884: u64 [sp + 0x70] = t0\n 18887: u64 [sp + 0x78] = t1\n 18890: u64 [sp + 0x80] = a3\n 18894: a0 = 0x40\n 18897: a1 = sp + 0x70\n 18900: u64 [sp + 0x88] = a4\n 18904: u64 [sp + 0x10] = t2\n 18907: ra = 880, jump @1429\n      : @883 [@dyn 440] (gas: 14)\n 18913: a0 = u64 [sp + 0x28]\n 18916: a1 = u64 [sp + 0x10]\n 18919: u64 [a0 + 0x18] = a1\n 18922: u64 [a0 + 0x10] = s1\n 18925: a1 = u64 [sp + 0x18]\n 18928: u64 [a0 + 0x8] = a1\n 18931: a1 = u64 [sp + 0x20]\n 18934: u64 [a0] = a1\n 18936: sp = s0 + 0xffffffffffffff30\n 18940: ra = u64 [sp + 0xc8]\n 18944: s0 = u64 [sp + 0xc0]\n 18948: s1 = u64 [sp + 0xb8]\n 18952: sp = sp + 0xd0\n 18956: ret\n      : @884 (gas: 6)\n 18958: u64 [sp + 96] = 0\n 18961: u64 [sp + 88] = 0\n 18964: u64 [sp + 80] = 0\n 18967: t0 = 0x372\n 18971: a0 = 0x4e487b7100000000\n 18981: fallthrough\n      : @885 [@dyn 441] (gas: 4)\n 18982: a1 = sp + 0x50\n 18985: u64 [sp + 0x68] = a0\n 18988: a0 = 0\n 18990: ra = 884, jump @1429\n      : @886 [@dyn 442] (gas: 7)\n 18996: u64 [sp + 72] = 0\n 18999: u64 [sp + 64] = 0\n 19002: u64 [sp + 48] = 0x41\n 19006: a0 = 0x4\n 19009: a1 = sp + 0x30\n 19012: u64 [sp + 56] = 0\n 19015: ra = 886, jump @1429\n      : @887 [@dyn 443] (gas: 2)\n 19021: a1 = i32 [0x2026c]\n 19026: jump @889 if a1 >u 63\n      : @888 (gas: 2)\n 19030: u32 [0x2026c] = 0x40\n 19036: fallthrough\n      : @889 (gas: 7)\n 19037: a1 = 0x20280\n 19042: i32 a1 = a1 + 0\n 19044: a0 = 0x1\n 19047: a2 = 0x24\n 19050: ra = 0x378\n 19054: ecalli 7 // 'seal_return'\n 19056: fallthrough\n      : @890 [@dyn 444] (gas: 22)\n 19057: sp = sp + 0xfffffffffffffdc0\n 19061: a2 = sp + 0x200\n 19065: u64 [a2 + 0x38] = ra\n 19068: u64 [a2 + 0x30] = s0\n 19071: u64 [a2 + 0x28] = s1\n 19074: s0 = sp + 0x240\n 19078: sp = sp & 0xffffffffffffffe0\n 19081: s1 = sp\n 19083: a2 = u64 [a1 + 0x10]\n 19086: u64 [s1 + 0x30] = a2\n 19089: a2 = u64 [a1 + 0x8]\n 19092: u64 [s1 + 0x50] = a2\n 19095: a1 = u64 [a1]\n 19097: u64 [s1 + 0x58] = a1\n 19100: u64 [s1 + 0x38] = a0\n 19103: u64 [s1 + 536] = 0\n 19107: u64 [s1 + 528] = 0\n 19111: u64 [s1 + 520] = 0\n 19115: a1 = s1 + 0x200\n 19119: u64 [s1 + 512] = 0\n 19123: a0 = 0\n 19125: ra = 890, jump @1429\n      : @891 [@dyn 445] (gas: 7)\n 19131: u64 [s1 + 504] = 0\n 19135: u64 [s1 + 496] = 0\n 19139: u64 [s1 + 480] = 0x6\n 19144: a0 = 0x20\n 19147: a1 = s1 + 0x1e0\n 19151: u64 [s1 + 488] = 0\n 19155: ra = 892, jump @1429\n      : @892 [@dyn 446] (gas: 3)\n 19161: a1 = 0x2026c\n 19166: a0 = i32 [0x2026c]\n 19171: jump @894 if a0 >u 63\n      : @893 (gas: 2)\n 19175: u32 [0x2026c] = 0x40\n 19181: fallthrough\n      : @894 (gas: 14)\n 19182: a0 = sp + 0xffffffffffffffe0\n 19185: a2 = a0 & 0xffffffffffffffe0\n 19188: u64 [s1 + 0x28] = a2\n 19191: sp = a2\n 19193: a0 = 0x20280\n 19198: i32 a0 = a0 + 0\n 19200: i32 a2 = a2 + 0\n 19202: u64 [s1 + 0x48] = a1\n 19205: a1 = 0x40\n 19208: u64 [s1 + 0x40] = a0\n 19211: ra = 0x37e\n 19215: ecalli 6 // 'hash_keccak_256'\n 19217: t0 = 0x380\n 19221: jump @1351\n      : @895 [@dyn 447] (gas: 1)\n 19224: t0 = 896, jump @1351\n      : @896 [@dyn 448] (gas: 13)\n 19230: a0 = u64 [s1 + 0x30]\n 19233: a0 = a0 << 0x20\n 19236: a0 = a0 >> 0x20\n 19239: u64 [s1 + 472] = 0\n 19243: u64 [s1] = a0\n 19245: u64 [s1 + 0x1d0] = a0\n 19249: a0 = u64 [s1 + 0x50]\n 19252: u64 [s1 + 0x1c8] = a0\n 19256: a1 = s1 + 0x1c0\n 19260: a0 = u64 [s1 + 0x58]\n 19263: u64 [s1 + 0x1c0] = a0\n 19267: a0 = 0\n 19269: ra = 898, jump @1429\n      : @897 [@dyn 449] (gas: 12)\n 19275: a0 = u64 [s1 + 0x8]\n 19278: a3 = s1 + 0x100\n 19282: u64 [a3 + 0xb8] = a0\n 19286: a0 = u64 [s1 + 0x10]\n 19289: u64 [a3 + 0xb0] = a0\n 19293: a0 = u64 [s1 + 0x18]\n 19296: u64 [a3 + 0xa8] = a0\n 19300: a0 = 0x20\n 19303: a1 = s1 + 0x1a0\n 19307: a2 = u64 [s1 + 0x20]\n 19310: u64 [a3 + 0xa0] = a2\n 19314: ra = 900, jump @1429\n      : @898 [@dyn 450] (gas: 3)\n 19320: a1 = u64 [s1 + 0x48]\n 19323: a0 = i32 [a1]\n 19325: jump @900 if a0 >u 63\n      : @899 (gas: 2)\n 19329: u32 [a1 + 0] = 0x40\n 19332: fallthrough\n      : @900 (gas: 4)\n 19333: a0 = sp + 0xffffffffffffffe0\n 19336: a0 = a0 & 0xffffffffffffffe0\n 19339: u64 [s1 + 0x30] = a0\n 19342: t0 = 902, jump @1418\n      : @901 [@dyn 451] (gas: 5)\n 19348: ra = 0x388\n 19352: ecalli 6 // 'hash_keccak_256'\n 19354: a3 = u64 [s1 + 0x30]\n 19357: t0 = 0x38a\n 19361: jump @1363\n      : @902 [@dyn 452] (gas: 2)\n 19364: a3 = u64 [s1 + 0x30]\n 19367: t0 = 906, jump @1363\n      : @903 [@dyn 453] (gas: 2)\n 19373: a0 = s1 + 0x180\n 19377: ra = 908, jump @1431\n      : @904 [@dyn 454] (gas: 2)\n 19383: a0 = u8 [s1 + 0x180]\n 19387: jump @906 if a0 == 0\n      : @905 (gas: 2)\n 19390: a1 = 0\n 19392: jump @927\n      : @906 (gas: 6)\n 19395: u64 [s1 + 376] = 0\n 19399: u64 [s1 + 368] = 0\n 19403: u64 [s1 + 360] = 0\n 19407: a1 = s1 + 0x160\n 19411: u64 [s1 + 352] = 0\n 19415: ra = 910, jump @1429\n      : @907 [@dyn 455] (gas: 1)\n 19421: t0 = 912, jump @1376\n      : @908 [@dyn 456] (gas: 1)\n 19427: ra = 914, jump @1429\n      : @909 [@dyn 457] (gas: 3)\n 19433: a1 = u64 [s1 + 0x48]\n 19436: a0 = i32 [a1]\n 19438: jump @911 if a0 >u 63\n      : @910 (gas: 2)\n 19442: u32 [a1 + 0] = 0x40\n 19445: fallthrough\n      : @911 (gas: 4)\n 19446: a0 = sp + 0xffffffffffffffe0\n 19449: a0 = a0 & 0xffffffffffffffe0\n 19452: u64 [s1 + 0x30] = a0\n 19455: t0 = 916, jump @1418\n      : @912 [@dyn 458] (gas: 5)\n 19461: ra = 0x396\n 19465: ecalli 6 // 'hash_keccak_256'\n 19467: a3 = u64 [s1 + 0x30]\n 19470: t0 = 0x398\n 19474: jump @1400\n      : @913 [@dyn 459] (gas: 2)\n 19477: a3 = u64 [s1 + 0x30]\n 19480: t0 = 920, jump @1400\n      : @914 [@dyn 460] (gas: 21)\n 19486: u64 [s1 + 0x28] = a0\n 19489: a0 = reverse a1\n 19491: u64 [s1 + 0x20] = a0\n 19494: a0 = reverse a2\n 19496: u64 [s1 + 0x18] = a0\n 19499: a0 = reverse a3\n 19501: u64 [s1 + 0x10] = a0\n 19504: a0 = sp + 0xffffffffffffffe0\n 19507: a0 = a0 & 0xffffffffffffffe0\n 19510: u64 [s1 + 0x30] = a0\n 19513: sp = a0\n 19515: u64 [s1 + 312] = 0\n 19519: a0 = u64 [s1]\n 19521: u64 [s1 + 0x130] = a0\n 19525: a0 = u64 [s1 + 0x50]\n 19528: u64 [s1 + 0x128] = a0\n 19532: a1 = s1 + 0x120\n 19536: a0 = u64 [s1 + 0x58]\n 19539: u64 [s1 + 0x120] = a0\n 19543: a0 = 0\n 19545: ra = 922, jump @1429\n      : @915 [@dyn 461] (gas: 12)\n 19551: a0 = u64 [s1 + 0x10]\n 19554: a3 = s1 + 0x100\n 19558: u64 [a3 + 0x18] = a0\n 19561: a0 = u64 [s1 + 0x18]\n 19564: u64 [a3 + 0x10] = a0\n 19567: a0 = u64 [s1 + 0x20]\n 19570: u64 [a3 + 0x8] = a0\n 19573: a0 = 0x20\n 19576: a1 = s1 + 0x100\n 19580: a2 = u64 [s1 + 0x28]\n 19583: u64 [a3] = a2\n 19585: ra = 924, jump @1429\n      : @916 [@dyn 462] (gas: 3)\n 19591: a1 = u64 [s1 + 0x48]\n 19594: a0 = i32 [a1]\n 19596: jump @918 if a0 >u 63\n      : @917 (gas: 2)\n 19600: u32 [a1 + 0] = 0x40\n 19603: fallthrough\n      : @918 (gas: 4)\n 19604: a0 = sp + 0xffffffffffffffe0\n 19607: a0 = a0 & 0xffffffffffffffe0\n 19610: u64 [s1 + 0x48] = a0\n 19613: t0 = 926, jump @1418\n      : @919 [@dyn 463] (gas: 5)\n 19619: ra = 0x3a0\n 19623: ecalli 6 // 'hash_keccak_256'\n 19625: a3 = u64 [s1 + 0x48]\n 19628: t0 = 0x3a2\n 19632: jump @1354\n      : @920 [@dyn 464] (gas: 2)\n 19635: a3 = u64 [s1 + 0x48]\n 19638: t0 = 930, jump @1354\n      : @921 [@dyn 465] (gas: 7)\n 19644: a1 = u64 [s1 + 0x30]\n 19647: u64 [a1 + 0x18] = a3\n 19650: u64 [a1 + 0x10] = a2\n 19653: u64 [a1 + 0x8] = a4\n 19656: u64 [a1] = a0\n 19658: a0 = s1 + 0xe0\n 19662: ra = 932, jump @1431\n      : @922 [@dyn 466] (gas: 15)\n 19668: a0 = u64 [s1 + 0xe8]\n 19672: a1 = u64 [s1 + 0xe0]\n 19676: a2 = u64 [s1 + 0xf0]\n 19680: a3 = u64 [s1 + 0xf8]\n 19684: a1 = a1 & 0xffffffffffffff00\n 19688: a4 = a1 | 0x1\n 19691: a1 = sp + 0xffffffffffffffe0\n 19694: a1 = a1 & 0xffffffffffffffe0\n 19697: sp = a1\n 19699: u64 [a1 + 0x18] = a3\n 19702: u64 [a1 + 0x10] = a2\n 19705: u64 [a1 + 0x8] = a0\n 19708: u64 [a1] = a4\n 19710: a0 = u64 [s1 + 0x30]\n 19713: ra = 934, jump @1432\n      : @923 [@dyn 467] (gas: 8)\n 19719: a0 = 0x30280\n 19724: u64 [s1 + 0x48] = a0\n 19727: i32 a0 = a0 + 0\n 19729: ra = 0x3a8\n 19733: ecalli 3 // 'caller'\n 19735: a2 = u64 [s1 + 0x48]\n 19738: t0 = 0x3aa\n 19742: jump @1352\n      : @924 [@dyn 468] (gas: 2)\n 19745: a2 = u64 [s1 + 0x48]\n 19748: t0 = 938, jump @1352\n      : @925 [@dyn 469] (gas: 36)\n 19754: t0 = a1 | a0\n 19757: a3 = a3 >> 0x20\n 19760: a2 = reverse a2\n 19762: a1 = a2 << 0x20\n 19765: a1 = a1 | a3\n 19768: a2 = a2 >> 0x20\n 19771: u64 [s1 + 120] = 0\n 19774: u64 [s1 + 152] = 0\n 19778: a0 = u64 [s1]\n 19780: u64 [s1 + 0x90] = a0\n 19784: a0 = u64 [s1 + 0x50]\n 19787: u64 [s1 + 0x88] = a0\n 19791: a0 = u64 [s1 + 0x58]\n 19794: u64 [s1 + 0x80] = a0\n 19798: u64 [s1 + 184] = 0\n 19802: u64 [s1 + 176] = 0\n 19806: u64 [s1 + 168] = 0\n 19810: u64 [s1 + 160] = 0\n 19814: a3 = u64 [0x20128]\n 19819: a4 = u64 [0x20130]\n 19824: a5 = u64 [0x20138]\n 19829: a0 = u64 [0x20140]\n 19834: u64 [s1 + 0xd8] = a3\n 19838: u64 [s1 + 0xd0] = a4\n 19842: u64 [s1 + 0xc8] = a5\n 19846: u64 [s1 + 0xc0] = a0\n 19850: u64 [s1 + 0x70] = a2\n 19853: u64 [s1 + 0x68] = a1\n 19856: a2 = s1 + 0xc0\n 19860: a3 = s1 + 0xa0\n 19864: a4 = s1 + 0x80\n 19868: a5 = s1 + 0x60\n 19871: u64 [s1 + 0x60] = t0\n 19874: a0 = 0\n 19876: a1 = 0\n 19878: ra = 940, jump @1437\n      : @926 [@dyn 470] (gas: 2)\n 19884: a1 = 0x1\n 19887: fallthrough\n      : @927 (gas: 12)\n 19888: a2 = u64 [s1 + 0x38]\n 19891: u64 [a2] = a1\n 19893: u64 [a2 + 8] = 0\n 19896: u64 [a2 + 16] = 0\n 19899: u64 [a2 + 24] = 0\n 19902: sp = s0 + 0xfffffffffffffdc0\n 19906: a0 = sp + 0x200\n 19910: ra = u64 [a0 + 0x38]\n 19913: s0 = u64 [a0 + 0x30]\n 19916: s1 = u64 [a0 + 0x28]\n 19919: sp = sp + 0x240\n 19923: ret\n      : @928 [@dyn 471] (gas: 7)\n 19925: a0 = u64 [0x20148]\n 19930: u64 [s1 + 0x20] = a0\n 19933: u64 [s1 + 0x238] = a0\n 19937: a1 = u64 [0x20150]\n 19942: a2 = u64 [0x20158]\n 19947: a0 = u64 [0x20160]\n 19952: t0 = 944, jump @1407\n      : @929 [@dyn 472] (gas: 1)\n 19958: ra = 946, jump @1429\n      : @930 [@dyn 473] (gas: 1)\n 19964: t0 = 948, jump @1360\n      : @931 [@dyn 474] (gas: 1)\n 19970: ra = 950, jump @1429\n      : @932 [@dyn 475] (gas: 3)\n 19976: a1 = 0x2026c\n 19981: a0 = i32 [0x2026c]\n 19986: jump @934 if a0 >u 63\n      : @933 (gas: 2)\n 19990: u32 [0x2026c] = 0x40\n 19996: fallthrough\n      : @934 (gas: 6)\n 19997: a0 = sp + 0xffffffffffffffe0\n 20000: a2 = a0 & 0xffffffffffffffe0\n 20003: u64 [s1 + 0x48] = a2\n 20006: sp = a2\n 20008: a0 = 0x20280\n 20013: t0 = 952, jump @1419\n      : @935 [@dyn 476] (gas: 4)\n 20019: ra = 0x3ba\n 20023: ecalli 6 // 'hash_keccak_256'\n 20025: t0 = 0x3bc\n 20029: jump @1347\n      : @936 [@dyn 477] (gas: 1)\n 20032: t0 = 956, jump @1347\n      : @937 [@dyn 478] (gas: 1)\n 20038: ra = 958, jump @1429\n      : @938 [@dyn 479] (gas: 1)\n 20044: t0 = 960, jump @1373\n      : @939 [@dyn 480] (gas: 1)\n 20050: ra = 962, jump @1429\n      : @940 [@dyn 481] (gas: 3)\n 20056: a1 = u64 [s1 + 0x68]\n 20059: a0 = i32 [a1]\n 20061: jump @942 if a0 >u 63\n      : @941 (gas: 3)\n 20065: u32 [a1 + 0] = 0x40\n 20068: t0 = 0x3c4\n 20072: jump @1358\n      : @942 (gas: 1)\n 20075: t0 = 964, jump @1358\n      : @943 [@dyn 482] (gas: 4)\n 20081: ra = 0x3c6\n 20085: ecalli 6 // 'hash_keccak_256'\n 20087: t0 = 0x3c8\n 20091: jump @1353\n      : @944 [@dyn 483] (gas: 1)\n 20094: t0 = 968, jump @1353\n      : @945 [@dyn 484] (gas: 1)\n 20100: ra = 970, jump @1431\n      : @946 [@dyn 485] (gas: 2)\n 20106: a0 = u8 [s1 + 0x1a0]\n 20110: jump @948 if a0 == 0\n      : @947 (gas: 5)\n 20113: a1 = 0\n 20115: a0 = 0\n 20117: a2 = u64 [s1 + 0x58]\n 20120: t0 = 0x3f2\n 20124: jump @1362\n      : @948 (gas: 1)\n 20127: t0 = 972, jump @1389\n      : @949 [@dyn 486] (gas: 1)\n 20133: ra = 974, jump @1429\n      : @950 [@dyn 487] (gas: 1)\n 20139: t0 = 976, jump @1361\n      : @951 [@dyn 488] (gas: 1)\n 20145: ra = 978, jump @1429\n      : @952 [@dyn 489] (gas: 3)\n 20151: a1 = u64 [s1 + 0x68]\n 20154: a0 = i32 [a1]\n 20156: jump @954 if a0 >u 63\n      : @953 (gas: 3)\n 20160: u32 [a1 + 0] = 0x40\n 20163: t0 = 0x3d4\n 20167: jump @1358\n      : @954 (gas: 1)\n 20170: t0 = 980, jump @1358\n      : @955 [@dyn 490] (gas: 4)\n 20176: ra = 0x3d6\n 20180: ecalli 6 // 'hash_keccak_256'\n 20182: t0 = 0x3d8\n 20186: jump @1349\n      : @956 [@dyn 491] (gas: 1)\n 20189: t0 = 984, jump @1349\n      : @957 [@dyn 492] (gas: 1)\n 20195: ra = 986, jump @1429\n      : @958 [@dyn 493] (gas: 1)\n 20201: t0 = 988, jump @1371\n      : @959 [@dyn 494] (gas: 1)\n 20207: ra = 990, jump @1429\n      : @960 [@dyn 495] (gas: 3)\n 20213: a1 = u64 [s1 + 0x68]\n 20216: a0 = i32 [a1]\n 20218: jump @962 if a0 >u 63\n      : @961 (gas: 2)\n 20222: u32 [a1 + 0] = 0x40\n 20225: fallthrough\n      : @962 (gas: 4)\n 20226: a0 = sp + 0xffffffffffffffe0\n 20229: a0 = a0 & 0xffffffffffffffe0\n 20232: u64 [s1 + 0x68] = a0\n 20235: t0 = 992, jump @1364\n      : @963 [@dyn 496] (gas: 4)\n 20241: ra = 0x3e2\n 20245: ecalli 6 // 'hash_keccak_256'\n 20247: t0 = 0x3e4\n 20251: jump @1356\n      : @964 [@dyn 497] (gas: 1)\n 20254: t0 = 996, jump @1356\n      : @965 [@dyn 498] (gas: 1)\n 20260: ra = 998, jump @1431\n      : @966 [@dyn 499] (gas: 1)\n 20266: t0 = 1000, jump @1357\n      : @967 [@dyn 500] (gas: 1)\n 20272: ra = 1002, jump @1432\n      : @968 [@dyn 501] (gas: 8)\n 20278: a0 = 0x30280\n 20283: u64 [s1 + 0x68] = a0\n 20286: i32 a0 = a0 + 0\n 20288: ra = 0x3ec\n 20292: ecalli 3 // 'caller'\n 20294: a2 = u64 [s1 + 0x68]\n 20297: t0 = 0x3ee\n 20301: jump @1352\n      : @969 [@dyn 502] (gas: 2)\n 20304: a2 = u64 [s1 + 0x68]\n 20307: t0 = 1006, jump @1352\n      : @970 [@dyn 503] (gas: 40)\n 20313: t0 = a1 | a0\n 20316: a3 = a3 >> 0x20\n 20319: a2 = reverse a2\n 20321: a1 = a2 << 0x20\n 20324: a1 = a1 | a3\n 20327: a2 = a2 >> 0x20\n 20330: u64 [s1 + 152] = 0\n 20334: u64 [s1 + 184] = 0\n 20338: a0 = u64 [s1]\n 20340: u64 [s1 + 0xb0] = a0\n 20344: a0 = u64 [s1 + 0x70]\n 20347: u64 [s1 + 0xa8] = a0\n 20351: a0 = u64 [s1 + 0x78]\n 20354: u64 [s1 + 0xa0] = a0\n 20358: a0 = u64 [s1 + 0x20]\n 20361: u64 [s1 + 0xd8] = a0\n 20365: a0 = u64 [s1 + 0x18]\n 20368: u64 [s1 + 0xd0] = a0\n 20372: a0 = u64 [s1 + 0x10]\n 20375: u64 [s1 + 0xc8] = a0\n 20379: a0 = u64 [s1 + 0x8]\n 20382: u64 [s1 + 0xc0] = a0\n 20386: a3 = u64 [0x20168]\n 20391: a4 = u64 [0x20170]\n 20396: a5 = u64 [0x20178]\n 20401: a0 = u64 [0x20180]\n 20406: u64 [s1 + 0xf8] = a3\n 20410: u64 [s1 + 0xf0] = a4\n 20414: u64 [s1 + 0xe8] = a5\n 20418: u64 [s1 + 0xe0] = a0\n 20422: u64 [s1 + 0x90] = a2\n 20426: u64 [s1 + 0x88] = a1\n 20430: a2 = s1 + 0xe0\n 20434: a3 = s1 + 0xc0\n 20438: a4 = s1 + 0xa0\n 20442: a5 = s1 + 0x80\n 20446: u64 [s1 + 0x80] = t0\n 20450: a0 = 0\n 20452: a1 = 0\n 20454: ra = 1008, jump @1437\n      : @971 [@dyn 504] (gas: 4)\n 20460: a0 = 0\n 20462: a1 = 0x1\n 20465: a2 = u64 [s1 + 0x58]\n 20468: t0 = 1010, jump @1362\n      : @972 [@dyn 505] (gas: 1)\n 20474: ret\n      : @973 [@dyn 506] (gas: 7)\n 20476: a0 = u64 [0x20188]\n 20481: u64 [s1 + 0x20] = a0\n 20484: u64 [s1 + 0x238] = a0\n 20488: a1 = u64 [0x20190]\n 20493: a2 = u64 [0x20198]\n 20498: a0 = u64 [0x201a0]\n 20503: t0 = 1014, jump @1407\n      : @974 [@dyn 507] (gas: 1)\n 20509: ra = 1016, jump @1429\n      : @975 [@dyn 508] (gas: 1)\n 20515: t0 = 1018, jump @1360\n      : @976 [@dyn 509] (gas: 1)\n 20521: ra = 1020, jump @1429\n      : @977 [@dyn 510] (gas: 3)\n 20527: a1 = 0x2026c\n 20532: a0 = i32 [0x2026c]\n 20537: jump @979 if a0 >u 63\n      : @978 (gas: 2)\n 20541: u32 [0x2026c] = 0x40\n 20547: fallthrough\n      : @979 (gas: 6)\n 20548: a0 = sp + 0xffffffffffffffe0\n 20551: a2 = a0 & 0xffffffffffffffe0\n 20554: u64 [s1 + 0x48] = a2\n 20557: sp = a2\n 20559: a0 = 0x20280\n 20564: t0 = 1022, jump @1419\n      : @980 [@dyn 511] (gas: 4)\n 20570: ra = 0x400\n 20574: ecalli 6 // 'hash_keccak_256'\n 20576: t0 = 0x402\n 20580: jump @1347\n      : @981 [@dyn 512] (gas: 1)\n 20583: t0 = 1026, jump @1347\n      : @982 [@dyn 513] (gas: 1)\n 20589: ra = 1028, jump @1429\n      : @983 [@dyn 514] (gas: 1)\n 20595: t0 = 1030, jump @1373\n      : @984 [@dyn 515] (gas: 1)\n 20601: ra = 1032, jump @1429\n      : @985 [@dyn 516] (gas: 3)\n 20607: a1 = u64 [s1 + 0x68]\n 20610: a0 = i32 [a1]\n 20612: jump @987 if a0 >u 63\n      : @986 (gas: 3)\n 20616: u32 [a1 + 0] = 0x40\n 20619: t0 = 0x40a\n 20623: jump @1358\n      : @987 (gas: 1)\n 20626: t0 = 1034, jump @1358\n      : @988 [@dyn 517] (gas: 4)\n 20632: ra = 0x40c\n 20636: ecalli 6 // 'hash_keccak_256'\n 20638: t0 = 0x40e\n 20642: jump @1353\n      : @989 [@dyn 518] (gas: 1)\n 20645: t0 = 1038, jump @1353\n      : @990 [@dyn 519] (gas: 1)\n 20651: ra = 1040, jump @1431\n      : @991 [@dyn 520] (gas: 2)\n 20657: a0 = u8 [s1 + 0x1a0]\n 20661: jump @993 if a0 == 0\n      : @992 (gas: 5)\n 20664: a1 = 0\n 20666: a0 = 0\n 20668: a2 = u64 [s1 + 0x58]\n 20671: t0 = 0x438\n 20675: jump @1362\n      : @993 (gas: 1)\n 20678: t0 = 1042, jump @1389\n      : @994 [@dyn 521] (gas: 1)\n 20684: ra = 1044, jump @1429\n      : @995 [@dyn 522] (gas: 1)\n 20690: t0 = 1046, jump @1361\n      : @996 [@dyn 523] (gas: 1)\n 20696: ra = 1048, jump @1429\n      : @997 [@dyn 524] (gas: 3)\n 20702: a1 = u64 [s1 + 0x68]\n 20705: a0 = i32 [a1]\n 20707: jump @999 if a0 >u 63\n      : @998 (gas: 3)\n 20711: u32 [a1 + 0] = 0x40\n 20714: t0 = 0x41a\n 20718: jump @1358\n      : @999 (gas: 1)\n 20721: t0 = 1050, jump @1358\n      : @1000 [@dyn 525] (gas: 4)\n 20727: ra = 0x41c\n 20731: ecalli 6 // 'hash_keccak_256'\n 20733: t0 = 0x41e\n 20737: jump @1349\n      : @1001 [@dyn 526] (gas: 1)\n 20740: t0 = 1054, jump @1349\n      : @1002 [@dyn 527] (gas: 1)\n 20746: ra = 1056, jump @1429\n      : @1003 [@dyn 528] (gas: 1)\n 20752: t0 = 1058, jump @1371\n      : @1004 [@dyn 529] (gas: 1)\n 20758: ra = 1060, jump @1429\n      : @1005 [@dyn 530] (gas: 3)\n 20764: a1 = u64 [s1 + 0x68]\n 20767: a0 = i32 [a1]\n 20769: jump @1007 if a0 >u 63\n      : @1006 (gas: 2)\n 20773: u32 [a1 + 0] = 0x40\n 20776: fallthrough\n      : @1007 (gas: 4)\n 20777: a0 = sp + 0xffffffffffffffe0\n 20780: a0 = a0 & 0xffffffffffffffe0\n 20783: u64 [s1 + 0x68] = a0\n 20786: t0 = 1062, jump @1364\n      : @1008 [@dyn 531] (gas: 4)\n 20792: ra = 0x428\n 20796: ecalli 6 // 'hash_keccak_256'\n 20798: t0 = 0x42a\n 20802: jump @1356\n      : @1009 [@dyn 532] (gas: 1)\n 20805: t0 = 1066, jump @1356\n      : @1010 [@dyn 533] (gas: 1)\n 20811: ra = 1068, jump @1431\n      : @1011 [@dyn 534] (gas: 1)\n 20817: t0 = 1070, jump @1357\n      : @1012 [@dyn 535] (gas: 1)\n 20823: ra = 1072, jump @1432\n      : @1013 [@dyn 536] (gas: 8)\n 20829: a0 = 0x30280\n 20834: u64 [s1 + 0x68] = a0\n 20837: i32 a0 = a0 + 0\n 20839: ra = 0x432\n 20843: ecalli 3 // 'caller'\n 20845: a2 = u64 [s1 + 0x68]\n 20848: t0 = 0x434\n 20852: jump @1352\n      : @1014 [@dyn 537] (gas: 2)\n 20855: a2 = u64 [s1 + 0x68]\n 20858: t0 = 1076, jump @1352\n      : @1015 [@dyn 538] (gas: 40)\n 20864: t0 = a1 | a0\n 20867: a3 = a3 >> 0x20\n 20870: a2 = reverse a2\n 20872: a1 = a2 << 0x20\n 20875: a1 = a1 | a3\n 20878: a2 = a2 >> 0x20\n 20881: u64 [s1 + 152] = 0\n 20885: u64 [s1 + 184] = 0\n 20889: a0 = u64 [s1]\n 20891: u64 [s1 + 0xb0] = a0\n 20895: a0 = u64 [s1 + 0x70]\n 20898: u64 [s1 + 0xa8] = a0\n 20902: a0 = u64 [s1 + 0x78]\n 20905: u64 [s1 + 0xa0] = a0\n 20909: a0 = u64 [s1 + 0x20]\n 20912: u64 [s1 + 0xd8] = a0\n 20916: a0 = u64 [s1 + 0x18]\n 20919: u64 [s1 + 0xd0] = a0\n 20923: a0 = u64 [s1 + 0x10]\n 20926: u64 [s1 + 0xc8] = a0\n 20930: a0 = u64 [s1 + 0x8]\n 20933: u64 [s1 + 0xc0] = a0\n 20937: a3 = u64 [0x201a8]\n 20942: a4 = u64 [0x201b0]\n 20947: a5 = u64 [0x201b8]\n 20952: a0 = u64 [0x201c0]\n 20957: u64 [s1 + 0xf8] = a3\n 20961: u64 [s1 + 0xf0] = a4\n 20965: u64 [s1 + 0xe8] = a5\n 20969: u64 [s1 + 0xe0] = a0\n 20973: u64 [s1 + 0x90] = a2\n 20977: u64 [s1 + 0x88] = a1\n 20981: a2 = s1 + 0xe0\n 20985: a3 = s1 + 0xc0\n 20989: a4 = s1 + 0xa0\n 20993: a5 = s1 + 0x80\n 20997: u64 [s1 + 0x80] = t0\n 21001: a0 = 0\n 21003: a1 = 0\n 21005: ra = 1078, jump @1437\n      : @1016 [@dyn 539] (gas: 4)\n 21011: a0 = 0\n 21013: a1 = 0x1\n 21016: a2 = u64 [s1 + 0x58]\n 21019: t0 = 1080, jump @1362\n      : @1017 [@dyn 540] (gas: 1)\n 21025: ret\n      : @1018 (gas: 22)\n 21027: sp = sp + 0xfffffffffffffee0\n 21031: u64 [sp + 0x118] = ra\n 21035: u64 [sp + 0x110] = s0\n 21039: u64 [sp + 0x108] = s1\n 21043: s0 = sp + 0x120\n 21047: sp = sp & 0xfffffffffffffff0\n 21050: a4 = u64 [a1 + 0x10]\n 21053: a3 = u64 [a1 + 0x18]\n 21056: a5 = u64 [a1 + 0x8]\n 21059: t0 = u64 [a1]\n 21061: u64 [sp + 0x68] = a3\n 21064: u64 [sp + 0x78] = a5\n 21067: a1 = a5 | a3\n 21070: a3 = t0 | a4\n 21073: a3 = a3 | a1\n 21076: a3 = a3 >> 0x20\n 21079: u64 [sp + 0x70] = a4\n 21082: a1 = a1 | a4\n 21085: a1 = a1 << 0x20\n 21088: a1 = a1 | a3\n 21091: u64 [sp + 0x8] = a0\n 21094: jump @1033 if a1 != 0\n      : @1019 (gas: 15)\n 21098: a0 = u64 [a2 + 0x18]\n 21101: u64 [sp + 0x48] = a0\n 21104: s1 = u64 [a2 + 0x10]\n 21107: a0 = u64 [a2 + 0x8]\n 21110: u64 [sp + 0x50] = a0\n 21113: a0 = u64 [a2]\n 21115: u64 [sp + 0x58] = a0\n 21118: u64 [sp + 248] = 0\n 21122: u64 [sp + 240] = 0\n 21126: u64 [sp + 232] = 0\n 21130: a1 = sp + 0xe0\n 21134: u64 [sp + 224] = 0x20\n 21139: a0 = t0\n 21141: u64 [sp + 0x60] = t0\n 21144: ra = 1082, jump @1429\n      : @1020 [@dyn 541] (gas: 12)\n 21150: a1 = u64 [sp + 0x58]\n 21153: a0 = a1 | s1\n 21156: a2 = u64 [sp + 0x48]\n 21159: a3 = u64 [sp + 0x50]\n 21162: a2 = a2 | a3\n 21165: a0 = a0 | a2\n 21168: a0 = a0 >> 0x20\n 21171: u64 [sp + 0x20] = s1\n 21174: a2 = a2 | s1\n 21177: a2 = a2 << 0x20\n 21180: a0 = a0 | a2\n 21183: jump @1033 if a0 != 0\n      : @1021 (gas: 2)\n 21187: a0 = sp + 0xc0\n 21191: ra = 1084, jump @1427\n      : @1022 [@dyn 542] (gas: 13)\n 21197: a0 = u64 [sp + 0x70]\n 21200: a1 = u64 [sp + 0x68]\n 21203: a1 = a1 | a0\n 21206: a0 = 0x100000000\n 21216: u64 [sp + 0x10] = a0\n 21219: a0 = 0xffffffe0\n 21229: a2 = u64 [sp + 0x60]\n 21232: a0 = a2 <u a0\n 21235: a3 = u64 [sp + 0x78]\n 21238: a0 = 0 if a3 != 0\n 21240: u64 [sp + 0x18] = a1\n 21243: a0 = 0 if a1 != 0\n 21245: jump @1033 if a0 == 0\n      : @1023 (gas: 16)\n 21249: a3 = u64 [sp + 0xd8]\n 21253: a4 = u64 [sp + 0xd0]\n 21257: a5 = u64 [sp + 0xc8]\n 21261: a1 = u64 [sp + 0xc0]\n 21265: i32 a0 = a2 + 0x20\n 21268: u64 [sp + 0x28] = a1\n 21271: u64 [sp + 0xa0] = a1\n 21275: u64 [sp + 0x30] = a5\n 21278: u64 [sp + 0xa8] = a5\n 21282: u64 [sp + 0x38] = a4\n 21285: u64 [sp + 0xb0] = a4\n 21289: a1 = sp + 0xa0\n 21293: u64 [sp + 0x40] = a3\n 21296: u64 [sp + 0xb8] = a3\n 21300: s1 = a2\n 21302: ra = 1086, jump @1429\n      : @1024 [@dyn 543] (gas: 8)\n 21308: a0 = u64 [sp + 0x10]\n 21311: a0 = a0 + 0xffffffffffffffc0\n 21314: a0 = s1 <u a0\n 21317: a1 = u64 [sp + 0x78]\n 21320: a0 = 0 if a1 != 0\n 21322: a1 = u64 [sp + 0x18]\n 21325: a0 = 0 if a1 != 0\n 21327: jump @1033 if a0 == 0\n      : @1025 (gas: 10)\n 21331: a0 = u64 [sp + 0x48]\n 21334: a1 = u64 [sp + 0x20]\n 21337: a0 = a0 | a1\n 21340: a1 = 0xffffffe0\n 21350: a3 = u64 [sp + 0x58]\n 21353: a1 = a3 <u a1\n 21356: a4 = u64 [sp + 0x50]\n 21359: a1 = 0 if a4 != 0\n 21361: a1 = 0 if a0 != 0\n 21363: jump @1033 if a1 == 0\n      : @1026 (gas: 13)\n 21367: a2 = s1\n 21369: a1 = u64 [sp + 0x28]\n 21372: a5 = u64 [sp + 0x38]\n 21375: a0 = a1 | a5\n 21378: a4 = u64 [sp + 0x40]\n 21381: s1 = u64 [sp + 0x30]\n 21384: a4 = a4 | s1\n 21387: a0 = a0 | a4\n 21390: a0 = a0 >> 0x20\n 21393: a4 = a4 | a5\n 21396: a4 = a4 << 0x20\n 21399: a0 = a0 | a4\n 21402: jump @1033 if a0 != 0\n      : @1027 (gas: 5)\n 21406: i32 a0 = a2 + 0x40\n 21409: i32 a3 = a3 + 0x20\n 21412: u64 [sp + 0x58] = a3\n 21415: s1 = a1\n 21417: ra = 1088, jump @1439\n      : @1028 [@dyn 544] (gas: 4)\n 21423: u64 [sp + 0x50] = a0\n 21426: a0 = u64 [sp + 0x58]\n 21429: a1 = s1\n 21431: ra = 1090, jump @1439\n      : @1029 [@dyn 545] (gas: 4)\n 21437: a1 = a0\n 21439: a0 = u64 [sp + 0x50]\n 21442: a2 = s1\n 21444: ra = 1092, jump @0\n      : @1030 [@dyn 546] (gas: 27)\n 21450: a0 = u64 [sp + 0x60]\n 21453: a0 = a0 + s1\n 21456: a1 = a0 <u s1\n 21459: a2 = u64 [sp + 0x78]\n 21462: a4 = u64 [sp + 0x30]\n 21465: a2 = a2 + a4\n 21468: a2 = a2 + a1\n 21471: a3 = a2 ^ a4\n 21474: a4 = a2 <u a4\n 21477: a4 = a1 if a3 == 0\n 21480: a1 = u64 [sp + 0x70]\n 21483: a3 = u64 [sp + 0x38]\n 21486: a1 = a1 + a3\n 21489: a3 = a1 <u a3\n 21492: a5 = u64 [sp + 0x68]\n 21495: s1 = u64 [sp + 0x40]\n 21498: a5 = a5 + s1\n 21501: a3 = a3 + a5\n 21504: a4 = a4 + a1\n 21507: a1 = a4 <u a1\n 21510: a1 = a1 + a3\n 21513: a1 = a1 | a4\n 21516: a3 = 0xffffffc0\n 21526: a3 = a0 <u a3\n 21529: a3 = 0 if a2 != 0\n 21531: a3 = 0 if a1 != 0\n 21533: jump @1033 if a3 == 0\n      : @1031 (gas: 7)\n 21537: i32 a0 = a0 + 0x40\n 21540: u64 [sp + 152] = 0\n 21544: u64 [sp + 144] = 0\n 21548: u64 [sp + 136] = 0\n 21552: a1 = sp + 0x80\n 21556: u64 [sp + 128] = 0\n 21560: ra = 1094, jump @1429\n      : @1032 [@dyn 547] (gas: 35)\n 21566: s1 = u64 [sp + 0x28]\n 21569: s1 = s1 + 0x1f\n 21572: a0 = 0x1ffffffe0\n 21582: a0 = a0 & s1\n 21585: a1 = u64 [sp + 0x60]\n 21588: a0 = a0 + a1\n 21591: a1 = a0 <u a1\n 21594: a3 = u64 [sp + 0x78]\n 21597: a2 = a3 + a1\n 21600: a3 = a2 <u a3\n 21603: a3 = a1 if a1 == 0\n 21606: a1 = u64 [sp + 0x70]\n 21609: a3 = a3 + a1\n 21612: a1 = a3 <u a1\n 21615: a4 = u64 [sp + 0x68]\n 21618: a1 = a1 + a4\n 21621: a4 = a0 + 0x40\n 21624: a0 = a4 <u a0\n 21627: a5 = a2 + a0\n 21630: a2 = a5 <u a2\n 21633: a2 = a0 if a0 == 0\n 21636: a2 = a2 + a3\n 21639: a0 = a2 <u a3\n 21642: a0 = a0 + a1\n 21645: a1 = u64 [sp + 0x8]\n 21648: u64 [a1] = a4\n 21650: u64 [a1 + 0x8] = a5\n 21653: u64 [a1 + 0x10] = a2\n 21656: u64 [a1 + 0x18] = a0\n 21659: sp = s0 + 0xfffffffffffffee0\n 21663: ra = u64 [sp + 0x118]\n 21667: s0 = u64 [sp + 0x110]\n 21671: s1 = u64 [sp + 0x108]\n 21675: sp = sp + 0x120\n 21679: ret\n      : @1033 (gas: 1)\n 21681: trap\n      : @1034 [@dyn 548] (gas: 5)\n 21682: a1 = 0x4\n 21685: ra = 0x44a\n 21689: ecalli 1 // 'call_data_load'\n 21691: t0 = 0x44c\n 21695: jump @1396\n      : @1035 [@dyn 549] (gas: 1)\n 21698: t0 = 1100, jump @1396\n      : @1036 [@dyn 550] (gas: 1)\n 21704: jump @1039 if a3 == 0\n      : @1037 (gas: 1)\n 21707: t0 = 1102, jump @1408\n      : @1038 [@dyn 551] (gas: 1)\n 21713: ret\n      : @1039 (gas: 8)\n 21715: a1 = 0x20280\n 21720: i32 a1 = a1 + 0\n 21722: a0 = 0x1\n 21725: a2 = 0\n 21727: ra = 0x450\n 21731: ecalli 7 // 'seal_return'\n 21733: t0 = 0x452\n 21737: jump @1423\n      : @1040 [@dyn 552] (gas: 1)\n 21740: t0 = 1106, jump @1423\n      : @1041 [@dyn 553] (gas: 5)\n 21746: a1 = 0x24\n 21749: ra = 0x454\n 21753: ecalli 1 // 'call_data_load'\n 21755: t0 = 0x456\n 21759: jump @1396\n      : @1042 [@dyn 554] (gas: 1)\n 21762: t0 = 1110, jump @1396\n      : @1043 [@dyn 555] (gas: 1)\n 21768: jump @1046 if a3 == 0\n      : @1044 (gas: 1)\n 21771: t0 = 1112, jump @1408\n      : @1045 [@dyn 556] (gas: 1)\n 21777: ret\n      : @1046 (gas: 7)\n 21779: a1 = 0x20280\n 21784: i32 a1 = a1 + 0\n 21786: a0 = 0x1\n 21789: a2 = 0\n 21791: ra = 0x45a\n 21795: ecalli 7 // 'seal_return'\n 21797: fallthrough\n      : @1047 [@dyn 557] (gas: 19)\n 21798: sp = sp + 0xffffffffffffff60\n 21802: u64 [sp + 0x98] = ra\n 21806: u64 [sp + 0x90] = s0\n 21810: u64 [sp + 0x88] = s1\n 21814: s0 = sp + 0xa0\n 21818: sp = sp & 0xffffffffffffffe0\n 21821: s1 = sp\n 21823: a2 = u64 [a1]\n 21825: a3 = u64 [a1 + 0x8]\n 21828: a4 = u64 [a1 + 0x10]\n 21831: a1 = u64 [a1 + 0x18]\n 21834: u64 [s1 + 0x18] = a0\n 21837: u64 [s1 + 0x78] = a1\n 21840: u64 [s1 + 0x70] = a4\n 21843: u64 [s1 + 0x68] = a3\n 21846: a1 = s1 + 0x60\n 21849: u64 [s1 + 0x60] = a2\n 21852: a0 = 0\n 21854: ra = 1116, jump @1429\n      : @1048 [@dyn 558] (gas: 7)\n 21860: u64 [s1 + 88] = 0\n 21863: u64 [s1 + 80] = 0\n 21866: u64 [s1 + 64] = 0x6\n 21870: a0 = 0x20\n 21873: a1 = s1 + 0x40\n 21876: u64 [s1 + 72] = 0\n 21879: ra = 1118, jump @1429\n      : @1049 [@dyn 559] (gas: 2)\n 21885: a1 = i32 [0x2026c]\n 21890: jump @1051 if a1 >u 63\n      : @1050 (gas: 2)\n 21894: u32 [0x2026c] = 0x40\n 21900: fallthrough\n      : @1051 (gas: 35)\n 21901: a0 = sp + 0xffffffffffffffe0\n 21904: a2 = a0 & 0xffffffffffffffe0\n 21907: u64 [s1 + 0x10] = a2\n 21910: sp = a2\n 21912: a0 = 0x20280\n 21917: i32 a0 = a0 + 0\n 21919: i32 a2 = a2 + 0\n 21921: a1 = 0x40\n 21924: ecalli 6 // 'hash_keccak_256'\n 21926: a3 = u64 [s1 + 0x10]\n 21929: a0 = u64 [a3]\n 21931: a1 = u64 [a3 + 0x8]\n 21934: a2 = u64 [a3 + 0x10]\n 21937: a3 = u64 [a3 + 0x18]\n 21940: a0 = reverse a0\n 21942: a1 = reverse a1\n 21944: a2 = reverse a2\n 21946: a3 = reverse a3\n 21948: a3 = a3 + 0x1\n 21951: a4 = a3 <u 0x1\n 21954: a2 = a2 + a4\n 21957: a4 = a3 | a2\n 21960: a4 = a4 <u 0x1\n 21963: a4 = a4 + a1\n 21966: a1 = a4 <u a1\n 21969: a0 = a0 + a1\n 21972: a1 = sp + 0xffffffffffffffe0\n 21975: a1 = a1 & 0xffffffffffffffe0\n 21978: sp = a1\n 21980: u64 [a1 + 0x8] = a2\n 21983: u64 [a1] = a3\n 21985: u64 [a1 + 0x10] = a4\n 21988: u64 [a1 + 0x18] = a0\n 21991: a0 = s1 + 0x20\n 21994: ra = 1120, jump @1431\n      : @1052 [@dyn 560] (gas: 15)\n 22000: a0 = u64 [s1 + 0x30]\n 22003: a1 = u64 [s1 + 0x38]\n 22006: a2 = u64 [s1 + 0x20]\n 22009: a3 = u64 [s1 + 0x28]\n 22012: a4 = u64 [s1 + 0x18]\n 22015: u64 [a4 + 0x10] = a0\n 22018: u64 [a4 + 0x18] = a1\n 22021: u64 [a4] = a2\n 22023: u64 [a4 + 0x8] = a3\n 22026: sp = s0 + 0xffffffffffffff60\n 22030: ra = u64 [sp + 0x98]\n 22034: s0 = u64 [sp + 0x90]\n 22038: s1 = u64 [sp + 0x88]\n 22042: sp = sp + 0xa0\n 22046: ret\n      : @1053 (gas: 37)\n 22048: sp = sp + 0xfffffffffffffd00\n 22052: a3 = sp + 0x200\n 22056: u64 [a3 + 0xf8] = ra\n 22060: u64 [a3 + 0xf0] = s0\n 22064: u64 [a3 + 0xe8] = s1\n 22068: s0 = sp + 0x300\n 22072: sp = sp & 0xffffffffffffffe0\n 22075: s1 = sp\n 22077: a3 = u64 [a2 + 0x18]\n 22080: u64 [s1 + 0x98] = a3\n 22084: a3 = u64 [a2 + 0x10]\n 22087: u64 [s1 + 0x90] = a3\n 22091: a3 = u64 [a2 + 0x8]\n 22094: u64 [s1 + 0xa0] = a3\n 22098: a2 = u64 [a2]\n 22100: u64 [s1 + 0xa8] = a2\n 22104: a2 = u64 [a1 + 0x10]\n 22107: u64 [s1 + 0x88] = a2\n 22111: a2 = u64 [a1 + 0x8]\n 22114: u64 [s1 + 0x80] = a2\n 22118: a1 = u64 [a1]\n 22120: u64 [s1 + 0x78] = a1\n 22123: a2 = u64 [a0]\n 22125: a1 = u64 [a0 + 0x8]\n 22128: a0 = u32 [a0 + 0x10]\n 22131: a3 = 0xffffffff\n 22141: u64 [s1 + 0x70] = a3\n 22144: u64 [s1 + 728] = 0\n 22148: u64 [s1 + 0x40] = a0\n 22151: u64 [s1 + 0x2d0] = a0\n 22155: u64 [s1 + 0x30] = a1\n 22158: u64 [s1 + 0x2c8] = a1\n 22162: a1 = s1 + 0x2c0\n 22166: u64 [s1 + 0x38] = a2\n 22169: u64 [s1 + 0x2c0] = a2\n 22173: a0 = 0\n 22175: ra = 1122, jump @1429\n      : @1054 [@dyn 561] (gas: 7)\n 22181: u64 [s1 + 696] = 0\n 22185: u64 [s1 + 688] = 0\n 22189: u64 [s1 + 672] = 0x1\n 22194: a0 = 0x20\n 22197: a1 = s1 + 0x2a0\n 22201: u64 [s1 + 680] = 0\n 22205: ra = 1124, jump @1429\n      : @1055 [@dyn 562] (gas: 3)\n 22211: a1 = 0x2026c\n 22216: a0 = i32 [0x2026c]\n 22221: jump @1057 if a0 >u 63\n      : @1056 (gas: 2)\n 22225: u32 [0x2026c] = 0x40\n 22231: fallthrough\n      : @1057 (gas: 15)\n 22232: a0 = sp + 0xffffffffffffffe0\n 22235: a2 = a0 & 0xffffffffffffffe0\n 22238: u64 [s1 + 0x68] = a2\n 22241: sp = a2\n 22243: a0 = 0x20280\n 22248: i32 a0 = a0 + 0\n 22250: i32 a2 = a2 + 0\n 22252: u64 [s1 + 0xb0] = a1\n 22256: a1 = 0x40\n 22259: u64 [s1 + 0xb8] = a0\n 22263: ra = 0x466\n 22267: ecalli 6 // 'hash_keccak_256'\n 22269: a3 = u64 [s1 + 0x68]\n 22272: t0 = 0x468\n 22276: jump @1377\n      : @1058 [@dyn 563] (gas: 2)\n 22279: a3 = u64 [s1 + 0x68]\n 22282: t0 = 1128, jump @1377\n      : @1059 [@dyn 564] (gas: 17)\n 22288: a0 = u64 [s1 + 0x78]\n 22291: a0 = a0 & 0xffffffffffffffff\n 22294: a1 = u64 [s1 + 0x80]\n 22298: a1 = a1 & 0xffffffffffffffff\n 22301: a2 = u64 [s1 + 0x88]\n 22305: a3 = u64 [s1 + 0x70]\n 22308: a2 = a2 & a3\n 22311: u64 [s1 + 664] = 0\n 22315: u64 [s1 + 0x78] = a2\n 22318: u64 [s1 + 0x290] = a2\n 22322: u64 [s1 + 0x80] = a1\n 22326: u64 [s1 + 0x288] = a1\n 22330: a1 = s1 + 0x280\n 22334: u64 [s1 + 0x88] = a0\n 22338: u64 [s1 + 0x280] = a0\n 22342: a0 = 0\n 22344: ra = 1130, jump @1429\n      : @1060 [@dyn 565] (gas: 12)\n 22350: a0 = u64 [s1 + 0x48]\n 22353: a3 = s1 + 0x200\n 22357: u64 [a3 + 0x78] = a0\n 22360: a0 = u64 [s1 + 0x50]\n 22363: u64 [a3 + 0x70] = a0\n 22366: a0 = u64 [s1 + 0x58]\n 22369: u64 [a3 + 0x68] = a0\n 22372: a0 = 0x20\n 22375: a1 = s1 + 0x260\n 22379: a2 = u64 [s1 + 0x60]\n 22382: u64 [a3 + 0x60] = a2\n 22385: ra = 1132, jump @1429\n      : @1061 [@dyn 566] (gas: 3)\n 22391: a1 = u64 [s1 + 0xb0]\n 22395: a0 = i32 [a1]\n 22397: jump @1063 if a0 >u 63\n      : @1062 (gas: 2)\n 22401: u32 [a1 + 0] = 0x40\n 22404: fallthrough\n      : @1063 (gas: 4)\n 22405: a0 = sp + 0xffffffffffffffe0\n 22408: a0 = a0 & 0xffffffffffffffe0\n 22411: u64 [s1 + 0x70] = a0\n 22414: t0 = 1134, jump @1405\n      : @1064 [@dyn 567] (gas: 5)\n 22420: ra = 0x470\n 22424: ecalli 6 // 'hash_keccak_256'\n 22426: a3 = u64 [s1 + 0x70]\n 22429: t0 = 0x472\n 22433: jump @1384\n      : @1065 [@dyn 568] (gas: 2)\n 22436: a3 = u64 [s1 + 0x70]\n 22439: t0 = 1138, jump @1384\n      : @1066 [@dyn 569] (gas: 2)\n 22445: a0 = s1 + 0x240\n 22449: ra = 1140, jump @1431\n      : @1067 [@dyn 570] (gas: 9)\n 22455: ra = u64 [s1 + 0x258]\n 22459: t1 = u64 [s1 + 0x250]\n 22463: a4 = u64 [s1 + 0x248]\n 22467: t0 = u64 [s1 + 0x240]\n 22471: a0 = a4 & ra\n 22474: a1 = t0 & t1\n 22477: a0 = a0 & a1\n 22480: a1 = 0xffffffffffffffff\n 22483: jump @1084 if a0 == a1\n      : @1068 (gas: 23)\n 22487: a0 = u64 [s1 + 0xa8]\n 22491: a2 = t0 <u a0\n 22494: a1 = u64 [s1 + 0xa0]\n 22498: a0 = a4 ^ a1\n 22501: a5 = a4 <u a1\n 22504: u64 [s1 + 0x50] = a2\n 22507: a5 = a2 if a0 == 0\n 22510: a2 = u64 [s1 + 0x90]\n 22514: a3 = t1 <u a2\n 22517: a1 = u64 [s1 + 0x98]\n 22521: a0 = ra ^ a1\n 22524: a1 = ra <u a1\n 22527: u64 [s1 + 0x28] = a3\n 22530: a1 = a3 if a0 == 0\n 22533: a2 = t1 ^ a2\n 22536: a0 = a0 | a2\n 22539: u64 [s1 + 0x48] = a5\n 22542: a1 = a5 if a0 == 0\n 22545: u64 [s1 + 0x70] = t0\n 22548: u64 [s1 + 0x68] = a4\n 22551: u64 [s1 + 0x60] = ra\n 22554: u64 [s1 + 0x58] = t1\n 22557: jump @1085 if a1 != 0\n      : @1069 (gas: 6)\n 22561: a3 = u64 [s1 + 0x40]\n 22564: a2 = u64 [s1 + 0x38]\n 22567: a0 = a2 | a3\n 22570: t2 = u64 [s1 + 0x30]\n 22573: a0 = a0 | t2\n 22576: jump @1092 if a0 == 0\n      : @1070 (gas: 6)\n 22580: a0 = u64 [s1 + 0x88]\n 22584: a1 = u64 [s1 + 0x78]\n 22587: a0 = a0 | a1\n 22590: a1 = u64 [s1 + 0x80]\n 22594: a0 = a0 | a1\n 22597: jump @1094 if a0 == 0\n      : @1071 (gas: 7)\n 22601: u64 [s1 + 568] = 0\n 22605: u64 [s1 + 0x220] = a2\n 22609: u64 [s1 + 0x228] = t2\n 22613: a1 = s1 + 0x220\n 22617: u64 [s1 + 0x230] = a3\n 22621: a0 = 0\n 22623: ra = 1142, jump @1429\n      : @1072 [@dyn 571] (gas: 7)\n 22629: u64 [s1 + 536] = 0\n 22633: u64 [s1 + 528] = 0\n 22637: u64 [s1 + 512] = 0x1\n 22642: a0 = 0x20\n 22645: a1 = s1 + 0x200\n 22649: u64 [s1 + 520] = 0\n 22653: ra = 1144, jump @1429\n      : @1073 [@dyn 572] (gas: 3)\n 22659: a1 = u64 [s1 + 0xb0]\n 22663: a0 = i32 [a1]\n 22665: jump @1075 if a0 >u 63\n      : @1074 (gas: 2)\n 22669: u32 [a1 + 0] = 0x40\n 22672: fallthrough\n      : @1075 (gas: 4)\n 22673: a0 = sp + 0xffffffffffffffe0\n 22676: a0 = a0 & 0xffffffffffffffe0\n 22679: u64 [s1 + 0x40] = a0\n 22682: t0 = 1146, jump @1405\n      : @1076 [@dyn 573] (gas: 5)\n 22688: ra = 0x47c\n 22692: ecalli 6 // 'hash_keccak_256'\n 22694: a3 = u64 [s1 + 0x40]\n 22697: t0 = 0x47e\n 22701: jump @1400\n      : @1077 [@dyn 574] (gas: 2)\n 22704: a3 = u64 [s1 + 0x40]\n 22707: t0 = 1150, jump @1400\n      : @1078 [@dyn 575] (gas: 21)\n 22713: u64 [s1 + 0x38] = a0\n 22716: a0 = reverse a1\n 22718: u64 [s1 + 0x30] = a0\n 22721: a0 = reverse a2\n 22723: u64 [s1 + 0x20] = a0\n 22726: a0 = reverse a3\n 22728: u64 [s1 + 0x18] = a0\n 22731: a0 = sp + 0xffffffffffffffe0\n 22734: a0 = a0 & 0xffffffffffffffe0\n 22737: u64 [s1 + 0x40] = a0\n 22740: sp = a0\n 22742: u64 [s1 + 504] = 0\n 22746: a0 = u64 [s1 + 0x78]\n 22749: u64 [s1 + 0x1f0] = a0\n 22753: a0 = u64 [s1 + 0x80]\n 22757: u64 [s1 + 0x1e8] = a0\n 22761: a1 = s1 + 0x1e0\n 22765: a0 = u64 [s1 + 0x88]\n 22769: u64 [s1 + 0x1e0] = a0\n 22773: a0 = 0\n 22775: ra = 1152, jump @1429\n      : @1079 [@dyn 576] (gas: 12)\n 22781: a0 = u64 [s1 + 0x18]\n 22784: a3 = s1 + 0x100\n 22788: u64 [a3 + 0xd8] = a0\n 22792: a0 = u64 [s1 + 0x20]\n 22795: u64 [a3 + 0xd0] = a0\n 22799: a0 = u64 [s1 + 0x30]\n 22802: u64 [a3 + 0xc8] = a0\n 22806: a0 = 0x20\n 22809: a1 = s1 + 0x1c0\n 22813: a2 = u64 [s1 + 0x38]\n 22816: u64 [a3 + 0xc0] = a2\n 22820: ra = 1154, jump @1429\n      : @1080 [@dyn 577] (gas: 3)\n 22826: a1 = u64 [s1 + 0xb0]\n 22830: a0 = i32 [a1]\n 22832: jump @1082 if a0 >u 63\n      : @1081 (gas: 2)\n 22836: u32 [a1 + 0] = 0x40\n 22839: fallthrough\n      : @1082 (gas: 4)\n 22840: a0 = sp + 0xffffffffffffffe0\n 22843: a0 = a0 & 0xffffffffffffffe0\n 22846: u64 [s1 + 0xb0] = a0\n 22850: t0 = 1156, jump @1405\n      : @1083 [@dyn 578] (gas: 44)\n 22856: ecalli 6 // 'hash_keccak_256'\n 22858: a2 = u64 [s1 + 0xb0]\n 22862: a0 = u64 [a2]\n 22864: a0 = reverse a0\n 22866: a1 = u64 [a2 + 0x8]\n 22869: a5 = u64 [s1 + 0x40]\n 22872: u64 [a5 + 0x18] = a0\n 22875: a0 = u64 [a2 + 0x10]\n 22878: a2 = u64 [a2 + 0x18]\n 22881: a1 = reverse a1\n 22883: u64 [a5 + 0x10] = a1\n 22886: a0 = reverse a0\n 22888: u64 [a5 + 0x8] = a0\n 22891: a0 = reverse a2\n 22893: u64 [a5] = a0\n 22895: a0 = u64 [s1 + 0x90]\n 22899: a1 = u64 [s1 + 0x58]\n 22902: a0 = a1 - a0\n 22905: a1 = u64 [s1 + 0x48]\n 22908: a2 = a0 - a1\n 22911: a0 = a0 <u a1\n 22914: a1 = u64 [s1 + 0x98]\n 22918: a3 = u64 [s1 + 0x60]\n 22921: a1 = a3 - a1\n 22924: a3 = u64 [s1 + 0x28]\n 22927: a1 = a1 - a3\n 22930: a0 = a1 - a0\n 22933: a1 = u64 [s1 + 0xa0]\n 22937: a3 = u64 [s1 + 0x68]\n 22940: a1 = a3 - a1\n 22943: a3 = u64 [s1 + 0x50]\n 22946: a3 = a1 - a3\n 22949: a1 = u64 [s1 + 0xa8]\n 22953: a4 = u64 [s1 + 0x70]\n 22956: a4 = a4 - a1\n 22959: a1 = sp + 0xffffffffffffffe0\n 22962: a1 = a1 & 0xffffffffffffffe0\n 22965: sp = a1\n 22967: u64 [a1 + 0x18] = a0\n 22970: u64 [a1 + 0x10] = a2\n 22973: u64 [a1 + 0x8] = a3\n 22976: u64 [a1] = a4\n 22978: a0 = a5\n 22980: ra = 1158, jump @1432\n      : @1084 [@dyn 579] (gas: 7)\n 22986: sp = s0 + 0xfffffffffffffd00\n 22990: a0 = sp + 0x200\n 22994: ra = u64 [a0 + 0xf8]\n 22998: s0 = u64 [a0 + 0xf0]\n 23002: s1 = u64 [a0 + 0xe8]\n 23006: sp = sp + 0x300\n 23010: ret\n      : @1085 (gas: 8)\n 23012: u64 [s1 + 304] = 0\n 23016: u64 [s1 + 296] = 0\n 23020: u64 [s1 + 288] = 0\n 23024: a0 = 0xfb8f41b200000000\n 23034: a1 = s1 + 0x120\n 23038: u64 [s1 + 0x138] = a0\n 23042: a0 = 0\n 23044: ra = 1160, jump @1429\n      : @1086 [@dyn 580] (gas: 11)\n 23050: u64 [s1 + 280] = 0\n 23054: a0 = u64 [s1 + 0x78]\n 23057: a3 = s1 + 0x100\n 23061: u64 [a3 + 0x10] = a0\n 23064: a0 = u64 [s1 + 0x80]\n 23068: u64 [a3 + 0x8] = a0\n 23071: a0 = 0x4\n 23074: a1 = s1 + 0x100\n 23078: a2 = u64 [s1 + 0x88]\n 23082: u64 [a3] = a2\n 23084: ra = 1162, jump @1429\n      : @1087 [@dyn 581] (gas: 11)\n 23090: a0 = u64 [s1 + 0x60]\n 23093: u64 [s1 + 0xf8] = a0\n 23097: a0 = u64 [s1 + 0x58]\n 23100: u64 [s1 + 0xf0] = a0\n 23104: a0 = u64 [s1 + 0x68]\n 23107: u64 [s1 + 0xe8] = a0\n 23111: a0 = 0x24\n 23114: a1 = s1 + 0xe0\n 23118: a2 = u64 [s1 + 0x70]\n 23121: u64 [s1 + 0xe0] = a2\n 23125: ra = 1164, jump @1429\n      : @1088 [@dyn 582] (gas: 11)\n 23131: a0 = u64 [s1 + 0x98]\n 23135: u64 [s1 + 0xd8] = a0\n 23139: a0 = u64 [s1 + 0x90]\n 23143: u64 [s1 + 0xd0] = a0\n 23147: a0 = u64 [s1 + 0xa0]\n 23151: u64 [s1 + 0xc8] = a0\n 23155: a0 = 0x44\n 23158: a1 = s1 + 0xc0\n 23162: a2 = u64 [s1 + 0xa8]\n 23166: u64 [s1 + 0xc0] = a2\n 23170: ra = 1166, jump @1429\n      : @1089 [@dyn 583] (gas: 3)\n 23176: a0 = u64 [s1 + 0xb0]\n 23180: a0 = i32 [a0]\n 23182: jump @1091 if a0 >u 127\n      : @1090 (gas: 5)\n 23186: a1 = u64 [s1 + 0xb0]\n 23190: u32 [a1 + 0] = 0x80\n 23194: a0 = 0x1\n 23197: a2 = 0x64\n 23200: jump @1099\n      : @1091 (gas: 6)\n 23203: a0 = 0x1\n 23206: a2 = 0x64\n 23209: a1 = u64 [s1 + 0xb8]\n 23213: ra = 0x496\n 23217: ecalli 7 // 'seal_return'\n 23219: jump @1100\n      : @1092 (gas: 8)\n 23222: u64 [s1 + 368] = 0\n 23226: u64 [s1 + 360] = 0\n 23230: u64 [s1 + 352] = 0\n 23234: a0 = 0xe602df0500000000\n 23244: a1 = s1 + 0x160\n 23248: u64 [s1 + 0x178] = a0\n 23252: a0 = 0\n 23254: ra = 1168, jump @1429\n      : @1093 [@dyn 584] (gas: 8)\n 23260: u64 [s1 + 344] = 0\n 23264: u64 [s1 + 336] = 0\n 23268: u64 [s1 + 328] = 0\n 23272: a0 = 0x4\n 23275: a1 = s1 + 0x140\n 23279: u64 [s1 + 320] = 0\n 23283: ra = 0x494\n 23287: jump @1429\n      : @1094 (gas: 8)\n 23290: u64 [s1 + 432] = 0\n 23294: u64 [s1 + 424] = 0\n 23298: u64 [s1 + 416] = 0\n 23302: a0 = 0x94280d6200000000\n 23312: a1 = s1 + 0x1a0\n 23316: u64 [s1 + 0x1b8] = a0\n 23320: a0 = 0\n 23322: ra = 1170, jump @1429\n      : @1095 [@dyn 585] (gas: 7)\n 23328: u64 [s1 + 408] = 0\n 23332: u64 [s1 + 400] = 0\n 23336: u64 [s1 + 392] = 0\n 23340: a0 = 0x4\n 23343: a1 = s1 + 0x180\n 23347: u64 [s1 + 384] = 0\n 23351: ra = 1172, jump @1429\n      : @1096 [@dyn 586] (gas: 3)\n 23357: a0 = u64 [s1 + 0xb0]\n 23361: a0 = i32 [a0]\n 23363: jump @1098 if a0 >u 63\n      : @1097 (gas: 5)\n 23367: a1 = u64 [s1 + 0xb0]\n 23371: u32 [a1 + 0] = 0x40\n 23374: a0 = 0x1\n 23377: a2 = 0x24\n 23380: jump @1099\n      : @1098 (gas: 6)\n 23382: a0 = 0x1\n 23385: a2 = 0x24\n 23388: a1 = u64 [s1 + 0xb8]\n 23392: ra = 0x496\n 23396: ecalli 7 // 'seal_return'\n 23398: jump @1100\n      : @1099 (gas: 4)\n 23400: a1 = u64 [s1 + 0xb8]\n 23404: ra = 0x496\n 23408: ecalli 7 // 'seal_return'\n 23410: fallthrough\n      : @1100 [@dyn 587] (gas: 17)\n 23411: sp = sp + 0xfffffffffffffca0\n 23415: a3 = sp + 0x300\n 23419: u64 [a3 + 0x58] = ra\n 23422: u64 [a3 + 0x50] = s0\n 23425: u64 [a3 + 0x48] = s1\n 23428: s0 = sp + 0x360\n 23432: sp = sp & 0xffffffffffffffe0\n 23435: s1 = sp\n 23437: a5 = u32 [a0 + 0x10]\n 23440: a3 = u64 [a0]\n 23442: a4 = u64 [a0 + 0x8]\n 23445: u64 [s1 + 0x78] = a3\n 23448: u64 [s1 + 0x68] = a5\n 23451: a0 = a3 | a5\n 23454: u64 [s1 + 0x70] = a4\n 23457: a0 = a0 | a4\n 23460: jump @1135 if a0 == 0\n      : @1101 (gas: 14)\n 23464: a0 = u64 [a1 + 0x10]\n 23467: a3 = u64 [a1 + 0x8]\n 23470: a1 = u64 [a1]\n 23472: a4 = 0xffffffffffffffff\n 23475: a5 = 0xffffffff\n 23485: a3 = a3 & a4\n 23488: a1 = a1 & a4\n 23491: a0 = a0 & a5\n 23494: u64 [s1 + 0x48] = a1\n 23497: u64 [s1 + 0x38] = a0\n 23500: a0 = a0 | a1\n 23503: u64 [s1 + 0x40] = a3\n 23506: a0 = a0 | a3\n 23509: jump @1140 if a0 == 0\n      : @1102 (gas: 9)\n 23513: a0 = u64 [a2 + 0x18]\n 23516: u64 [s1 + 0x98] = a0\n 23520: a0 = u64 [a2 + 0x10]\n 23523: u64 [s1 + 0x88] = a0\n 23527: a0 = u64 [a2 + 0x8]\n 23530: u64 [s1 + 0x80] = a0\n 23534: a0 = u64 [a2]\n 23536: u64 [s1 + 0x90] = a0\n 23540: ra = 1176, jump @1335\n      : @1103 [@dyn 588] (gas: 11)\n 23546: u64 [s1 + 824] = 0\n 23550: a0 = u64 [s1 + 0x68]\n 23553: a2 = s1 + 0x300\n 23557: u64 [a2 + 0x30] = a0\n 23560: a0 = u64 [s1 + 0x70]\n 23563: u64 [a2 + 0x28] = a0\n 23566: a1 = s1 + 0x320\n 23570: a0 = u64 [s1 + 0x78]\n 23573: u64 [a2 + 0x20] = a0\n 23576: a0 = 0\n 23578: ra = 1178, jump @1429\n      : @1104 [@dyn 589] (gas: 7)\n 23584: u64 [s1 + 792] = 0\n 23588: u64 [s1 + 784] = 0\n 23592: u64 [s1 + 776] = 0\n 23596: a0 = 0x20\n 23599: a1 = s1 + 0x300\n 23603: u64 [s1 + 768] = 0\n 23607: ra = 1180, jump @1429\n      : @1105 [@dyn 590] (gas: 3)\n 23613: a2 = 0x2026c\n 23618: a0 = i32 [0x2026c]\n 23623: jump @1107 if a0 >u 63\n      : @1106 (gas: 2)\n 23627: u32 [0x2026c] = 0x40\n 23633: fallthrough\n      : @1107 (gas: 15)\n 23634: u64 [s1 + 0x58] = a2\n 23637: a0 = sp + 0xffffffffffffffe0\n 23640: a2 = a0 & 0xffffffffffffffe0\n 23643: u64 [s1 + 0x50] = a2\n 23646: sp = a2\n 23648: a0 = 0x20280\n 23653: i32 a0 = a0 + 0\n 23655: i32 a2 = a2 + 0\n 23657: a1 = 0x40\n 23660: u64 [s1 + 0x60] = a0\n 23663: ra = 0x49e\n 23667: ecalli 6 // 'hash_keccak_256'\n 23669: a3 = u64 [s1 + 0x50]\n 23672: t0 = 0x4a0\n 23676: jump @1355\n      : @1108 [@dyn 591] (gas: 2)\n 23679: a3 = u64 [s1 + 0x50]\n 23682: t0 = 1184, jump @1355\n      : @1109 [@dyn 592] (gas: 2)\n 23688: a0 = s1 + 0x2e0\n 23692: ra = 1186, jump @1431\n      : @1110 [@dyn 593] (gas: 28)\n 23698: a1 = s1 + 0x200\n 23702: a2 = u64 [a1 + 0xf8]\n 23706: a0 = u64 [a1 + 0xf0]\n 23710: a5 = u64 [a1 + 0xe8]\n 23714: a4 = u64 [a1 + 0xe0]\n 23718: a1 = u64 [s1 + 0x98]\n 23722: t1 = a2 ^ a1\n 23725: u64 [s1 + 0x28] = a2\n 23728: a1 = a2 <u a1\n 23731: a2 = u64 [s1 + 0x88]\n 23735: a3 = a0 <u a2\n 23738: u64 [s1 + 0x10] = a3\n 23741: a1 = a3 if t1 == 0\n 23744: a3 = u64 [s1 + 0x80]\n 23748: t0 = a5 ^ a3\n 23751: u64 [s1 + 0x30] = a5\n 23754: a5 = a5 <u a3\n 23757: a3 = u64 [s1 + 0x90]\n 23761: u64 [s1 + 0x50] = a4\n 23764: a3 = a4 <u a3\n 23767: u64 [s1 + 0x18] = a3\n 23770: a5 = a3 if t0 == 0\n 23773: u64 [s1 + 0x20] = a0\n 23776: a2 = a2 ^ a0\n 23779: a0 = a2 | t1\n 23782: u64 [s1 + 0x8] = a5\n 23785: a1 = a5 if a0 == 0\n 23788: jump @1146 if a1 != 0\n      : @1111 (gas: 11)\n 23792: u64 [s1 + 728] = 0\n 23796: a0 = u64 [s1 + 0x78]\n 23799: a2 = s1 + 0x200\n 23803: u64 [a2 + 0xc0] = a0\n 23807: a0 = u64 [s1 + 0x70]\n 23810: u64 [a2 + 0xc8] = a0\n 23814: a1 = s1 + 0x2c0\n 23818: a0 = u64 [s1 + 0x68]\n 23821: u64 [a2 + 0xd0] = a0\n 23825: a0 = 0\n 23827: ra = 1188, jump @1429\n      : @1112 [@dyn 594] (gas: 7)\n 23833: u64 [s1 + 696] = 0\n 23837: u64 [s1 + 688] = 0\n 23841: u64 [s1 + 680] = 0\n 23845: a0 = 0x20\n 23848: a1 = s1 + 0x2a0\n 23852: u64 [s1 + 672] = 0\n 23856: ra = 1190, jump @1429\n      : @1113 [@dyn 595] (gas: 28)\n 23862: a0 = u64 [s1 + 0x88]\n 23866: a1 = u64 [s1 + 0x20]\n 23869: a0 = a1 - a0\n 23872: a2 = u64 [s1 + 0x8]\n 23875: a1 = a0 - a2\n 23878: u64 [s1 + 0x20] = a1\n 23881: a0 = a0 <u a2\n 23884: a1 = u64 [s1 + 0x98]\n 23888: a2 = u64 [s1 + 0x28]\n 23891: a1 = a2 - a1\n 23894: a2 = u64 [s1 + 0x10]\n 23897: a1 = a1 - a2\n 23900: a1 = a1 - a0\n 23903: u64 [s1 + 0x28] = a1\n 23906: a2 = u64 [s1 + 0x58]\n 23909: a0 = i32 [a2]\n 23911: a1 = u64 [s1 + 0x80]\n 23915: a3 = u64 [s1 + 0x30]\n 23918: a1 = a3 - a1\n 23921: a3 = u64 [s1 + 0x18]\n 23924: a1 = a1 - a3\n 23927: u64 [s1 + 0x30] = a1\n 23930: a4 = 0x3f\n 23933: a1 = u64 [s1 + 0x90]\n 23937: a3 = u64 [s1 + 0x50]\n 23940: a3 = a3 - a1\n 23943: u64 [s1 + 0x50] = a3\n 23946: jump @1115 if a4 <u a0\n      : @1114 (gas: 2)\n 23949: u32 [a2 + 0] = 0x40\n 23952: fallthrough\n      : @1115 (gas: 4)\n 23953: a0 = sp + 0xffffffffffffffe0\n 23956: a0 = a0 & 0xffffffffffffffe0\n 23959: u64 [s1 + 0x18] = a0\n 23962: t0 = 1192, jump @1364\n      : @1116 [@dyn 596] (gas: 5)\n 23968: ra = 0x4aa\n 23972: ecalli 6 // 'hash_keccak_256'\n 23974: a3 = u64 [s1 + 0x18]\n 23977: t0 = 0x4ac\n 23981: jump @1370\n      : @1117 [@dyn 597] (gas: 2)\n 23984: a3 = u64 [s1 + 0x18]\n 23987: t0 = 1196, jump @1370\n      : @1118 [@dyn 598] (gas: 9)\n 23993: a2 = u64 [s1 + 0x28]\n 23996: u64 [a1 + 0x18] = a2\n 23999: a2 = u64 [s1 + 0x20]\n 24002: u64 [a1 + 0x10] = a2\n 24005: a2 = u64 [s1 + 0x30]\n 24008: u64 [a1 + 0x8] = a2\n 24011: a2 = u64 [s1 + 0x50]\n 24014: u64 [a1] = a2\n 24016: ra = 1198, jump @1432\n      : @1119 [@dyn 599] (gas: 11)\n 24022: u64 [s1 + 664] = 0\n 24026: a0 = u64 [s1 + 0x38]\n 24029: a2 = s1 + 0x200\n 24033: u64 [a2 + 0x90] = a0\n 24037: a0 = u64 [s1 + 0x40]\n 24040: u64 [a2 + 0x88] = a0\n 24044: a1 = s1 + 0x280\n 24048: a0 = u64 [s1 + 0x48]\n 24051: u64 [a2 + 0x80] = a0\n 24055: a0 = 0\n 24057: ra = 1200, jump @1429\n      : @1120 [@dyn 600] (gas: 1)\n 24063: t0 = 1202, jump @1406\n      : @1121 [@dyn 601] (gas: 1)\n 24069: ra = 1204, jump @1429\n      : @1122 [@dyn 602] (gas: 7)\n 24075: a1 = u64 [s1 + 0x58]\n 24078: a0 = sp + 0xffffffffffffffe0\n 24081: a0 = a0 & 0xffffffffffffffe0\n 24084: u64 [s1 + 0x50] = a0\n 24087: sp = a0\n 24089: a0 = i32 [a1]\n 24091: jump @1124 if a0 >u 63\n      : @1123 (gas: 2)\n 24095: u32 [a1 + 0] = 0x40\n 24098: fallthrough\n      : @1124 (gas: 4)\n 24099: a0 = sp + 0xffffffffffffffe0\n 24102: a0 = a0 & 0xffffffffffffffe0\n 24105: u64 [s1 + 0x58] = a0\n 24108: t0 = 1206, jump @1364\n      : @1125 [@dyn 603] (gas: 17)\n 24114: ecalli 6 // 'hash_keccak_256'\n 24116: a3 = u64 [s1 + 0x58]\n 24119: a0 = u64 [a3 + 0x18]\n 24122: a1 = u64 [a3 + 0x10]\n 24125: a2 = u64 [a3 + 0x8]\n 24128: a3 = u64 [a3]\n 24130: a0 = reverse a0\n 24132: a4 = reverse a1\n 24134: a2 = reverse a2\n 24136: a3 = reverse a3\n 24138: a1 = u64 [s1 + 0x50]\n 24141: u64 [a1 + 0x18] = a3\n 24144: u64 [a1 + 0x10] = a2\n 24147: u64 [a1 + 0x8] = a4\n 24150: u64 [a1] = a0\n 24152: a0 = s1 + 0x240\n 24156: ra = 1208, jump @1431\n      : @1126 [@dyn 604] (gas: 20)\n 24162: a1 = u64 [s1 + 0x248]\n 24166: a2 = u64 [s1 + 0x240]\n 24170: t0 = u64 [s1 + 0x258]\n 24174: a4 = u64 [s1 + 0x250]\n 24178: a5 = u64 [s1 + 0x80]\n 24182: a5 = a5 + a1\n 24185: a0 = u64 [s1 + 0x90]\n 24189: a0 = a0 + a2\n 24192: a2 = a0 <u a2\n 24195: a5 = a5 + a2\n 24198: a3 = a5 ^ a1\n 24201: a1 = a5 <u a1\n 24204: a1 = a2 if a3 == 0\n 24207: a2 = u64 [s1 + 0x88]\n 24211: a2 = a2 + a4\n 24214: a3 = u64 [s1 + 0x98]\n 24218: t0 = t0 + a3\n 24221: a3 = a2 <u a4\n 24224: a3 = a3 + t0\n 24227: t0 = 1210, jump @1374\n      : @1127 [@dyn 605] (gas: 2)\n 24233: a0 = u64 [s1 + 0x50]\n 24236: ra = 1212, jump @1432\n      : @1128 [@dyn 606] (gas: 3)\n 24242: a0 = s1 + 0x220\n 24246: a1 = 0x40\n 24249: ra = 1214, jump @1427\n      : @1129 [@dyn 607] (gas: 6)\n 24255: a4 = s1 + 0x200\n 24259: a3 = u64 [a4 + 0x38]\n 24262: a1 = u64 [a4 + 0x30]\n 24265: a2 = u64 [a4 + 0x28]\n 24268: a0 = u64 [a4 + 0x20]\n 24271: t0 = 1216, jump @1368\n      : @1130 [@dyn 608] (gas: 1)\n 24277: jump @1134 if a1 != 0\n      : @1131 (gas: 12)\n 24281: a1 = u64 [s1 + 0x90]\n 24285: a3 = s1 + 0x200\n 24289: u64 [a3] = a1\n 24291: a1 = u64 [s1 + 0x80]\n 24295: u64 [a3 + 0x8] = a1\n 24298: a1 = u64 [s1 + 0x88]\n 24302: u64 [a3 + 0x10] = a1\n 24305: a1 = s1 + 0x200\n 24309: a2 = u64 [s1 + 0x98]\n 24313: u64 [a3 + 0x18] = a2\n 24316: u64 [s1 + 0x98] = a0\n 24320: ra = 1218, jump @1429\n      : @1132 [@dyn 609] (gas: 29)\n 24326: u64 [s1 + 440] = 0\n 24330: a0 = u64 [s1 + 0x38]\n 24333: a5 = s1 + 0x100\n 24337: u64 [a5 + 0xb0] = a0\n 24341: a0 = u64 [s1 + 0x40]\n 24344: u64 [a5 + 0xa8] = a0\n 24348: a0 = u64 [s1 + 0x48]\n 24351: u64 [a5 + 0xa0] = a0\n 24355: u64 [s1 + 472] = 0\n 24359: a0 = u64 [s1 + 0x68]\n 24362: u64 [a5 + 0xd0] = a0\n 24366: a0 = u64 [s1 + 0x70]\n 24369: u64 [a5 + 0xc8] = a0\n 24373: a0 = u64 [0x201c8]\n 24378: a1 = u64 [0x201d0]\n 24383: a2 = u64 [0x201d8]\n 24388: a3 = u64 [s1 + 0x78]\n 24391: u64 [a5 + 0xc0] = a3\n 24395: u64 [a5 + 0xf8] = a0\n 24399: u64 [a5 + 0xf0] = a1\n 24403: u64 [a5 + 0xe8] = a2\n 24407: a0 = u64 [0x201e0]\n 24412: a1 = 0x20\n 24415: a2 = s1 + 0x1e0\n 24419: a3 = s1 + 0x1c0\n 24423: a4 = s1 + 0x1a0\n 24427: u64 [a5 + 0xe0] = a0\n 24431: a0 = u64 [s1 + 0x98]\n 24435: ra = 1220, jump @1435\n      : @1133 [@dyn 610] (gas: 7)\n 24441: sp = s0 + 0xfffffffffffffca0\n 24445: a0 = sp + 0x300\n 24449: ra = u64 [a0 + 0x58]\n 24452: s0 = u64 [a0 + 0x50]\n 24455: s1 = u64 [a0 + 0x48]\n 24458: sp = sp + 0x360\n 24462: ret\n      : @1134 (gas: 1)\n 24464: trap\n      : @1135 (gas: 8)\n 24465: u64 [s1 + 208] = 0\n 24469: u64 [s1 + 200] = 0\n 24473: u64 [s1 + 192] = 0\n 24477: a0 = 0x96c6fd1e00000000\n 24487: a1 = s1 + 0xc0\n 24491: u64 [s1 + 0xd8] = a0\n 24495: a0 = 0\n 24497: ra = 1222, jump @1429\n      : @1136 [@dyn 611] (gas: 7)\n 24503: u64 [s1 + 184] = 0\n 24507: u64 [s1 + 176] = 0\n 24511: u64 [s1 + 168] = 0\n 24515: a0 = 0x4\n 24518: a1 = s1 + 0xa0\n 24522: u64 [s1 + 160] = 0\n 24526: ra = 1224, jump @1429\n      : @1137 [@dyn 612] (gas: 2)\n 24532: a1 = i32 [0x2026c]\n 24537: jump @1139 if a1 >u 63\n      : @1138 (gas: 3)\n 24541: u32 [0x2026c] = 0x40\n 24547: a1 = 0x20280\n 24552: jump @1145\n      : @1139 (gas: 2)\n 24554: a1 = 0x20280\n 24559: jump @1145\n      : @1140 (gas: 8)\n 24561: u64 [s1 + 272] = 0\n 24565: u64 [s1 + 264] = 0\n 24569: u64 [s1 + 256] = 0\n 24573: a0 = 0xec442f0500000000\n 24583: a1 = s1 + 0x100\n 24587: u64 [s1 + 0x118] = a0\n 24591: a0 = 0\n 24593: ra = 1226, jump @1429\n      : @1141 [@dyn 613] (gas: 7)\n 24599: u64 [s1 + 248] = 0\n 24603: u64 [s1 + 240] = 0\n 24607: u64 [s1 + 232] = 0\n 24611: a0 = 0x4\n 24614: a1 = s1 + 0xe0\n 24618: u64 [s1 + 224] = 0\n 24622: ra = 1228, jump @1429\n      : @1142 [@dyn 614] (gas: 2)\n 24628: a1 = i32 [0x2026c]\n 24633: jump @1144 if a1 >u 63\n      : @1143 (gas: 3)\n 24637: u32 [0x2026c] = 0x40\n 24643: a1 = 0x20280\n 24648: jump @1145\n      : @1144 (gas: 2)\n 24650: a1 = 0x20280\n 24655: fallthrough\n      : @1145 (gas: 5)\n 24656: i32 a1 = a1 + 0\n 24658: a0 = 0x1\n 24661: a2 = 0x24\n 24664: ecalli 7 // 'seal_return'\n 24666: fallthrough\n      : @1146 (gas: 8)\n 24667: u64 [s1 + 400] = 0\n 24671: u64 [s1 + 392] = 0\n 24675: u64 [s1 + 384] = 0\n 24679: a0 = 0xe450d38c00000000\n 24689: a1 = s1 + 0x180\n 24693: u64 [s1 + 0x198] = a0\n 24697: a0 = 0\n 24699: ra = 1230, jump @1429\n      : @1147 [@dyn 615] (gas: 10)\n 24705: u64 [s1 + 376] = 0\n 24709: a0 = u64 [s1 + 0x68]\n 24712: u64 [s1 + 0x170] = a0\n 24716: a0 = u64 [s1 + 0x70]\n 24719: u64 [s1 + 0x168] = a0\n 24723: a0 = 0x4\n 24726: a1 = s1 + 0x160\n 24730: a2 = u64 [s1 + 0x78]\n 24733: u64 [s1 + 0x160] = a2\n 24737: ra = 1232, jump @1429\n      : @1148 [@dyn 616] (gas: 11)\n 24743: a0 = u64 [s1 + 0x28]\n 24746: u64 [s1 + 0x158] = a0\n 24750: a0 = u64 [s1 + 0x20]\n 24753: u64 [s1 + 0x150] = a0\n 24757: a0 = u64 [s1 + 0x30]\n 24760: u64 [s1 + 0x148] = a0\n 24764: a0 = 0x24\n 24767: a1 = s1 + 0x140\n 24771: a2 = u64 [s1 + 0x50]\n 24774: u64 [s1 + 0x140] = a2\n 24778: ra = 1234, jump @1429\n      : @1149 [@dyn 617] (gas: 12)\n 24784: a0 = u64 [s1 + 0x98]\n 24788: a3 = s1 + 0x100\n 24792: u64 [a3 + 0x38] = a0\n 24795: a0 = u64 [s1 + 0x88]\n 24799: u64 [a3 + 0x30] = a0\n 24802: a0 = u64 [s1 + 0x80]\n 24806: u64 [a3 + 0x28] = a0\n 24809: a0 = 0x44\n 24812: a1 = s1 + 0x120\n 24816: a2 = u64 [s1 + 0x90]\n 24820: u64 [a3 + 0x20] = a2\n 24823: ra = 1236, jump @1429\n      : @1150 [@dyn 618] (gas: 3)\n 24829: a0 = u64 [s1 + 0x58]\n 24832: a0 = i32 [a0]\n 24834: jump @1152 if a0 >u 127\n      : @1151 (gas: 3)\n 24838: a1 = u64 [s1 + 0x58]\n 24841: u32 [a1 + 0] = 0x80\n 24845: fallthrough\n      : @1152 (gas: 6)\n 24846: a0 = 0x1\n 24849: a2 = 0x64\n 24852: a1 = u64 [s1 + 0x60]\n 24855: ra = 0x4d6\n 24859: ecalli 7 // 'seal_return'\n 24861: fallthrough\n      : @1153 [@dyn 619] (gas: 22)\n 24862: sp = sp + 0xfffffffffffffe60\n 24866: u64 [sp + 0x198] = ra\n 24870: u64 [sp + 0x190] = s0\n 24874: u64 [sp + 0x188] = s1\n 24878: s0 = sp + 0x1a0\n 24882: sp = sp & 0xffffffffffffffe0\n 24885: s1 = sp\n 24887: a0 = u64 [0x201e8]\n 24892: u64 [s1 + 0x38] = a0\n 24895: u64 [s1 + 0x178] = a0\n 24899: a1 = u64 [0x201f0]\n 24904: a2 = u64 [0x201f8]\n 24909: a0 = u64 [0x20200]\n 24914: u64 [s1 + 0x28] = a1\n 24917: u64 [s1 + 0x170] = a1\n 24921: u64 [s1 + 0x20] = a2\n 24924: u64 [s1 + 0x168] = a2\n 24928: a1 = s1 + 0x160\n 24932: u64 [s1 + 0x30] = a0\n 24935: u64 [s1 + 0x160] = a0\n 24939: a0 = 0\n 24941: ra = 1240, jump @1429\n      : @1154 [@dyn 620] (gas: 1)\n 24947: t0 = 1242, jump @1376\n      : @1155 [@dyn 621] (gas: 1)\n 24953: ra = 1244, jump @1429\n      : @1156 [@dyn 622] (gas: 3)\n 24959: a1 = 0x2026c\n 24964: a0 = i32 [0x2026c]\n 24969: jump @1158 if a0 >u 63\n      : @1157 (gas: 2)\n 24973: u32 [0x2026c] = 0x40\n 24979: fallthrough\n      : @1158 (gas: 14)\n 24980: a0 = sp + 0xffffffffffffffe0\n 24983: a2 = a0 & 0xffffffffffffffe0\n 24986: u64 [s1 + 0x68] = a2\n 24989: sp = a2\n 24991: a0 = 0x20280\n 24996: i32 a0 = a0 + 0\n 24998: i32 a2 = a2 + 0\n 25000: u64 [s1 + 0x78] = a1\n 25003: a1 = 0x40\n 25006: u64 [s1 + 0x70] = a0\n 25009: ra = 0x4de\n 25013: ecalli 6 // 'hash_keccak_256'\n 25015: t0 = 0x4e0\n 25019: jump @1375\n      : @1159 [@dyn 623] (gas: 1)\n 25022: t0 = 1248, jump @1375\n      : @1160 [@dyn 624] (gas: 8)\n 25028: a0 = 0x30280\n 25033: u64 [s1 + 0x68] = a0\n 25036: i32 a0 = a0 + 0\n 25038: u64 [s1 + 0x18] = a0\n 25041: ra = 0x4e2\n 25045: ecalli 3 // 'caller'\n 25047: t0 = 0x4e4\n 25051: jump @1365\n      : @1161 [@dyn 625] (gas: 1)\n 25054: t0 = 1252, jump @1365\n      : @1162 [@dyn 626] (gas: 1)\n 25060: ra = 1254, jump @1429\n      : @1163 [@dyn 627] (gas: 1)\n 25066: t0 = 1256, jump @1393\n      : @1164 [@dyn 628] (gas: 1)\n 25072: ra = 1258, jump @1429\n      : @1165 [@dyn 629] (gas: 3)\n 25078: a1 = u64 [s1 + 0x78]\n 25081: a0 = i32 [a1]\n 25083: jump @1167 if a0 >u 63\n      : @1166 (gas: 3)\n 25087: u32 [a1 + 0] = 0x40\n 25090: t0 = 0x4ec\n 25094: jump @1421\n      : @1167 (gas: 1)\n 25097: t0 = 1260, jump @1421\n      : @1168 [@dyn 630] (gas: 4)\n 25103: ra = 0x4ee\n 25107: ecalli 6 // 'hash_keccak_256'\n 25109: t0 = 0x4f0\n 25113: jump @1378\n      : @1169 [@dyn 631] (gas: 1)\n 25116: t0 = 1264, jump @1378\n      : @1170 [@dyn 632] (gas: 1)\n 25122: ra = 1266, jump @1431\n      : @1171 [@dyn 633] (gas: 2)\n 25128: a0 = u8 [s1 + 0xe0]\n 25132: jump @1173 if a0 == 0\n      : @1172 (gas: 6)\n 25135: sp = s0 + 0xfffffffffffffe60\n 25139: ra = u64 [sp + 0x198]\n 25143: s0 = u64 [sp + 0x190]\n 25147: s1 = u64 [sp + 0x188]\n 25151: sp = sp + 0x1a0\n 25155: ret\n      : @1173 (gas: 1)\n 25157: t0 = 1268, jump @1391\n      : @1174 [@dyn 634] (gas: 1)\n 25163: ra = 1270, jump @1429\n      : @1175 [@dyn 635] (gas: 5)\n 25169: a0 = u64 [s1 + 0x18]\n 25172: ra = 0x4f8\n 25176: ecalli 3 // 'caller'\n 25178: t0 = 0x4fa\n 25182: jump @1369\n      : @1176 [@dyn 636] (gas: 1)\n 25185: t0 = 1274, jump @1369\n      : @1177 [@dyn 637] (gas: 1)\n 25191: ra = 1276, jump @1429\n      : @1178 [@dyn 638] (gas: 11)\n 25197: a0 = u64 [s1 + 0x38]\n 25200: u64 [s1 + 0x98] = a0\n 25204: a0 = u64 [s1 + 0x28]\n 25207: u64 [s1 + 0x90] = a0\n 25211: a0 = u64 [s1 + 0x20]\n 25214: u64 [s1 + 0x88] = a0\n 25218: a0 = 0x24\n 25221: a1 = s1 + 0x80\n 25225: a2 = u64 [s1 + 0x30]\n 25228: u64 [s1 + 0x80] = a2\n 25232: ra = 1278, jump @1429\n      : @1179 [@dyn 639] (gas: 3)\n 25238: a0 = u64 [s1 + 0x78]\n 25241: a0 = i32 [a0]\n 25243: jump @1181 if a0 >u 95\n      : @1180 (gas: 3)\n 25247: a1 = u64 [s1 + 0x78]\n 25250: u32 [a1 + 0] = 0x60\n 25253: fallthrough\n      : @1181 (gas: 6)\n 25254: a0 = 0x1\n 25257: a2 = 0x44\n 25260: a1 = u64 [s1 + 0x70]\n 25263: ra = 0x500\n 25267: ecalli 7 // 'seal_return'\n 25269: fallthrough\n      : @1182 [@dyn 640] (gas: 22)\n 25270: sp = sp + 0xfffffffffffffe60\n 25274: u64 [sp + 0x198] = ra\n 25278: u64 [sp + 0x190] = s0\n 25282: u64 [sp + 0x188] = s1\n 25286: s0 = sp + 0x1a0\n 25290: sp = sp & 0xffffffffffffffe0\n 25293: s1 = sp\n 25295: a2 = u64 [a0]\n 25297: a1 = u64 [a0 + 0x8]\n 25300: a3 = u64 [a0 + 0x10]\n 25303: a0 = u64 [a0 + 0x18]\n 25306: u64 [s1 + 0x20] = a0\n 25309: u64 [s1 + 0x178] = a0\n 25313: u64 [s1 + 0x28] = a3\n 25316: u64 [s1 + 0x170] = a3\n 25320: u64 [s1 + 0x30] = a1\n 25323: u64 [s1 + 0x168] = a1\n 25327: a1 = s1 + 0x160\n 25331: u64 [s1 + 0x38] = a2\n 25334: u64 [s1 + 0x160] = a2\n 25338: a0 = 0\n 25340: ra = 1282, jump @1429\n      : @1183 [@dyn 641] (gas: 1)\n 25346: t0 = 1284, jump @1376\n      : @1184 [@dyn 642] (gas: 1)\n 25352: ra = 1286, jump @1429\n      : @1185 [@dyn 643] (gas: 3)\n 25358: a1 = 0x2026c\n 25363: a0 = i32 [0x2026c]\n 25368: jump @1187 if a0 >u 63\n      : @1186 (gas: 2)\n 25372: u32 [0x2026c] = 0x40\n 25378: fallthrough\n      : @1187 (gas: 14)\n 25379: a0 = sp + 0xffffffffffffffe0\n 25382: a2 = a0 & 0xffffffffffffffe0\n 25385: u64 [s1 + 0x68] = a2\n 25388: sp = a2\n 25390: a0 = 0x20280\n 25395: i32 a0 = a0 + 0\n 25397: i32 a2 = a2 + 0\n 25399: u64 [s1 + 0x78] = a1\n 25402: a1 = 0x40\n 25405: u64 [s1 + 0x70] = a0\n 25408: ra = 0x508\n 25412: ecalli 6 // 'hash_keccak_256'\n 25414: t0 = 0x50a\n 25418: jump @1375\n      : @1188 [@dyn 644] (gas: 1)\n 25421: t0 = 1290, jump @1375\n      : @1189 [@dyn 645] (gas: 8)\n 25427: a0 = 0x30280\n 25432: u64 [s1 + 0x68] = a0\n 25435: i32 a0 = a0 + 0\n 25437: u64 [s1 + 0x18] = a0\n 25440: ra = 0x50c\n 25444: ecalli 3 // 'caller'\n 25446: t0 = 0x50e\n 25450: jump @1365\n      : @1190 [@dyn 646] (gas: 1)\n 25453: t0 = 1294, jump @1365\n      : @1191 [@dyn 647] (gas: 1)\n 25459: ra = 1296, jump @1429\n      : @1192 [@dyn 648] (gas: 1)\n 25465: t0 = 1298, jump @1393\n      : @1193 [@dyn 649] (gas: 1)\n 25471: ra = 1300, jump @1429\n      : @1194 [@dyn 650] (gas: 3)\n 25477: a1 = u64 [s1 + 0x78]\n 25480: a0 = i32 [a1]\n 25482: jump @1196 if a0 >u 63\n      : @1195 (gas: 3)\n 25486: u32 [a1 + 0] = 0x40\n 25489: t0 = 0x516\n 25493: jump @1421\n      : @1196 (gas: 1)\n 25496: t0 = 1302, jump @1421\n      : @1197 [@dyn 651] (gas: 4)\n 25502: ra = 0x518\n 25506: ecalli 6 // 'hash_keccak_256'\n 25508: t0 = 0x51a\n 25512: jump @1378\n      : @1198 [@dyn 652] (gas: 1)\n 25515: t0 = 1306, jump @1378\n      : @1199 [@dyn 653] (gas: 1)\n 25521: ra = 1308, jump @1431\n      : @1200 [@dyn 654] (gas: 2)\n 25527: a0 = u8 [s1 + 0xe0]\n 25531: jump @1202 if a0 == 0\n      : @1201 (gas: 6)\n 25534: sp = s0 + 0xfffffffffffffe60\n 25538: ra = u64 [sp + 0x198]\n 25542: s0 = u64 [sp + 0x190]\n 25546: s1 = u64 [sp + 0x188]\n 25550: sp = sp + 0x1a0\n 25554: ret\n      : @1202 (gas: 1)\n 25556: t0 = 1310, jump @1391\n      : @1203 [@dyn 655] (gas: 1)\n 25562: ra = 1312, jump @1429\n      : @1204 [@dyn 656] (gas: 5)\n 25568: a0 = u64 [s1 + 0x18]\n 25571: ra = 0x522\n 25575: ecalli 3 // 'caller'\n 25577: t0 = 0x524\n 25581: jump @1369\n      : @1205 [@dyn 657] (gas: 1)\n 25584: t0 = 1316, jump @1369\n      : @1206 [@dyn 658] (gas: 1)\n 25590: ra = 1318, jump @1429\n      : @1207 [@dyn 659] (gas: 11)\n 25596: a0 = u64 [s1 + 0x20]\n 25599: u64 [s1 + 0x98] = a0\n 25603: a0 = u64 [s1 + 0x28]\n 25606: u64 [s1 + 0x90] = a0\n 25610: a0 = u64 [s1 + 0x30]\n 25613: u64 [s1 + 0x88] = a0\n 25617: a0 = 0x24\n 25620: a1 = s1 + 0x80\n 25624: a2 = u64 [s1 + 0x38]\n 25627: u64 [s1 + 0x80] = a2\n 25631: ra = 1320, jump @1429\n      : @1208 [@dyn 660] (gas: 3)\n 25637: a0 = u64 [s1 + 0x78]\n 25640: a0 = i32 [a0]\n 25642: jump @1210 if a0 >u 95\n      : @1209 (gas: 3)\n 25646: a1 = u64 [s1 + 0x78]\n 25649: u32 [a1 + 0] = 0x60\n 25652: fallthrough\n      : @1210 (gas: 6)\n 25653: a0 = 0x1\n 25656: a2 = 0x44\n 25659: a1 = u64 [s1 + 0x70]\n 25662: ra = 0x52a\n 25666: ecalli 7 // 'seal_return'\n 25668: fallthrough\n      : @1211 [@dyn 661] (gas: 30)\n 25669: sp = sp + 0xfffffffffffffda0\n 25673: a3 = sp + 0x200\n 25677: u64 [a3 + 0x58] = ra\n 25680: u64 [a3 + 0x50] = s0\n 25683: u64 [a3 + 0x48] = s1\n 25686: s0 = sp + 0x260\n 25690: sp = sp & 0xffffffffffffffe0\n 25693: s1 = sp\n 25695: a3 = u64 [a2 + 0x10]\n 25698: u64 [s1 + 0x50] = a3\n 25701: a3 = u64 [a2 + 0x8]\n 25704: u64 [s1 + 0x70] = a3\n 25707: a2 = u64 [a2]\n 25709: u64 [s1 + 0x78] = a2\n 25712: a2 = u64 [a1]\n 25714: a3 = u64 [a1 + 0x8]\n 25717: a4 = u64 [a1 + 0x10]\n 25720: a1 = u64 [a1 + 0x18]\n 25723: u64 [s1 + 0x58] = a0\n 25726: u64 [s1 + 0x8] = a1\n 25729: u64 [s1 + 0x238] = a1\n 25733: u64 [s1 + 0x10] = a4\n 25736: u64 [s1 + 0x230] = a4\n 25740: u64 [s1 + 0x18] = a3\n 25743: u64 [s1 + 0x228] = a3\n 25747: a1 = s1 + 0x220\n 25751: u64 [s1 + 0x20] = a2\n 25754: u64 [s1 + 0x220] = a2\n 25758: a0 = 0\n 25760: ra = 1324, jump @1429\n      : @1212 [@dyn 662] (gas: 1)\n 25766: t0 = 1326, jump @1360\n      : @1213 [@dyn 663] (gas: 1)\n 25772: ra = 1328, jump @1429\n      : @1214 [@dyn 664] (gas: 3)\n 25778: a1 = 0x2026c\n 25783: a0 = i32 [0x2026c]\n 25788: jump @1216 if a0 >u 63\n      : @1215 (gas: 2)\n 25792: u32 [0x2026c] = 0x40\n 25798: fallthrough\n      : @1216 (gas: 6)\n 25799: a0 = sp + 0xffffffffffffffe0\n 25802: a2 = a0 & 0xffffffffffffffe0\n 25805: u64 [s1 + 0x48] = a2\n 25808: sp = a2\n 25810: a0 = 0x20280\n 25815: t0 = 1330, jump @1419\n      : @1217 [@dyn 665] (gas: 4)\n 25821: ra = 0x534\n 25825: ecalli 6 // 'hash_keccak_256'\n 25827: t0 = 0x536\n 25831: jump @1347\n      : @1218 [@dyn 666] (gas: 1)\n 25834: t0 = 1334, jump @1347\n      : @1219 [@dyn 667] (gas: 1)\n 25840: ra = 1336, jump @1429\n      : @1220 [@dyn 668] (gas: 1)\n 25846: t0 = 1338, jump @1373\n      : @1221 [@dyn 669] (gas: 1)\n 25852: ra = 1340, jump @1429\n      : @1222 [@dyn 670] (gas: 3)\n 25858: a1 = u64 [s1 + 0x68]\n 25861: a0 = i32 [a1]\n 25863: jump @1224 if a0 >u 63\n      : @1223 (gas: 3)\n 25867: u32 [a1 + 0] = 0x40\n 25870: t0 = 0x53e\n 25874: jump @1358\n      : @1224 (gas: 1)\n 25877: t0 = 1342, jump @1358\n      : @1225 [@dyn 671] (gas: 4)\n 25883: ra = 0x540\n 25887: ecalli 6 // 'hash_keccak_256'\n 25889: t0 = 0x542\n 25893: jump @1353\n      : @1226 [@dyn 672] (gas: 1)\n 25896: t0 = 1346, jump @1353\n      : @1227 [@dyn 673] (gas: 1)\n 25902: ra = 1348, jump @1431\n      : @1228 [@dyn 674] (gas: 2)\n 25908: a0 = u8 [s1 + 0x1a0]\n 25912: jump @1230 if a0 == 0\n      : @1229 (gas: 5)\n 25915: a1 = 0\n 25917: a0 = 0\n 25919: a2 = u64 [s1 + 0x58]\n 25922: t0 = 0x56a\n 25926: jump @1362\n      : @1230 (gas: 11)\n 25929: a0 = u64 [s1 + 0x20]\n 25932: u64 [s1 + 0x180] = a0\n 25936: a0 = u64 [s1 + 0x18]\n 25939: u64 [s1 + 0x188] = a0\n 25943: a0 = u64 [s1 + 0x10]\n 25946: u64 [s1 + 0x190] = a0\n 25950: a1 = s1 + 0x180\n 25954: a0 = u64 [s1 + 0x8]\n 25957: u64 [s1 + 0x198] = a0\n 25961: a0 = 0\n 25963: ra = 1350, jump @1429\n      : @1231 [@dyn 675] (gas: 1)\n 25969: t0 = 1352, jump @1361\n      : @1232 [@dyn 676] (gas: 1)\n 25975: ra = 1354, jump @1429\n      : @1233 [@dyn 677] (gas: 3)\n 25981: a1 = u64 [s1 + 0x68]\n 25984: a0 = i32 [a1]\n 25986: jump @1235 if a0 >u 63\n      : @1234 (gas: 3)\n 25990: u32 [a1 + 0] = 0x40\n 25993: t0 = 0x54c\n 25997: jump @1358\n      : @1235 (gas: 1)\n 26000: t0 = 1356, jump @1358\n      : @1236 [@dyn 678] (gas: 4)\n 26006: ra = 0x54e\n 26010: ecalli 6 // 'hash_keccak_256'\n 26012: t0 = 0x550\n 26016: jump @1349\n      : @1237 [@dyn 679] (gas: 1)\n 26019: t0 = 1360, jump @1349\n      : @1238 [@dyn 680] (gas: 1)\n 26025: ra = 1362, jump @1429\n      : @1239 [@dyn 681] (gas: 1)\n 26031: t0 = 1364, jump @1371\n      : @1240 [@dyn 682] (gas: 1)\n 26037: ra = 1366, jump @1429\n      : @1241 [@dyn 683] (gas: 3)\n 26043: a1 = u64 [s1 + 0x68]\n 26046: a0 = i32 [a1]\n 26048: jump @1243 if a0 >u 63\n      : @1242 (gas: 2)\n 26052: u32 [a1 + 0] = 0x40\n 26055: fallthrough\n      : @1243 (gas: 4)\n 26056: a0 = sp + 0xffffffffffffffe0\n 26059: a0 = a0 & 0xffffffffffffffe0\n 26062: u64 [s1 + 0x68] = a0\n 26065: t0 = 1368, jump @1364\n      : @1244 [@dyn 684] (gas: 4)\n 26071: ra = 0x55a\n 26075: ecalli 6 // 'hash_keccak_256'\n 26077: t0 = 0x55c\n 26081: jump @1356\n      : @1245 [@dyn 685] (gas: 1)\n 26084: t0 = 1372, jump @1356\n      : @1246 [@dyn 686] (gas: 1)\n 26090: ra = 1374, jump @1431\n      : @1247 [@dyn 687] (gas: 1)\n 26096: t0 = 1376, jump @1357\n      : @1248 [@dyn 688] (gas: 1)\n 26102: ra = 1378, jump @1432\n      : @1249 [@dyn 689] (gas: 8)\n 26108: a0 = 0x30280\n 26113: u64 [s1 + 0x68] = a0\n 26116: i32 a0 = a0 + 0\n 26118: ra = 0x564\n 26122: ecalli 3 // 'caller'\n 26124: a2 = u64 [s1 + 0x68]\n 26127: t0 = 0x566\n 26131: jump @1352\n      : @1250 [@dyn 690] (gas: 2)\n 26134: a2 = u64 [s1 + 0x68]\n 26137: t0 = 1382, jump @1352\n      : @1251 [@dyn 691] (gas: 40)\n 26143: t0 = a1 | a0\n 26146: a3 = a3 >> 0x20\n 26149: a2 = reverse a2\n 26151: a1 = a2 << 0x20\n 26154: a1 = a1 | a3\n 26157: a2 = a2 >> 0x20\n 26160: u64 [s1 + 152] = 0\n 26164: u64 [s1 + 184] = 0\n 26168: a0 = u64 [s1]\n 26170: u64 [s1 + 0xb0] = a0\n 26174: a0 = u64 [s1 + 0x70]\n 26177: u64 [s1 + 0xa8] = a0\n 26181: a0 = u64 [s1 + 0x78]\n 26184: u64 [s1 + 0xa0] = a0\n 26188: a0 = u64 [s1 + 0x8]\n 26191: u64 [s1 + 0xd8] = a0\n 26195: a0 = u64 [s1 + 0x10]\n 26198: u64 [s1 + 0xd0] = a0\n 26202: a0 = u64 [s1 + 0x18]\n 26205: u64 [s1 + 0xc8] = a0\n 26209: a0 = u64 [s1 + 0x20]\n 26212: u64 [s1 + 0xc0] = a0\n 26216: a3 = u64 [0x20208]\n 26221: a4 = u64 [0x20210]\n 26226: a5 = u64 [0x20218]\n 26231: a0 = u64 [0x20220]\n 26236: u64 [s1 + 0xf8] = a3\n 26240: u64 [s1 + 0xf0] = a4\n 26244: u64 [s1 + 0xe8] = a5\n 26248: u64 [s1 + 0xe0] = a0\n 26252: u64 [s1 + 0x90] = a2\n 26256: u64 [s1 + 0x88] = a1\n 26260: a2 = s1 + 0xe0\n 26264: a3 = s1 + 0xc0\n 26268: a4 = s1 + 0xa0\n 26272: a5 = s1 + 0x80\n 26276: u64 [s1 + 0x80] = t0\n 26280: a0 = 0\n 26282: a1 = 0\n 26284: ra = 1384, jump @1437\n      : @1252 [@dyn 692] (gas: 4)\n 26290: a0 = 0\n 26292: a1 = 0x1\n 26295: a2 = u64 [s1 + 0x58]\n 26298: t0 = 1386, jump @1362\n      : @1253 [@dyn 693] (gas: 1)\n 26304: ret\n      : @1254 (gas: 30)\n 26306: sp = sp + 0xfffffffffffffda0\n 26310: a3 = sp + 0x200\n 26314: u64 [a3 + 0x58] = ra\n 26317: u64 [a3 + 0x50] = s0\n 26320: u64 [a3 + 0x48] = s1\n 26323: s0 = sp + 0x260\n 26327: sp = sp & 0xffffffffffffffe0\n 26330: s1 = sp\n 26332: a3 = u64 [a2 + 0x10]\n 26335: u64 [s1 + 0x38] = a3\n 26338: a3 = u64 [a2 + 0x8]\n 26341: u64 [s1 + 0x70] = a3\n 26344: a2 = u64 [a2]\n 26346: u64 [s1 + 0x78] = a2\n 26349: a2 = u64 [a1]\n 26351: a3 = u64 [a1 + 0x8]\n 26354: a4 = u64 [a1 + 0x10]\n 26357: a1 = u64 [a1 + 0x18]\n 26360: u64 [s1 + 0x30] = a0\n 26363: u64 [s1 + 0x40] = a1\n 26366: u64 [s1 + 0x238] = a1\n 26370: u64 [s1 + 0x48] = a4\n 26373: u64 [s1 + 0x230] = a4\n 26377: u64 [s1 + 0x50] = a3\n 26380: u64 [s1 + 0x228] = a3\n 26384: a1 = s1 + 0x220\n 26388: u64 [s1 + 0x58] = a2\n 26391: u64 [s1 + 0x220] = a2\n 26395: a0 = 0\n 26397: ra = 1388, jump @1429\n      : @1255 [@dyn 694] (gas: 1)\n 26403: t0 = 1390, jump @1360\n      : @1256 [@dyn 695] (gas: 1)\n 26409: ra = 1392, jump @1429\n      : @1257 [@dyn 696] (gas: 3)\n 26415: a1 = 0x2026c\n 26420: a0 = i32 [0x2026c]\n 26425: jump @1259 if a0 >u 63\n      : @1258 (gas: 2)\n 26429: u32 [0x2026c] = 0x40\n 26435: fallthrough\n      : @1259 (gas: 6)\n 26436: a0 = sp + 0xffffffffffffffe0\n 26439: a2 = a0 & 0xffffffffffffffe0\n 26442: u64 [s1 + 0x28] = a2\n 26445: sp = a2\n 26447: a0 = 0x20280\n 26452: t0 = 1394, jump @1419\n      : @1260 [@dyn 697] (gas: 4)\n 26458: ra = 0x574\n 26462: ecalli 6 // 'hash_keccak_256'\n 26464: t0 = 0x576\n 26468: jump @1351\n      : @1261 [@dyn 698] (gas: 1)\n 26471: t0 = 1398, jump @1351\n      : @1262 [@dyn 699] (gas: 13)\n 26477: a0 = u64 [s1 + 0x38]\n 26480: a0 = a0 << 0x20\n 26483: a0 = a0 >> 0x20\n 26486: u64 [s1 + 504] = 0\n 26490: u64 [s1 + 0x38] = a0\n 26493: u64 [s1 + 0x1f0] = a0\n 26497: a0 = u64 [s1 + 0x70]\n 26500: u64 [s1 + 0x1e8] = a0\n 26504: a1 = s1 + 0x1e0\n 26508: a0 = u64 [s1 + 0x78]\n 26511: u64 [s1 + 0x1e0] = a0\n 26515: a0 = 0\n 26517: ra = 1400, jump @1429\n      : @1263 [@dyn 700] (gas: 12)\n 26523: a0 = u64 [s1 + 0x8]\n 26526: a3 = s1 + 0x100\n 26530: u64 [a3 + 0xd8] = a0\n 26534: a0 = u64 [s1 + 0x10]\n 26537: u64 [a3 + 0xd0] = a0\n 26541: a0 = u64 [s1 + 0x18]\n 26544: u64 [a3 + 0xc8] = a0\n 26548: a0 = 0x20\n 26551: a1 = s1 + 0x1c0\n 26555: a2 = u64 [s1 + 0x20]\n 26558: u64 [a3 + 0xc0] = a2\n 26562: ra = 1402, jump @1429\n      : @1264 [@dyn 701] (gas: 3)\n 26568: a1 = u64 [s1 + 0x68]\n 26571: a0 = i32 [a1]\n 26573: jump @1266 if a0 >u 63\n      : @1265 (gas: 2)\n 26577: u32 [a1 + 0] = 0x40\n 26580: fallthrough\n      : @1266 (gas: 4)\n 26581: a0 = sp + 0xffffffffffffffe0\n 26584: a0 = a0 & 0xffffffffffffffe0\n 26587: u64 [s1 + 0x20] = a0\n 26590: t0 = 1404, jump @1364\n      : @1267 [@dyn 702] (gas: 5)\n 26596: ra = 0x57e\n 26600: ecalli 6 // 'hash_keccak_256'\n 26602: a3 = u64 [s1 + 0x20]\n 26605: t0 = 0x580\n 26609: jump @1363\n      : @1268 [@dyn 703] (gas: 2)\n 26612: a3 = u64 [s1 + 0x20]\n 26615: t0 = 1408, jump @1363\n      : @1269 [@dyn 704] (gas: 2)\n 26621: a0 = s1 + 0x1a0\n 26625: ra = 1410, jump @1431\n      : @1270 [@dyn 705] (gas: 2)\n 26631: a0 = u8 [s1 + 0x1a0]\n 26635: jump @1292 if a0 == 0\n      : @1271 (gas: 11)\n 26639: a0 = u64 [s1 + 0x58]\n 26642: u64 [s1 + 0x180] = a0\n 26646: a0 = u64 [s1 + 0x50]\n 26649: u64 [s1 + 0x188] = a0\n 26653: a0 = u64 [s1 + 0x48]\n 26656: u64 [s1 + 0x190] = a0\n 26660: a1 = s1 + 0x180\n 26664: a0 = u64 [s1 + 0x40]\n 26667: u64 [s1 + 0x198] = a0\n 26671: a0 = 0\n 26673: ra = 1412, jump @1429\n      : @1272 [@dyn 706] (gas: 1)\n 26679: t0 = 1414, jump @1361\n      : @1273 [@dyn 707] (gas: 1)\n 26685: ra = 1416, jump @1429\n      : @1274 [@dyn 708] (gas: 3)\n 26691: a1 = u64 [s1 + 0x68]\n 26694: a0 = i32 [a1]\n 26696: jump @1276 if a0 >u 63\n      : @1275 (gas: 2)\n 26700: u32 [a1 + 0] = 0x40\n 26703: fallthrough\n      : @1276 (gas: 4)\n 26704: a0 = sp + 0xffffffffffffffe0\n 26707: a0 = a0 & 0xffffffffffffffe0\n 26710: u64 [s1 + 0x28] = a0\n 26713: t0 = 1418, jump @1364\n      : @1277 [@dyn 709] (gas: 4)\n 26719: ra = 0x58c\n 26723: ecalli 6 // 'hash_keccak_256'\n 26725: t0 = 0x58e\n 26729: jump @1351\n      : @1278 [@dyn 710] (gas: 1)\n 26732: t0 = 1422, jump @1351\n      : @1279 [@dyn 711] (gas: 10)\n 26738: u64 [s1 + 344] = 0\n 26742: a0 = u64 [s1 + 0x38]\n 26745: u64 [s1 + 0x150] = a0\n 26749: a0 = u64 [s1 + 0x70]\n 26752: u64 [s1 + 0x148] = a0\n 26756: a1 = s1 + 0x140\n 26760: a0 = u64 [s1 + 0x78]\n 26763: u64 [s1 + 0x140] = a0\n 26767: a0 = 0\n 26769: ra = 1424, jump @1429\n      : @1280 [@dyn 712] (gas: 12)\n 26775: a0 = u64 [s1 + 0x8]\n 26778: a3 = s1 + 0x100\n 26782: u64 [a3 + 0x38] = a0\n 26785: a0 = u64 [s1 + 0x10]\n 26788: u64 [a3 + 0x30] = a0\n 26791: a0 = u64 [s1 + 0x18]\n 26794: u64 [a3 + 0x28] = a0\n 26797: a0 = 0x20\n 26800: a1 = s1 + 0x120\n 26804: a2 = u64 [s1 + 0x20]\n 26807: u64 [a3 + 0x20] = a2\n 26810: ra = 1426, jump @1429\n      : @1281 [@dyn 713] (gas: 3)\n 26816: a1 = u64 [s1 + 0x68]\n 26819: a0 = i32 [a1]\n 26821: jump @1283 if a0 >u 63\n      : @1282 (gas: 2)\n 26825: u32 [a1 + 0] = 0x40\n 26828: fallthrough\n      : @1283 (gas: 4)\n 26829: a0 = sp + 0xffffffffffffffe0\n 26832: a0 = a0 & 0xffffffffffffffe0\n 26835: u64 [s1 + 0x68] = a0\n 26838: t0 = 1428, jump @1364\n      : @1284 [@dyn 714] (gas: 5)\n 26844: ra = 0x596\n 26848: ecalli 6 // 'hash_keccak_256'\n 26850: a3 = u64 [s1 + 0x68]\n 26853: t0 = 0x598\n 26857: jump @1363\n      : @1285 [@dyn 715] (gas: 2)\n 26860: a3 = u64 [s1 + 0x68]\n 26863: t0 = 1432, jump @1363\n      : @1286 [@dyn 716] (gas: 2)\n 26869: a0 = s1 + 0x100\n 26873: ra = 1434, jump @1431\n      : @1287 [@dyn 717] (gas: 15)\n 26879: a4 = s1 + 0x100\n 26883: a0 = u64 [a4 + 0x8]\n 26886: a2 = u64 [a4 + 0x10]\n 26889: a1 = u64 [a4]\n 26891: a3 = u64 [a4 + 0x18]\n 26894: a4 = a1 & 0xffffffffffffff00\n 26898: a1 = sp + 0xffffffffffffffe0\n 26901: a1 = a1 & 0xffffffffffffffe0\n 26904: sp = a1\n 26906: u64 [a1 + 0x18] = a3\n 26909: u64 [a1 + 0x10] = a2\n 26912: u64 [a1 + 0x8] = a0\n 26915: u64 [a1] = a4\n 26917: a0 = u64 [s1 + 0x28]\n 26920: ra = 1436, jump @1432\n      : @1288 [@dyn 718] (gas: 8)\n 26926: a0 = 0x30280\n 26931: u64 [s1 + 0x68] = a0\n 26934: i32 a0 = a0 + 0\n 26936: ra = 0x59e\n 26940: ecalli 3 // 'caller'\n 26942: a2 = u64 [s1 + 0x68]\n 26945: t0 = 0x5a0\n 26949: jump @1352\n      : @1289 [@dyn 719] (gas: 2)\n 26952: a2 = u64 [s1 + 0x68]\n 26955: t0 = 1440, jump @1352\n      : @1290 [@dyn 720] (gas: 40)\n 26961: t0 = a1 | a0\n 26964: a3 = a3 >> 0x20\n 26967: a2 = reverse a2\n 26969: a1 = a2 << 0x20\n 26972: a1 = a1 | a3\n 26975: a2 = a2 >> 0x20\n 26978: u64 [s1 + 152] = 0\n 26982: u64 [s1 + 184] = 0\n 26986: a0 = u64 [s1 + 0x38]\n 26989: u64 [s1 + 0xb0] = a0\n 26993: a0 = u64 [s1 + 0x70]\n 26996: u64 [s1 + 0xa8] = a0\n 27000: a0 = u64 [s1 + 0x78]\n 27003: u64 [s1 + 0xa0] = a0\n 27007: a0 = u64 [s1 + 0x40]\n 27010: u64 [s1 + 0xd8] = a0\n 27014: a0 = u64 [s1 + 0x48]\n 27017: u64 [s1 + 0xd0] = a0\n 27021: a0 = u64 [s1 + 0x50]\n 27024: u64 [s1 + 0xc8] = a0\n 27028: a0 = u64 [s1 + 0x58]\n 27031: u64 [s1 + 0xc0] = a0\n 27035: a3 = u64 [0x20228]\n 27040: a4 = u64 [0x20230]\n 27045: a5 = u64 [0x20238]\n 27050: a0 = u64 [0x20240]\n 27055: u64 [s1 + 0xf8] = a3\n 27059: u64 [s1 + 0xf0] = a4\n 27063: u64 [s1 + 0xe8] = a5\n 27067: u64 [s1 + 0xe0] = a0\n 27071: u64 [s1 + 0x90] = a2\n 27075: u64 [s1 + 0x88] = a1\n 27079: a2 = s1 + 0xe0\n 27083: a3 = s1 + 0xc0\n 27087: a4 = s1 + 0xa0\n 27091: a5 = s1 + 0x80\n 27095: u64 [s1 + 0x80] = t0\n 27099: a0 = 0\n 27101: a1 = 0\n 27103: ra = 1442, jump @1437\n      : @1291 [@dyn 721] (gas: 5)\n 27109: a0 = 0\n 27111: a1 = 0x1\n 27114: a2 = u64 [s1 + 0x30]\n 27117: t0 = 0x5a4\n 27121: jump @1362\n      : @1292 (gas: 3)\n 27124: a1 = 0\n 27126: a2 = u64 [s1 + 0x30]\n 27129: t0 = 1444, jump @1362\n      : @1293 [@dyn 722] (gas: 1)\n 27135: ret\n      : @1294 (gas: 17)\n 27137: sp = sp + 0xfffffffffffffd40\n 27141: a2 = sp + 0x200\n 27145: u64 [a2 + 0xb8] = ra\n 27149: u64 [a2 + 0xb0] = s0\n 27153: u64 [a2 + 0xa8] = s1\n 27157: s0 = sp + 0x2c0\n 27161: sp = sp & 0xffffffffffffffe0\n 27164: s1 = sp\n 27166: a3 = u32 [a0 + 0x10]\n 27169: a2 = u64 [a0]\n 27171: a4 = u64 [a0 + 0x8]\n 27174: u64 [s1 + 0x58] = a2\n 27177: u64 [s1 + 0x48] = a3\n 27180: a0 = a2 | a3\n 27183: u64 [s1 + 0x50] = a4\n 27186: a0 = a0 | a4\n 27189: jump @1323 if a0 == 0\n      : @1295 (gas: 9)\n 27193: a0 = u64 [a1 + 0x18]\n 27196: u64 [s1 + 0x78] = a0\n 27199: a0 = u64 [a1 + 0x10]\n 27202: u64 [s1 + 0x68] = a0\n 27205: a0 = u64 [a1 + 0x8]\n 27208: u64 [s1 + 0x60] = a0\n 27211: a0 = u64 [a1]\n 27213: u64 [s1 + 0x70] = a0\n 27216: ra = 1446, jump @1335\n      : @1296 [@dyn 723] (gas: 11)\n 27222: u64 [s1 + 664] = 0\n 27226: a0 = u64 [s1 + 0x48]\n 27229: a2 = s1 + 0x200\n 27233: u64 [a2 + 0x90] = a0\n 27237: a0 = u64 [s1 + 0x50]\n 27240: u64 [a2 + 0x88] = a0\n 27244: a1 = s1 + 0x280\n 27248: a0 = u64 [s1 + 0x58]\n 27251: u64 [a2 + 0x80] = a0\n 27255: a0 = 0\n 27257: ra = 1448, jump @1429\n      : @1297 [@dyn 724] (gas: 1)\n 27263: t0 = 1450, jump @1406\n      : @1298 [@dyn 725] (gas: 1)\n 27269: ra = 1452, jump @1429\n      : @1299 [@dyn 726] (gas: 3)\n 27275: a2 = 0x2026c\n 27280: a0 = i32 [0x2026c]\n 27285: jump @1301 if a0 >u 63\n      : @1300 (gas: 2)\n 27289: u32 [0x2026c] = 0x40\n 27295: fallthrough\n      : @1301 (gas: 15)\n 27296: u64 [s1 + 0x38] = a2\n 27299: a0 = sp + 0xffffffffffffffe0\n 27302: a2 = a0 & 0xffffffffffffffe0\n 27305: u64 [s1 + 0x30] = a2\n 27308: sp = a2\n 27310: a0 = 0x20280\n 27315: i32 a0 = a0 + 0\n 27317: i32 a2 = a2 + 0\n 27319: a1 = 0x40\n 27322: u64 [s1 + 0x40] = a0\n 27325: ra = 0x5ae\n 27329: ecalli 6 // 'hash_keccak_256'\n 27331: a3 = u64 [s1 + 0x30]\n 27334: t0 = 0x5b0\n 27338: jump @1355\n      : @1302 [@dyn 727] (gas: 2)\n 27341: a3 = u64 [s1 + 0x30]\n 27344: t0 = 1456, jump @1355\n      : @1303 [@dyn 728] (gas: 2)\n 27350: a0 = s1 + 0x240\n 27354: ra = 1458, jump @1431\n      : @1304 [@dyn 729] (gas: 28)\n 27360: a1 = s1 + 0x200\n 27364: a2 = u64 [a1 + 0x58]\n 27367: a0 = u64 [a1 + 0x50]\n 27370: a5 = u64 [a1 + 0x48]\n 27373: a4 = u64 [a1 + 0x40]\n 27376: a1 = u64 [s1 + 0x78]\n 27379: t1 = a2 ^ a1\n 27382: u64 [s1 + 0x20] = a2\n 27385: a1 = a2 <u a1\n 27388: a2 = u64 [s1 + 0x68]\n 27391: a3 = a0 <u a2\n 27394: u64 [s1 + 0x8] = a3\n 27397: a1 = a3 if t1 == 0\n 27400: a3 = u64 [s1 + 0x60]\n 27403: t0 = a5 ^ a3\n 27406: u64 [s1 + 0x28] = a5\n 27409: a5 = a5 <u a3\n 27412: a3 = u64 [s1 + 0x70]\n 27415: u64 [s1 + 0x30] = a4\n 27418: a3 = a4 <u a3\n 27421: u64 [s1 + 0x10] = a3\n 27424: a5 = a3 if t0 == 0\n 27427: u64 [s1 + 0x18] = a0\n 27430: a2 = a2 ^ a0\n 27433: a0 = a2 | t1\n 27436: u64 [s1] = a5\n 27438: a1 = a5 if a0 == 0\n 27441: jump @1328 if a1 != 0\n      : @1305 (gas: 11)\n 27445: u64 [s1 + 568] = 0\n 27449: a0 = u64 [s1 + 0x58]\n 27452: a2 = s1 + 0x200\n 27456: u64 [a2 + 0x20] = a0\n 27459: a0 = u64 [s1 + 0x50]\n 27462: u64 [a2 + 0x28] = a0\n 27465: a1 = s1 + 0x220\n 27469: a0 = u64 [s1 + 0x48]\n 27472: u64 [a2 + 0x30] = a0\n 27475: a0 = 0\n 27477: ra = 1460, jump @1429\n      : @1306 [@dyn 730] (gas: 7)\n 27483: u64 [s1 + 536] = 0\n 27487: u64 [s1 + 528] = 0\n 27491: u64 [s1 + 520] = 0\n 27495: a0 = 0x20\n 27498: a1 = s1 + 0x200\n 27502: u64 [s1 + 512] = 0\n 27506: ra = 1462, jump @1429\n      : @1307 [@dyn 731] (gas: 27)\n 27512: a0 = u64 [s1 + 0x68]\n 27515: a1 = u64 [s1 + 0x18]\n 27518: a0 = a1 - a0\n 27521: a2 = u64 [s1]\n 27523: a1 = a0 - a2\n 27526: u64 [s1 + 0x18] = a1\n 27529: a0 = a0 <u a2\n 27532: a1 = u64 [s1 + 0x78]\n 27535: a2 = u64 [s1 + 0x20]\n 27538: a1 = a2 - a1\n 27541: a2 = u64 [s1 + 0x8]\n 27544: a1 = a1 - a2\n 27547: a1 = a1 - a0\n 27550: u64 [s1 + 0x20] = a1\n 27553: a2 = u64 [s1 + 0x38]\n 27556: a0 = i32 [a2]\n 27558: a1 = u64 [s1 + 0x60]\n 27561: a3 = u64 [s1 + 0x28]\n 27564: a1 = a3 - a1\n 27567: a3 = u64 [s1 + 0x10]\n 27570: a1 = a1 - a3\n 27573: u64 [s1 + 0x28] = a1\n 27576: a3 = u64 [s1 + 0x70]\n 27579: a4 = u64 [s1 + 0x30]\n 27582: a4 = a4 - a3\n 27585: u64 [s1 + 0x30] = a4\n 27588: jump @1309 if a0 >u 63\n      : @1308 (gas: 2)\n 27592: u32 [a2 + 0] = 0x40\n 27595: fallthrough\n      : @1309 (gas: 4)\n 27596: a0 = sp + 0xffffffffffffffe0\n 27599: a0 = a0 & 0xffffffffffffffe0\n 27602: u64 [s1 + 0x38] = a0\n 27605: t0 = 1464, jump @1418\n      : @1310 [@dyn 732] (gas: 5)\n 27611: ra = 0x5ba\n 27615: ecalli 6 // 'hash_keccak_256'\n 27617: a3 = u64 [s1 + 0x38]\n 27620: t0 = 0x5bc\n 27624: jump @1370\n      : @1311 [@dyn 733] (gas: 2)\n 27627: a3 = u64 [s1 + 0x38]\n 27630: t0 = 1468, jump @1370\n      : @1312 [@dyn 734] (gas: 9)\n 27636: a2 = u64 [s1 + 0x20]\n 27639: u64 [a1 + 0x18] = a2\n 27642: a2 = u64 [s1 + 0x18]\n 27645: u64 [a1 + 0x10] = a2\n 27648: a2 = u64 [s1 + 0x28]\n 27651: u64 [a1 + 0x8] = a2\n 27654: a2 = u64 [s1 + 0x30]\n 27657: u64 [a1] = a2\n 27659: ra = 1470, jump @1432\n      : @1313 [@dyn 735] (gas: 1)\n 27665: t0 = 1472, jump @1416\n      : @1314 [@dyn 736] (gas: 3)\n 27671: u64 [a1 + 0] = 0x2\n 27674: a0 = s1 + 0x1e0\n 27678: ra = 1474, jump @1431\n      : @1315 [@dyn 737] (gas: 41)\n 27684: a4 = u64 [s1 + 0x1e8]\n 27688: a0 = u64 [s1 + 0x1f8]\n 27692: u64 [s1 + 0x40] = a0\n 27695: t2 = u64 [s1 + 0x1e0]\n 27699: t0 = u64 [s1 + 0x1f0]\n 27703: a2 = u64 [s1 + 0x60]\n 27706: t1 = a4 ^ a2\n 27709: a5 = a4 <u a2\n 27712: a1 = u64 [s1 + 0x70]\n 27715: ra = t2 <u a1\n 27718: a5 = ra if t1 == 0\n 27721: a0 = u64 [s1 + 0x68]\n 27724: t1 = t0 - a0\n 27727: a3 = t1 - a5\n 27730: u64 [s1 + 0x38] = a3\n 27733: t1 = t1 <u a5\n 27736: a0 = t0 <u a0\n 27739: a5 = u64 [s1 + 0x78]\n 27742: a3 = u64 [s1 + 0x40]\n 27745: a5 = a3 - a5\n 27748: a5 = a5 - a0\n 27751: a5 = a5 - t1\n 27754: a0 = a4 - a2\n 27757: a2 = a0 - ra\n 27760: a3 = t2 - a1\n 27763: a0 = sp + 0xffffffffffffffe0\n 27766: a0 = a0 & 0xffffffffffffffe0\n 27769: sp = a0\n 27771: u64 [a0 + 24] = 0\n 27774: u64 [a0 + 16] = 0\n 27777: u64 [a0 + 8] = 0\n 27780: u64 [a0 + 0] = 0x2\n 27783: a1 = sp + 0xffffffffffffffe0\n 27786: a1 = a1 & 0xffffffffffffffe0\n 27789: sp = a1\n 27791: u64 [a1 + 0x18] = a5\n 27794: a4 = u64 [s1 + 0x38]\n 27797: u64 [a1 + 0x10] = a4\n 27800: u64 [a1 + 0x8] = a2\n 27803: u64 [a1] = a3\n 27805: ra = 1476, jump @1432\n      : @1316 [@dyn 738] (gas: 3)\n 27811: a0 = s1 + 0x1c0\n 27815: a1 = 0x40\n 27818: ra = 1478, jump @1427\n      : @1317 [@dyn 739] (gas: 6)\n 27824: a4 = s1 + 0x100\n 27828: a0 = u64 [a4 + 0xd8]\n 27832: a1 = u64 [a4 + 0xd0]\n 27836: a2 = u64 [a4 + 0xc8]\n 27840: a3 = u64 [a4 + 0xc0]\n 27844: t0 = 1480, jump @1386\n      : @1318 [@dyn 740] (gas: 1)\n 27850: jump @1322 if a0 != 0\n      : @1319 (gas: 12)\n 27854: a0 = u64 [s1 + 0x70]\n 27857: u64 [s1 + 0x1a0] = a0\n 27861: a0 = u64 [s1 + 0x60]\n 27864: u64 [s1 + 0x1a8] = a0\n 27868: a0 = u64 [s1 + 0x68]\n 27871: u64 [s1 + 0x1b0] = a0\n 27875: a1 = s1 + 0x1a0\n 27879: a0 = u64 [s1 + 0x78]\n 27882: u64 [s1 + 0x1b8] = a0\n 27886: a0 = a3\n 27888: u64 [s1 + 0x78] = a3\n 27891: ra = 1482, jump @1429\n      : @1320 [@dyn 741] (gas: 26)\n 27897: u64 [s1 + 344] = 0\n 27901: u64 [s1 + 336] = 0\n 27905: u64 [s1 + 328] = 0\n 27909: u64 [s1 + 320] = 0\n 27913: u64 [s1 + 376] = 0\n 27917: a0 = u64 [s1 + 0x48]\n 27920: a5 = s1 + 0x100\n 27924: u64 [a5 + 0x70] = a0\n 27927: a0 = u64 [s1 + 0x50]\n 27930: u64 [a5 + 0x68] = a0\n 27933: a0 = u64 [0x20248]\n 27938: a1 = u64 [0x20250]\n 27943: a2 = u64 [0x20258]\n 27948: a3 = u64 [s1 + 0x58]\n 27951: u64 [a5 + 0x60] = a3\n 27954: u64 [a5 + 0x98] = a0\n 27958: u64 [a5 + 0x90] = a1\n 27962: u64 [a5 + 0x88] = a2\n 27966: a0 = u64 [0x20260]\n 27971: a1 = 0x20\n 27974: a2 = s1 + 0x180\n 27978: a3 = s1 + 0x160\n 27982: a4 = s1 + 0x140\n 27986: u64 [a5 + 0x80] = a0\n 27990: a0 = u64 [s1 + 0x78]\n 27993: ra = 1484, jump @1435\n      : @1321 [@dyn 742] (gas: 7)\n 27999: sp = s0 + 0xfffffffffffffd40\n 28003: a0 = sp + 0x200\n 28007: ra = u64 [a0 + 0xb8]\n 28011: s0 = u64 [a0 + 0xb0]\n 28015: s1 = u64 [a0 + 0xa8]\n 28019: sp = sp + 0x2c0\n 28023: ret\n      : @1322 (gas: 1)\n 28025: trap\n      : @1323 (gas: 8)\n 28026: u64 [s1 + 176] = 0\n 28030: u64 [s1 + 168] = 0\n 28034: u64 [s1 + 160] = 0\n 28038: a0 = 0x96c6fd1e00000000\n 28048: a1 = s1 + 0xa0\n 28052: u64 [s1 + 0xb8] = a0\n 28056: a0 = 0\n 28058: ra = 1486, jump @1429\n      : @1324 [@dyn 743] (gas: 7)\n 28064: u64 [s1 + 152] = 0\n 28068: u64 [s1 + 144] = 0\n 28072: u64 [s1 + 136] = 0\n 28076: a0 = 0x4\n 28079: a1 = s1 + 0x80\n 28083: u64 [s1 + 128] = 0\n 28087: ra = 1488, jump @1429\n      : @1325 [@dyn 744] (gas: 2)\n 28093: a1 = i32 [0x2026c]\n 28098: jump @1327 if a1 >u 63\n      : @1326 (gas: 2)\n 28102: u32 [0x2026c] = 0x40\n 28108: fallthrough\n      : @1327 (gas: 6)\n 28109: a1 = 0x20280\n 28114: i32 a1 = a1 + 0\n 28116: a0 = 0x1\n 28119: a2 = 0x24\n 28122: ecalli 7 // 'seal_return'\n 28124: fallthrough\n      : @1328 (gas: 8)\n 28125: u64 [s1 + 304] = 0\n 28129: u64 [s1 + 296] = 0\n 28133: u64 [s1 + 288] = 0\n 28137: a0 = 0xe450d38c00000000\n 28147: a1 = s1 + 0x120\n 28151: u64 [s1 + 0x138] = a0\n 28155: a0 = 0\n 28157: ra = 1490, jump @1429\n      : @1329 [@dyn 745] (gas: 11)\n 28163: u64 [s1 + 280] = 0\n 28167: a0 = u64 [s1 + 0x48]\n 28170: a3 = s1 + 0x100\n 28174: u64 [a3 + 0x10] = a0\n 28177: a0 = u64 [s1 + 0x50]\n 28180: u64 [a3 + 0x8] = a0\n 28183: a0 = 0x4\n 28186: a1 = s1 + 0x100\n 28190: a2 = u64 [s1 + 0x58]\n 28193: u64 [a3] = a2\n 28195: ra = 1492, jump @1429\n      : @1330 [@dyn 746] (gas: 11)\n 28201: a0 = u64 [s1 + 0x20]\n 28204: u64 [s1 + 0xf8] = a0\n 28208: a0 = u64 [s1 + 0x18]\n 28211: u64 [s1 + 0xf0] = a0\n 28215: a0 = u64 [s1 + 0x28]\n 28218: u64 [s1 + 0xe8] = a0\n 28222: a0 = 0x24\n 28225: a1 = s1 + 0xe0\n 28229: a2 = u64 [s1 + 0x30]\n 28232: u64 [s1 + 0xe0] = a2\n 28236: ra = 1494, jump @1429\n      : @1331 [@dyn 747] (gas: 11)\n 28242: a0 = u64 [s1 + 0x78]\n 28245: u64 [s1 + 0xd8] = a0\n 28249: a0 = u64 [s1 + 0x68]\n 28252: u64 [s1 + 0xd0] = a0\n 28256: a0 = u64 [s1 + 0x60]\n 28259: u64 [s1 + 0xc8] = a0\n 28263: a0 = 0x44\n 28266: a1 = s1 + 0xc0\n 28270: a2 = u64 [s1 + 0x70]\n 28273: u64 [s1 + 0xc0] = a2\n 28277: ra = 1496, jump @1429\n      : @1332 [@dyn 748] (gas: 3)\n 28283: a0 = u64 [s1 + 0x38]\n 28286: a0 = i32 [a0]\n 28288: jump @1334 if a0 >u 127\n      : @1333 (gas: 3)\n 28292: a1 = u64 [s1 + 0x38]\n 28295: u32 [a1 + 0] = 0x80\n 28299: fallthrough\n      : @1334 (gas: 6)\n 28300: a0 = 0x1\n 28303: a2 = 0x64\n 28306: a1 = u64 [s1 + 0x40]\n 28309: ra = 0x5da\n 28313: ecalli 7 // 'seal_return'\n 28315: fallthrough\n      : @1335 [@dyn 749] (gas: 12)\n 28316: sp = sp + 0xffffffffffffff80\n 28319: u64 [sp + 0x78] = ra\n 28322: u64 [sp + 0x70] = s0\n 28325: s0 = sp + 0x80\n 28329: sp = sp & 0xffffffffffffffe0\n 28332: u64 [sp + 88] = 0\n 28335: u64 [sp + 80] = 0\n 28338: u64 [sp + 72] = 0\n 28341: u64 [sp + 64] = 0x5\n 28345: a0 = sp + 0x20\n 28348: a1 = sp + 0x40\n 28351: ra = 1500, jump @1431\n      : @1336 [@dyn 750] (gas: 2)\n 28357: a0 = u8 [sp + 0x20]\n 28360: jump @1338 if a0 != 0\n      : @1337 (gas: 5)\n 28363: sp = s0 + 0xffffffffffffff80\n 28366: ra = u64 [sp + 0x78]\n 28369: s0 = u64 [sp + 0x70]\n 28372: sp = sp + 0x80\n 28376: ret\n      : @1338 (gas: 8)\n 28378: u64 [sp + 16] = 0\n 28381: u64 [sp + 8] = 0\n 28384: u64 [sp + 0] = 0\n 28386: a0 = 0xd93c066500000000\n 28396: a1 = sp\n 28398: u64 [sp + 0x18] = a0\n 28401: a0 = 0\n 28403: ra = 1502, jump @1429\n      : @1339 [@dyn 751] (gas: 2)\n 28409: a1 = i32 [0x2026c]\n 28414: jump @1341 if a1 >u 31\n      : @1340 (gas: 2)\n 28418: u32 [0x2026c] = 0x20\n 28424: fallthrough\n      : @1341 (gas: 7)\n 28425: a1 = 0x20280\n 28430: i32 a1 = a1 + 0\n 28432: a0 = 0x1\n 28435: a2 = 0x4\n 28438: ra = 0x5e0\n 28442: ecalli 7 // 'seal_return'\n 28444: fallthrough\n      : @1342 [@dyn 752] [export #0: 'call'] (gas: 4)\n 28445: sp = sp + 0xfffffffffffffff8\n 28448: u64 [sp] = ra\n 28450: a0 = 0\n 28452: ra = 1506, jump @15\n      : @1343 [@dyn 753] [export #1: 'deploy'] (gas: 4)\n 28458: sp = sp + 0xfffffffffffffff8\n 28461: u64 [sp] = ra\n 28463: a0 = 0x1\n 28466: ra = 1508, jump @15\n      : @1344 [@dyn 754] (gas: 11)\n 28472: a0 = sp + 0xffffffffffffffe0\n 28475: a0 = a0 & 0xffffffffffffffe0\n 28478: u64 [s1 + 0xb0] = a0\n 28482: sp = a0\n 28484: a1 = 0\n 28486: u64 [a0 + 24] = 0\n 28489: u64 [a0 + 16] = 0\n 28492: u64 [a0 + 8] = 0\n 28495: u64 [a0 + 0] = 0\n 28497: i32 a0 = a0 + 0\n 28499: jump [t0]\n      : @1345 (gas: 9)\n 28501: a3 = u64 [s1 + 0xb0]\n 28505: a0 = u64 [a3 + 0x10]\n 28508: a1 = u64 [a3 + 0x18]\n 28511: a2 = u64 [a3 + 0x8]\n 28514: a3 = u64 [a3]\n 28516: a1 = a1 | a2\n 28519: a0 = a0 | a3\n 28522: a0 = a0 | a1\n 28525: jump [t0]\n      : @1346 (gas: 16)\n 28527: a0 = u64 [a2 + 0x8]\n 28530: a1 = i32 [a2 + 0x10]\n 28533: a2 = u64 [a2]\n 28535: a0 = reverse a0\n 28537: a3 = a0 << 0x20\n 28540: a1 = reverse a1\n 28542: a1 = a1 >> 0x20\n 28545: a3 = a3 | a1\n 28548: a0 = a0 >> 0x20\n 28551: a1 = reverse a2\n 28553: a2 = a1 << 0x20\n 28556: a0 = a0 | a2\n 28559: a1 = a1 >> 0x20\n 28562: a2 = s1 + 0x7ff\n 28566: a2 = a2 + 0x39\n 28569: jump [t0]\n      : @1347 (gas: 30)\n 28571: a3 = u64 [s1 + 0x48]\n 28574: a0 = u64 [a3 + 0x18]\n 28577: a1 = u64 [a3 + 0x10]\n 28580: a2 = u64 [a3 + 0x8]\n 28583: a3 = u64 [a3]\n 28585: a0 = reverse a0\n 28587: u64 [s1 + 0x40] = a0\n 28590: a0 = reverse a1\n 28592: u64 [s1 + 0x38] = a0\n 28595: a0 = reverse a2\n 28597: u64 [s1 + 0x30] = a0\n 28600: a0 = reverse a3\n 28602: u64 [s1 + 0x28] = a0\n 28605: a0 = sp + 0xffffffffffffffe0\n 28608: a0 = a0 & 0xffffffffffffffe0\n 28611: u64 [s1 + 0x48] = a0\n 28614: sp = a0\n 28616: a0 = u64 [s1 + 0x50]\n 28619: a0 = a0 << 0x20\n 28622: a0 = a0 >> 0x20\n 28625: u64 [s1 + 504] = 0\n 28629: u64 [s1] = a0\n 28631: u64 [s1 + 0x1f0] = a0\n 28635: a0 = u64 [s1 + 0x70]\n 28638: u64 [s1 + 0x1e8] = a0\n 28642: a1 = s1 + 0x1e0\n 28646: a0 = u64 [s1 + 0x78]\n 28649: u64 [s1 + 0x1e0] = a0\n 28653: a0 = 0\n 28655: jump [t0]\n      : @1348 (gas: 14)\n 28657: a0 = u64 [a2 + 0x8]\n 28660: a1 = i32 [a2 + 0x10]\n 28663: a2 = u64 [a2]\n 28665: a0 = reverse a0\n 28667: a3 = a0 << 0x20\n 28670: a1 = reverse a1\n 28672: a1 = a1 >> 0x20\n 28675: a3 = a3 | a1\n 28678: a0 = a0 >> 0x20\n 28681: a1 = reverse a2\n 28683: a2 = a1 << 0x20\n 28686: a0 = a0 | a2\n 28689: a1 = a1 >> 0x20\n 28692: jump [t0]\n      : @1349 (gas: 27)\n 28694: a3 = u64 [s1 + 0x50]\n 28697: a0 = u64 [a3 + 0x18]\n 28700: a1 = u64 [a3 + 0x10]\n 28703: a2 = u64 [a3 + 0x8]\n 28706: a3 = u64 [a3]\n 28708: a0 = reverse a0\n 28710: u64 [s1 + 0x48] = a0\n 28713: a0 = reverse a1\n 28715: u64 [s1 + 0x40] = a0\n 28718: a0 = reverse a2\n 28720: u64 [s1 + 0x38] = a0\n 28723: a0 = reverse a3\n 28725: u64 [s1 + 0x30] = a0\n 28728: a0 = sp + 0xffffffffffffffe0\n 28731: a0 = a0 & 0xffffffffffffffe0\n 28734: u64 [s1 + 0x50] = a0\n 28737: sp = a0\n 28739: u64 [s1 + 344] = 0\n 28743: a0 = u64 [s1]\n 28745: u64 [s1 + 0x150] = a0\n 28749: a0 = u64 [s1 + 0x70]\n 28752: u64 [s1 + 0x148] = a0\n 28756: a1 = s1 + 0x140\n 28760: a0 = u64 [s1 + 0x78]\n 28763: u64 [s1 + 0x140] = a0\n 28767: a0 = 0\n 28769: jump [t0]\n      : @1350 (gas: 33)\n 28771: a5 = u64 [s1 + 0xb8]\n 28775: t1 = u64 [s1 + 0x58]\n 28778: a0 = u64 [t1]\n 28780: a1 = u64 [t1 + 0x18]\n 28783: a2 = u64 [t1 + 0x8]\n 28786: a3 = u64 [t1 + 0x10]\n 28789: a0 = a0 + 0x1\n 28792: a4 = a0 <u 0x1\n 28795: a2 = a2 + a4\n 28798: a4 = a0 | a2\n 28801: a4 = a4 <u 0x1\n 28804: a4 = a4 + a3\n 28807: a3 = a4 <u a3\n 28810: a1 = a1 + a3\n 28813: a3 = t1\n 28815: u64 [a3] = a0\n 28817: u64 [a3 + 0x8] = a2\n 28820: u64 [a3 + 0x10] = a4\n 28823: u64 [a3 + 0x18] = a1\n 28826: a1 = u64 [s1 + 0xa0]\n 28830: a0 = a1 + 0x20\n 28833: a1 = a0 <u a1\n 28836: a3 = u64 [s1 + 0xa8]\n 28840: a2 = a3 + a1\n 28843: a3 = a2 <u a3\n 28846: a3 = a1 if a1 == 0\n 28849: a1 = u64 [s1 + 0xb0]\n 28853: a3 = a3 + a1\n 28856: a1 = a3 <u a1\n 28859: a5 = a5 + a1\n 28862: ra = a0\n 28864: t2 = a2\n 28866: jump [t0]\n      : @1351 (gas: 18)\n 28868: a3 = u64 [s1 + 0x28]\n 28871: a0 = u64 [a3 + 0x18]\n 28874: a1 = u64 [a3 + 0x10]\n 28877: a2 = u64 [a3 + 0x8]\n 28880: a3 = u64 [a3]\n 28882: a0 = reverse a0\n 28884: u64 [s1 + 0x20] = a0\n 28887: a0 = reverse a1\n 28889: u64 [s1 + 0x18] = a0\n 28892: a0 = reverse a2\n 28894: u64 [s1 + 0x10] = a0\n 28897: a0 = reverse a3\n 28899: u64 [s1 + 0x8] = a0\n 28902: a0 = sp + 0xffffffffffffffe0\n 28905: a0 = a0 & 0xffffffffffffffe0\n 28908: u64 [s1 + 0x28] = a0\n 28911: sp = a0\n 28913: jump [t0]\n      : @1352 (gas: 8)\n 28915: a0 = u64 [a2 + 0x8]\n 28918: a1 = i32 [a2 + 0x10]\n 28921: a2 = u64 [a2]\n 28923: a3 = reverse a0\n 28925: a0 = a3 << 0x20\n 28928: a1 = reverse a1\n 28930: a1 = a1 >> 0x20\n 28933: jump [t0]\n      : @1353 (gas: 16)\n 28935: a3 = u64 [s1 + 0x50]\n 28938: a0 = u64 [a3 + 0x18]\n 28941: a1 = u64 [a3 + 0x10]\n 28944: a2 = u64 [a3 + 0x8]\n 28947: a3 = u64 [a3]\n 28949: a0 = reverse a0\n 28951: a4 = reverse a1\n 28953: a2 = reverse a2\n 28955: a3 = reverse a3\n 28957: a1 = u64 [s1 + 0x48]\n 28960: u64 [a1 + 0x18] = a3\n 28963: u64 [a1 + 0x10] = a2\n 28966: u64 [a1 + 0x8] = a4\n 28969: u64 [a1] = a0\n 28971: a0 = s1 + 0x1a0\n 28975: jump [t0]\n      : @1354 (gas: 9)\n 28977: a0 = u64 [a3 + 0x18]\n 28980: a1 = u64 [a3 + 0x10]\n 28983: a2 = u64 [a3 + 0x8]\n 28986: a3 = u64 [a3]\n 28988: a0 = reverse a0\n 28990: a4 = reverse a1\n 28992: a2 = reverse a2\n 28994: a3 = reverse a3\n 28996: jump [t0]\n      : @1355 (gas: 16)\n 28998: a0 = u64 [a3 + 0x18]\n 29001: a1 = u64 [a3 + 0x10]\n 29004: a2 = u64 [a3 + 0x8]\n 29007: a3 = u64 [a3]\n 29009: a0 = reverse a0\n 29011: a4 = reverse a1\n 29013: a2 = reverse a2\n 29015: a3 = reverse a3\n 29017: a1 = sp + 0xffffffffffffffe0\n 29020: a1 = a1 & 0xffffffffffffffe0\n 29023: sp = a1\n 29025: u64 [a1 + 0x18] = a3\n 29028: u64 [a1 + 0x10] = a2\n 29031: u64 [a1 + 0x8] = a4\n 29034: u64 [a1] = a0\n 29036: jump [t0]\n      : @1356 (gas: 16)\n 29038: a3 = u64 [s1 + 0x68]\n 29041: a0 = u64 [a3 + 0x18]\n 29044: a1 = u64 [a3 + 0x10]\n 29047: a2 = u64 [a3 + 0x8]\n 29050: a3 = u64 [a3]\n 29052: a0 = reverse a0\n 29054: a4 = reverse a1\n 29056: a2 = reverse a2\n 29058: a3 = reverse a3\n 29060: a1 = u64 [s1 + 0x50]\n 29063: u64 [a1 + 0x18] = a3\n 29066: u64 [a1 + 0x10] = a2\n 29069: u64 [a1 + 0x8] = a4\n 29072: u64 [a1] = a0\n 29074: a0 = s1 + 0x100\n 29078: jump [t0]\n      : @1357 (gas: 16)\n 29080: a4 = s1 + 0x100\n 29084: a0 = u64 [a4 + 0x8]\n 29087: a1 = u64 [a4]\n 29089: a2 = u64 [a4 + 0x10]\n 29092: a3 = u64 [a4 + 0x18]\n 29095: a1 = a1 & 0xffffffffffffff00\n 29099: a4 = a1 | 0x1\n 29102: a1 = sp + 0xffffffffffffffe0\n 29105: a1 = a1 & 0xffffffffffffffe0\n 29108: sp = a1\n 29110: u64 [a1 + 0x18] = a3\n 29113: u64 [a1 + 0x10] = a2\n 29116: u64 [a1 + 0x8] = a0\n 29119: u64 [a1] = a4\n 29121: a0 = u64 [s1 + 0x50]\n 29124: jump [t0]\n      : @1358 (gas: 8)\n 29126: a0 = sp + 0xffffffffffffffe0\n 29129: a0 = a0 & 0xffffffffffffffe0\n 29132: u64 [s1 + 0x50] = a0\n 29135: sp = a0\n 29137: i32 a2 = a0 + 0\n 29139: a1 = 0x40\n 29142: a0 = u64 [s1 + 0x60]\n 29145: jump [t0]\n      : @1359 (gas: 20)\n 29147: a4 = u64 [s1 + 0x118]\n 29151: a2 = a4 <u 0x80\n 29155: a3 = u64 [s1 + 0xd0]\n 29159: a1 = a3 if a2 != 0\n 29162: a5 = u64 [s1 + 0xd8]\n 29166: a3 = u64 [s1 + 0xe8]\n 29170: a3 = a3 | a5\n 29173: a3 = a0 if a2 == 0\n 29176: a1 = 0xffffffffffffffff if a4 == 0\n 29179: a3 = 0xffffffffffffffff if a4 == 0\n 29182: a4 = u64 [s1 + 0xe0]\n 29186: a4 = 0 if a2 == 0\n 29188: a5 = 0 if a2 == 0\n 29190: a0 = u64 [s1 + 0xf0]\n 29194: a0 = a0 & ~a3\n 29197: a2 = u64 [s1 + 0xf8]\n 29201: a2 = a2 & ~a1\n 29204: a1 = u64 [s1 + 0x100]\n 29208: a3 = a1 & ~a5\n 29211: jump [t0]\n      : @1360 (gas: 7)\n 29213: u64 [s1 + 536] = 0\n 29217: u64 [s1 + 528] = 0\n 29221: u64 [s1 + 512] = 0x6\n 29226: a0 = 0x20\n 29229: a1 = s1 + 0x200\n 29233: u64 [s1 + 520] = 0\n 29237: jump [t0]\n      : @1361 (gas: 7)\n 29239: u64 [s1 + 376] = 0\n 29243: u64 [s1 + 368] = 0\n 29247: u64 [s1 + 352] = 0x6\n 29252: a0 = 0x20\n 29255: a1 = s1 + 0x160\n 29259: u64 [s1 + 360] = 0\n 29263: jump [t0]\n      : @1362 (gas: 11)\n 29265: u64 [a2] = a1\n 29267: u64 [a2 + 0x8] = a0\n 29270: u64 [a2 + 0x10] = a0\n 29273: u64 [a2 + 0x18] = a0\n 29276: sp = s0 + 0xfffffffffffffda0\n 29280: a0 = sp + 0x200\n 29284: ra = u64 [a0 + 0x58]\n 29287: s0 = u64 [a0 + 0x50]\n 29290: s1 = u64 [a0 + 0x48]\n 29293: sp = sp + 0x260\n 29297: jump [t0]\n      : @1363 (gas: 14)\n 29299: a0 = u64 [a3 + 0x18]\n 29302: a1 = u64 [a3 + 0x10]\n 29305: a2 = u64 [a3 + 0x8]\n 29308: a3 = u64 [a3]\n 29310: a0 = reverse a0\n 29312: a4 = reverse a1\n 29314: a2 = reverse a2\n 29316: a3 = reverse a3\n 29318: a1 = u64 [s1 + 0x28]\n 29321: u64 [a1 + 0x18] = a3\n 29324: u64 [a1 + 0x10] = a2\n 29327: u64 [a1 + 0x8] = a4\n 29330: u64 [a1] = a0\n 29332: jump [t0]\n      : @1364 (gas: 5)\n 29334: sp = a0\n 29336: i32 a2 = a0 + 0\n 29338: a1 = 0x40\n 29341: a0 = u64 [s1 + 0x60]\n 29344: jump [t0]\n      : @1365 (gas: 21)\n 29346: a2 = u64 [s1 + 0x68]\n 29349: a0 = u64 [a2 + 0x8]\n 29352: a1 = i32 [a2 + 0x10]\n 29355: a2 = u64 [a2]\n 29357: a0 = reverse a0\n 29359: a3 = a0 << 0x20\n 29362: a1 = reverse a1\n 29364: a1 = a1 >> 0x20\n 29367: a3 = a3 | a1\n 29370: a0 = a0 >> 0x20\n 29373: a1 = reverse a2\n 29375: a2 = a1 << 0x20\n 29378: a0 = a0 | a2\n 29381: a1 = a1 >> 0x20\n 29384: u64 [s1 + 312] = 0\n 29388: u64 [s1 + 0x130] = a1\n 29392: u64 [s1 + 0x128] = a0\n 29396: a1 = s1 + 0x120\n 29400: u64 [s1 + 0x120] = a3\n 29404: a0 = 0\n 29406: jump [t0]\n      : @1366 (gas: 16)\n 29408: a5 = u64 [s1 + 0x110]\n 29412: a4 = a1 ^ a5\n 29415: a1 = a1 <u a5\n 29418: a1 = a3 if a4 == 0\n 29421: a2 = u64 [s1 + 0x108]\n 29425: a3 = t1 <u a2\n 29428: a5 = u64 [s1 + 0x100]\n 29432: a4 = t2 ^ a5\n 29435: a5 = t2 <u a5\n 29438: a5 = a3 if a4 == 0\n 29441: u64 [a0 + 0x10] = t1\n 29444: a2 = t1 ^ a2\n 29447: a2 = a2 | a4\n 29450: a5 = a1 if a2 == 0\n 29453: u64 [a0 + 0x18] = t2\n 29456: jump [t0]\n      : @1367 (gas: 8)\n 29458: a4 = a4 | a2\n 29461: a2 = a0 | a1\n 29464: a2 = a2 | a4\n 29467: a2 = a2 >> 0x20\n 29470: a1 = a1 | a4\n 29473: a1 = a1 << 0x20\n 29476: a1 = a1 | a2\n 29479: jump [t0]\n      : @1368 (gas: 8)\n 29481: a3 = a3 | a2\n 29484: a2 = a0 | a1\n 29487: a2 = a2 | a3\n 29490: a2 = a2 >> 0x20\n 29493: a1 = a1 | a3\n 29496: a1 = a1 << 0x20\n 29499: a1 = a1 | a2\n 29502: jump [t0]\n      : @1369 (gas: 21)\n 29504: a2 = u64 [s1 + 0x68]\n 29507: a0 = u64 [a2 + 0x8]\n 29510: a1 = i32 [a2 + 0x10]\n 29513: a2 = u64 [a2]\n 29515: a0 = reverse a0\n 29517: a3 = a0 << 0x20\n 29520: a1 = reverse a1\n 29522: a1 = a1 >> 0x20\n 29525: a3 = a3 | a1\n 29528: a0 = a0 >> 0x20\n 29531: a1 = reverse a2\n 29533: a2 = a1 << 0x20\n 29536: a0 = a0 | a2\n 29539: a1 = a1 >> 0x20\n 29542: u64 [s1 + 184] = 0\n 29546: u64 [s1 + 0xb0] = a1\n 29550: u64 [s1 + 0xa8] = a0\n 29554: a0 = 0x4\n 29557: a1 = s1 + 0xa0\n 29561: u64 [s1 + 0xa0] = a3\n 29565: jump [t0]\n      : @1370 (gas: 19)\n 29567: a0 = u64 [a3 + 0x18]\n 29570: a1 = u64 [a3 + 0x10]\n 29573: a2 = u64 [a3 + 0x8]\n 29576: a3 = u64 [a3]\n 29578: a4 = reverse a0\n 29580: a1 = reverse a1\n 29582: a2 = reverse a2\n 29584: a3 = reverse a3\n 29586: a0 = sp + 0xffffffffffffffe0\n 29589: a0 = a0 & 0xffffffffffffffe0\n 29592: sp = a0\n 29594: u64 [a0 + 0x18] = a3\n 29597: u64 [a0 + 0x10] = a2\n 29600: u64 [a0 + 0x8] = a1\n 29603: u64 [a0] = a4\n 29605: a1 = sp + 0xffffffffffffffe0\n 29608: a1 = a1 & 0xffffffffffffffe0\n 29611: sp = a1\n 29613: jump [t0]\n      : @1371 (gas: 12)\n 29615: a0 = u64 [s1 + 0x30]\n 29618: a3 = s1 + 0x100\n 29622: u64 [a3 + 0x38] = a0\n 29625: a0 = u64 [s1 + 0x38]\n 29628: u64 [a3 + 0x30] = a0\n 29631: a0 = u64 [s1 + 0x40]\n 29634: u64 [a3 + 0x28] = a0\n 29637: a0 = 0x20\n 29640: a1 = s1 + 0x120\n 29644: a2 = u64 [s1 + 0x48]\n 29647: u64 [a3 + 0x20] = a2\n 29650: jump [t0]\n      : @1372 (gas: 15)\n 29652: ra = u64 [s1 + 0xa0]\n 29656: t2 = u64 [s1 + 0xa8]\n 29660: t1 = u64 [s1 + 0xb0]\n 29664: a1 = u64 [s1 + 0x78]\n 29667: a0 = a1 + ra\n 29670: a1 = a0 <u a1\n 29673: a4 = u64 [s1 + 0x70]\n 29676: a2 = a4 + t2\n 29679: a2 = a2 + a1\n 29682: a5 = a2 ^ a4\n 29685: a4 = a2 <u a4\n 29688: a4 = a1 if a5 == 0\n 29691: a5 = u64 [s1 + 0x68]\n 29694: a1 = a5 + t1\n 29697: jump [t0]\n      : @1373 (gas: 12)\n 29699: a0 = u64 [s1 + 0x28]\n 29702: a3 = s1 + 0x100\n 29706: u64 [a3 + 0xd8] = a0\n 29710: a0 = u64 [s1 + 0x30]\n 29713: u64 [a3 + 0xd0] = a0\n 29717: a0 = u64 [s1 + 0x38]\n 29720: u64 [a3 + 0xc8] = a0\n 29724: a0 = 0x20\n 29727: a1 = s1 + 0x1c0\n 29731: a2 = u64 [s1 + 0x40]\n 29734: u64 [a3 + 0xc0] = a2\n 29738: jump [t0]\n      : @1374 (gas: 11)\n 29740: a4 = a2 + a1\n 29743: a1 = a4 <u a2\n 29746: a3 = a3 + a1\n 29749: a1 = sp + 0xffffffffffffffe0\n 29752: a1 = a1 & 0xffffffffffffffe0\n 29755: sp = a1\n 29757: u64 [a1 + 0x10] = a4\n 29760: u64 [a1 + 0x8] = a5\n 29763: u64 [a1] = a0\n 29765: u64 [a1 + 0x18] = a3\n 29768: jump [t0]\n      : @1375 (gas: 18)\n 29770: a3 = u64 [s1 + 0x68]\n 29773: a0 = u64 [a3 + 0x18]\n 29776: a1 = u64 [a3 + 0x10]\n 29779: a2 = u64 [a3 + 0x8]\n 29782: a3 = u64 [a3]\n 29784: a0 = reverse a0\n 29786: u64 [s1 + 0x58] = a0\n 29789: a0 = reverse a1\n 29791: u64 [s1 + 0x50] = a0\n 29794: a0 = reverse a2\n 29796: u64 [s1 + 0x48] = a0\n 29799: a0 = reverse a3\n 29801: u64 [s1 + 0x40] = a0\n 29804: a0 = sp + 0xffffffffffffffe0\n 29807: a0 = a0 & 0xffffffffffffffe0\n 29810: u64 [s1 + 0x60] = a0\n 29813: sp = a0\n 29815: jump [t0]\n      : @1376 (gas: 7)\n 29817: u64 [s1 + 344] = 0\n 29821: u64 [s1 + 336] = 0\n 29825: u64 [s1 + 320] = 0x6\n 29830: a0 = 0x20\n 29833: a1 = s1 + 0x140\n 29837: u64 [s1 + 328] = 0\n 29841: jump [t0]\n      : @1377 (gas: 17)\n 29843: a0 = u64 [a3 + 0x18]\n 29846: a1 = u64 [a3 + 0x10]\n 29849: a2 = u64 [a3 + 0x8]\n 29852: a3 = u64 [a3]\n 29854: a0 = reverse a0\n 29856: u64 [s1 + 0x60] = a0\n 29859: a0 = reverse a1\n 29861: u64 [s1 + 0x58] = a0\n 29864: a0 = reverse a2\n 29866: u64 [s1 + 0x50] = a0\n 29869: a0 = reverse a3\n 29871: u64 [s1 + 0x48] = a0\n 29874: a0 = sp + 0xffffffffffffffe0\n 29877: a0 = a0 & 0xffffffffffffffe0\n 29880: u64 [s1 + 0x68] = a0\n 29883: sp = a0\n 29885: jump [t0]\n      : @1378 (gas: 16)\n 29887: a3 = u64 [s1 + 0x58]\n 29890: a0 = u64 [a3 + 0x18]\n 29893: a1 = u64 [a3 + 0x10]\n 29896: a2 = u64 [a3 + 0x8]\n 29899: a3 = u64 [a3]\n 29901: a0 = reverse a0\n 29903: a4 = reverse a1\n 29905: a2 = reverse a2\n 29907: a3 = reverse a3\n 29909: a1 = u64 [s1 + 0x60]\n 29912: u64 [a1 + 0x18] = a3\n 29915: u64 [a1 + 0x10] = a2\n 29918: u64 [a1 + 0x8] = a4\n 29921: u64 [a1] = a0\n 29923: a0 = s1 + 0xe0\n 29927: jump [t0]\n      : @1379 (gas: 17)\n 29929: a0 = u64 [a5]\n 29931: a1 = u64 [a5 + 0x8]\n 29934: a2 = u64 [a5 + 0x10]\n 29937: a0 = a0 + 0x1\n 29940: a3 = a0 <u 0x1\n 29943: a1 = a1 + a3\n 29946: a3 = u64 [a5 + 0x18]\n 29949: a4 = a0 | a1\n 29952: a4 = a4 <u 0x1\n 29955: a4 = a4 + a2\n 29958: a2 = a4 <u a2\n 29961: a2 = a2 + a3\n 29964: u64 [a5] = a0\n 29966: u64 [a5 + 0x8] = a1\n 29969: u64 [a5 + 0x10] = a4\n 29972: u64 [a5 + 0x18] = a2\n 29975: jump [t0]\n      : @1380 (gas: 15)\n 29977: a2 = u64 [s1 + 0x78]\n 29980: a0 = u64 [a2 + 0x8]\n 29983: a1 = i32 [a2 + 0x10]\n 29986: a2 = u64 [a2]\n 29988: a0 = reverse a0\n 29990: a3 = a0 << 0x20\n 29993: a1 = reverse a1\n 29995: a1 = a1 >> 0x20\n 29998: a1 = a1 | a3\n 30001: a0 = a0 >> 0x20\n 30004: a2 = reverse a2\n 30006: a3 = a2 << 0x20\n 30009: a0 = a0 | a3\n 30012: a2 = a2 >> 0x20\n 30015: jump [t0]\n      : @1381 (gas: 13)\n 30017: a4 = a0 << 0x3f\n 30020: a5 = a1 >> 0x1\n 30023: t1 = a5 | a4\n 30026: a5 = a3 << 0x3f\n 30029: a0 = a0 >> 0x1\n 30032: a0 = a0 | a5\n 30035: a1 = a1 << 0x3f\n 30038: a5 = a2 >> 0x1\n 30041: a1 = a1 | a5\n 30044: a3 = a3 >> 0x1\n 30047: a2 = a2 & 0x1\n 30050: a5 = -a2\n 30052: jump [t0]\n      : @1382 (gas: 12)\n 30054: a4 = 0 if a2 == 0\n 30056: a5 = 0 if a2 == 0\n 30058: a1 = u64 [s1 + 0xf8]\n 30062: a1 = a1 & ~a3\n 30065: a3 = s1 + 0x100\n 30069: a2 = u64 [a3]\n 30071: a0 = a2 & ~a0\n 30074: a2 = u64 [a3 + 0x8]\n 30077: a5 = a2 & ~a5\n 30080: a2 = u64 [a3 + 0x10]\n 30083: a4 = a2 & ~a4\n 30086: jump [t0]\n      : @1383 (gas: 15)\n 30088: a0 = sp + 0xffffffffffffffe0\n 30091: a0 = a0 & 0xffffffffffffffe0\n 30094: sp = a0\n 30096: u64 [a0 + 24] = 0\n 30099: u64 [a0 + 16] = 0\n 30102: u64 [a0 + 8] = 0\n 30105: u64 [a0 + 0] = 0x5\n 30108: a1 = sp + 0xffffffffffffffe0\n 30111: a1 = a1 & 0xffffffffffffffe0\n 30114: sp = a1\n 30116: u64 [a1 + 0x18] = a4\n 30119: u64 [a1 + 0x10] = a3\n 30122: u64 [a1 + 0x8] = a2\n 30125: u64 [a1] = a5\n 30127: jump [t0]\n      : @1384 (gas: 14)\n 30129: a0 = u64 [a3 + 0x18]\n 30132: a1 = u64 [a3 + 0x10]\n 30135: a2 = u64 [a3 + 0x8]\n 30138: a3 = u64 [a3]\n 30140: a0 = reverse a0\n 30142: a4 = reverse a1\n 30144: a2 = reverse a2\n 30146: a3 = reverse a3\n 30148: a1 = u64 [s1 + 0x68]\n 30151: u64 [a1 + 0x18] = a3\n 30154: u64 [a1 + 0x10] = a2\n 30157: u64 [a1 + 0x8] = a4\n 30160: u64 [a1] = a0\n 30162: jump [t0]\n      : @1385 (gas: 9)\n 30164: a1 = sp + 0xffffffffffffffe0\n 30167: a1 = a1 & 0xffffffffffffffe0\n 30170: sp = a1\n 30172: u64 [a1 + 24] = 0\n 30175: u64 [a1 + 16] = 0\n 30178: u64 [a1 + 8] = 0\n 30181: a0 = 0x2\n 30184: u64 [a1] = a0\n 30186: jump [t0]\n      : @1386 (gas: 8)\n 30188: a0 = a0 | a2\n 30191: a2 = a3 | a1\n 30194: a2 = a2 | a0\n 30197: a2 = a2 >> 0x20\n 30200: a0 = a0 | a1\n 30203: a0 = a0 << 0x20\n 30206: a0 = a0 | a2\n 30209: jump [t0]\n      : @1387 (gas: 8)\n 30211: u64 [s1 + 336] = 0\n 30215: u64 [s1 + 328] = 0\n 30219: u64 [s1 + 320] = 0\n 30223: a0 = 0x4e487b7100000000\n 30233: a1 = s1 + 0x140\n 30237: u64 [s1 + 0x158] = a0\n 30241: a0 = 0\n 30243: jump [t0]\n      : @1388 (gas: 13)\n 30245: a5 = a5 + a2\n 30248: a3 = a5 <u a2\n 30251: a2 = a2 <u t2\n 30254: a0 = t1 + a2\n 30257: a0 = a0 + a3\n 30260: a2 = a1 | a5\n 30263: a0 = a0 | a4\n 30266: a2 = a2 | a0\n 30269: a2 = a2 >> 0x20\n 30272: a0 = a0 | a5\n 30275: a0 = a0 << 0x20\n 30278: a0 = a0 | a2\n 30281: jump [t0]\n      : @1389 (gas: 11)\n 30283: a0 = u64 [s1 + 0x20]\n 30286: u64 [s1 + 0x198] = a0\n 30290: a0 = u64 [s1 + 0x18]\n 30293: u64 [s1 + 0x190] = a0\n 30297: a0 = u64 [s1 + 0x10]\n 30300: u64 [s1 + 0x188] = a0\n 30304: a1 = s1 + 0x180\n 30308: a0 = u64 [s1 + 0x8]\n 30311: u64 [s1 + 0x180] = a0\n 30315: a0 = 0\n 30317: jump [t0]\n      : @1390 (gas: 15)\n 30319: a2 = a2 | a0\n 30322: a3 = u64 [s1 + 0xe0]\n 30326: a3 = a3 | a1\n 30329: a0 = u64 [s1 + 0xe8]\n 30333: a4 = a4 | a0\n 30336: a0 = u64 [s1 + 0xf0]\n 30340: a5 = a5 | a0\n 30343: a0 = sp + 0xffffffffffffffe0\n 30346: a0 = a0 & 0xffffffffffffffe0\n 30349: sp = a0\n 30351: a1 = 0\n 30353: u64 [a0 + 24] = 0\n 30356: u64 [a0 + 16] = 0\n 30359: u64 [a0 + 8] = 0\n 30362: jump [t0]\n      : @1391 (gas: 8)\n 30364: u64 [s1 + 208] = 0\n 30368: u64 [s1 + 200] = 0\n 30372: u64 [s1 + 192] = 0\n 30376: a0 = 0xe2517d3f00000000\n 30386: a1 = s1 + 0xc0\n 30390: u64 [s1 + 0xd8] = a0\n 30394: a0 = 0\n 30396: jump [t0]\n      : @1392 (gas: 8)\n 30398: a2 = a4 >u 0\n 30400: a1 = a1 ^ 0x1\n 30403: a1 = a2 if a4 != 0\n 30406: a2 = t2 >u 0\n 30408: a3 = a5 >u 0\n 30410: a3 = a2 if a5 == 0\n 30413: a3 = a1 if a0 == 0\n 30416: jump [t0]\n      : @1393 (gas: 12)\n 30418: a0 = u64 [s1 + 0x40]\n 30421: a3 = s1 + 0x100\n 30425: u64 [a3 + 0x18] = a0\n 30428: a0 = u64 [s1 + 0x48]\n 30431: u64 [a3 + 0x10] = a0\n 30434: a0 = u64 [s1 + 0x50]\n 30437: u64 [a3 + 0x8] = a0\n 30440: a0 = 0x20\n 30443: a1 = s1 + 0x100\n 30447: a2 = u64 [s1 + 0x58]\n 30450: u64 [a3] = a2\n 30452: jump [t0]\n      : @1394 (gas: 10)\n 30454: a0 = u64 [s1 + 0x40]\n 30457: a1 = u64 [s1 + 0x38]\n 30460: a0 = a0 | a1\n 30463: a1 = 0xffffffe0\n 30473: a3 = u64 [s1 + 0x50]\n 30476: a1 = a3 <u a1\n 30479: a2 = u64 [s1 + 0x48]\n 30482: a1 = 0 if a2 != 0\n 30484: a1 = 0 if a0 != 0\n 30486: jump [t0]\n      : @1395 (gas: 10)\n 30488: a1 = u64 [s1 + 0xa0]\n 30492: a0 = u64 [a1]\n 30494: u64 [s1 + 0xb8] = a0\n 30498: a0 = u64 [a1 + 0x8]\n 30501: u64 [s1 + 0xb0] = a0\n 30505: a0 = u64 [a1 + 0x10]\n 30508: u64 [s1 + 0xa8] = a0\n 30512: a0 = u64 [a1 + 0x18]\n 30515: u64 [s1 + 0xa0] = a0\n 30519: jump [t0]\n      : @1396 (gas: 10)\n 30521: a0 = u64 [sp + 0x10]\n 30524: a1 = u64 [sp + 0x18]\n 30527: a2 = 0x100000000\n 30537: a2 = a2 ^ a0\n 30540: a2 = a2 | a1\n 30543: a3 = a0 >> 0x20\n 30546: a3 = a3 <u 0x1\n 30549: a3 = 0 if a1 != 0\n 30551: a3 = 0 if a2 == 0\n 30553: jump [t0]\n      : @1397 (gas: 10)\n 30555: a1 = u64 [s1 + 0x80]\n 30559: a0 = u64 [a1]\n 30561: u64 [s1 + 0x98] = a0\n 30565: a0 = u64 [a1 + 0x8]\n 30568: u64 [s1 + 0x90] = a0\n 30572: a0 = u64 [a1 + 0x10]\n 30575: u64 [s1 + 0x88] = a0\n 30579: a0 = u64 [a1 + 0x18]\n 30582: u64 [s1 + 0x80] = a0\n 30586: jump [t0]\n      : @1398 (gas: 7)\n 30588: u64 [s1 + 312] = 0\n 30592: u64 [s1 + 304] = 0\n 30596: u64 [s1 + 288] = 0x41\n 30601: a0 = 0x4\n 30604: a1 = s1 + 0x120\n 30608: u64 [s1 + 296] = 0\n 30612: jump [t0]\n      : @1399 (gas: 7)\n 30614: a0 = sp + 0xffffffffffffffe0\n 30617: a0 = a0 & 0xffffffffffffffe0\n 30620: u64 [s1 + 0xa0] = a0\n 30624: sp = a0\n 30626: i32 a0 = a0 + 0\n 30628: a1 = 0x4\n 30631: jump [t0]\n      : @1400 (gas: 6)\n 30633: a0 = u64 [a3 + 0x18]\n 30636: a1 = u64 [a3 + 0x10]\n 30639: a2 = u64 [a3 + 0x8]\n 30642: a3 = u64 [a3]\n 30644: a0 = reverse a0\n 30646: jump [t0]\n      : @1401 (gas: 9)\n 30648: a1 = sp + 0xffffffffffffffe0\n 30651: a1 = a1 & 0xffffffffffffffe0\n 30654: sp = a1\n 30656: u64 [a1 + 24] = 0\n 30659: u64 [a1 + 16] = 0\n 30662: u64 [a1 + 8] = 0\n 30665: u64 [a1 + 0] = 0x5\n 30668: a0 = s1 + 0x7ff\n 30672: jump [t0]\n      : @1402 (gas: 13)\n 30674: a0 = u64 [s1 + 0xb0]\n 30678: a1 = u64 [s1 + 0xa0]\n 30682: a0 = a0 | a1\n 30685: a1 = u64 [s1 + 0xb8]\n 30689: a4 = a1\n 30691: a2 = u64 [s1 + 0xa8]\n 30695: a1 = a1 | a2\n 30698: a1 = a1 | a0\n 30701: a1 = a1 >> 0x20\n 30704: a0 = a0 | a2\n 30707: a0 = a0 << 0x20\n 30710: a0 = a0 | a1\n 30713: jump [t0]\n      : @1403 (gas: 12)\n 30715: a0 = u64 [a5 + 0xa0]\n 30719: a1 = u64 [a5 + 0x98]\n 30723: a2 = u64 [a5 + 0x90]\n 30727: a4 = u64 [a5 + 0x88]\n 30731: a0 = a0 | a2\n 30734: a2 = a4 | a1\n 30737: a2 = a2 | a0\n 30740: a2 = a2 >> 0x20\n 30743: a0 = a0 | a1\n 30746: a0 = a0 << 0x20\n 30749: a0 = a0 | a2\n 30752: jump [t0]\n      : @1404 (gas: 11)\n 30754: a4 = a4 + a1\n 30757: a1 = a4 <u a1\n 30760: a1 = a1 + a5\n 30763: a1 = a1 | a2\n 30766: a2 = a0 | a4\n 30769: a2 = a2 | a1\n 30772: a1 = a1 | a4\n 30775: a2 = a2 >> 0x20\n 30778: a1 = a1 << 0x20\n 30781: a1 = a1 | a2\n 30784: jump [t0]\n      : @1405 (gas: 5)\n 30786: sp = a0\n 30788: i32 a2 = a0 + 0\n 30790: a1 = 0x40\n 30793: a0 = u64 [s1 + 0xb8]\n 30797: jump [t0]\n      : @1406 (gas: 7)\n 30799: u64 [s1 + 632] = 0\n 30803: u64 [s1 + 624] = 0\n 30807: u64 [s1 + 616] = 0\n 30811: a0 = 0x20\n 30814: a1 = s1 + 0x260\n 30818: u64 [s1 + 608] = 0\n 30822: jump [t0]\n      : @1407 (gas: 9)\n 30824: u64 [s1 + 0x18] = a1\n 30827: u64 [s1 + 0x230] = a1\n 30831: u64 [s1 + 0x10] = a2\n 30834: u64 [s1 + 0x228] = a2\n 30838: a1 = s1 + 0x220\n 30842: u64 [s1 + 0x8] = a0\n 30845: u64 [s1 + 0x220] = a0\n 30849: a0 = 0\n 30851: jump [t0]\n      : @1408 (gas: 12)\n 30853: a2 = u64 [sp]\n 30855: a3 = u64 [sp + 0x8]\n 30858: u64 [s1] = a2\n 30860: u64 [s1 + 0x8] = a3\n 30863: u64 [s1 + 0x10] = a0\n 30866: u64 [s1 + 0x18] = a1\n 30869: sp = s0 + 0xffffffffffffffc0\n 30872: ra = u64 [sp + 0x38]\n 30875: s0 = u64 [sp + 0x30]\n 30878: s1 = u64 [sp + 0x28]\n 30881: sp = sp + 0x40\n 30884: jump [t0]\n      : @1409 (gas: 10)\n 30886: u64 [s1 + 0xd8] = a0\n 30890: u64 [s1 + 0xe0] = a1\n 30894: a0 = u64 [s1 + 0xd0]\n 30898: a0 = a0 | a1\n 30901: u64 [s1 + 0xd0] = a0\n 30905: a0 = u64 [s1 + 0x118]\n 30909: a2 = a0 + 0xffffffffffffff80\n 30912: a0 = 0xffffffffffffffff\n 30915: a1 = 0xffffffffffffffff\n 30918: jump [t0]\n      : @1410 (gas: 7)\n 30920: a0 = a0 << 0x3b\n 30923: a1 = a0 >> 0x38\n 30926: u64 [s1 + 0x118] = a1\n 30930: a2 = 0x80 - a1\n 30934: a0 = 0xffffffffffffffff\n 30937: a1 = 0xffffffffffffffff\n 30940: jump [t0]\n      : @1411 (gas: 10)\n 30942: a0 = t2 + a2\n 30945: a0 = a0 + a4\n 30948: a2 = a1 | a5\n 30951: a0 = a0 | a3\n 30954: a2 = a2 | a0\n 30957: a2 = a2 >> 0x20\n 30960: a0 = a0 | a5\n 30963: a0 = a0 << 0x20\n 30966: a0 = a0 | a2\n 30969: jump [t0]\n      : @1412 (gas: 9)\n 30971: a1 = sp + 0xffffffffffffffe0\n 30974: a1 = a1 & 0xffffffffffffffe0\n 30977: sp = a1\n 30979: u64 [a1 + 0x18] = a4\n 30982: u64 [a1 + 0x10] = a3\n 30985: u64 [a1 + 0x8] = a2\n 30988: u64 [a1] = a0\n 30990: a0 = u64 [s1 + 0x108]\n 30994: jump [t0]\n      : @1413 (gas: 9)\n 30996: a1 = sp + 0xffffffffffffffe0\n 30999: a1 = a1 & 0xffffffffffffffe0\n 31002: sp = a1\n 31004: u64 [a1 + 0x18] = a4\n 31007: u64 [a1 + 0x10] = a3\n 31010: u64 [a1 + 0x8] = a2\n 31013: u64 [a1] = a0\n 31015: a0 = u64 [s1 + 0x110]\n 31019: jump [t0]\n      : @1414 (gas: 9)\n 31021: a1 = sp + 0xffffffffffffffe0\n 31024: a1 = a1 & 0xffffffffffffffe0\n 31027: sp = a1\n 31029: u64 [a1 + 24] = 0\n 31032: u64 [a1 + 16] = 0\n 31035: u64 [a1 + 8] = 0\n 31038: a0 = 0x4\n 31041: u64 [a1] = a0\n 31043: jump [t0]\n      : @1415 (gas: 9)\n 31045: a1 = sp + 0xffffffffffffffe0\n 31048: a1 = a1 & 0xffffffffffffffe0\n 31051: sp = a1\n 31053: u64 [a1 + 24] = 0\n 31056: u64 [a1 + 16] = 0\n 31059: u64 [a1 + 8] = 0\n 31062: a0 = 0x3\n 31065: u64 [a1] = a0\n 31067: jump [t0]\n      : @1416 (gas: 7)\n 31069: a1 = sp + 0xffffffffffffffe0\n 31072: a1 = a1 & 0xffffffffffffffe0\n 31075: sp = a1\n 31077: u64 [a1 + 24] = 0\n 31080: u64 [a1 + 16] = 0\n 31083: u64 [a1 + 8] = 0\n 31086: jump [t0]\n      : @1417 (gas: 6)\n 31088: a1 = a3 << 0x3\n 31091: u64 [s1 + 0x118] = a1\n 31095: i32 a2 = 0x80 - a1\n 31099: a0 = 0xffffffffffffffff\n 31102: a1 = 0xffffffffffffffff\n 31105: jump [t0]\n      : @1418 (gas: 5)\n 31107: sp = a0\n 31109: i32 a2 = a0 + 0\n 31111: a1 = 0x40\n 31114: a0 = u64 [s1 + 0x40]\n 31117: jump [t0]\n      : @1419 (gas: 6)\n 31119: i32 a0 = a0 + 0\n 31121: i32 a2 = a2 + 0\n 31123: u64 [s1 + 0x68] = a1\n 31126: a1 = 0x40\n 31129: u64 [s1 + 0x60] = a0\n 31132: jump [t0]\n      : @1420 (gas: 9)\n 31134: a0 = sp + 0xffffffffffffffe0\n 31137: a0 = a0 & 0xffffffffffffffe0\n 31140: sp = a0\n 31142: u64 [a0 + 24] = 0\n 31145: u64 [a0 + 16] = 0\n 31148: u64 [a0 + 8] = 0\n 31151: a2 = 0x2\n 31154: u64 [a0] = a2\n 31156: jump [t0]\n      : @1421 (gas: 8)\n 31158: a0 = sp + 0xffffffffffffffe0\n 31161: a0 = a0 & 0xffffffffffffffe0\n 31164: u64 [s1 + 0x58] = a0\n 31167: sp = a0\n 31169: i32 a2 = a0 + 0\n 31171: a1 = 0x40\n 31174: a0 = u64 [s1 + 0x70]\n 31177: jump [t0]\n      : @1422 (gas: 5)\n 31179: a0 = sp + 0xffffffffffffffe0\n 31182: a2 = a0 & 0xffffffffffffffe0\n 31185: u64 [s1 + 0x100] = a2\n 31189: sp = a2\n 31191: jump [t0]\n      : @1423 (gas: 9)\n 31193: sp = sp + 0xffffffffffffffc0\n 31196: u64 [sp + 0x38] = ra\n 31199: u64 [sp + 0x30] = s0\n 31202: u64 [sp + 0x28] = s1\n 31205: s0 = sp + 0x40\n 31208: sp = sp & 0xffffffffffffffe0\n 31211: s1 = a0\n 31213: i32 a0 = sp + 0\n 31215: jump [t0]\n      : @1424 (gas: 10)\n 31217: sp = sp & 0xffffffffffffffe0\n 31220: s1 = sp\n 31222: a2 = u64 [a1 + 0x10]\n 31225: u64 [s1 + 0x50] = a2\n 31228: a2 = u64 [a1 + 0x8]\n 31231: u64 [s1 + 0x70] = a2\n 31234: a1 = u64 [a1]\n 31236: u64 [s1 + 0x78] = a1\n 31239: u64 [s1 + 0x58] = a0\n 31242: jump [t0]\n      : @1425 (gas: 2)\n 31244: a1 = i32 [0x20270]\n 31249: jump @243 if a1 == 0\n      : @1426 (gas: 4)\n 31253: a0 = 0x302a0\n 31258: i32 a0 = a0 + 0\n 31260: ecalli 8 // 'set_immutable_data'\n 31262: jump @243\n      : @1427 (gas: 8)\n 31265: sp = sp + 0xfffffffffffffff0\n 31268: u64 [sp + 0x8] = ra\n 31271: u64 [sp] = s0\n 31273: a2 = a1\n 31275: s0 = a0\n 31277: a1 = 0x20\n 31280: a0 = a2\n 31282: ra = 1510, jump @1439\n      : @1428 [@dyn 755] (gas: 100)\n 31288: a1 = u8 [a0 + 0x1]\n 31291: a2 = u8 [a0]\n 31293: a3 = u8 [a0 + 0x2]\n 31296: a4 = u8 [a0 + 0x3]\n 31299: a1 = a1 << 0x8\n 31302: a1 = a1 | a2\n 31305: a3 = a3 << 0x10\n 31308: a4 = a4 << 0x18\n 31311: a3 = a3 | a4\n 31314: a1 = a1 | a3\n 31317: a2 = u8 [a0 + 0x5]\n 31320: a3 = u8 [a0 + 0x4]\n 31323: a4 = u8 [a0 + 0x6]\n 31326: a5 = u8 [a0 + 0x7]\n 31329: a2 = a2 << 0x8\n 31332: a2 = a2 | a3\n 31335: a4 = a4 << 0x10\n 31338: a5 = a5 << 0x18\n 31341: a4 = a4 | a5\n 31344: a2 = a2 | a4\n 31347: a2 = a2 << 0x20\n 31350: t0 = a2 | a1\n 31353: a2 = u8 [a0 + 0x9]\n 31356: a3 = u8 [a0 + 0x8]\n 31359: a4 = u8 [a0 + 0xa]\n 31362: a5 = u8 [a0 + 0xb]\n 31365: a2 = a2 << 0x8\n 31368: a2 = a2 | a3\n 31371: a4 = a4 << 0x10\n 31374: a5 = a5 << 0x18\n 31377: a4 = a4 | a5\n 31380: a2 = a2 | a4\n 31383: a3 = u8 [a0 + 0xd]\n 31386: a4 = u8 [a0 + 0xc]\n 31389: a5 = u8 [a0 + 0xe]\n 31392: a1 = u8 [a0 + 0xf]\n 31395: a3 = a3 << 0x8\n 31398: a3 = a3 | a4\n 31401: a5 = a5 << 0x10\n 31404: a1 = a1 << 0x18\n 31407: a1 = a1 | a5\n 31410: a1 = a1 | a3\n 31413: a1 = a1 << 0x20\n 31416: t1 = a1 | a2\n 31419: a1 = u8 [a0 + 0x11]\n 31422: a3 = u8 [a0 + 0x10]\n 31425: a4 = u8 [a0 + 0x12]\n 31428: a5 = u8 [a0 + 0x13]\n 31431: a1 = a1 << 0x8\n 31434: a1 = a1 | a3\n 31437: a4 = a4 << 0x10\n 31440: a5 = a5 << 0x18\n 31443: a4 = a4 | a5\n 31446: a1 = a1 | a4\n 31449: a3 = u8 [a0 + 0x15]\n 31452: a4 = u8 [a0 + 0x14]\n 31455: a5 = u8 [a0 + 0x16]\n 31458: a2 = u8 [a0 + 0x17]\n 31461: a3 = a3 << 0x8\n 31464: a3 = a3 | a4\n 31467: a5 = a5 << 0x10\n 31470: a2 = a2 << 0x18\n 31473: a2 = a2 | a5\n 31476: a2 = a2 | a3\n 31479: a2 = a2 << 0x20\n 31482: a3 = a2 | a1\n 31485: a1 = u8 [a0 + 0x19]\n 31488: a2 = u8 [a0 + 0x18]\n 31491: a4 = u8 [a0 + 0x1a]\n 31494: a5 = u8 [a0 + 0x1b]\n 31497: a1 = a1 << 0x8\n 31500: a1 = a1 | a2\n 31503: a4 = a4 << 0x10\n 31506: a5 = a5 << 0x18\n 31509: a4 = a4 | a5\n 31512: a1 = a1 | a4\n 31515: a2 = u8 [a0 + 0x1d]\n 31518: a4 = u8 [a0 + 0x1c]\n 31521: a5 = u8 [a0 + 0x1e]\n 31524: a0 = u8 [a0 + 0x1f]\n 31527: a2 = a2 << 0x8\n 31530: a2 = a2 | a4\n 31533: a5 = a5 << 0x10\n 31536: a0 = a0 << 0x18\n 31539: a0 = a0 | a5\n 31542: a0 = a0 | a2\n 31545: a0 = a0 << 0x20\n 31548: a0 = a0 | a1\n 31551: a0 = reverse a0\n 31553: a1 = reverse a3\n 31555: a2 = reverse t1\n 31557: a3 = reverse t0\n 31559: u64 [s0 + 0x18] = a3\n 31562: u64 [s0 + 0x10] = a2\n 31565: u64 [s0 + 0x8] = a1\n 31568: u64 [s0] = a0\n 31570: ra = u64 [sp + 0x8]\n 31573: s0 = u64 [sp]\n 31575: sp = sp + 0x10\n 31578: ret\n      : @1429 (gas: 12)\n 31580: sp = sp + 0xffffffffffffffd8\n 31583: u64 [sp + 0x20] = ra\n 31586: u64 [sp + 0x18] = s0\n 31589: u64 [sp + 0x10] = s1\n 31592: a2 = u64 [a1]\n 31594: u64 [sp + 0x8] = a2\n 31597: a2 = u64 [a1 + 0x8]\n 31600: u64 [sp] = a2\n 31602: s0 = u64 [a1 + 0x10]\n 31605: s1 = u64 [a1 + 0x18]\n 31608: a1 = 0x20\n 31611: ra = 1512, jump @1439\n      : @1430 [@dyn 756] (gas: 71)\n 31617: a1 = reverse s1\n 31619: a2 = reverse s0\n 31621: a3 = u64 [sp]\n 31623: a3 = reverse a3\n 31625: a4 = u64 [sp + 0x8]\n 31628: a4 = reverse a4\n 31630: u8 [a0 + 0x18] = a4\n 31633: u8 [a0 + 0x10] = a3\n 31636: u8 [a0 + 0x8] = a2\n 31639: u8 [a0] = a1\n 31641: a5 = a4 >> 0x38\n 31644: u8 [a0 + 0x1f] = a5\n 31647: a5 = a4 >> 0x30\n 31650: u8 [a0 + 0x1e] = a5\n 31653: a5 = a4 >> 0x28\n 31656: u8 [a0 + 0x1d] = a5\n 31659: a5 = a4 >> 0x20\n 31662: u8 [a0 + 0x1c] = a5\n 31665: a5 = a4 >> 0x18\n 31668: u8 [a0 + 0x1b] = a5\n 31671: a5 = a4 >> 0x10\n 31674: u8 [a0 + 0x1a] = a5\n 31677: a4 = a4 >> 0x8\n 31680: u8 [a0 + 0x19] = a4\n 31683: a4 = a3 >> 0x38\n 31686: u8 [a0 + 0x17] = a4\n 31689: a4 = a3 >> 0x30\n 31692: u8 [a0 + 0x16] = a4\n 31695: a4 = a3 >> 0x28\n 31698: u8 [a0 + 0x15] = a4\n 31701: a4 = a3 >> 0x20\n 31704: u8 [a0 + 0x14] = a4\n 31707: a4 = a3 >> 0x18\n 31710: u8 [a0 + 0x13] = a4\n 31713: a4 = a3 >> 0x10\n 31716: u8 [a0 + 0x12] = a4\n 31719: a3 = a3 >> 0x8\n 31722: u8 [a0 + 0x11] = a3\n 31725: a3 = a2 >> 0x38\n 31728: u8 [a0 + 0xf] = a3\n 31731: a3 = a2 >> 0x30\n 31734: u8 [a0 + 0xe] = a3\n 31737: a3 = a2 >> 0x28\n 31740: u8 [a0 + 0xd] = a3\n 31743: a3 = a2 >> 0x20\n 31746: u8 [a0 + 0xc] = a3\n 31749: a3 = a2 >> 0x18\n 31752: u8 [a0 + 0xb] = a3\n 31755: a3 = a2 >> 0x10\n 31758: u8 [a0 + 0xa] = a3\n 31761: a2 = a2 >> 0x8\n 31764: u8 [a0 + 0x9] = a2\n 31767: a2 = a1 >> 0x38\n 31770: u8 [a0 + 0x7] = a2\n 31773: a2 = a1 >> 0x30\n 31776: u8 [a0 + 0x6] = a2\n 31779: a2 = a1 >> 0x28\n 31782: u8 [a0 + 0x5] = a2\n 31785: a2 = a1 >> 0x20\n 31788: u8 [a0 + 0x4] = a2\n 31791: a2 = a1 >> 0x18\n 31794: u8 [a0 + 0x3] = a2\n 31797: a2 = a1 >> 0x10\n 31800: u8 [a0 + 0x2] = a2\n 31803: a1 = a1 >> 0x8\n 31806: u8 [a0 + 0x1] = a1\n 31809: ra = u64 [sp + 0x20]\n 31812: s0 = u64 [sp + 0x18]\n 31815: s1 = u64 [sp + 0x10]\n 31818: sp = sp + 0x28\n 31821: ret\n      : @1431 (gas: 41)\n 31823: sp = sp + 0xffffffffffffffa0\n 31826: u64 [sp + 0x58] = ra\n 31829: u64 [sp + 0x50] = s0\n 31832: u64 [sp + 0x48] = s1\n 31835: s0 = sp + 0x60\n 31838: sp = sp & 0xffffffffffffffe0\n 31841: s1 = a0\n 31843: a0 = u64 [a1 + 0x18]\n 31846: a2 = u64 [a1 + 0x10]\n 31849: a3 = u64 [a1 + 0x8]\n 31852: a1 = u64 [a1]\n 31854: a0 = reverse a0\n 31856: a2 = reverse a2\n 31858: a3 = reverse a3\n 31860: a1 = reverse a1\n 31862: u64 [sp + 0x38] = a1\n 31865: u64 [sp + 0x30] = a3\n 31868: u64 [sp + 0x28] = a2\n 31871: u64 [sp + 0x20] = a0\n 31874: i32 a1 = sp + 0x20\n 31877: i32 a2 = sp + 0\n 31879: a0 = 0\n 31881: ecalli 5 // 'get_storage_or_zero'\n 31883: a0 = u64 [sp + 0x18]\n 31886: a1 = u64 [sp + 0x10]\n 31889: a2 = u64 [sp + 0x8]\n 31892: a3 = u64 [sp]\n 31894: a0 = reverse a0\n 31896: a1 = reverse a1\n 31898: a2 = reverse a2\n 31900: a3 = reverse a3\n 31902: u64 [s1 + 0x18] = a3\n 31905: u64 [s1 + 0x10] = a2\n 31908: u64 [s1 + 0x8] = a1\n 31911: u64 [s1] = a0\n 31913: sp = s0 + 0xffffffffffffffa0\n 31916: ra = u64 [sp + 0x58]\n 31919: s0 = u64 [sp + 0x50]\n 31922: s1 = u64 [sp + 0x48]\n 31925: sp = sp + 0x60\n 31928: ret\n      : @1432 (gas: 38)\n 31930: sp = sp + 0xffffffffffffffa0\n 31933: u64 [sp + 0x58] = ra\n 31936: u64 [sp + 0x50] = s0\n 31939: s0 = sp + 0x60\n 31942: sp = sp & 0xffffffffffffffe0\n 31945: t0 = u64 [a0]\n 31947: a3 = u64 [a0 + 0x8]\n 31950: a4 = u64 [a0 + 0x10]\n 31953: a0 = u64 [a0 + 0x18]\n 31956: t1 = u64 [a1]\n 31958: a2 = u64 [a1 + 0x8]\n 31961: a5 = u64 [a1 + 0x10]\n 31964: a1 = u64 [a1 + 0x18]\n 31967: t2 = reverse a0\n 31969: a4 = reverse a4\n 31971: a3 = reverse a3\n 31973: a0 = reverse t0\n 31975: t0 = reverse a1\n 31977: a5 = reverse a5\n 31979: a2 = reverse a2\n 31981: a1 = reverse t1\n 31983: u64 [sp + 0x38] = a0\n 31986: u64 [sp + 0x30] = a3\n 31989: u64 [sp + 0x28] = a4\n 31992: u64 [sp + 0x20] = t2\n 31995: u64 [sp + 0x18] = a1\n 31998: u64 [sp + 0x10] = a2\n 32001: u64 [sp + 0x8] = a5\n 32004: u64 [sp] = t0\n 32006: i32 a1 = sp + 0x20\n 32009: i32 a2 = sp + 0\n 32011: a0 = 0\n 32013: ecalli 9 // 'set_storage_or_clear'\n 32015: sp = s0 + 0xffffffffffffffa0\n 32018: ra = u64 [sp + 0x58]\n 32021: s0 = u64 [sp + 0x50]\n 32024: sp = sp + 0x60\n 32027: ret\n      : @1433 (gas: 16)\n 32029: sp = sp + 0xffffffffffffffa0\n 32032: u64 [sp + 0x58] = ra\n 32035: u64 [sp + 0x50] = s0\n 32038: u64 [sp + 0x48] = s1\n 32041: s0 = sp + 0x60\n 32044: sp = sp & 0xffffffffffffffe0\n 32047: a3 = u64 [a2]\n 32049: u64 [sp + 0x18] = a3\n 32052: a3 = u64 [a2 + 0x8]\n 32055: u64 [sp + 0x10] = a3\n 32058: a3 = u64 [a2 + 0x10]\n 32061: u64 [sp + 0x8] = a3\n 32064: a2 = u64 [a2 + 0x18]\n 32067: u64 [sp] = a2\n 32069: s1 = 0x20\n 32072: ra = 1514, jump @1439\n      : @1434 [@dyn 757] (gas: 23)\n 32078: a1 = u64 [sp]\n 32080: a1 = reverse a1\n 32082: a2 = u64 [sp + 0x8]\n 32085: a2 = reverse a2\n 32087: a3 = u64 [sp + 0x10]\n 32090: a3 = reverse a3\n 32092: a4 = u64 [sp + 0x18]\n 32095: a4 = reverse a4\n 32097: u64 [sp + 0x38] = a4\n 32100: u64 [sp + 0x30] = a3\n 32103: u64 [sp + 0x28] = a2\n 32106: u64 [sp + 0x20] = a1\n 32109: i32 a2 = a0 + 0\n 32111: i32 a3 = s1 + 0\n 32113: i32 a0 = sp + 0x20\n 32116: a1 = 0x1\n 32119: ecalli 4 // 'deposit_event'\n 32121: sp = s0 + 0xffffffffffffffa0\n 32124: ra = u64 [sp + 0x58]\n 32127: s0 = u64 [sp + 0x50]\n 32130: s1 = u64 [sp + 0x48]\n 32133: sp = sp + 0x60\n 32136: ret\n      : @1435 (gas: 31)\n 32138: sp = sp + 0xffffffffffffff20\n 32142: u64 [sp + 0xd8] = ra\n 32146: u64 [sp + 0xd0] = s0\n 32150: u64 [sp + 0xc8] = s1\n 32154: s0 = sp + 0xe0\n 32158: sp = sp & 0xffffffffffffffe0\n 32161: a5 = u64 [a4]\n 32163: u64 [sp + 0x40] = a5\n 32166: a5 = u64 [a4 + 0x8]\n 32169: u64 [sp + 0x48] = a5\n 32172: a5 = u64 [a4 + 0x10]\n 32175: u64 [sp + 0x50] = a5\n 32178: a4 = u64 [a4 + 0x18]\n 32181: u64 [sp + 0x58] = a4\n 32184: a4 = u64 [a3]\n 32186: u64 [sp + 0x18] = a4\n 32189: a4 = u64 [a3 + 0x8]\n 32192: u64 [sp + 0x20] = a4\n 32195: a4 = u64 [a3 + 0x10]\n 32198: u64 [sp + 0x28] = a4\n 32201: a3 = u64 [a3 + 0x18]\n 32204: u64 [sp + 0x30] = a3\n 32207: s1 = u64 [a2]\n 32209: a3 = u64 [a2 + 0x8]\n 32212: u64 [sp] = a3\n 32214: a3 = u64 [a2 + 0x10]\n 32217: u64 [sp + 0x8] = a3\n 32220: a2 = u64 [a2 + 0x18]\n 32223: u64 [sp + 0x10] = a2\n 32226: u64 [sp + 56] = 0x20\n 32230: ra = 1516, jump @1439\n      : @1436 [@dyn 758] (gas: 46)\n 32236: a1 = reverse s1\n 32238: u64 [sp + 0x78] = a1\n 32241: a1 = u64 [sp]\n 32243: a1 = reverse a1\n 32245: u64 [sp + 0x70] = a1\n 32248: a1 = u64 [sp + 0x8]\n 32251: a1 = reverse a1\n 32253: u64 [sp + 0x68] = a1\n 32256: a1 = u64 [sp + 0x10]\n 32259: a1 = reverse a1\n 32261: u64 [sp + 0x60] = a1\n 32264: a1 = u64 [sp + 0x18]\n 32267: a1 = reverse a1\n 32269: u64 [sp + 0x98] = a1\n 32273: a1 = u64 [sp + 0x20]\n 32276: a1 = reverse a1\n 32278: u64 [sp + 0x90] = a1\n 32282: a1 = u64 [sp + 0x28]\n 32285: a1 = reverse a1\n 32287: u64 [sp + 0x88] = a1\n 32291: a1 = u64 [sp + 0x30]\n 32294: a1 = reverse a1\n 32296: u64 [sp + 0x80] = a1\n 32300: a1 = u64 [sp + 0x40]\n 32303: a1 = reverse a1\n 32305: u64 [sp + 0xb8] = a1\n 32309: a1 = u64 [sp + 0x48]\n 32312: a1 = reverse a1\n 32314: u64 [sp + 0xb0] = a1\n 32318: a1 = u64 [sp + 0x50]\n 32321: a1 = reverse a1\n 32323: u64 [sp + 0xa8] = a1\n 32327: a1 = u64 [sp + 0x58]\n 32330: a1 = reverse a1\n 32332: u64 [sp + 0xa0] = a1\n 32336: i32 a2 = a0 + 0\n 32338: a3 = i32 [sp + 0x38]\n 32341: i32 a0 = sp + 0x60\n 32344: a1 = 0x3\n 32347: ecalli 4 // 'deposit_event'\n 32349: sp = s0 + 0xffffffffffffff20\n 32353: ra = u64 [sp + 0xd8]\n 32357: s0 = u64 [sp + 0xd0]\n 32361: s1 = u64 [sp + 0xc8]\n 32365: sp = sp + 0xe0\n 32369: ret\n      : @1437 (gas: 39)\n 32371: sp = sp + 0xfffffffffffffee0\n 32375: u64 [sp + 0x118] = ra\n 32379: u64 [sp + 0x110] = s0\n 32383: u64 [sp + 0x108] = s1\n 32387: s0 = sp + 0x120\n 32391: sp = sp & 0xffffffffffffffe0\n 32394: s1 = u64 [a5]\n 32396: u64 [sp + 0x60] = s1\n 32399: s1 = u64 [a5 + 0x8]\n 32402: u64 [sp + 0x68] = s1\n 32405: s1 = u64 [a5 + 0x10]\n 32408: u64 [sp + 0x70] = s1\n 32411: a5 = u64 [a5 + 0x18]\n 32414: u64 [sp + 0x78] = a5\n 32417: a5 = u64 [a4]\n 32419: u64 [sp + 0x38] = a5\n 32422: a5 = u64 [a4 + 0x8]\n 32425: u64 [sp + 0x40] = a5\n 32428: a5 = u64 [a4 + 0x10]\n 32431: u64 [sp + 0x48] = a5\n 32434: a4 = u64 [a4 + 0x18]\n 32437: u64 [sp + 0x50] = a4\n 32440: a4 = u64 [a3]\n 32442: u64 [sp + 0x18] = a4\n 32445: a4 = u64 [a3 + 0x8]\n 32448: u64 [sp + 0x20] = a4\n 32451: a4 = u64 [a3 + 0x10]\n 32454: u64 [sp + 0x28] = a4\n 32457: a3 = u64 [a3 + 0x18]\n 32460: u64 [sp + 0x30] = a3\n 32463: s1 = u64 [a2]\n 32465: a3 = u64 [a2 + 0x8]\n 32468: u64 [sp] = a3\n 32470: a3 = u64 [a2 + 0x10]\n 32473: u64 [sp + 0x8] = a3\n 32476: a2 = u64 [a2 + 0x18]\n 32479: u64 [sp + 0x10] = a2\n 32482: u64 [sp + 88] = 0\n 32485: ra = 1518, jump @1439\n      : @1438 [@dyn 759] (gas: 58)\n 32491: a1 = reverse s1\n 32493: u64 [sp + 0x98] = a1\n 32497: a1 = u64 [sp]\n 32499: a1 = reverse a1\n 32501: u64 [sp + 0x90] = a1\n 32505: a1 = u64 [sp + 0x8]\n 32508: a1 = reverse a1\n 32510: u64 [sp + 0x88] = a1\n 32514: a1 = u64 [sp + 0x10]\n 32517: a1 = reverse a1\n 32519: u64 [sp + 0x80] = a1\n 32523: a1 = u64 [sp + 0x18]\n 32526: a1 = reverse a1\n 32528: u64 [sp + 0xb8] = a1\n 32532: a1 = u64 [sp + 0x20]\n 32535: a1 = reverse a1\n 32537: u64 [sp + 0xb0] = a1\n 32541: a1 = u64 [sp + 0x28]\n 32544: a1 = reverse a1\n 32546: u64 [sp + 0xa8] = a1\n 32550: a1 = u64 [sp + 0x30]\n 32553: a1 = reverse a1\n 32555: u64 [sp + 0xa0] = a1\n 32559: a1 = u64 [sp + 0x38]\n 32562: a1 = reverse a1\n 32564: u64 [sp + 0xd8] = a1\n 32568: a1 = u64 [sp + 0x40]\n 32571: a1 = reverse a1\n 32573: u64 [sp + 0xd0] = a1\n 32577: a1 = u64 [sp + 0x48]\n 32580: a1 = reverse a1\n 32582: u64 [sp + 0xc8] = a1\n 32586: a1 = u64 [sp + 0x50]\n 32589: a1 = reverse a1\n 32591: u64 [sp + 0xc0] = a1\n 32595: a1 = u64 [sp + 0x60]\n 32598: a1 = reverse a1\n 32600: u64 [sp + 0xf8] = a1\n 32604: a1 = u64 [sp + 0x68]\n 32607: a1 = reverse a1\n 32609: u64 [sp + 0xf0] = a1\n 32613: a1 = u64 [sp + 0x70]\n 32616: a1 = reverse a1\n 32618: u64 [sp + 0xe8] = a1\n 32622: a1 = u64 [sp + 0x78]\n 32625: a1 = reverse a1\n 32627: u64 [sp + 0xe0] = a1\n 32631: i32 a2 = a0 + 0\n 32633: a3 = i32 [sp + 0x58]\n 32636: i32 a0 = sp + 0x80\n 32640: a1 = 0x4\n 32643: ecalli 4 // 'deposit_event'\n 32645: sp = s0 + 0xfffffffffffffee0\n 32649: ra = u64 [sp + 0x118]\n 32653: s0 = u64 [sp + 0x110]\n 32657: s1 = u64 [sp + 0x108]\n 32661: sp = sp + 0x120\n 32665: ret\n      : @1439 (gas: 2)\n 32667: i32 a2 = a1 + 0\n 32669: jump @1444 if a2 == 0\n      : @1440 (gas: 2)\n 32672: i32 a2 = a0 >> 0x10\n 32675: jump @1445 if a2 != 0\n      : @1441 (gas: 4)\n 32678: a1 = a1 + a0\n 32681: i32 a1 = a1 + 0x1f\n 32684: a1 = a1 & 0xffffffffffffffe0\n 32687: jump @1445 if a1 >u 65536\n      : @1442 (gas: 3)\n 32693: a2 = 0x2026c\n 32698: a3 = i32 [0x2026c]\n 32703: jump @1444 if a3 >=u a1\n      : @1443 (gas: 2)\n 32706: u32 [0x2026c] = a1\n 32711: fallthrough\n      : @1444 (gas: 4)\n 32712: a1 = 0x20280\n 32717: i32 a0 = a0 + 0\n 32719: a0 = a0 + a1\n 32722: ret\n      : @1445 (gas: 1)\n 32724: trap\n      : @1446 (gas: 2)\n 32725: a3 = a2 & 0x40\n 32728: jump @1450 if a3 != 0\n      : @1447 (gas: 1)\n 32731: jump @1449 if a2 == 0\n      : @1448 (gas: 6)\n 32734: i32 a3 = 0x40 - a2\n 32737: a3 = a0 >> a3\n 32740: a0 = a0 << a2\n 32743: a1 = a1 << a2\n 32746: a1 = a1 | a3\n 32749: ret\n      : @1449 (gas: 1)\n 32751: ret\n      : @1450 (gas: 4)\n 32753: a1 = a2 + 0xffffffffffffffc0\n 32756: a1 = a0 << a1\n 32759: a0 = 0\n 32761: ret\n      : @1451 (gas: 2)\n 32763: a3 = a2 & 0x40\n 32766: jump @1455 if a3 != 0\n      : @1452 (gas: 1)\n 32769: jump @1454 if a2 == 0\n      : @1453 (gas: 6)\n 32772: i32 a3 = 0x40 - a2\n 32775: a3 = a1 << a3\n 32778: a1 = a1 >> a2\n 32781: a0 = a0 >> a2\n 32784: a0 = a0 | a3\n 32787: ret\n      : @1454 (gas: 1)\n 32789: ret\n      : @1455 (gas: 4)\n 32791: a0 = a2 + 0xffffffffffffffc0\n 32794: a0 = a1 >> a0\n 32797: a1 = 0\n 32799: ret\n",
        "bytecode": {
          "linkReferences": {},
          "object": "50564d00008699000000000000010700c1a002c00080038268006e656b6f54794d9bc8e21bad52f2ddaa8d37fc68b0c26916a1c463f1a72b95efb323f54d5af5287ab365328ea2d765b32165339f927464b96c3f931b68c1322a860d44736637f34876c7d2fef02d9fd08c50cca46058de4caba1b8b8858c81a656891c988defee1af85fc1fbac358af209d74f347dae39c6658caab400868e9bd16be37ffe4bb620e3be01ea8ce76274eab57002424ecd5447f7c9b0110d0058a2054b54fcdbeb9bc8e21bad52f2ddaa8d37fc68b0c26916a1c463f1a72b95efb323f54d5af528e6f25b490aeeb95da41b4c83a7919cff534eaae8a544d2fdaa73b0e4ea8ad37b5b7decebe5e15b8cf3841e7d42714fd11e29b2f7c01403dd25b9c3c7c80a205b003c599e0e5a57c228db122fc9f859f9d002053b5a39c3695bf8716f4416255e1dff7e7e1188872fd1014979ec26e982400927504a02787c0d6f6533a74045307ab365328ea2d765b32165339f927464b96c3f931b68c1322a860d44736637f31dff7e7e1188872fd1014979ec26e982400927504a02787c0d6f6533a74045304876c7d2fef02d9fd08c50cca46058de4caba1b8b8858c81a656891c988defee1dff7e7e1188872fd1014979ec26e982400927504a02787c0d6f6533a74045309bc8e21bad52f2ddaa8d37fc68b0c26916a1c463f1a72b95efb323f54d5af5287ab365328ea2d765b32165339f927464b96c3f931b68c1322a860d44736637f31dff7e7e1188872fd1014979ec26e982400927504a02787c0d6f6533a74045309dc6d9325c1f39f67429440b67ea472a64fdc7edd13539b51b1739a847e021eb9bc8e21bad52f2ddaa8d37fc68b0c26916a1c463f1a72b95efb323f54d5af5280480ce0b000000000e0000001c0000002a000000300000003d000000500000005f0000006a0000007c0000009000000063616c6c5f646174615f636f707963616c6c5f646174615f6c6f616463616c6c5f646174615f73697a6563616c6c65726465706f7369745f6576656e746765745f73746f726167655f6f725f7a65726f686173685f6b656363616b5f3235367365616c5f72657475726e7365745f696d6d757461626c655f646174617365745f73746f726167655f6f725f636c65617276616c75655f7472616e73666572726564051302c01d6f0463616c6cc02a6f066465706c6f7906c01a9682f702c021808a00d6002401a401bd01d001f2012d028802d702f5024b039e03ab03f203fb031004390473048f04f7051206b906cf069a07ad07c207c707d007a308b008dc08e108f808fd0802090709130918097709c709cc09e5090a0a360a3e0a590a660aae0ab70ad00af70a320b4e0bbd0cd80c490d5f0d2d0e3a0e4f0e540e5d0e210f2f0f590f5f0f770f7d0f830f890f960f9c0f09106e1074108f10b510e210ec10081128113211501165116f11a711bc11c611ff113a1248125212df12e512fa120413241341136b138c139613af13f313fd130a142414531468147214df14ec140615311537153d154315491583159315b115eb15fb151916531663168116c616e3162817631773179117d717de170a18b318c018c618df18e918091926195b1968196e199619bc19f4191f1a651a6f1acc1a081b3c1b461b631b831ba41bd91be61bec1b0c1c271c521c5f1c651c971cc21c071d2b1d711d7b1dd71d0b1e3f1e491e621e971ea51ee31ef01ef61e161f301f5c1f691f6f1f8f1faa1fe91ff61ffc1f1c203e2048201621262160212f227d22c922d622dc220423a323ce2312241b243824412462249924b624c624cf24dd2414251a252825b125b725ed251726402651265b267726c926d226e32601273927b827d027dd27e327032829283328092919294f29212a732a082b1f2b2c2b322b4b2b512b5b2b862b8c2b9d2bdc2be22bf02b102c522c642c712c772c902c9a2cc62ce02c292d362d3c2d642d9b2dc52dfe2d082e162e522e632ea32eb02eb62ecf2ed52edb2eec2e102f162f272f662f6c2f7a2f9b2fdd2ffe2f0b30113064309130ab30e630f330f9301d315f3165317c318231ed31fa31183242324f3255327532a432de32e432fe3207336833d633e333f93323343034363452347034b134be34c434e4349a35a435c035de3522362b3670369936ed36fa360f37403755375f37d937e637fc371e38d638dc38f2381b3921394739ff39053a1b3a4d3a533a293b393b573bba3bcd3bd63bf83b2f3c913cef3c1a3d933dbe3d203e6f3e7c3e823e6f3f8c3fd13fee3f134019401f40254067407740a240e840f54010411d412a4130414e415b4161419741a441aa41d941e641ec41fb414c427c42d842ee42fb420143c543d243d843e74335445f44b444094545454b4660466d467346a846b546bb46d746e1462b476147b547fe4704481b4821489948f5483749e149264a344a4d4a714abb4ad94a184b1e4b4b4b784b944ba44bad4bb74bdd4be34be94b054c154c1e4c5f4c874ca34cb34cbc4cd44c074d214d2a4dac4dd54df64dfc4d024e084e334e404e464e4c4e524e584e714e7e4e844e8a4ea54eab4eb14eb74ed04edd4ee34ee94eef4ef54e114f1e4f244f2a4f304f364f504f594fec4ffa4ffc4f1d50235029502f505a5067506d50735079507f509850a550ab50b150cc50d250d850de50f75004510a51105116511c51385145514b51515157515d5177518051135221529e52cd523c53af53bd53ca533e54b254c254c854d154ec54f254025508551155265564557d55f055a556c356075710574e5777579457a457ad57b75765588358a058b058b958fd582a594859ca590a5a325a5b5a885adc5a205b3d5b735bfa5b205c3d5c7f5c885c925c195d365da05db05db95dd65dff5d055e0b5e325e625ea95eb25ebf5ed55e065f795fb75fd45f176034608160a760d060fd601e61736179617f61be61c461de61e461ea61f061f6610f621c62226228624b625162616267626d629662b662026308630e634d6353636d63736379637f6385639e63ab63b163b763da63e063f063f663fc6325644564a664ac64b264dd64ea64f064f664fc6402651b6528652e653465716577657d659665a365a965af65b565bb65d765e465ea65f065f665fc6516661f66b266c066236729672f675a6767676d679b67c867e467f467fd67076837683d6843685f686c6872689768c068dc68ec68f568ff682e6948695169e569ff69566a7f6a856a8b6acd6ad66ae06a5b6b786bdb6beb6bf46b116c176c246ca36cb06cca6cf96c5f6da06dbd6d036e296e526e7b6e9c6ec56ef96e1d6f2a6f386f387a817b4e7dec7deb7eaa876e978a2098aa20977b2098bb20c89b0bc9ba0a979b019abbaeab20ae873751094ec87909647a017c8b95880195ac0178ab64caab9cf42836510934c87909647a017c8b95880195ac0178ab64caab9cf4281c51091a839aff01c8a80b7cbb9599ffc8a70c78cb83aaff5209f032009511f07b10087b158475010a02013d0768020251050750100250330004951108f8951700077b70f0007b75e8007b76e0009515f807951100f89511b8fa8411e06416956938104929e0044929d8044929c8048000330740956800154929d00433000e0128897a951110fe7b10e8017b15e0017b16d8019515f001951190f98411e0641695670010492718f895670010492710f895680010492800f880003307409568ff0795880195690010492908f85010063d7a95670010492738f895670010492730f895670010492728f895670010492720f895670010837720f80a0a0195670010827730f895680010828838f895690010829928f8956a001082aa20f8d49808d4a707d4870751070628901338096802024926d8074926d0074926c8079567e0079568c0077b6918017b69c0075010085e47956b000782baf80082b8f00082b9e80082b7e00050120a7171510806284a137b6710018268180150100cd07d83778168180133090a018268180156181f072835139567a0078268100150100e34788267b8077b6780008267b0077b67788267a8077b67708267a0077b676849267807492670074926600740956780079568600749266807501010d5469568000782899800828a9000828b880082878000d49b0cd4a708d4c808988820d4ac0c97cc20d4c80851080628b112492658074926500749264807330c07956840077b6c40077b69c8007b6ac0007b6bb8007b67d000501012d978826ad0008267c8008268c000d487071408e0ffffff00000000d88a088269b80094989478520806285b1283a720492630073a090000024926280749262007956820077b6938077b67f0005010148a784926f8064926f0064926e00640956700079568e0064926e8065010160d4695680007828c18828910828a088287d4ca0bd49708d4b808988820d49b0b97bb20d4b80851080628ee114926d8064926d0064926c806330b039568c0067b6bc0067b6998007b6a90007b67a0007b6c88005010181678826aa0008267980082688800d487071408e0ffffff00000000d88a08826990009498947852080628981183a7204926b0064926a8064926a006140900000000004b544d9568a0067b69b8067b671850101ac377956780068268d00050101c7b76956700068279980082789000827a88008e978e8bdb970b7b6ae0008ea77b68587b69e800d498087b67507b6ba8007b68d800db8b07510706284e11826780067b676050121e5875956760065010205978956b000682b77082b86882b96082ba78501222367188920184807fd27c04d23c0bdb9800880820d2ac0c648994b9d4c4079479aa92062837115012248a728267608877207b67b000510af8017b6b10017b6018017b6cf8007b6408014926580649265006492648069568400649264006033307501026ee7639086c020256181f123308203d086c020233022828447550122841753307800202837783993308200a0682686095871fd88708826be000c88b09d8b902da8802826858c828087b684897883b989a05d48a0c8268000182821897993b828810987705d497076f206f84826ab00094ba8268d800948a94ac94a7c87002d80209c89408c8c808d3480cd84807dac9077b67408269180195971fd8970c82691001c8c90bd89b03dacc0382690801c839097b6930979c3b98b905d4c90997bb3b987c05d4cb0bc80b0b7b6b1801d80b0cc8c40bc89b0bd34b097b6b1001d84b07da9c077b6738826c48826758d87c09826be800c89b0b98cc0597b93bd4c909826700018274827c0898bb0594a994ab6fcc6f47c87b0bc89c0ad8ca09c89b0b826340c8a303d8a30ac8ab04826930826a0801d8a90b8260f800c8b000989905970b3bd4b909980b05c87b0bc8c909d8c90cc8cb0b826738c897077b670801d8970cc8cb0b7b6b0001951be084b7e064717b67f800017b727b7808826b1801d8b20a50122aee6c510c449518e08488e06481491818491810491808490850102cad768267f8008272827a18827808827b10952201882901c89808d48209889901c89b03d8b30bc8ba0428ad8267b0008577018268e000826950db89078269a800826ad800dba907826ce800d4c802826a6098a93f7b695097840198803f826858978b0198833f97cc0197a9017b69407b64387b60307b6b287b63485107a6017b62a8007b6c2084aae07b6ab000492618064926100649260806956800064926000603330750102ea8749517e08477e07b67080164713308203307501030d1789518e08488e07b6800016481837783893308200a064926180120826b000182b7330233033304330a492610013300330c82b8086f77826908017b971882b71082bb186f887b9810826810016f777b97086fb77b97018267b0007b6ae800d87a07857b017b681001948b01d4c007947b018268d00082671801c87808826ab800c82a0a8269c000c839098267c8007b64f000c874048267a8007b6300017b62f800520bee007b6ce00082671801d8780bc8ba0a6427d32a02d87a0cda2b0cc89c0cd89c0bd839095012324971510706286d0d9567a0017b60d80050103479728267a0018269a801826ab001826bb8015012363e71501038f874826c080150123a1e6d956c000182c718957220d872088267f800c88709d8790ada880a82c7c87a0ad87a088264f000c884048267e800957820d8780b82c710c8b700d87007dabb07826bd800c8b707d8b70b826ce000c8bc0c7b621801649264a3648a6408647028f6fe826950d48a07d4270752072d01492600014926f8004926100149260801826238826830826328826b48285301826360826bb000d33b0b826c58d4cb0bd47b0b826c48826220510ba90082671801d8780bc8ba0a8267f800d37a02d87a0cda2b0cc89c0cd89c0b82670001d8790950123c40705207670c9567e00550103e7671956800058287f8007b6710018287f0007b6700018287e8007b67f8008287e0007b67f000826760501240f16f501042f9767b67e8007b68d0003307ff3308ff826918015010440877501246ae6f501048fe7650124ad96882681001e0b80b50124ced6f50104ea773826220826c4801826750826938d47909826730826a28d47a0ad4c20c826b4095bb019517e08477e064714917184917104917084907039518e08488e064817b8c187b8a107b89087b8b33005e285673956720068268f0007b6c20501050af70826c20826b48826328826830826238826950826a60826738067b670801826730067b671001826728067b67f800826720067b67000101d4cb0b7b6bf000d483077b67e800d492077b67e000501252ae6f5010540e767b67c0007b68d8008267608a79033307ff3308ff5010561b767b67d0007b68c8008268c000d487077b67c000826718018379803307ff3308ff501058f675826b180188b98000826ac000db9a07826cc800826ad800d4ca0ada980a93b7ff93baff826bd00050125a356b82694050125c366c4907039518e08488e064817b8c187b8b107b8a087b8950105e66729567c0058268a000501060c06f95670005827ad8008278d0008279c8008ea78e8bdba70b7b69b8008e977b68c0007b6ab000d4a8087b67d8007b6be0007b68f000db8b075207330b8267c0057b67c800501262846e9567a0055010649d71956b000582b7b00082b8a80082b9a00082bab800501266766a88920184807fd27c04d23c0bdb9800880820d2ac0c648994b9d4c4079479ab924a0b501268cc6b8267c8008877207b67e800510aff017b6b10017b6018017b6cf8007b640801492698054926900549268805956880054926800504330750106a2f7039086c020256181f123308203d086c020233026c28856e50126c826e3307800202837783993308200a068268c80095871fd88708826bb800c88b09d8b902da88028268c000c828087b68d00097883b989a05d48a0c8268000182821897993b828810987705d497076f206f84826ae80094ba8268f000948a94ac94a7c87002d80209c89408c8c808d3480cd84807dac9077b67a8008269180195971fd8970c82691001c8c90bd89b03dacc0382690801c839097b6958979c3b98b905d4c90997bb3b987c05d4cb0bc80b0b7b6b1801d80b0cc8c40bc89b0bd34b097b6b1001d84b07da9c077b6760826cd0008267c000d87c09826bb000c89b0b98cc0597b93bd4c909826700018274827c0898bb0594a994ab6fcc6f47c87b0bc89c0ad8ca09c89b0b8263a800c8a303d8a30ac8ab04826958826a0801d8a90b8260f800c8b000989905970b3bd4b909980b05c87b0bc8c909d8c90cc8cb0b826760c897077b670801d8970cc8cb0b7b6b0001951be084b7e064717b67f800017b727b7808826b1801d8b20a50126e2866510c449518e08488e064814918184918104918084908501070e76f8267f8008272827a18827808827b10952201882901c89808d48209889901c89b03d8b30bc8ba0428ad8267e800857701826bb8008268d800dbb8078268e0008269f000db980751079e018267c8008477e07b67d0004926580549265005492648059568400549264005043307501072186e9517e08477e07b6710016471330820330750107441729518e08488e07b6808016481837783893308200a06330020826708018272492618013303330c330b33043309330a8278087b68000164786f27826210017b27188287108288187b680801826800016f887b28106f7764287b2708826708016f77826218017b87018267d0007b6bf000d87b07857b017b64e800944b017b6a08017b690001d4a907947b018267a000c80708826a90007b621801c8a202826498007b63f800c8340982638800c8c303520bdb007b6cd8007b60e000d87800c8020bd3ab02d8ab0cda200c501276fd675207dd0695674002501078ec6b95680002828740828948828a50828b5850127aca6a50107c6b6e826c100150127e91668267e000957220d8720882671801c88703d8730ada880a8267f800c8a704d87408826cd800c88c0c8267f000957820d8780b8267e800c8b709d87907dabb07826a0001c8a707d8a70b826a0801c8ba0a642064326443648b64946479280dff826ac8008269c000d49a07826cb000d4cb08d4870752072b01492600014926f8004926100149260801285501826bd000826cc800d3cb0b826cc000d4cb0b8260b800826cb000d4c00cd4cb0b510b9900d87800c8020bd3ab02d8ab0cda200c502280000a675207e9059567200550208200f86a956800058287387b6708018287307b6700018287287b67f8008287207b67f0008267c800502284007569502086007c707b67e8007b68d0003307ff3308ff82691801502088008a7050228a002f6950208c007e7050228e00586282680801e0b80b50229000846950209200246d8260b80001826bc80098b73f970901d4790998073f8268c000978a01d47a0a98873f826cb00097cc01d47c0c97bb0195bb019517e08477e064714917184917104917084907049518e08488e064817b8c187b8a107b89087b8b3300a20028c16c95676005826818502094001e6a826cb000826bb8008269c000826ac800956800058287787b6708018287707b6710018287687b67f8008287607b6700010198973f97c801d487077b67f00098b73f979801d487077b67e80098a73f97b801d487077b67e00097a7017b67d80050229600086950209800676f7b67b8007b68d0008267c8008a79033307ff3308ff50209a00726f7b67c8007b68c0008268b800d487077b67b800826718018379803307ff3308ff50209c004c6f826b180188b98000826ab800db9a07826cc000826ad000d4ca0ada980a93b7ff93baff826bc80050229e008a648269d8005022a00089654907049518e08488e064817b8c187b8b107b8a087b895020a200b86b33078002037b67180183777b6710013300a4000a03826918013302a60028cc5e826918015022a600c55e4926f8047b68f0047b67e804956700059568e0047b6ae0045020a8002739826710013300aa000a03826918013302ac00288f5e826918015022ac00885e4926b8047b68b0047b67a8049567c0049568a0047b6aa0043300ae009511a0fd951900027b90587b95507b9648951560023302ae03284d68826710013300b0000a03826918013302b20028385e826918015022b200315e49267804956900047b98707b976895678004956860047b9a603300b4009511a0fd951900027b90587b95507b9648951560023302f40328f567826710010a0301826918018097108298829908d48707d49707510788049518e08488e06481491818491810491808490805956740045020b6001b6a7c6740045207c4045022b8009263956700045020ba00036a8264180482631004826000047b600801826c08049518e08488e06481826970c8c90b826768c87000d87007c87b0bd39b0ad89b09daa709826278c83207826a8000c84a0ad82702c82a0ac87909d87907c87a02d3bc07d8cb0c826a0801d8a00adb7c0ad83907d3240cd84204dac704d39307d4c707db740a7b89107b8b087b807b8218520a73045022bc00c5665020be00db69826710013300c0000a03826918013302c20028fa5c826918015022c200f35c4926f803956900037b98f0007b97e8009568e0037b9ae00033075020c4003e684926d8034926d0034926c8033307209568c0034926c0035020c60021689517e08477e07b670801647139086c020256183f133308403d086c02023302c8002869665022c800666633078002027b67f800837783993308403300ca000a06826a00013302cc0028a85d826a00015022cc00a15d826808017b8a187b89107b8b087b879567a0035020ce00a6688268a8038269a0038262b803826bb003826c70c88c0c826768c89707d89709c89c0cd38c0ad88c08daa908826978c8b909826a8000c8a202d8b90ac82a0a5022d0003f60826708015020d200c368956780033308405020d4001d66956b000382ba980082b8900082b9880082b780005022d6000b5f5208e6008268687b6860038268707b6868038268787b68700395686003826980007b6978037b6708015020d8000f67826710013300da000a03826918013302dc00288e5c826918015022dc00875cd4780298aa206f99979820d4a80898992049261803492638034926300349262803492620033a0a0800023a0b1000023a0c1800023a072000027b6a5803956a00037bab507bac487ba7407ba9107ba80833082095694003956a2003956b00037b620003826708015020de00b1689567e0023308405020e0003b65956b000282b7f80082b8f00082b9e80082bae0005022e200ec605107b2020033088002028388330701280d330880020283883307010133093300e4000a073302e60028d5605022e600d2605020e80025665022ea003f625020ec00196639086c020256183f1220036c020240330880020228500233088002022848024926900149268801492680013302ee00140700000000717b484e01956880017b67980133075020f000cf654926780149267001492660012233070495686001492668015020f200b16539086c020256183f1220036c020240330880020228e801330880020228e0014926f0014926e8014926e0013302f400140700000000717b484e019568e0017b67f80133075020f60067654926d8014926d0014926c001413307049568c0014926c8015020f800496539086c020256183f1220036c020240330880020228800133088002022878014926300249262802492620023302fa00140700000000717b484e01956820027b67380233075020fc00ff644926180249261002492600022233070495680002492608025020fe00e16439086c020256183f1220036c02024033088002022818013308800202281001492690024926880249268002140700000000052f44ec956880027b6798023307502000019c644926780249267002492668023307049568600249266002502002017f6439086c020256183f1220036c020240330880020228b600330880020228ae0049263004492628044926200414070000000065063cd9956820047b6738043307502004013a6439086c020256181f0b20036c02022001330880020283883307013309040a07014926d0024926c8024926c00233020601140700000000717b484e019568c0027b67d802330750200801ef634926b8024926b0024926a002113307049568a0024926a80250200a01d16339086c020256183f1120036c0202403308800202280833088002020183883307013309240a07018267f800bea707330833097b6a18010a28446282671801330850200c01ca67837833072847fd33076802027b67b80039076802025517040728932e9517e08477e07b67b000647183773308330010010a01018267b00081771c524759cb56840a28851651475448d1913a015247419bd8950a28a00f5147dffd17a2a6035247bb9c05a90a28a4185147931339d5170751473eed62dd05045247e9b13ae60a28c71b514703defd068a075247b3a75e090a28431c5247dd0d16180a28ec135247dd72b8230a28c0195247a39c8a240a287217514767e53c31540652473aa84b3f0a2881125147190fc140280a5147bb5a975c0a286f14502212018b56330014010a0a33021601289856502216019556510706288f218267b800817756170307288f2150221801df5e9577810450201a016c639567ff07957739827748047b67b8009567ff079577610433084050201c011e61956aff0795aa3995ac000482cb4082c83882c93082c72850221e01f25951080628d71e7c68b8008e88492a2004492a18047ba808049568ff0795884104492a10047b67b80033000c03280a6250222001e355330022010a0a3302240128f05550222401ed555107062801218267b8008177330843ac780628ff209567ff079577810733002601330252042846609568ff07958839958900078297587b67a8008297507b67b0008297487b67b80050222801e05d0a01826aa00082a782a80882a91082aa18956bff0795bb3995bc00077bca407bc9387bc8309568ff07958861077bc728330750202a016e619568ff079588394928200749281807492808070664893307209568ff07958841074929100750202c01436133086c020239076c020256173f0b20036c020240019517e08479e07b69900064913307800202837783997b68a0003308407b67980033002e010a06826a90003302300128475d826a900050223001405d7b6788006f877b6780006f977b67786fa77b67709517e08477e07b67900064718267a8009777209877209569ff0795993949290007959a00067ba7f8008267b0007ba7f0009568ff07958821078267b8007ba7e80033075020320196608267709568ff07958839958900067b97e0008267787b97d800826780007b97d000648a3307209568ff0795880107826988007ba9c806502034015a608268a000818756173f08480840019517e08477e07b67b8006471837933084082679800330036010a06826ab8003302380128f855826ab80050223801f155826890007b8a187b89107b8b087b879567ff079577e10650203a01f2609567ff079577398277a8067b67b8009567ff079577c10633084050203c01a45e956aff0795aa3995ac000682cba00082c8980082c9900082c7880050223e01745751080628591c7c68b8008e88492a8006492a78067ba868069568ff079588a106492a70067b67b80033000c03288c5f502240016553330042010a0a33024401287253502244016f53510706289d1e8267b800817756170307289d1e9567a011330840502046011b5e956a381095ac000182cb800082c87882c97082c76850224801f15651080628d61b492a6001492a5801492a500195688011492a48017b67b80033000c0328135f50224a01ec5233004c010a0a33024e0128f95250224e01f652510706283e1e8267b8008177330843ac7806283c1e1407ffffffff000000007b67b8009567a014330050013302480428455d95683810828768047b67b000828770047b679000808778047b678800956780143300520133025204281a5d95683810958900048297587b67a8008297507b67a0008297487b67980049284004826788007b9738826790007b97306489956860148267b0007b9728043307502054015b5e95683810492820044928180449280804016489330720956840144929100450205601375e33086c020239076c020256173f0b20036c020240019517e08479e07b69880064913307800202837783997b68b0003308407b679000330058010a06826a880033025a01283b5a826a880050225a01345a7b6780006f877b67786f977b67706fa77b67689517e08477e07b6788006471826798008477ff8269a0008498ff8269b800826aa800d2a909956a3810492a000495ab00037bb9f8007bb8f000956820147bb7e800330750205c018b5d82676895683810958900037b97e0008267707b97d8008267787b97d000648a33072095680014826980007ba9c80350205e01575d8268b000818756173f08480840019517e08477e07b67b8006471837933084082679000330060010a06826ab8003302620128f552826ab80050226201ee52826888007b8a187b89107b8b087b879567e01350206401f35d95683810958900038297c0007b67b8008297b8007b67b0008297b0007b67a8008297a8007b67a0009567c01333084050206601905b956a381095ac0003502268015c595107062858198267a00095a900037b97688267a8007b97708267b0007b97789568a0138267b8007b97800064b77b6bb80033000c0328825c50226a015b5033006c010a0a33026e0128685050226e01655051070628c71b8267b80081775617030728c71b9567e00733084050207001115b956b000782baf80082b8f00082b9e80082b7e00050227201ff5351080628cd184926d8074926d0074926c8079568c0074926c007127b67b80033000c0328095c50227401e24f330076010a0a3302780128ef4f50227801ec4f51070628681b8267b80081775617030728681b9567a01233084050207a01985a956a381095ac000282cb800082c87882c97082c76850227c016e535108062853183a0848000295ac00027bc8603a0b5000023a085800023a096000027bcb587bc850956880127bc9487b67b80033000c03287c5b50227e01554f330080010a0a3302820128624f502282015f4f51070628f51a8267b80081775617030728f51a9567a002330840502084010b5a8267b8027b67388267b0027b67408267a8027b67488267a0027b6750502286010d5995678002502088010d5c826990028264880282629802826c800297973f984801d4870797283f7b69b000989901d4980897493f98ca01d49a0b9829017b6ca80084cc019acad2a808d27a03d2a90984b07fdac00b7b6b980088b7207b63880094377b6890007b698000d4980894877b6cb80088c801aa780628581a826940826b50d49b07826838826a48d4a808d48707987720d49808978820d4780851080628231764b77b60707b64787b62a00082689800956a00027ba860826888007ba868826890007ba87095686002826980007ba97850208a014c5a8267b80051070628e41650228c01d65552080628d7168268a800848800ff83a720826978956b00017bb9e8007bb8e0008268b0007bb8f0009568e001826aa0007bbaf80050208e01025a33043302330c8267708e779770050195073fd80708c884098477e0826350c87303d87307826a48c89a0ac87a00d3900ad8900bdaa70bd84907da8807c82707d82708826440c84709c89b0bd87907d89b09826238c82c0ac8a808c88707c8970c8ec78eb8dbc708d4cb078e09db7809510906283b1e826750d87307826948d39008d89009da8709d84b07d32c08d82c0ada870ad34b07d48707da790a510a06280e1e7b63c0017b60c8017b6bd0013307409568c0017b6cd8017b63b0007b60a8007b6ba0007b6cb800502090013359826738956b00017bb7788267407bb7708267487bb7688267507bb7608267b8007bb798008267a0007bb790008267a8007bb788009567a0019568800195696001826ab0007bba800050209201ac2f826cb8008262a000826ba8008269b000d42907d4cb08d48707987720d42808978820d48707510706285b15956c000182c7a80082c8b8007b6898008263a00182cab00028f10750229401754c330096010a0a3302980128824c502298017f4c5107062897188267b8008177330843ac78062895189567ff079577e10333009a013302480428d8569568ff07958839958900038297b8007b67788297b0007b67a8008297a8007b67b0009517e08477e07b67b800647183773308240a018268b8008287187b67a0008287107b6798008287087b67900082877b6780003a074800027b6740956aff0795aa3995ab00037bb7a0003a085000023a095800023a076000027b68307bb898007b69287bb990009568ff079588c1037b67387bb78800330750209c01bf579568ff079588394928800349287803492868030664893307209568ff079588a1034929700350209e01945733086c020239076c020256173f0b20036c020240019517e08479e07b69706491330780020283777b68880083993308407b67b8003300a0010a06826a703302a201288450826a705022a2017e5033078002037b677083777b67203300a4010a038269703302a601283a4b8269705022a601344b49296003959b00037bb8587bb7509568ff07958881037bba4833075020a80100578267489568ff07958839958900037b97408267507b97388267587b9730648a3307209568ff07958861038269607ba928035020aa01c95682688800818756173f08480840019517e08477e07b67605022ac0192533300ae010a06826a603302b00128ee50826a605022b001e8509567ff07957741035020b20178579569ff079599397c97080352070628a5168267789777209879208267b0008268a800d487077b6970d497075207062853175020b4018e495022b601c0509567ff07957721035020b8012d579568ff0795883982840003958900028297f800829be800829cf0009518e08488e06481826a9000c8ca0a82628000c8b202d8b20bc8ba0ad3ca03d8ca09da3b09826b9800c87b0bc89b0cd8bc038260a000c84000d87b0bc80b0bc83b00d87c03d3040bd84004dab304d3c707d4b707da79047b8c107b8a087b827b80185104062814175022ba01f3535020bc0109579569ff079599394929e002826770959a00027ba7d8008267a8007ba7d0009568ff07958801038267b0007ba7c80033075020be0175559567ff079577394927c0024927b8024927b00264793307209568ff079588e1024929a8025020c0014b559517e08477e07b6778647182698800819756173f08480940019517e08477e07b6788005022c20108523300c4010a06826a88003302c60128e34a826a88005022c601dc4a8268787b8a187b89107b8b087b879567ff079577c1025020c801de559567ff07957739957a000282a8900082a988008272a00282ab9800826c9000c88c0c82678000c89707d89709c89c0cd38c0ad88c08daa90882699800c8b909826aa000c8a202d8b90ac82a0a5022ca01694d8267785020cc01ee559567ff079577a1023308405020ce014453956aff0795aa3995ac000282cb800082c87882c97082c7685022d001174c51080628fc108268800095ab00027bb848826890007bb850826898007bb8589568ff07958881028269a0007bb9607b67a0005020d2012954956cff0795cc39492c000282677095c800017b87f8008267a8007b87f0008267b0007b87e800492c2002492c1802492c10023a07a800023a08b000023a09b800023a0ac0000295cb00027bb7407bb8387bb9307bba283308209569ff0795996102956aff0795aa4102956bff0795bb2102492c08028267a0005020d401d85533078268b80033090a0733088002022822085022d6016e473300d8010a0a3302da01287b475022da0178475107062860158267b800817756170307286015956760113308405020dc01245295683810958900018297407b67388297387b67408297307b67488297287b67505022de010a51956740115020e001225495673810827418018270100182732001827b080197473f980801d4870797383f984901d4980897093f98ba01d49a0c9839017b6ba80084bb019abad2a808d27a02d2a90984c77f7b67b000dab70c7b6c980088c7207b62880094277b6890007b698000d4980894877b6bb80088b801aa780628bb14826940826a50d49a07826848826b38d4b808d48707987720d49808978820d4780851080628340f64a77b60707b64787b63a00082689800956a38107ba8e800826888007ba8f000826890007ba8f80095682011826980007ba900015020e20159528267b8005107062816105022e401e34d52080628e40e8268a800848800ff83a72095693810826a707b9a707b98688268787b98789568a010826aa0007b9a80005020e601135233043302330c8267b0008e779770050195073fd80708c884098477e0826350c87303d87307826a48c89a0ac87a00d3900ad8900bdaa70bd84907da8807c82707d82708826440c84709c89b0bd87907d89b09826238c82c0ac8a808c88707c8970c8ec78eb8dbc708d4cb078e09db7809510906288116826750d87307826948d39008d89009da8709d84b07d32c08d82c0ada870ad34b07d48707da790a510a0628541695693810643a7b9a487b90507b9b58330740956880107b9c607b6ab0007b60a8007b6ba0007b6cb8005020e8014151956838108267387b87826740958900ff7b97f8008267487b97f0008267507b97e8008267b8007b87208267a0007b87188267a8007b8710648b956760109568401095692010826ab0007bba085020ea01b627826cb8008262a000826ba8008269b000d42907d4cb08d48707987720d42808978820d487075207680d95683810828730828a407b6a9800828328828a3801d3b704d8b70cd89300da400cc92a08c9c804d8c808d82a0a826c9800c9ac0a826cb800c9ca0ac98a0ac9b707c90707c99308d4a707d4480ad47a0ad4470798aa20977720d4a7075207080d64977b68b8005020ec01995483788169b8003307330010030a0728fa155022ee011f443300f0010a0a3302f201282c445022f201294451070628a8128267b80081775617030728a8125020f401d9355022f6016d4c957721015020f801fa509569ff079599398297e8008478ff00520806288a12829b0001829af8008299f000847c00ff5022fa01084a5020fc0134519567ff07957701013308405020fe018a4e9567ff079577398278e0007b68b0008278d8007b68a8008278d0007b68a0008277c8007b67b80033078002037b6798008377330000020a033302020228f94b50220202f64b52071e0c826998005022040285434929c0007b98b8007b97b0009568ff079588e1007b9aa80064b750200602524f3a07c800023a08d000029569ff079599397b97a0003a07d800027b9898003a0ae000027b97900064973308209569ff079599c1007b7a88008267b80050200802d15033088002028388330728331a50220a02da4233000c020a0a33020e0228e74250220e02e44251070628cd118267b80081775617030728cd11502210024a499567000550201202bb4f956800058287187b67b8008287107b67b0008287087b67a80082877b67a0009567e00433084050201402614d956b000482b7f80082b8f00082b9e80082bae0005022160212495207200b8267a000956900047b97c0008267a8007b97c8008267b0007b97d0009568c0048267b8007b97d80064a77b6ab80033000c0328464e51473182a0700a28411150221802154233001a020a0a33021c0228224250221c021f425107062854118267b8008177330823ac78062852119567ff079577410533001e023302480428784c956aff0795aa3982a7080582a8100580a91805492a000595ab00047bb9f8007bb8f0009568ff07958821057bb7e800330750202002c74d9567ff079577394927e0044927d8044927d00464793307209568ff07958801054929c804502022029d4d39086c020256183f0b20036c020240019517e08479e07b69b8006491330780020283778399330840330024020a06826ab80033022602284b43826ab8005022260244439567ff079577e104502028023f4e9568ff07958839958900048297c0007b67b8008297b8007b67b0008297b0007b67a8008297a8007b67a0009567ff079577c10433084050202a02d54b956aff0795aa3995ac000450222c029e4952079d098267a00095a900047b97688267a8007b97708267b0007b97789568ff079588a1048267b8007b97800064b77b6bb80033000c0328c24c50222e029b40330030020a0a3302320228a84050223202a54051070628f40f8267b80081775617030728f40f50203402553250203602cd3f50223802884a4908059567ff079577810650203a02694d9568ff07958839958c000682c95082c74882ca5882cb60847700ff867c0150223c027e4650203e02aa4d9567ff079577610633084050204002004b9567ff07957739957900068298407b68b0008298387b68a8008298307b68a0008297287b67b80033078002037b6798008377330042020a0333024402286f48502244026c48520794088269980050224602fb3f49292006959c00067bc8187bc7109568ff07958841067bca0864b750204802c74b3a078800023a089000029569ff079599397b9700063a079800027b98f8053a0aa000027b97f00564973308209569ff07959921067b7ae8058267b80050204a02464d33088002028388330728a8168388330733090a07330880020228f350224c02403f33004e020a0a33025002284d3f502250024a3f51070628b30e8267b80081775617230728b30e9517e08477e07b67b800647183773308040a01826ab80082a982a70882a81082aa187b6ab8067b68b0067b67a8069567c0069568a0067b69a00650205202c8248267d8067b67b8008267d0067b67b0008267c8067b67a8008267c0067b67a00095678006330840502054029649956b000682b7980082b8900082b9880082ba8000502256024745520755078267a000956900067b97608267a8007b97688267b0007b9770956860068267b8007b977864a77b6ab80033000c03287f4a50225802583e33005a020a0a33025c0228653e50225c02623e51070628e50d8267b8008177330843ac780628e30d9567601233005e023302480428bf4895683810958900028297287b67b8008297307b67b0008297387b67a8008297407b67a0009517e08477e07b67800064718377330824330060020a013302620228ff4550226202fc4533078002037b67788377330064020a033302660228a043502266029d43956a3810826b800095ac00017bcbe000826b88007bcbd800826b90007bcbd000826b98007bcbc800826ba0007bab0002826ba8007bcbf800826bb0007bcbf000826bb8007bcbe80095ab00027bb9187bb7107bb808956740129568201295690012492a2002502068028c299567e01133084050206a022d48956a381095ac000182cbc00082c8b80082c9b00082c7a80050226c0200415208e805492aa001492a9801492a8801019568c011492a90017b67b80033000c0328234950226e02fc3c330070020a0a3302720228093d50227202063d5207a60c8267b8008177330863ae78a60c956740063300740233024804286747826740067b67b800826748067b67b000826750067b67a800826758067b67a000956720063300760233025204283847826720067b6778826728067b6770826730067b6768826738067b67609517e08477e07b67800064718377330844330078020a0133027a0228804450227a027d4433078002037b6758837733007c020a0382695833027e0228f63c82695850227e02f03c826980007b69d805826988007b69d005826990007b69c805826998007b69c0054926f8058269a000956b00067bb9188269a8007bb9108269b0007bb9088269b8007bb97b68f0057b67e805956700069568e0059569c0057b6ae00550208002be22826780007b677805826788007b677005826790007b676805826798007b6760058267607b6798058267687b6790058267707b6788058267787b6780058267a0007b67b8058267a8007b67b0058267b0007b67a8059567a0059568800595696005826ab8007b6aa00550208202a32795674005330840502084024446956b000582ba5882b85082b94882b74050228602363f520807044926380549263005492628059568200549262005017b67b80033000c03284247502288021b3b33008a020a0a33028c0228283b50228c02253b5207df0a8267b8008177541703e20a9567e01433084050208e02d545956a381095ac000482cbc00082c8b80082c9b00082c7a80050229002a83e520890033a0828000295ac00047bc8a0003a0b3000023a083800023a094000027bcb98007bc890009568c0147bc988007b67b80033000c0328b446502292028d3a330094020a0a33029602289a3a50229602973a52076b0a8267b8008177330843ae786b0a9567a004330098023302480428f844956800048287b0007b6798008287a8007b67b0008287a0007b67b8009517e08477e07b67a80064719517e08477e07b67a000647183773308240a01826aa00082a71882a81082a90882aa826ba8007bb7187bb8107bb9087bba33078002037b67a00083777b6790000a03018269a0008097108298829908d48707d497075107e809826798009777209878208267b0008269b800d497077b689800d4870751072a0a8267900033009a020a038269a00033029c02285a3a8269a00050229c02533a492698047b6890047b678804956880047b6a8004330750209e02a2454926780449267004492660040133072095686004492668045020a002844533086c020239076c020256173f0b20036c020240019517e08479e07b697864913307800202837783997b6888003308407b6780003300a2020a06826a783302a402288a41826a785022a40284417b67706f877b67686f977b67606fa77b67589517e08477e07b6778647149265804826798007b6750048267b0007b674804956840048267b8007b67400433075020a602f244826758956a00047ba7388267607ba7308267687ba728330720956820048269707ba9205020a802c94482688800818756173f08480840019517e08477e07b67880064718379330840826780000a06826a880082a71882a81082a90882aa6f7b6f886f996faa8267787b7a187b79107b78087b7b8268a8005020aa02d345956700043308405020ac022d43956b000482ba1882b81082b90882b75022ae02203c5208f100826aa80082ab82a80882a91082aa187b6af8037b69f0037b68e8039568e0037b6be0037b67a8005020b0022244826790003300b2020a038269a0003302b40228a1398269a0005022b4029a39d4780298aa206f99979820d4a80898992049269803826798007b6790038267b0007b6788038267b8007b6780034926b8033a0ae800023a0bf000023a0cf800023a070001027b6ad8037b6bd0037b6cc8037b67c0037b69b0037b68a8033308209569c003956aa003956b80037b62a0038267a8005020b602b745956760033308405020b8024142956b000382ba7882b87082b96882b7605022ba02333b5108cd080049265802492650024926480295684002492640020333075020bc0244439517e08473e06431330033043302330c3a070801023a081001023a091801023a0a200102643b7bb7187bb8107bb9087bba8268509587207b6778d88707826848c878097b6970d88908da7708826740c878087b6868d87807826838c887077b67607b6b580182679800d8700782698800d39408d89409da8709826b9000d8b207826a8000d3ac08d8ac0ada870ad3b207d48707da790a520a0628b8e89567200264387b6cb8007b62b0007b64a8007b60a0005020be027f435022c002fe3ad8c802826cb800826a60c8ac0cc82c0c5022c202363f52080eff956a000282a93882a83082ac2882ab207bab7bac087ba810956800027ba9185020c40247425022c602483764a22860ff956938104929e0004929d8004929d000956800114929c8000433075020c8021b429517e08473e06431330033043302330c3a076800023a087000023a097800023a0a800002643b7bb7187bb8107bb9087bba8268509587207b6778d88707826848c878097b6970d88908da7708826740c878087b6868d87807826838c887077b67607b6b580182679800d8700782698800d39408d89409da8709826b9000d8b207826a8000d3ac08d8ac0ada870ad3b207d48707da790a520a06287fef9567e01064387b6cb8007b62b0007b64a8007b60a0005020ca0256425022cc02d539d8c802826cb800826a60c8ac0cc82c0c5022ce020d3e5208e5fd956c381082c2c00082c8b80082c9b00082cba8007bcb88007bc990007bc898009568c0107bc2a0005020d00215415022d202163664a22857ff33088002028388330701282c0c33088002028388330701281f0c3308800202838833070128120c3308800202838833070128050c3308800202838833070128f80b3308800202838833070128eb0b3308800202838833070128de0b3308800202838833070128d10b3308800202838833070128c40b3308800202838833070128b70b3308800202838833070128aa0b33088002028388330701289d0b3308800202838833070128900b3308800202838833070128830b4926100149260801492600013302d402140700000000717b484e01956800017b67180133075020d60229404926f8004926f0004926e000223307049568e0004926e8005020d8020b4039086c020256183f1220036c02024033088002022853053308800202284b0533088002028388330701280e0b3308800202838833070128010b4929580149295001492948011407000000003f7d51e29568ff07958881017b97600133075020da02a83f8267203300dc020a038269703302de0228a5338269705022de029f3349294001959b00017bb8387bb7303307049568ff07958861017bba285020e0026a3f8267409568ff07958839958900017b97208267307b97188267287b9710648a3307249568ff07958841018269387ba908015020e202333f82678800817756175f1a826888004808603307013309448268b8000a0728fa003307013309448268b8000a0728eb009567ff079577394927980149279001492788016479140700000000052f44ec9568ff079588c1017b97a00133075020e402d13e9567ff0795773949278001492778014927700164793307049568ff079588a101492968013300e80228a33e9567ff079577394927d8014927d0014927c8016479140700000000717b484e9568ff07958801027b97e00133075020e602733e9568ff079588394928c0014928b8014928a8011164893307049568ff079588e1014929b0015020e802483e82678800817756173f19826888004808403307013309248268b8000a07280f3307013309248268b8000a070133088002028388330701283e09330880020283883307012831099567ff079577394927980749279007492788076479140700000000717b484e9568ff079588c1077b97a00733075020ea02cf3d9568ff079588394928800749287807492868072264893307049568ff079588a107492970075020ec02a43d39086c020256183f1220036c020240330880020228ec02330880020228e4023308800202838833070128a70833088002028388330701289a08330a4919784919701407000000002b20fc8d7b9780009568ff079588a10049196833075020ee02423d39086c020256181f1120036c0202203308800202280833088002020183883307013309040a070133088002028388330701283d083308800202838833070128300852471f7447d5af025022f002cf303300f2020a0a3302f40228dc305022f402d9305107f0023308800202838833070128fe073308800202838833070128f1073308800202838833070128e4073308800202838833070128d7073308800202838833070128ca073308800202838833070128bd073308800202838833070128b0073308800202838833070128a307330880020283883307012896073308800202838833070128890733088002028388330701287c0733088002028388330701286f073308800202838833070128620733088002028388330701285507330880020283883307012848074926f0024926e8024926e00214070000000005df02e69568e0027b67f80233075020f602f33b4926d8024926d0024926c8023307049568c0024926c0025020f802d63b39086c020256183f1220036c0202403308800202281e013308800202281601492630034926280349262003140700000000620d2894956820037b67380333075020fa02913b49261803492610034926080333070495680003492600035020fc02743b39086c020256183f1220036c020240330880020228bc00330880020228b4005022fe02f63550200003493b502202036337502004033d3b39086c020256183f1220036c02024033088002022885003308800202287d9567ff079577394927d8074927d0074927c807647933020603140700000000717b484e01956800107b97e007330750200803eb3a9568ff079588394928c0074928b8074928a8074164893307049568ff079588e1074929b00750200a03c03a39086c020256183f1120036c0202403308800202280833088002020183883307013309240a07014926580349265003492648039568400349264003017b67b80050200c037a3a3308208267b80050200e03ac3e83783309203307330010030a07280e3309203307330010030a07015247a7c9ff013150221203212e330014030a0a33021603282e2e502216032b2e51078b003308800202838833070128500552475df12f2f4850221803f02d33001a030a0a33021c0328fd2d50221c03fa2d5107b10133088002028388330701281f058267b80081775617435b330880020283883307012808055247be8a5636570150221e03a72d330020030a0a3302220328b42d50222203b12d5107c3013308800202838833070128d6048267b800817756172369013308800202838833070128be0450222403c335330026030a01330228032835355022280332359567801333002a033302520428e13795683810958900038297487b6798008297507b6790008297587b6788008297607b6780008267a0007b97208267a8007b97188267b0007b9710648a95676013956840138269b8007ba9080350202c03e012956b381095bc000382c82882c73082c93882ca407bca95ba00027ba9f8007ba7f000956720137ba8e80050202e0340209567381082688000957900027b98a000826888007b989800826890007b989000826898007b9888008268a0007b98c0008268a8007b98b8008268b0007b98b000647b956700139568e0129569c012826ab8007bbaa80250203003f0233308800202280ced5247686c9642a70050223203502c330034030a0a33023603285d2c502236035a2c5107a60033088002028388330701287f038267b8008177561743a700330880020283883307012867039517e08477e07b67b800647183773308040a01018268b800828718828910828a828808977b2098bb20d4a909d48b0bd49b0b510b6001330880020283883307012824038267b8008177330843ac78bc0133088002028388330701280a035247a95a6766cc028267b800817756170305033308800202838833070128ea028267b8008177561723f5023308800202838833070128d20250223803d73333003a030a0133023c0328493350223c0346339567a00733003e033302520428f5358267a0077b6798008267a8077b6790008267b0077b6788008267b8077b6780008267a0007b6778078267a8007b6770078267b0007b67680795678007956860078269b8007b69600750204003f710826880078267880782699007826a98077b6a58077b6950077b674807956740077b684007502042035d1e82678000956800067b87f800826788007b87f000826790007b87e800826798007b87e0008267a000956b00077bb7188267a8007bb7108267b0007bb70895672007956800079569e006826ab8007bba50204403971f33088002022830eb140a000000000bdb6579d37a0ad48a0ad49a0a88aa01140b00000000a7c9ff01d3b707d48707d49707887701d4a7074926d8004926d0007b67c000330780009568c0004926c80050204603593639086c020256289f001820036c0202a00033078002028378800028e1fb33078002028378800028d5fb9567ff079577810033004803330252042897349567ff079577398278607b68a0008278587b68a8008278507b68b0008277487b67b80033078002037b67980083770a03018269980082970882988199106f77987a206f88978b20d4ba0a9777206f99989920d497079888208269a800979920989920d398088269b800d39707d487078268b000d3a808d48707520775019517e08477e07b679800647183773308040a0182699800829a829708829810829918826ba000956c00107bcb18f8826ba800956c00107bcb10f8826bb000956c00107bcb08f8826bb800956c00107bcb00f8956bff0795bb397bb97bb8f8956800107b8728f89567ff079577419568ff079588219569ff07959901956b00107bba20f850204a037d2033088002022899e952479067cc793050224c03de2833004e030a0a3302500328eb2850225003e82851070d0133088002028388330701280d330880020283883307010133090a0733088002022852e93308800202284ae950225203f430330054030a013302560328663050225603633033078002037b6798008377330058030a038269980033025a03289b288269980050225a039428826ba000959c00037bcbe000826ba8007bcbd800826bb0007bcbd000826bb8007bcbc800492900047bc8f8007bc7f0009567ff07957721049568ff07958801047bcae80050205c03dc22330880020228b9e89569ff07959939330a49193849193014070000000032b297667b97409568ff07958861491928330750205e03013439086c020256181f1220036c020220330880020228c7f6330880020228bff68267b8008177330843ac78193308800202838833070133090a073308800202284ae89567ff079577010633006003330248042827329568ff07958839958900058297c8007b67b8008297d0007b67b0008297d8007b67a8008297e0007b67a0009517e08477e07b67800064718377330824330062030a013302640328602f502264035d2f33078002037b67788377330066030a033302680328012d50226803fe2c956aff0795aa39826b800095ac00057bcb8000826b88007bcb78826b90007bcb70826b98007bcb68492aa005826ba0007bcbc000826ba8007bcbb800826bb0007bcbb0007bc998007bc790007bc8880064ab9567ff079577e1059568ff079588c1059569ff079599a105826ab8007bbaa80550206a038d0d826780009568ff07958839958900057b9740826788007b9738826790007b9730826798007b97288267a0007b97608267a8007b97588267b0007b9750648a9567ff07957781059568ff07958861058269b8007ba9480550206c031221330880020228efe6951130ff7b10c8007b15c0007b16b8009515d0008411f08289187b19108289107b19088289087b1982867b17289517900033084050206e03f030821898008219900095671fd86700821ac80a0b8477e0c8b803c879027b1920d8920cc8c303d383067b1818d88309da6c098214a800d8ab0b8216a000da000b821708c87b0bd87b0cc86b0bc89b0a821710c84707c8c707d8ba0cd86b0bc8b707c8c70b8eb78eacdbb70cd4ba078e38db7c08520865d86a07d34b08d84b0cda870cd36a07d48707db7c0952094d7b12707b13787b1a80003307409518707b1b88007b14105020700381318217288218107b78187b76108218187b78088218207b78955130ff8210c8008215c0008216b8009511d000320049116049115849115033027203140700000000717b484e019518507b17683307502074032e314911484911404911304133070495183049113850207603153139086c020256183f0b20036c0202400133088002028388330701330924330078030a07019511c0fd951900027b90387b95307b9628951540028411e064168289107b69308289087b695082887b68587b67384926180249261002492608029568000249260002330750207a03a7304926f8014926f0014926e001063307209568e0014926e80150207c03893033086c020239076c020256173f0b20036c020240019517e08479e07b692864913307800202837783997b68483308407b674033007e030a063302800328af2550228003ac258267309777209877204926d8017b677b67d0018267507b67c8019568c0018267587b67c0013307502082031730826708956a00017ba7b8008267107ba7b0008267187ba7a8003307209568a0018269207ba9a00050208403ea2f826848818756173f08480840019517e08477e07b673050228603f52d330088030a06826a3033028a0328d226826a3050228a03cc269567800150208c039e307c678001510708330828f001492678014926700149266801956860014926600150208e03852f502290039c2850209203792f826848818756173f08480840019517e08477e07b673050229403842d330096030a06826a303302980328972b826a3050229803912b7b67286f877b67206f977b67186fa77b67109517e08477e07b673064714926380182677b6730018267507b672801956820018267587b672001330750209a03032f826710956a00017ba7188267187ba7108267207ba708330720956800018269287ba950209c03db2e826848818756173f08480840019517e08477e07b674850229e03e62c3300a0030a06826a483302a203288124826a485022a2037b248268307b8a187b89107b8b087b879567e0005020a403812f8267e8008268e0008269f000826af800848800ff868b019518e08488e064817b8a187b89107b87087b8b8267305020a603b92f33078002037b674883773300a8030a038269483302aa0328d5238269485022aa03cf23d4780298aa206f99979820d4a8089899204916784926980082677b6790008267507b6788008267587b6780004926b8004926b0004926a8004926a0003a0a2801023a0b3001023a0c3801023a074001027b6ad8007b6bd0007b6cc8007b67c0007b69707b68689569c000956aa000956b8000956c607b6260330733085020ac03cd30330801018269387b984919084919104919189551c0fd951700028270388275308276289511400232003a074801027b67207b6738023a085001023a095801023a076001025022b003782a5020b203662d5022b40321245020b6035a2d33086c020239076c020256173f0b20036c020240019517e08479e07b6948649133078002025022b803622b3300ba030a063302bc03285e215022bc035b215020be03162d5022c003b7255020c2030a2d826868818756173f0e4808403302c403285e235022c4035b233300c6030a063302c803288c225022c80389225020ca03cb2d7c67a001510711330833078269583302f20328b5235022cc03ac275020ce03b72c5022d0038c235020d203ab2c826868818756173f0e4808403302d40328ff225022d403fc223300d6030a063302d803283c215022d80339215020da03792c5022dc03c6245020de036d2c826868818756173f08480840019517e08477e07b67685022e0038b233300e2030a063302e4032853225022e40350225020e6032b2d5022e8036e225020ea038a2d33078002037b676883773300ec030a038269683302ee0328a6218269685022ee03a021d4780298aa206f99979820d4a808989920492698004926b80082677b67b0008267707b67a8008267787b67a0008267207b67d8008267187b67d0008267107b67c8008267087b67c0003a0a6801023a0b7001023a0c7801023a078001027b6af8007b6bf0007b6ce8007b67e0007b6990007b6888009569e000956ac000956ba000956c80007b628000330733085020f0038d2e33073308018269585022f2035d2232003a078801027b67207b6738023a089001023a099801023a07a001025022f60351285020f8033f2b5022fa03fa215020fc03332b33086c020239076c020256173f0b20036c020240019517e08479e07b6948649133078002025022fe033b29330000040a063302020428371f50220204341f50200404ef2a50220604902350200804e32a826868818756173f0e48084033020a0428372150220a04342133000c040a0633020e0428652050220e04622050201004a42b7c67a0015107113308330782695833023804288e2150221204852550201404902a50221604652150201804842a826868818756173f0e48084033021a0428d82050221a04d52033001c040a0633021e0428151f50221e04121f50202004522a502222049f2250202404462a826868818756173f08480840019517e08477e07b6768502226046421330028040a0633022a04282c2050222a04292050202c04042b50222e04472050203004632b33078002037b67688377330032040a0382696833023404287f1f82696850223404791fd4780298aa206f99979820d4a808989920492698004926b80082677b67b0008267707b67a8008267787b67a0008267207b67d8008267187b67d0008267107b67c8008267087b67c0003a0aa801023a0bb001023a0cb801023a07c001027b6af8007b6bf0007b6ce8007b67e0007b6990007b6888009569e000956ac000956ba000956c80007b6280003307330850203604662c330733080182695850223804362032009511e0fe7b1018017b1510017b160801951520018411f0828b10828a18828c0882827b1a687b1c78d4ac08d4b20ad48a0a98aa207b1b70d4b808978820d4a8087b170852084b028297187b17488296108297087b175082977b17584921f8004921f0004921e8009518e0004921e0002064277b126050203a04c428821858d46807821948821a50d4a909d497079877207b1620d46909979920d497075207f2019517c00050203c045a27821770821868d47808140700000000010000007b17101407e0ffffff00000000821960d87907821a7894a77b181894875107b401821ad800821bd000821cc8008218c0008397207b18287b18a0007b1c307b1ca8007b1b387b1bb0009518a0007b1a407b1ab800649650203e0426288217109577c0d876078218789487821818948751076201821748821820d487071408e0ffffff00000000821a58d88a08821b5094b8947851083e016469821828821c38d4c807821b40821630d46b0bd4b707987720d4cb0b97bb20d4b7075207170183974083aa207b1a58648650204004f22b7b1750821758646850204204e42b64788217506469502044043cac821760c86707d86708821978821b30c8b909c88909d3b90ad8b90bdaa80b821870821a38c8a808d8a80a821c68821640c86c0cc8ca0ac88b0bd88b08c8a808d4b808140ac0ffffff00000000d8a70a949a948a510a9400837740492198004921900049218800951880004921800050204604242782162895661f1407e0ffffff01000000d26707821860c88707d88708821a78c88a09d8a90ada880a821870c88a0ad88a08821b68c8b808957b40d87b07c8790cd89c09da7709c8a909d8a907c887078218087b8b7b8c087b89107b87189551e0fe8210180182151001821608019511200132000033080433004a040a0133024c04287a2250224c047722510a0b50224e04ba233200330880020283883307013309330050040a073302520428f02450225204ed24330824330054040a0133025604283a22502256043722510a0b502258047a23320033088002028388330701330933005a040a0701951160ff7b1098007b1590007b1688009515a0008411e064168289828a08828b108288187b67187b68787b6b707b6a689568607b6960330750205c04fe254916584916504916400633072095684049164850205e04e52539086c020256183f0b20036c020240019517e08479e07b691064913307800202837783993308400a06826a1082a782a80882a91082aa186f776f886f996faa95aa0188ab01c8b909d49a0b88bb01c88b0bd88b08c887079518e08488e064817b89087b8a7b8b107b8718956720502060046526826730826838826920826a28826b187bb7107bb8187bb97bba08955160ff8210980082159000821688009511a0003200951100fd951a00027ba0f8007ba5f0007ba6e800951500038411e06416829a187b6a9800829a107b6a9000829a087b6aa00082997b69a8008289107b6988008289087b69800082887b68788279827808807710140affffffff000000007b6a704926d8027b67407b67d0027b68307b68c8029568c0027b69387b69c002330750206204bd244926b8024926b0024926a002013307209568a0024926a802502064049f2433086c020239076c020256173f0b20036c020240019517e08479e07b696864913307800202837783997b68b0003308407b67b800330066040a06826a6833026804288f1d826a6850226804891d8267788477ff826880008488ff82698800826a70d2a909492698027b69787b6990027b6880007b688802956880027b6788007b678002330750206a041424826748956a00027ba7788267507ba7708267587ba768330720956860028269607ba96050206c04eb238268b000818756173f08480840019517e08477e07b677050226e04b420330070040a06826a703302720428101e826a70502272040a1e95674002502074049e248260580282635002826b480282624002d20b07d23208d287073308ffaa87f7018267a800d872098268a000d38b07d88b0c7b6950da790c82699000d8930a82689800d38007d880087b6a28da7a08d39309d497077b6c48da7c087b62707b6b687b60607b63585208c701826a40826938d4a907826430d447075107860282678800826878d4870782688000d487075107b502492638027b6920027b642802956820027b6a3002330750207604fd2249261802492610024926000201330720956800024926080250207804df228268b000818756173f08480840019517e08477e07b674050227a04a81f33007c040a06826a4033027e0428fc1e826a4050227e04f61e7b67386f877b67306f977b67206fa77b67189517e08477e07b674064714926f8018267787b67f001826780007b67e8019568e001826788007b67e0013307502080046522826718956a00017ba7d8008267207ba7d0008267307ba7c8003307209568c0018269387ba9c0005020820438228268b000818756173f08480840019517e08477e07b67b00050228404001f0a068269b00082976f77829808826c407bc7188297108299186f887bc8106f777bc7086f977bc782679000826858c97807826848c98709d8870782689800826a60c98a08826a28c9a808c978078268a000826a68c98a08826a50c9a80a8268a800826b70c98b0b9518e08488e064817b87187b89107b8a087b8b64c750208604f622955100fd951700028270f8008275f0008276e800951100033200492630014926280149262001140700000000b2418ffb956820017b673801330750208804582149261801826778956a00017ba710826780007ba70833070495680001826988007ba950208a0430218267607b67f8008267587b67f0008267687b67e8003307249568e0008269707b69e00050208c040721826798007b67d800826790007b67d0008267a0007b67c8003307449568c0008269a8007b69c00050208e04da208267b000817756177f158268b0004808800033070133096428c8003307013309648268b800330096040a0728c00049267001492668014926600114070000000005df02e6956860017b67780133075020900486204926580149265001492648013307049568400149264001330094042865204926b0014926a8014926a001140700000000620d28949568a0017b67b801330750209204422049269801492690014926880133070495688001492680015020940425208267b000817756173f138268b00048084033070133092428143307013309248268b800330096040a07280d8268b800330096040a07019511a0fc951a00037ba0587ba5507ba648951560038411e06416807c10827a827b087b6a787b6c68d4ca077b6b70d4b7075107ed03828710828a088288330bff140cffffffff00000000d2ba0ad2b808d2c7077b68487b6738d487077b6a40d4a70751071c048297187b6798008297107b6788008297087b67800082977b67900050209804a81249263803826768956900037b97308267707b9728956820038267787b9720330750209a04421f492618034926100349260803330720956800034926000350209c04251f33096c020239076c020256173f0b20036c020240017b69589517e08479e07b695064913307800202837783993308407b676033009e040a06826a503302a00428ca14826a505022a004c4149567e0025020a204c31f956800028289f8008287f000828ce800828be00082689800d389037b6928d8890882698800d8970a7b6a10da3a08826a8000d3ac027b6c30d8ac0c826a90007b6b50d8ab0a7b6a18da2a0c7b6720d37909d439077b6c08da7c0852086f034926d802826778956900027b97c0008267707b97c8009568c0028267687b97d00033075020a404491e4926b8024926b0024926a8023307209568a0024926a0025020a6042c1e82678800826820c97807826908c997087b6820d8970782689800826928c98908826910c99808c978087b6828826958819782688000826a30c98a08826a18c9a8087b6830330b3f82689000826a50c98a0a7b6a50ac7b07480940019517e08477e07b67185022a804fc143300aa040a06826a183302ac0428d215826a185022ac04cc158269287b89188269207b89108269307b89088269507b895020ae04ea1e49269802826738956900027b9790008267407b978800956880028267487b97800033075020b004631d5022b204501a5020b404571d8268589517e08477e07b67506471818756173f08480840019517e08477e07b67585022b6046a140a06826a5882a71882a81082a90882aa6f776f8b6f996faa8268507b8a187b89107b8b087b87956740025020b804f31d826848028269400282625802826b5002826c8000c88c0c82679000c89707d89709c89c0cd38c0ad88c08daa90882698800c8b909826a9800c8a202d8b90ac82a0a5022ba0489158267505020bc040e1e956720023308405020be04681b956b000282ba3882b83082b92882b7205022c0045a145208bb0082689000956a00027ba8826880007ba808826888007ba81095680002826998007ba9187b6798005020c2045c1c4926b801826738956c00017bc7b0008267407bc7a8008267487bc7a0004926d8018267687bc7d0008267707bc7c8003a07c801023a08d001023a09d80102826a787bcac0007bc7f8007bc8f0007bc9e8003a07e001023308209569e001956ac001956ba0017bc7e000826798005020c404171e9551a0fc95170003827058827550827648951160033200004926d0004926c8004926c0001407000000001efdc6969568c0007b67d80033075020c604ab1b4926b8004926b0004926a8003307049568a0004926a0005020c8048e1b39086c020256183f1120036c0202403308800202286833088002022861492610014926080149260001140700000000052f44ec956800017b67180133075020ca044b1b4926f8004926f0004926e8003307049568e0004926e0005020cc042e1b39086c020256183f1120036c0202403308800202280833088002020183883307013309240a07014926900149268801492680011407000000008cd350e4956880017b67980133075020ce04e11a492678018267687b6770018267707b676801330704956860018269787b6960015020d004bb1a8267287b6758018267207b6750018267307b674801330724956840018269507b6940015020d204921a82679800956a00017ba738826788007ba730826780007ba72833074495682001826990007ba9205020d404651a826758817756177f0c82685848088000013307013309648268603300d6040a0701951160fe7b1098017b1590017b1688019515a0018411e064163a07e801027b67387b6778013a08f001023a09f801023a070002027b68287b6870017b69207b696801956860017b67307b67600133075020d804ef195022da0406135020dc04e31933086c020239076c020256173f0b20036c020240019517e08479e07b696864913307800202837783997b68783308407b67703300de040a063302e004288f125022e0048c1233078002037b676883777b67183300e2040a033302e40428c7105022e404c4105020e60478195022e804e8145020ea046c19826878818756173f0e4808403302ec0428b0175022ec04ad173300ee040a063302f00428a6125022f004a3125020f2042d1a7c67e000510719955160fe8210980182159001821688019511a00132005022f40457145020f60411198267183300f8040a033302fa0428e2105022fa04df105020fc04f5188267387b6798008267287b6790008267207b678800330724956880008269307b6980005020fe04cc18826778817756175f0b82687848086001330701330944826870330000050a0701951160fe7b1098017b1590017b1688019515a0018411e064168279827808827a108277187b67207b6778017b6a287b6a70017b68307b686801956860017b69387b696001330750200205601850220405771150200605541833086c020239076c020256173f0b20036c020240019517e08479e07b696864913307800202837783997b68783308407b6770330008050a0633020a0528001150220a05fd1033078002037b676883777b671833000c050a0333020e0528380f50220e05350f50201005e91750221205591350201405dd17826878818756173f0e48084033021605282116502216051e16330018050a0633021a0528171150221a05141150201c059e187c67e000510719955160fe8210980182159001821688019511a001320050221e05c812502020058217826718330022050a033302240528530f50222405500f5020260566178267207b6798008267287b6790008267307b678800330724956880008269387b698000502028053d17826778817756175f0b8268784808600133070133094482687033002a050a07019511a0fd951a00027ba0587ba5507ba648951560028411e06416829a107b6a50829a087b6a7082997b69788289828a08828b108288187b67587b68087b6838027b6b107b6b30027b6a187b6a2802956820027b69207b692002330750202c05bc1650222e05770d50203005b01633086c020239076c020256173f0b20036c020240019517e08479e07b69486491330780020250223205b814330034050a063302360528b40a50223605b10a502038056c1650223a050d0f50203c056016826868818756173f0e48084033023e0528b40c50223e05b10c330040050a063302420528e20b50224205df0b5020440521177c67a0015107113308330782695833026a05280b0d8267207b6780018267187b6788018267107b679001956880018267087b679801330750204605f11550224805c60c50204a05e515826868818756173f0e48084033024c0528390c50224c05360c33004e050a063302500528760a50225005730a50205205b31550225405000e50205605a715826868818756173f08480840019517e08477e07b676850225805c50c33005a050a0633025c05288d0b50225c058a0b50205e05651650226005a80b50206205c41633078002037b67688377330064050a038269683302660528e00a82696850226605da0ad4780298aa206f99979820d4a808989920492698004926b80082677b67b0008267707b67a8008267787b67a0008267087b67d8008267107b67d0008267187b67c8008267207b67c0003a0a0802023a0b1002023a0c1802023a072002027b6af8007b6bf0007b6ce8007b67e0007b6990007b6888009569e000956ac000956ba000956c80007b6280003307330850206805c717330733080182695850226a05970b32009511a0fd951a00027ba0587ba5507ba648951560028411e06416829a107b6a38829a087b6a7082997b69788289828a08828b108288187b67307b68407b6838027b6b487b6b30027b6a507b6a2802956820027b69587b692002330750206c053f1450226e05fa0a50207005331433086c020239076c020256173f0b20036c020240019517e08479e07b692864913307800202502272053b12330074050a0633027605286009502276055d098267389777209877204926f8017b67387b67f0018267707b67e8019568e0018267787b67e001330750207805c713826708956a00017ba7d8008267107ba7d0008267187ba7c8003307209568c0018269207ba9c00050207a059a13826868818756173f08480840019517e08477e07b672050227c05b80a33007e050a06826a203302800528820a826a20502280057c0a9567a001502082054e147c67a0015107e9018267587b6780018267507b6788018267487b679001956880018267407b6798013307502084052b1350228605000a502088051f13826868818756173f08480840019517e08477e07b672850228a053d0a33008c050a0633028e05285b0850228e055808492658018267387b6750018267707b674801956840018267787b674001330750209005cb12826708956a00017ba7388267107ba7308267187ba728330720956820018269207ba92050209205a212826868818756173f08480840019517e08477e07b676850229405c009330096050a06826a6833029805288a09826a685022980584099567000150209a055613956b000182b70882b91082b882ba18848b00ff9518e08488e064817b8a187b89107b87087b8b82672850209c05921333078002037b6768837733009e050a038269683302a00528ae078269685022a005a807d4780298aa206f99979820d4a808989920492698004926b8008267387b67b0008267707b67a8008267787b67a0008267407b67d8008267487b67d0008267507b67c8008267587b67c0003a0a2802023a0b3002023a0c3802023a074002027b6af8007b6bf0007b6ce8007b67e0007b6990007b6888009569e000956ac000956ba000956c80007b628000330733085020a205941433073308018269303302a40528600833088269305022a40558083200951140fd951900027b90b8007b95b0007b96a8009515c0028411e06416807a108279827b087b69587b6a48d4a9077b6b50d4b707510745038287187b67788287107b67688287087b676082877b67705020a6054c0449269802826748956900027b9790008267507b978800956880028267587b97800033075020a805e3105022aa05d00d5020ac05d71033096c020239076c020256173f0b20036c020240017b69389517e08479e07b693064913307800202837783993308407b67403300ae050a06826a303302b005287c06826a305022b0057606956740025020b205751195680002828958828750828c48828b40826878d389037b6920d88908826968d8970a7b6a08da3a08826a60d3ac027b6c28d8ac0c826a707b6b30d8ab0a7b6a10da2a0c7b6718d37909d439077b6cda7c085208ac0249263802826758956900027b97208267507b9728956820028267487b973033075020b405071049261802492610024926080233072095680002492600025020b605ea0f826768826818c978078269c997087b6818d89707826878826920c98908826908c99808c978087b68208269388197826860826a28c98a08826a10c9a8087b6828826a70826b30c9ab0b7b6b3056173f08480940019517e08477e07b67385022b805ae0d3300ba050a06826a383302bc05289707826a385022bc0591078269207b89188269187b89108269287b89088269307b895020be05af105022c0054c0d4908029567e0015020c2053110826be8018267f8017b67408264e0018262f001826960d39b03d89b0c826870d88400da300c826768c97203c9c30a7b6a38d8c303d87207826c78826a40c9ca0cc97c0cc93c0cc99b07c90709c9840a9517e08477e064714917184917104917084907029518e08488e064817b8c18826b387b8b107b89087b8a5020c4051d109567c0013308405020c605770d956b000182b7d80082b8d00082b9c80082bac0005022c80528095207af008267707b67a0018267607b67a8018267687b67b0019568a0018267787b67b80164a77b6a785020ca05690e4926580149265001492648014926400149267801826748956c00017bc7708267507bc7683a074802023a085002023a09580202826a587bca607bc798007bc890007bc988003a0760020233082095698001956a6001956b40017bc780008267785020cc053110955140fd951700028270b8008275b0008276a8009511c0023200004926b0004926a8004926a0001407000000001efdc6969568a0007b67b80033075020ce05c20d49269800492690004926880033070495688000492680005020d005a50d39086c020256183f0b20036c02024001330880020283883307013309240a07014926300149262801492620011407000000008cd350e4956820017b67380133075020d2055f0d49261801826748956a00017ba7108267507ba708330704956800018269587ba95020d405390d8267207b67f8008267187b67f0008267287b67e8003307249568e0008269307b69e0005020d605100d8267787b67d8008267687b67d0008267607b67c8003307449568c0008269707b69c0005020d805e70c826738817756177f0c82683848088000013307013309648268403300da050a07019511807b10787b1570951580008411e0491158491150491148491140059517209518405020dc05900d7c1720520712955180821078821570951180003200491110491108490114070000000065063cd964187b171833075020de05690c39086c020256181f0b20036c02022001330880020283883307013309043300e0050a07019511f87b1033075020e2054c919511f87b103307015020e4053e919517e08477e07b67b00064713308491718491710491708490783773202826ab00082a71082a81882a90882aad49808d4a707d48707320282970881981082996f77977a206f88988820d48a0a9877206f98978920d497079888209569ff079599393202826a4882a71882a81082a90882aa6f777b67406f877b67386f977b67306fa77b67289517e08477e07b674864718267509777209877204926f8017b677b67f0018267707b67e8019568e0018267787b67e0013307320282970881981082996f77977a206f88988820d48a0a9877206f98978920d497079888203202826a5082a71882a81082a90882aa6f777b67486f877b67406f977b67386fa77b67309517e08477e07b675064714926580182677b6750018267707b674801956840018267787b67400133073202826cb8008263588237823818823908823a10957701887b01c8b909d4970b88bb01c8ab0bd8ab0ac8a808643a7ba77ba9087bab107ba8188268a000958720d88708826aa800c88a09d8a90ada880a8268b000c88a0ad88a08c88c0c647064943202826a2882a71882a81082a90882aa6f777b67206f877b67186f977b67106fa77b67089517e08477e07b67286471320282970881981082996f7a97a7206f889888203202826a5082a71882a81082a90882aa6f776f8b6f996faa8268487b8a187b89107b8b087b879567a001320282a71882a81082a90882aa6f776f8b6f996faa320282a71882a81082a90882aa6f776f8b6f996faa9518e08488e064817b8a187b89107b8b087b873202826a6882a71882a81082a90882aa6f776f8b6f996faa8268507b8a187b89107b8b087b87956700013202956b000182b70882b882b91082ba18848800ff868b019518e08488e064817b8a187b89107b87087b8b82675032029517e08477e07b6750647183793308408267603202826b180188b98000826ad000db9a08826cd800826ae800d4ca0ada970a93b8ff93baff826be000939b939c8267f000e0a7078269f800e0890982680001e0c80a3202492618024926100249260002063307209568000249260802320249267801492670014926600106330720956860014926680132027b987b97087b97107b97189551a0fd9517000282705882755082764895116002320282a71882a81082a90882aa6f776f8b6f996faa8268287b8a187b89107b8b087b87320264718379330840826760320282696882970881981082996f77977a206f88988820d48a0a9877206f98978920d49707988820492638017b6830017b672801956820017b6a200133073202826c1001d3c80bd8c808daba0882690801d8930a826c0001d3c40bd8c40cdaba0c7b7310d39309d4b909da980c7b74183202d49b0bd48709d4b909989920d4b808978820d498083202d49a0ad48709d4a909989920d4a808978820d49808320282696882970881981082996f77977a206f88988820d48a0a9877206f98978920d497079888204926b8007b68b0007b67a8003307049568a0007b6aa000320282a71882a81082a90882aa6f7b6f886f996faa9517e08477e064717b7a187b79107b78087b7b9518e08488e064813202826730956a00017ba7388267387ba7308267407ba728330720956820018269487ba92032028260a0008264a8008263b000826878c80807d88708826b70c84b09c88909d3b90cd8b90bdac80b826c68c83c083202826728956a00017ba7d8008267307ba7d0008267387ba7c8003307209568c0018269407ba9c0003202c8890bd89b08c88a0a9518e08488e064817b8b107b8c087b877b8a183202826a6882a71882a81082a90882aa6f777b67586f877b67506f977b67486fa77b67409517e08477e07b676064713202492658014926500149264001063307209568400149264801320282a71882a81082a90882aa6f777b67606f877b67586f977b67506fa77b67489517e08477e07b676864713202826a5882a71882a81082a90882aa6f776f8b6f996faa8268607b8a187b89107b8b087b879567e000320282c782c80882c910957701887a01c8a80882ca18d4870b88bb01c89b0bd89b09c8a9097bc77bc8087bcb107bc918320282697882970881981082996f77977a206f88988820d4a8089877206f99979a20d4a7079899203202977b3f988c01d4bc0397ac3f987701d4c70797883f989c01d4c80898aa018499019a9c3202939b939c8268f800e0a808956a000182a9e0790782a908e0c90c82a910e0b90b32029517e08477e064714917184917104917084907059518e08488e064817b8b187b8a107b89087b8c320282a71882a81082a90882aa6f776f8b6f996faa8268687b8a187b89107b8b087b8732029518e08488e064814918184918104918083307027b873202d49707d48a09d47909989920d48707977720d497073202492650014926480149264001140700000000717b484e956840017b67580133073202c89c0cd89c0ad84909c89307c8a707d4c809d4b707d47909989920d4c707977720d4970732028267207b6798018267187b6790018267107b678801956880018267087b67800133073202d47909826ae000d48a0a8267e800d47b0b8267f000d47c0c9517e08477e06471330849171849171049170832024926d0004926c8004926c0001407000000003f7d51e29568c0007b67d800330732028eb9858801dbb9088e498ecadac90ada780a3202826740956a00017ba7188267487ba7108267507ba708330720956800018269587ba93202826740826838d487071408e0ffffff00000000826a50d88a088269489498947832028268a00082877b67b8008287087b67b0008287107b67a8008287187b67a000320282171082181814090000000001000000d37909d48909987a2088aa01948a939a32028268800082877b6798008287087b6790008287107b6788008287187b678000320249263801492630014926200141330704956820014926280132029517e08477e07b67a00064718377330804320282a71882a81082a90882aa6f7732029518e08488e064814918184918104918084908059567ff0732028267b0008268a000d487078268b800648b8269a800d49808d47808988820d49707977720d48707320282c7a00082c8980082c9900082cb8800d49707d48b09d47909989920d48707977720d497073202c88b0bd88b08c8c808d49808d4b709d48909d4b808989920978820d498083202647183793308408267b8003202492678024926700249266802330720956860024926600232027b68187b6830027b69107b692802956820027b67087b672002330732028219821a087b697b6a087b67107b68189551c082103882153082162895114032027b67d8007b68e0008267d000d487077b67d000826718019579803307ff3308ff320297773b9878387b6818019a8980003307ff3308ff3202c89407c8b707d4c809d4a707d47909989920d4c707977720d4970732029518e08488e064817b8b187b8a107b89087b878267080132029518e08488e064817b8b187b8a107b89087b878267100132029518e08488e064814918184918104918083307047b8732029518e08488e064814918184918104918083307037b8732029518e08488e06481491818491810491808320297a8037b6818018d8980003307ff3308ff3202647183793308408267403202837783997b68683308407b676032029517e08477e064714917184917104917083309027b7932029517e08477e07b67586471837933084082677032029517e08479e07b690001649132029511c07b10387b15307b16289515408411e06476831732028411e064168289107b69508289087b697082887b68787b6758320239087002025108ba9d3307a0020383770a0828ad9d9511f07b10087b156489647533082064975020e60569057c78017c797c7a027c7b03978808d4980897aa1097bb18d4ba0ad4a8087c79057c7a047c7b067c7c07979908d4a90997bb1097cc18d4cb0bd4b909979920d489027c79097c7a087c7b0a7c7c0b979908d4a90997bb1097cc18d4cb0bd4b9097c7a0d7c7b0c7c7c0e7c780f97aa08d4ba0a97cc10978818d4c808d4a808978820d498037c78117c7a107c7b127c7c13978808d4a80897bb1097cc18d4cb0bd4b8087c7a157c7b147c7c167c791797aa08d4ba0a97cc10979918d4c909d4a909979920d4890a7c78197c79187c7b1a7c7c1b978808d4980897bb1097cc18d4cb0bd4b8087c791d7c7b1c7c7c1e7c771f979908d4b90997cc10977718d4c707d49707977720d487076f776fa86f396f2a7b5a187b59107b58087b57821008821595111032009511d87b10207b15187b161082897b19088289087b198285108286183308205020e80520046f686f59821a6faa821b086fbb787b18787a10787908787898bc38787c1f98bc30787c1e98bc28787c1d98bc20787c1c98bc18787c1b98bc10787c1a98bb08787b1998ab38787b1798ab30787b1698ab28787b1598ab20787b1498ab18787b1398ab10787b1298aa08787a11989a38787a0f989a30787a0e989a28787a0d989a20787a0c989a18787a0b989a10787a0a98990878790998893878790798893078790698892878790598892078790498891878790398891078790298880878780182102082151882161095112832009511a07b10587b15507b16489515608411e06476828718828910828a0882886f776f996faa6f887b18387b1a307b19287b1720831820831933070a05821718821810821908821a6f776f886f996faa7b6a187b69107b68087b679551a082105882155082164895116032009511a07b10587b15509515608411e08272827a08827b108277188283828908828c108288186f746fbb6faa6f276f826fcc6f996f387b17387b1a307b1b287b14207b18187b19107b1c087b12831820831933070a099551a082105882155095116032009511a07b10587b15507b16489515608411e0829a7b1a18829a087b1a10829a107b1a088299187b193306205020ea05530282186f888219086f99821a106faa821b186fbb7b1b387b1a307b19287b18208379836a8317203308010a049551a08210588215508216489511603200951120ff7b10d8007b15d0007b16c8009515e0008411e082bc7b1c4082bc087b1c4882bc107b1c5082bb187b1b5882ab7b1b1882ab087b1b2082ab107b1b2882aa187b1a308296829a087b1a829a107b1a088299187b1910491138205020ec05b5016f687b187882186f887b18708218086f887b18688218106f887b18608218186f887b1898008218206f887b1890008218286f887b1888008218306f887b1880008218406f887b18b8008218486f887b18b0008218506f887b18a8008218586f887b18a0008379811a388317603308030a04955120ff8210d8008215d0008216c8009511e00032009511e0fe7b1018017b1510017b160801951520018411e082c67b166082c6087b166882c6107b167082cc187b1c7882bc7b1c3882bc087b1c4082bc107b1c4882bb187b1b5082ab7b1b1882ab087b1b2082ab107b1b2882aa187b1a308296829a087b1a829a107b1a088299187b19104911585020ee05b6006f687b18980082186f887b1890008218086f887b1888008218106f887b1880008218186f887b18b8008218206f887b18b0008218286f887b18a8008218306f887b18a0008218386f887b18d8008218406f887b18d0008218486f887b18c8008218506f887b18c0008218606f887b18f8008218686f887b18f0008218706f887b18e8008218786f887b18e0008379811a58831780003308040a049551e0fe821018018215100182160801951120013200838951092b8b7910520931c8780883881f8488e056380000012533096c0202390a6c0202ae8a093d086c02020133088002028377c88707320000849a40520a195109148d9a40d0a70acf9707cf9808d4a808320032009598c0cf870833073200849a40520a195109148d9a40cfa80ad09808d09707d4a707320032009597c0d078073308320049922425494b2a252da9944c4949496948242222222245449088484444448a88882091881011111111d188888888244988888888101111218908454724224444229188101121222292244912118988880811910012952442444484881011219294244992884844444488880490a8241111404442448888a8448924224924448824094992a45212928888888888500891908450294924499224922415459524491249248924499244924492249124515295244992482449922489249262898424252944499224498a44129148922449922489482222221492288524aa14a2aaa814494a941a91449288442211898888484a9224241121222284089124929444224992482251559244444492249124494412499248880811111111911022920821844808c924499224254952929288842449121111113191488410912421221291244444229224424292921422424444258a4844242242848888084992a452844844444444442884484842a8144924894492489254145592248948224924499224922492442492244aaa9224922412499224492289a458222149490a519224499222118948442222221492288524aa9428aa2a519124a254a26844128948221189482422922421224492841021924812492492481249a4aa1291482222221189442491240922824824128908828824822008224110234922492449529224252912092222229148242689249124124110114982884844922022129124114490a42405218a282211444444041145248288888888481291882212414412918848129168a4249194241144041144444452922449924892248924499224258220a2884410111151101189089228444224085189221241242982888824499224912488201244444410894422222288282211242589888810428848922422228248101111410ca5501645822008420421211111018c2888088908420421211111018c2888088908420421211111018c28880889084204212111114044414424220811848444440011052182a1a41111018c28880889084204a1b0a4918a89824a881049a28a4602090824209080804002020924904002020908248822411245820822111109229124411245444444248822411225898848241289445094241249225210890825228210229844a12211452482284a49a24822111111115190484422a24444045164129588221241242922884444248844444490441111111109a2489044914810114982242222221244912089920410119188888888884424128988448a88828808252208218249142a1251442288524a124522118988888882444422512222882293a84414910822491144444444444482882089482412114524882241124522414444044944448848104582248a44828848122421124248221109a24890449148108944224104111149124992444a9244a288144992244992242511914824224124411291444444440455ca24499224499224499224959424499224499244442222228244922489888888888820222249922411111109a2489044492222128948444412952291481421918810422211912888448412114108114c52284a44892408295122092292881424124992129108a2c824419448828820124992882449104404918888488a449224912492244992242509824824222222a220121125228224459149045144224892228248444444224992482409124424884424099288442211910822918888888808218448924444444404458504512448a24824884892240922888888244992245292442251448a244992244992928888888888082209928844922422822aca2449922449922449922495942449922449924449128988082225229188442245442488884892241149249324492291244992245104455182281224512408228844241111411091201211111111a228124404111111052144224488121111844a104582248a0411442291282241444404111111111151440209a24890444922221289888888882888444489882044308942258a4804114124222222222212442288884422111145248822411245822048441089248904414482482412894488a24810114424112908211221429488882054aa4241140992289244a528494444441011111111092222228888442211292241140992284944242291482492a8449120a42812444444444444444444449288882012444444041111222212449120a24444242222222222128944224954a24810529448828888888888482412454444041111111189442211111111111141248824092222224424882241442112444444041122420811111109a2481051222212111111499444a54852242944d148492292884422a28844101111051121114108114c52a8484489244829254911111111058924492209a2c8242a5124a92a498a201244928288924444440411452482a424111111112184101111918888082241244910232242415255082194a42449922449928c449248244992441111419048124424494924084a44448482a4aa1042284949922449922419892491489224892222822091248888888888882028a12494849250124a4249280925a12494849250124a4249444400230a22422282104148482809251111404414244a244144928804894492a444248228224994244a24220a20220a2211512222128988028888824844281111441149a2926828092591882880882888448412114188202424948492920022220521825058d250124a0282281244280925a12494849250124a4249280925a12494849250124a222280888288484410220809898800220a22221141882024240882204410128a444411c08882484428111184084261492322420489a01495a281208a04114a02411409229444114a02822812442889422809a2481011894824128948245244441091244544441011111111111111514444042101411409229444219424516924254912a1244a849280288492288492208a041191888888888888888888202222222282888888888848241211511012409204902489888808420884488844442492482412216aa494929424924412492451294a12111111111111291191482422080904512488500a65858404512408511491082222222222222222220889940490480a4204212151124a8544442412111111114954a24810521409221111894422222222228a8888880822128944229148a4888888202422229224a9448288a4244992249148922449925452922449924412099224491111519208605290449220443094442392444a92928888288808890842886092422589224192281291284844229148042932491025922082488988882008526492204a24414a29498a221189824492249182149924881249902445101111494a528290a244122425491489444444082144442411915490294944922824420841100421443049218822411004291209a24810442a912008821489045124088220452609a24810044148512209929244148944229148841042444444444454501214122184200882102298a41044912008821489045124082295481004418a448228120441902293045124088220a42891044949228a442291482442082122222222222a28098a888824294992244924494a44442841922449928820490009204929222292482422519024a5481240928a92244992449282a4a014244992244992244912402a121111411240922449922449922425898888268a04090aa52812248a04090aa5684444a49224495290449220443049a1524a52952449929492044992a4444444111111299148148944290920914844a220222422082182490a15892891044924924844444441224992488228324910259220828888248948244924922449922492241149242222a22022242288229304512209524a4952242222a2201189442211449149044525494aa94892449224922492a4241544444414110144144422914414241289442288888848440451442449224a44041051101189884444001105119188208a48521251118d4812292549124909204992241289441144224924051191882084082649a19228910411444444248924912492244912918844240a222211412449124992a4489224922493045122099224494124221189822048928a4c12942455254911444444224992482409124482489220228a442212412422918844228490888890888808229244232280888288484410220885222280888288484410220885258d8800220a22914824824422914804118944129120456292684444a4900821241291280882102298a45049a2481052a2481004418a448228120491888828081245822091482412418a6492684444a4922412894814044108114c52a8245124082951240882204522411409824844441404892241904824128920453249342249a4242925492291884441108410c12485208a044110a4482488224110a944128944240a82204522411409822048914982281204411052944882a4241145229148241221841011111111111594044524899424a52449241291280882102298a4104491204924129128484422914804293249102592208288442211898220489149822812442211898244922491042932491025922082484a24252941485122099292442412894422910821848888888888a8a0245282222222524a9224922429412422118982200821824952a8244a24410491244992244992244952221249222988884404494a922449529224491299248812499024490a824410918824499224499224494a92a424298804111111442291884409222222912484904444484444828888884644001105119188204430943422028828884492440a12894422112412894422489198249a249224922049122505500a420443493415a4044954922a9294a4a4529292444a924a29254949a24844a2924a494a5292544a29498a2211898a94244992a4924412492249952495524a924a2aa524a92a498a92545592aa9292549254952445919248529252924a8a88442449542412292224a28890884a1291244a525592542525a994a424111151912412499224254992922449492a2529494424a22455252529a9449224911411499224494a44229148942429292549a59492a42242224a5229a524a924a92a498a4a922449529292544a5292922449925445a2244949499294a4925495249594249524498a8800222a499224494a241291a8442291a4921411014454492525922489549200925451241289920092a48a229148141112511295925449491245248a24498a884892242549922455a2884844894424aa94244952442422494944529224494a4a529494a42829492a29492a29498948aaa44a52529254924a4aa29224a9529294142254922a05294992244992244992244992244992244992244992244992244992244992244992aa24a59424252509aa529292244992244992244992244992244992244992244992a424494a525592a44a525592922425494a5292aaaa244952aa2429499292242941a59492a49292244544444a9224254992529244502a29292952a4489122458a14252922228a88889424494a9224254992529224282a52a4489122458a142952a4489122458a122922222a4992208484a1344992a4924a9224a9a40000",
          "opcodes": ""
        },
        "methodIdentifiers": {
          "DEFAULT_ADMIN_ROLE()": "a217fddf",
          "MINTER_ROLE()": "d5391393",
          "PAUSER_ROLE()": "e63ab1e9",
          "allowance(address,address)": "dd62ed3e",
          "approve(address,uint256)": "095ea7b3",
          "balanceOf(address)": "70a08231",
          "burn(uint256)": "42966c68",
          "burnFrom(address,uint256)": "79cc6790",
          "decimals()": "313ce567",
          "getRoleAdmin(bytes32)": "248a9ca3",
          "grantRole(bytes32,address)": "2f2ff15d",
          "hasRole(bytes32,address)": "91d14854",
          "mint(address,uint256)": "40c10f19",
          "mintTest()": "66675aa9",
          "name()": "06fdde03",
          "pause()": "8456cb59",
          "paused()": "5c975abb",
          "renounceRole(bytes32,address)": "36568abe",
          "revokeRole(bytes32,address)": "d547741f",
          "supportsInterface(bytes4)": "01ffc9a7",
          "symbol()": "95d89b41",
          "totalSupply()": "18160ddd",
          "transfer(address,uint256)": "a9059cbb",
          "transferFrom(address,address,uint256)": "23b872dd",
          "unpause()": "3f4ba83a"
        }
      },
      "hash": "9400fba4a8d2ea0426e6a192f6114da825e157a67981eebd9906e7fccf4166b9",
      "factoryDependenciesUnlinked": [],
      "factoryDependencies": {},
      "missingLibraries": [],
      "objectFormat": "PVM"
    }
  }
}