{
  "_format": "hh-sol-artifact-1",
  "contractName": "Lock",
  "sourceName": "contracts/Lock.sol",
  "abi": [
    {
      "inputs": [
        {
          "internalType": "uint256",
          "name": "_unlockTime",
          "type": "uint256"
        }
      ],
      "stateMutability": "payable",
      "type": "constructor"
    },
    {
      "anonymous": false,
      "inputs": [
        {
          "indexed": false,
          "internalType": "uint256",
          "name": "amount",
          "type": "uint256"
        },
        {
          "indexed": false,
          "internalType": "uint256",
          "name": "when",
          "type": "uint256"
        }
      ],
      "name": "Withdrawal",
      "type": "event"
    },
    {
      "inputs": [],
      "name": "owner",
      "outputs": [
        {
          "internalType": "address payable",
          "name": "",
          "type": "address"
        }
      ],
      "stateMutability": "view",
      "type": "function"
    },
    {
      "inputs": [],
      "name": "unlockTime",
      "outputs": [
        {
          "internalType": "uint256",
          "name": "",
          "type": "uint256"
        }
      ],
      "stateMutability": "view",
      "type": "function"
    },
    {
      "inputs": [],
      "name": "withdrawTest",
      "outputs": [],
      "stateMutability": "payable",
      "type": "function"
    }
  ],
  "bytecode": "0x608060405260405161035c38038061035c833981810160405281019061002591906100f0565b804210610067576040517f08c379a000000000000000000000000000000000000000000000000000000000815260040161005e906101a0565b60405180910390fd5b8060008190555033600160006101000a81548173ffffffffffffffffffffffffffffffffffffffff021916908373ffffffffffffffffffffffffffffffffffffffff160217905550506101c0565b600080fd5b6000819050919050565b6100cd816100ba565b81146100d857600080fd5b50565b6000815190506100ea816100c4565b92915050565b600060208284031215610106576101056100b5565b5b6000610114848285016100db565b91505092915050565b600082825260208201905092915050565b7f556e6c6f636b2074696d652073686f756c6420626520696e207468652066757460008201527f7572650000000000000000000000000000000000000000000000000000000000602082015250565b600061018a60238361011d565b91506101958261012e565b604082019050919050565b600060208201905081810360008301526101b98161017d565b9050919050565b61018d806101cf6000396000f3fe6080604052600436106100345760003560e01c8063251c1aa3146100395780638da5cb5b14610064578063ead0c0191461008f575b600080fd5b34801561004557600080fd5b5061004e610099565b60405161005b91906100e0565b60405180910390f35b34801561007057600080fd5b5061007961009f565b604051610086919061013c565b60405180910390f35b6100976100c5565b005b60005481565b600160009054906101000a900473ffffffffffffffffffffffffffffffffffffffff1681565b565b6000819050919050565b6100da816100c7565b82525050565b60006020820190506100f560008301846100d1565b92915050565b600073ffffffffffffffffffffffffffffffffffffffff82169050919050565b6000610126826100fb565b9050919050565b6101368161011b565b82525050565b6000602082019050610151600083018461012d565b9291505056fea2646970667358221220d8acb7e7750f7c7947012ad671ee242f3e5d00426de57ac876c4052a0655132f64736f6c634300081c0033",
  "linkReferences": {},
  "deployedLinkReferences": {}
}